:100000000C94D3300C94FB300C94FB300C94FB30EC
:100010000C94FB300C94FB300C94FB300C94FB30B4
:100020000C94FB300C94FB300C94FB300C94FB30A4
:100030000C94FB300C94FB300C94FB300C94FB3094
:100040000C94FB300C94FB300C94FB300C94FB3084
:100050000C94FB300C94FB300C94FB300C9464310A
:100060000C94FB300C94FB300C94FB300C94FB3064
:100070000C94FB300C94FB300C94FB300C94FB3054
:100080000C94FB300C94FB300C94FB300C94FB3044
:100090000C94FB300C94FB300C94FB300C94FB3034
:1000A0000C94FB300C94FB300C94FB30D5F08D1489
:1000B000A1C881CFD9F1AF2000FFFFFFFFFFFFFFF5
:1000C000FFFF00403F7EFCF8F1E3C78F3F2C20A0EC
:1000D00037E066E08140E0720DF5017E0FAD01076B
:1000E000BC0100CC71BF7FFFFEF9E3C79F3F3460C6
:1000F00015212168117889A7C5E3021F1780120E08
:1001000002C08051D0119052D0223C78E2E4C98FD5
:10011000BF6FFF57A0A015C1E01B60E01AD001A976
:10012000F1010399A1B01800C072A002A5E86C907B
:100130001B0036B06C10008400C2D3065A760B1830
:1001400003F9F3C7CD9B8F3F7FFF5AA08027A0B351
:100150008002055E0DA801039A011AA023F0022B6C
:10016000A062D8097C01628084500F1B0E1C0930EC
:10017000E01A022F3620F30082F1E7CF9D933F3F34
:100180005EBE4EA0D068089B2158A018465080182B
:1001900080027F80C30312FA0418051BB5062E07E0
:1001A000ECC230F980B1130F3CBC7777EECE9DB135
:1001B000E7CF8F1F64A0F01C0238004F24300701E6
:1001C00006910D1A2217F202C821900207F4D22BD1
:1001D0008033C01AC415925D086BF0054EE018809C
:1001E000037844303A90154F3367DE9C99334B06C1
:1001F0000E75A08025A0A2A0040239D071E2A0044F
:100200002ED0024AE0C493B4B0A53697E0358042C0
:10021000D04A49100B38D02806E151E004B7B001AC
:1002200048E041B0022EF00739B01A122106BB3760
:100230004FDEBCB963438679A080116DE60E0605DA
:100240002827029F011F00B0613610700045362636
:10025000A3904D0A3E0C8C32370C016B300419C050
:10026000051B071E8680810729082D5940A1A01370
:10027000D0032AF01A0F99932F4F9EF8F363C76AA1
:10028000A0B0134682901A011F011C04190CF53806
:10029000C4430F18093B039D362690D508054980B5
:1002A000B180015CA0E1D031023E8033C0032C90CC
:1002B0001AA0018A3143FFFBFF7FFFFFFF7FFF1082
:1002C000A0B01474900628A367D997AF4F9E3C72D4
:1002D00064D877A0F05E510E8F013C9052C0016B44
:1002E000700E022D043B0A34B0638190B60A1F6081
:1002F0000BBC34C0528011F055243C63B075410EE4
:10030000013E7011011A32E0013920F1204D410403
:10031000C3A70F9F3E7972ECD890A0804C05A6B081
:10032000180A256B901238C051A905A10418660857
:1003300045083C73204AFC8027364E20038A312032
:1003400005D9819051C041C031E011E02C0122C398
:100350007C25101D0402061FC002580F3BA0012A75
:10036000A0E248DBAFDFBF3E7DFEEED94BA0F02C14
:10037000041583D002E03038F0E107065750A0049E
:10038000A353045C021B04A8137B4C230014051820
:100390000EE8110583275FBF3F7FFFEFDD66A0D02A
:1003A0003F0350B016C013F0B15087080401838892
:1003B000230A1BD988788988092F073A05165084A3
:1003C00023204148685A41AC03E3F3800228A0226D
:1003D0003352972F5FBF3E78F1E2C980A0F03750CB
:1003E0000C073E0D5B80022D104828C2D0B3234776
:1003F00010054A0143C019028DA2001F051A604072
:100400007C021FB8061DA8061B8F8800C06162B061
:10041000016538B0011A07027910614113FFFF5FCF
:10042000BFBEFCF3E3CF45A0802317C10007D4056E
:10043000B852AB80A27EA001041B66051CB0011C53
:100440000A1BD0021A03022E314303D3871F1F3E1B
:100450003C78E2CC74A0902B10A0034330A006346B
:10046000C0014D80061B97F0742E23481867CA1DE3
:10047000A052A019079891E018058814600C4F103D
:100480005507035F80413CB001181307018C3142CE
:10049000FBF78FFFBEFDFFFFFF28A0801A15021B90
:1004A000F6001A83843289260422801A53B062F738
:1004B000F7EFDF3E3D7EFCFC52A0E03A13243720EC
:1004C000E0069220A01502656470500600190561CF
:1004D00060B133743244E31D41780B2D0B4C0B4E4D
:1004E000CCC011FB878F1F7E7DF2F4E96DA0B02B8D
:1004F000250388F109032D030673721F0361455E0E
:1005000001756BB02162D083502D13033E00A0B261
:10051000804B01822A23D03741D3A0062CD0044936
:100520004C89092A02D3A71F9F3E79F2E4C980A013
:10053000804B0179071B0B78101806051CB20518B3
:1005400060A4031920A7070278BB0832F027100522
:100550006803DB419042C0B36A21144837B27EF091
:100560000481A00268D0021D0303026220A031B200
:10057000FFFFFFFFFFFFFFFFFF0040C7AF5FBFFFB1
:1005800079FBF7CF5CA0801322E5801A01367C202E
:1005900003717CBEB94C3C4D4C0CADA1A011C08781
:1005A00020E2033F2882880C365B607E15162D0002
:1005B00074056053D7AF5FBF3E7DF1E2C976A0F00E
:1005C00023C0D1260201034A095C80022E2B7387C7
:1005D00032BA01298581079881F01805990181684F
:1005E000B6031FD5051BAB8C0E1B55066104524E7E
:1005F0005064000A19B011E0E362F7EF7FFFFEFFDD
:10060000FDFFEF30A047258278F2081809658003C6
:100610009069C14390414435F04157A022D3B77F40
:10062000FFFE7DF1E3CD63A080828004023AB00139
:10063000298072564C4C6B49801E052A1A021804F8
:100640001DE1D80C6C20A808031F011E60B7041C14
:10065000B0041F9240B70013F4018F3F7FBE3E7974
:10066000E2C68D8BA0801A02580E2A92C021041A6D
:100670005030E021114115C022C0347A978898E0AB
:100680001C09D871A01D063BCAEE09643B730B2BF5
:100690009A516B0CA01070007C09024990219003C4
:1006A0002ED003283090011C0F2E04036FDE3C78FF
:1006B0007AC2840998A0E08D41A01575443B11B021
:1006C0009129104719489BA836972093023E023E75
:1006D000037C047B067B047C04DC41D01D016A069C
:1006E000BB011BD019220918044B0B3A7E021B5385
:1006F0000F11610B50E4B326109C0D1B12F1A002E8
:10070000021987CF1C39F2E44D8890A3A0A01805E8
:1007100001E1300CA550FDD0A4E0180A8DC1C0182D
:100720000CABE1A01C0E39011B072E4021D08150DB
:100730000B1AE0020002E12A04D340A104A210C473
:10074000038380858093E0A2F052801B01BC31C0FE
:100750002F0619082C041B3F30600F1A4B0D031F86
:1007600097BC7BF66D6998309AA0A01DF60891E0C1
:10077000A1BEC0B1BEC0B1BD30700AA6600A063AC3
:1007800060A007057C5070E60A031F1AA4100A60D7
:10079000DC60AD8E0E045D20E0D5595CB802015ED0
:1007A00020B0730CA30CE0061AC5310841C001A0AB
:1007B0007102F2A0B2B0629FBFBE79F7276FD87501
:1007C0007EA0F01C8507196909B7B44AB8B4031CA8
:1007D000F4E2C3C440B0012EA001730C1B0A901FA9
:1007E0003F22C909B6401C75A06199052FC053D09E
:1007F0003180128D5007E4E3520A9350012041D01A
:10080000519F3FBE7DF265EEDCB77EA0729DA2AA2D
:10081000B115B4011C0AF200000FE2900100620859
:100820007020076040136228F136C30A190A4E0B84
:100830004346300D4900000000000010CEE096A0B5
:10084000C1600D05020407034517DEFFFFFFFFFF30
:10085000FFFFFFFF0040DFDFFF7FFFB5EFDFB74A9D
:10086000A090453000800270D2730056A9021C3A55
:10087000A80AA65435D420C7031C0902E350190165
:100880001125172006179F3FFFFDBB376EFEB75C93
:10089000A0A01F047210D90AA0CBCE05717F032F30
:1008A0008035553220071A071809D5200EE2200E90
:1008B000818044E064BE7001E267A130CDA0111FC9
:1008C000DFFEFD7B67EEDCAF74A0C0217210100D5F
:1008D00064336AC0D2800207031E10F04299C54AF1
:1008E0008451041D021D051A674C4C4C0DCA0100B1
:1008F0002B041A092B70B001A36050B00204131A24
:10090000301080619FBFFEF9776DE8D8BD68A0B058
:10091000190C2910AE96C504A6E0A2C00203060475
:1009200002C170ED1000F9A18D3530017E042E0159
:100930003AD295696A05F831B0535019F5A84008C4
:10094000840C2D1FDFFC7B3767ECF07583A0801FC4
:10095000013AB70912CFC857D3E7011B063A073847
:100960007080D3C1E3B0F2550600281B83E2F9F191
:10097000FA1701D04002AB317B8880858095B02189
:1009800080E1602204000097558001036451410F0B
:100990003FFFBCFBFF6ECCDD2360A08014BA20A714
:1009A0005EA021801B0A3BC627021AED0FE400005F
:1009B00046060020E01AD1057A067A0679095160C8
:1009C0000871F0310602A11000C310CFFFFDFF3FF8
:1009D0007EFCF3FB42A0901D9108194A9B2A2D1E14
:1009E000F0118084F003023CD0011BA0110DE5D171
:1009F000400BA670024955BFFFFF7FFFFFFBBFF70B
:100A000021A0080000C031663423175300272704B3
:100A1000BBD102FFFFFFFFFFFFFFFFFD00C0BFDFF5
:100A2000BDFFBFFEFFFFEF24A080456BF3A2C8B25D
:100A3000D5F30080E29021D01CB32A7FFFFFFF7F17
:100A40007CE8BFFB48A0802459B35AC4D5011E04DA
:100A50003C033E031B080018051DE1C671903619C2
:100A6000A031A061A071700B02160FCF9C7BFFEC30
:100A7000D8DBF385A00080022880022880520190F4
:100A8000013CEF0B49200F0341D14002F0700F1AD7
:100A9000DEB90F1A0D1D0E1E0D1E54B317018A313B
:100AA00020027DC1B6C4053A072F0B18823065823B
:100AB00003F4200E181BD1088FFFDCB9376CC8F87F
:100AC0002594A0A017E082ADF0B1DB8ED690F103A3
:100AD00006388003560D2F0DE1C001A360B0023F20
:100AE000F00176330F1D4F02871D3EB033300A18D8
:100AF000081A06180528D2015DB4C5C4C402E8115D
:100B00008063DC1891F6061920E0818027C7FFFF7B
:100B10007F3F65C8D8B98CA05D9091700BD3400E13
:100B2000E0308F530F1A2FC0012D80033ED0011AE1
:100B30000219A00197331007320202321F031CE092
:100B4000013AA3053915F7B26AB8A2C8A6B3021FC5
:100B5000026D032E91D146C71DF8D012A91603CFFE
:100B6000DE3DF366E81830BCA080357AB7C4C4D047
:100B700091A025C03152B0F48004610B5A00022EBE
:100B8000F0045AE0041C021DD0041C03046B500442
:100B90001FB0032B022EF00139021B700000C011A0
:100BA0008852E03100D2014FB3581D20B01B8001A4
:100BB0007D02042A20042B7306003E26126385C69C
:100BC00085014F0560B0F383CFDF3F7BE4C9032489
:100BD00088A0B04E0344A0741059DB3E09001B0AE4
:100BE0001C0ED404D309E45097B0A10304001A21C9
:100BF000B003181070B0031C1010B0D2DE80D3CE3A
:100C00005006B0CD0FA1BE43AF500CE31008DF1467
:100C1000B02402140328070E1C3870E0C1C38F559E
:100C2000A090E822D018091C0C79320D0610054E50
:100C3000367030F0014BD001001CC04180011C0F08
:100C40001D23057B0ECBC1C0180D8B01FF7FFFFC60
:100C5000F9F3E7FFFF25A0803BD1094B4A37041B7E
:100C600043F00204385D092DE6067F7EFCF8F3E7C9
:100C7000CF870736A0F0327BDE10100D76B0010270
:100C80001ED00219A003043AA00169B0029A51F4DF
:100C9000FFFFFFFFFFFFEFC78700C0E7CFFFFFFFAA
:100CA000FFFFFFFF19A0620FB3700819061908D6DD
:100CB000003005E7CF1F3FFEFFFFFFFF30C0F03AD7
:100CC000684BBD9E000870100762200671100880F6
:100CD00000F8EADABC9EFFCF1F3F7EFCF8FFFF3131
:100CE000E0906B9ADD5F100932300838083808143C
:100CF000200B3100FCD7CE9B4005FFFFFF3F7EFC61
:100D0000F8F1FF31E0D0390AD1D6FF03C11001A3B9
:100D1000E0A2F0828093E0A22003E0BC2203FFFF68
:100D2000FFFFFFFEF7FFFF0AE03203592E2EFFFF01
:100D3000FF7F7EFCF2F1FF3680B06710E9BCAE0F9A
:100D400090BEBDDCDBDBEAEA0AB5400CE3200F0114
:100D5000F0300D86FFFF1F3F7EFDF8F3FF38E0F017
:100D60005750B9CC8F00073350031670023E033C36
:100D7000C5C2A7948A573F2B100821FFDF1FFFFF32
:100D8000FCFDFFFF24C0B05589CEEBF908612005BA
:100D90004440021FE1D2B385FFDF3FFFFCFEFFFFAF
:100DA000FF22E0904640000C67D01190E1300CC467
:100DB000300E6951FFFF9FBF7DF8F8FFFF34A0C0E0
:100DC0001F0AD330FF20BDDDE9FBF80A70AF4FAB3F
:100DD000600AB6400D38C36919FFFF1F3FFFFBF1E2
:100DE000FFFF2EE0F029840AD510000FD24056A64E
:100DF000A6A60718092E0B1200DF7AFFFF3FFFFCA3
:100E0000FBFEFFFF20A080127C57F0240E010000A3
:100E1000E130EC508F1400FEBF3F7EFBF1FFFF4E30
:100E200060B00307F902047FD01B018A229E0F30B5
:100E3000300839063A768C848C656E666E03000045
:100E40001F30C001D5A1C061002043040000000094
:100E500000F0E0B01D80120988014DC018B0048E6A
:100E6000014AD0034CC0034EA0510568C2E202689B
:100E700001E000016801B1200168018330016802CE
:100E80006310045C120EB11020800503711040F055
:100E90000405323060B004072F90014890012E9075
:100EA0000148A0012CA00148A0012CA001499001FB
:100EB0002C90014A90012C80014D70D002065840C0
:100EC000E002045C1090E3B0A6A054FFFFFFFFFF18
:100ED000FFFFFFFF00403020430400E0F0F3FF4736
:100EE000E0D0F239C05901D92C037E0D1B20F0B29D
:100EF0004C0CA690D196D011D980C590B580A5C0D4
:100F000092B072000300000C780C0000003C8B6073
:100F1000C03E0261D01BA80ABBC1D5A01B2E0FB8D2
:100F20000128F01AA002AE0102AD415D80664C17A7
:100F300082F0051270F00518FF5B072A04ED2C0300
:100F400078054F0A5A0F1A0207072A8002D0DA09D9
:100F5000901007424004E0818F7FE0C1BB600069D0
:100F6000E0F0E19027E029047D00C018099951F0D4
:100F7000181D015D21033A06390838071AE0A5E07B
:100F8000A5E0A5D0F55970C004031C011A009061BA
:100F9000500A1965A3048F1F3F7FCE91F3FFFF7C9A
:100FA000E0100F1D1100E0328014C043C06312C076
:100FB000B2E0A290414513300CB4600A1A021E023E
:100FC0001E021E022EA00249A0016B011FF1035C4C
:100FD000C4B4A4F5940435904136D03424A015301F
:100FE00040004000003060C0AF20B0BA62600285AF
:100FF000B0B62005C1F0E500F7065ED7DA081E029C
:101000001CD7CD071B0719C8DE08C740D8D9002058
:1010100020AF415E30CAA0910AA3207A2F4F0BF176
:10102000102B9E9011D3CAC07171D0A192D071942F
:101030008022F092A7B0A6ABF0A79FD019097380C9
:101040001A03FFCF0F1F3CF9F1E3838520E03C0634
:101050002F08180B2A0EE400E10F03D0D40948C969
:10106000C60948B9B9093DB9CC0A2FCA08C200D48B
:101070000C52209D5C0E92202F800201D0D0C4C95A
:10108000A0A54190628022C0C2B0E69002107C050B
:10109000F1C71F3F7CF8F0F387942080147C809187
:1010A00040FF300B0619017440800193BF10B0E17E
:1010B000BEDFF0B10009A1A0A1108003916007017B
:1010C0003810051C050329500529021B0B28041F95
:1010D0007201490A1D0A3B0B2B0C2B0D2C0C2D0CFD
:1010E0001B0A1D0417FFFFFFFFFFFDFFFFFF0AA004
:1010F0002815D1A5C5CFE79F3F7FF9F1F3E7682019
:10110000F04199D5A0F4F00303821070BF0D1A8A44
:10111000A0720928779092F50610120928D061E094
:10112000011EE0518001051F047C041090533D8E88
:10113000D032B011C1C1811F7FFEF8FBFF8D20A00E
:101140001962E7A8B90994A9408A6A4B5A1B900210
:10115000023E1090F490E4B0043CD0043A00023116
:1011600000B0210A344D5087930656A560E2EF0384
:10117000060337EE0001180E3C0C3D093E0C3F04FF
:101180001E014C025C0C11C0E0197FFDFDF3C79EEF
:1011900060F02A0C4E2010408004B670C0D5F5D007
:1011A00084092BC6F0D1052FD4F0011AA4061E80A5
:1011B000E119FA600F040006926080013D0F3C09BE
:1011C000295070B001001A000EC45059B1520448A1
:1011D000550CC4400CC4400C2C0C2C0C2C6EF2731F
:1011E0000F53E4187FFEECF3C3C560D03B092957C9
:1011F00001959052D41AEA544037000030722017FB
:1012000060081F304B5A670CB180B230BC41810D71
:101210001AAF1070319041020403280E2920402A91
:101220008A4A8A3AAB30106E0776546460272807E2
:10123000061A130A1A0611872726873753E75730ED
:1012400075305850751047A051E638F031079F05AA
:10125000CC187002AC8203EA60A01A81011119A0B7
:101260003D82082C922A072A1117ED011A1F88F2D5
:10127000082C0A7280538031E042E031288031E04E
:1012800001051F800118311520B00113051CA001B4
:101290001960A00211041C160D1B0B1D0CC4165066
:1012A0000C4491102F044302506051481092246066
:1012B0004100A033D0290B5999261E62016E2216D7
:1012C0008071022A7712F0844B8FA085F031FFD90C
:1012D000DFFFCF1FFEC2FF5E6018C01B1802280090
:1012E00027E8A4391FA018013B187F8123C011D023
:1012F00095C02304180720F0012E7617D021713AEB
:101300008C21D03241903121FDA85F3E0D028083B7
:10131000FFB960F018021650017E0128E3063887F5
:101320000AE43013770619E706A0CFDA5C619E2A3B
:10133000748F20E80873E7B043A19DA232D0114B0F
:101340004014F013B4ED901B40F0471834011665BB
:10135000074EE237801558051D67901821D6FC13FB
:10136000024C11C2022D012981C2021841014C0117
:10137000FD9A5F0E1860C0FFFFB560A018019A21AA
:1013800070014921D618C187F213134141041BF49F
:1013900005666E5007288E02180E3D320C2E4B0249
:1013A0001226300D1E1E034AC051E091AA90A4A03F
:1013B000F48064806255016605280631D53101202C
:1013C0001D5EB913465C70012AF1013A01AA11A011
:1013D0001C021F025801FFFF9F0F18E0FFFFFF7A5A
:1013E00060B5911AF3001EF30F2AAB021C0A3F31BD
:1013F000008041023001117A0A190D3A10B093F0C1
:10140000021D44A001E2422380111B407409354AA9
:10141000E023C01570012614801150320116FFEF31
:10142000FF1FFFFEFFFFFF2460E04480D1F011E2C8
:10143000123A013F051B351317331EFFFFFFFFFF55
:10144000FFFFFFFF0040FFFF1F3F79F9FFFFFF5342
:1014500040C68E1B11921AD3DCDCABAE7E18001294
:1014600004079042100919071A5604F1002FA42806
:101470004950011C0119F101106001FF8F5F5FFEEF
:10148000F9FDFFFF50409019F164B2E6BCBDC5D52F
:10149000D413B1D432A1F1E2CC1E18801370230111
:1014A00082004D53582DF015271E2F901217FFFF65
:1014B000BFAFFFF7FFFFFF16E08006106061EC2A68
:1014C0000412B012FEFFFFFFFAF9BFFFFF2660A073
:1014D000156414000E00E1205F139642C015200130
:1014E000142CFFDFDF0FFEFCFDFFFF4660D0236101
:1014F00082934A16642CF091F9E0F301A3E5A0066B
:10150000012D91245024779411016E310113901113
:10151000FFCF3F9F38F87FFFFF77609016806431E0
:1015200074101EA151001805C4FA0211C021E05127
:10153000F011764F0A000430B003001E1552042F3C
:101540004241241F4D87343A8012D02160E151017D
:101550001720021DE19101FECFDFCF3CF9BDFFFF57
:101560005E60E015B0169036519614456B50025EE1
:10157000011E71022253DE360E279091F043C511F1
:1015800053A0012AD14321C1F141F10211C02180B0
:1015900021FFFD9FFFFFF5FFFFFF2A6017C04551A8
:1015A000B3F7911504C360952AA2610043022E018E
:1015B00020FFCF3F8F38FF7BFFFF6D60F01513A03A
:1015C000229A85FF121806C11C9A0B18022190213D
:1015D0008024F0722E40A20E03500A00290E1E1F16
:1015E000513900012C22011114801130D161318157
:1015F000A1C101FFDB1F1F3FF8FDFFFF63E001AF4B
:10160000115181CDCDBD16A529B48B31CFA9A0E153
:10161000A0F21EC2031F051B4520528052A40122C6
:101620004D49239014A0117001112470F10169013A
:10163000FF9D9F1FFCF8FBFFFF5E60A017D031509D
:101640000890AD000F01A0510FC3C0A1401B034281
:101650000C3FD203795E042942239041B649E01A37
:1016600001101E0001141D14131AFFAB3F3F58FA5E
:101670007BFFFF756031F037700220706185038257
:101680009CD3D4B3979698FD3C0813A26380D1D025
:10169000A6A031654119AF3C043C14012F023AA1C8
:1016A000D1031CF382E293031903311C356052030A
:1016B000FB1B3E0CD060F8D3FFAA60F015F01A07B0
:1016C000A2C0D341BCA0E23108041A400602F7EBE5
:1016D00090C1DC00848D2F034060242006024E035D
:1016E000043CA0437C0A5FC041097B802252051E56
:1016F000B3478043563BF04339C033B018044B0224
:10170000380459042641F021C0429087A0271F2F9A
:101710009BFF3E0D9274F093FF9760801B016C0558
:101720003C043164CB83C071584A6E14344822267D
:101730005866F054B810045B1B9C046AB0B11504E1
:101740002EE0C5C374804225023C4134520368A395
:10175000035C14017831047F82042D062D0359F7B0
:10176000021F034390180393193E2C12E0C1BBFFE4
:101770008A60E03C04B83350061E62510110724C7E
:10178000C2423C3CB2200E04C00F19CC5C8474AD44
:10179000AD031F0650D0657FE045020268B00138F6
:1017A00008044CA0055DD02531013C21E007560915
:1017B0003EA467A502ED23F3193CDC2040107CF821
:1017C000D760802A01DA13A018E29301151448B0FB
:1017D000511D168470211821F10EE2199C482195A3
:1017E000A091D08110810A1A8A11F10AE5C0E1FFA7
:1017F00000012A200A0417C003B65019C022304045
:101800000A05141EB052C2AC32D032D0223218F0C7
:1018100053D018A21881026F644F056E45005C0E0C
:101820004A0E4A0E4A0E4A0E4A0E4A0E4A0EFFFF52
:10183000FFFFFFFFFFFFFF0040FFFF7DFFFFB3E75C
:10184000FDFF34202680050358426433D002D500C2
:1018500000200D0001E1200D342114901221FF7FA2
:10186000FFFCFEF1F3FFFB4B6011E0132ED0814033
:101870000B971A134893786AB802655001451D47C3
:10188000158C152395222311019E326A6A6A0AFF7C
:10189000BF7FFFF87D7EFCFF4AA000E1E2E2EA2084
:1018A0000EE23020071B0518F0273B4B3C00A4A498
:1018B00037CB1E7790A1906170053EC4C49548FF58
:1018C000FFFFFEEFF7FFFFFF22E0A14A1289861318
:1018D000116174054039182740041BFF7FBFFEFECD
:1018E0001EFFFEFB4560901650F14611F684847190
:1018F00083A56B89598D024F033A082A121C031CD9
:1019000050A0B1095CA6A6A606FFFF7FFFFBF8FE6C
:10191000FDFF36200B61C0518001AA2112213448FD
:10192000435261061C021D061300C2F272743BFF93
:10193000BF3FFEFDFB77FFFF3B60D0123062A1048A
:10194000502012662161F88D7D91B9A8A22185579A
:101950009018216112A05503FFFF3FFFFB94F6FF93
:10196000FB55A080124EA759AA0228000C1A041C8D
:10197000C660410113D0163D232244435433D5F1B0
:10198000013EE3112E2F3C1E977100143201FFFF20
:10199000FFFFEEDF7EFCFB2860D2D2B4A6141F6BE3
:1019A0007A88605D23444E4A4E4A1DA21AFFFF3FCB
:1019B000FFFDB1F5FBF7452048B785A00203AC2237
:1019C000C0341152426642E2031E031BE30200F0E0
:1019D000D2208C0CB1B8204B463701FFBFFFFEFE72
:1019E000D87CFEFF4EA0F0234CF019E1E2D0A2E338
:1019F0002396D027A0414F7833EF05C000E611EAC7
:101A0000F5DA7242247373003706606415FFFFBF76
:101A10007FF9BFFFFFFF1A2040596C06B8212B0B3E
:101A20002AC4B44711FB373F7EFA913EF8F7A3A0D2
:101A30008036A0611050000DC420400825898083A5
:101A40002B2E8B2BB0818082808190514050508012
:101A500002130C289018015B4231D484B6C51635A8
:101A600068199EB021C061C0519031513F18076084
:101A7000013204409283E00100C2E3D3B3973641C0
:101A80000001BB377EF8E0800078F08E20C05C5209
:101A900001BC17E024D04972D254B3E3A644863681
:101AA00095C76838942658AA5B100A2D04380D8C07
:101AB000C19063D0D2B0B28002A002168021A919D1
:101AC000A034A71432A034310205753012602140D1
:101AD0000404043C3F3E7CF8F0F1C38F137720F000
:101AE0001F043A051B072D0A1A0A2A7A5375073371
:101AF0001085B57606618081107607707510FCFE42
:101B0000580770940EC0008F840DE5100CC19061D1
:101B1000E0614008CD67D01A0D3D023F3F1C387C84
:101B2000E0C18F1F776005879061A07170305F07FB
:101B3000CDE48007006250EB50FB0D9143500859F3
:101B4000C6011FB3C6031BB4A8061A32C4776F8838
:101B5000C06310055B0662B06568C07D05728720B2
:101B60001A0B3F7E5C1938F0FCFF3F7160080703D9
:101B7000038711D05A041EF3CAC8509F0A180F1CBD
:101B80000522E0B1E0262498195490748D8DD0A3DD
:101B90009CBC4001C2BC11E8DD0870300668D60567
:101BA00050560036E8087FFFFFFDFEEEFCFFFF2DDC
:101BB00060C2A5B01A26F01453686414630444503C
:101BC00031E685E566C767077FFE1F1B30E0FCFB3B
:101BD000FF7A60499038038360AC0F183020D270D0
:101BE000A0011BB8051E60F021A0049342034944E4
:101BF00092206ED0730E71610939E920AED0C20C0B
:101C0000B50D50EC0875746F640046067082773429
:101C1000FFFE1F1E39F1F9FBFF7400E018A496E9DE
:101C2000CBADAD9F009834B7210A52407CB38AA354
:101C30000B967009A64CA67BA4F5310553400444CD
:101C40004004355003B6CDDCEBDBEBFAF9F2F1E200
:101C5000E2E2D3C4C403EE1F1E3062FCF8FF6B60E7
:101C6000D3025892C4B675072B5C66316A460F19C9
:101C70002064E6660386E03126221790FA2168B0D8
:101C80007678A0819680919760990993ACBEAF9CBD
:101C900020F80654400303EEFFBF3F7EFAF8FF1F13
:101CA00060B088B1F40E20000E20000E30EF061850
:101CB00003FFFFFF1F3FFEFEFFFF2600A0416B7AE0
:101CC0008897120338CACCAC9F000861300535FFF5
:101CD000FF8F1F3FFEFFFFFF2240464005028000AE
:101CE00007712006622056A30006340000000000A1
:101CF0000000000022A0B0E823E018ED0F8EF1FCF8
:101D0000E01861E704BD11C78F9FFFFFFFFFFFFFD2
:101D10001CE0D01EE45724100C2100EF44E02214F4
:101D2000C7CFFFFFFFFFFFFFFF0EA0803BC2C338FE
:101D3000C0B20F9FFFFFFFFFFFFFFF0EC0049770B1
:101D40005AA71C4F0FFFFFFFFBE0C1FFFF2EE0A0D3
:101D50004C71041BA6074888093C8B00C00174C065
:101D6000B1AD6402725CFFFF8F1FB8F0C1FFFF428C
:101D7000C0901B014530CB10071A60A001061E2041
:101D8000E00101280080F278207F0AF065FEA30BB5
:101D9000116EFFFF1F7F7CF8FFFFFF23E08028729A
:101DA0001101002820C0C2D0A230E48D194003FFE9
:101DB000FF1F0F9C3DFFFFFF4280A026135F227D87
:101DC000219CADDC0A2013A0235F22DBF907618090
:101DD0007179696A6A7979786A5A2CFFFF8F0F8F57
:101DE0003F3FFEFF44A0901CB361F317DBC2A25C2F
:101DF0006FC21211200619075B16012A11091AF683
:101E0000D0E3C6C0A437A016FFFFE3C70F1F3F7E75
:101E1000FE4480D02A023CF405B1E62805292103BE
:101E20003C042F092F092F092FEA0157B187606C55
:101E3000BF10220254FFFFF3D7EFCF7F7FFE3A801F
:101E4000E035D021812072BD5134D031D0128018BC
:101E5000015330066220380280DF09341BFFF9E3AA
:101E6000CFDF9F7F7EFC42A0B01D91E4A0619490E3
:101E700065D034A064A064A074A024C0A4344990A8
:101E8000F468E1671CF2320214FDF1E3C78F1FBF53
:101E90007EFC54A0F04B054E06E48E50E1E27D1826
:101EA0005A204740A061C02290F1A01A0EAA71806A
:101EB0001C01BDD1C0370A1909001AA03132FDF347
:101EC000C78F0F3F3E7CFA47A0803E0514A0570FF6
:101ED000A4083DD432799042205840A01AA308A803
:101EE00014C019069991BAB0011C23C402FBE3C7C0
:101EF000AF5F3F7EFDFA50A0D03D02190661E011B0
:101F000060C7909109414E197651A20F4A0E4A0EB0
:101F10004B06C811E01A160D6DB980B18091F042E0
:101F2000E3C30F1F1E3E7CF8F057A080BE91100344
:101F30003D2102620A2E8125693067A01A0FCAE18D
:101F4000A01C0ECAE1801C301252E0951018F0B1AE
:101F5000700C1F0B19A803FFFFFFFF3FFFFFFEF5EB
:101F60000880A02DB642E78F1F3F7EFCF8F1E95BA9
:101F7000A0803E0AAA014AB0132338019C01029FA7
:101F8000F1A01A0EAAF1801A091D0438095048431D
:101F9000100E18306F02C02160091C210A1B03CFEC
:101FA0008F1F3E7CFCF8F1CB50A0C07CA02132A258
:101FB0003201029E0101A9E1A01A0ECAE1901C1093
:101FC000B087234B0418530B021A507B01A37218DD
:101FD000433EFFFFFFFFFFFFFFFFFF0040FFDF8FDC
:101FE0001FFFF8FDF3D730A0E01AB4B5A6A687A767
:101FF00077B848A87437DF9035C06B22E739A64C14
:10200000DF1F8F9FFDF8F1E3DF72A03C712017D82E
:1020100029C948E747F765055056008495118301A3
:10202000487146674101914B12052804EE61C0C614
:10203000C0C6C0F6D0C51221D0854BA2DB70500CB3
:102040004034B016FF1F0F0E9DFAFDFFF775A090EC
:1020500016446C21929D989E10F807720007630049
:1020600006B4600A55524025061A1652F2C31037BC
:102070001167B8EEBD7605180E9814F0316F56A1B1
:1020800000F4E0F1556290427002DF5FBF0F1FFA6B
:10209000FDFBF373A013104342B948C848D857E674
:1020A00066E666E676E575061F55062846052A2685
:1020B0000631B963C9420ED48D4757D01B0588211C
:1020C000E01D8488874B061815118871003702DFE0
:1020D0005FBF0E1CF2E6CF937BA0E04F031D051AF5
:1020E0000619081808180914108553F602400E281E
:1020F0009BC40ACE21102783230DD4200E72E02525
:10210000F033E0F3E0B3A0B3E0022B80424160146F
:10211000C001B4206048E104FFFFFFFF7FFFFDFF27
:10212000DF17A080134D66A433024C7EC63203CF66
:102130001FBF7C78F2FCFB9F57A0D02801BE116026
:10214000823A0415B0122250F001B170FDF0622005
:1021500040C021F1F001021E20E0A1E037C047B0ED
:1021600077E0A63E5B03DF3FBFFCFBF7FDF9B34D15
:10217000A0C018017295505C0028272402218031EC
:1021800023268014F076110F00000000E10A1E02E1
:102190001D0519FA00C17D02DF5FBF7EFDF2FCD88C
:1021A000B361A0D024325E1007A1DAFD0690EEEDF7
:1021B00001C6600B25129B30EAA0F15CDDA0752002
:1021C00001BF016BC05590A5E0031E40F0012B003C
:1021D00000D31003FFDFBFFF7F72E4D8BB56A026F9
:1021E00020530462D3C5C1B9B7D0A1AD90929BD0A2
:1021F000827A80838071A0811670710BF14521C9AC
:10220000033DD204BE32405040B5FF1FBE1C397A98
:10221000E4C8978EA025B02428E083B8B0A2B7D038
:10222000A2A6F082888083888083798073A07180E1
:1022300075A073D023691C20C1560770A8722C1D8D
:10224000420A6C6912C7F1018812E01B0258044966
:10225000053C5080931012E034622E15DFBF4F1DF5
:102260003AF6EFCB9F74A01780123DE0213E63CA7F
:10227000BEADAEAE9F9E10E808828D8CC07176B068
:1022800081771512C273082F40769001053E0080B9
:10229000040049078911119051A0D5D0230145B000
:1022A000353F070E1D3AF6EF9F1794A0C02D24046A
:1022B0003865830F1BBE0A1EEA0A1E09A0C09130B2
:1022C0000939098740B8091989608620A138F0A228
:1022D00062A39F653623C02112E019062D0A1AB1A8
:1022E00012B704B7C0D2A01C0FBF01037E30091B78
:1022F0000419D0024A503F870C1972E4CCBF5F7FAB
:10230000A0A04D025B7454440A2D4003052D16B065
:1023100041042B8480015940D042502040B50653DF
:10232000AFA8CFB8C8073220035F06C4500A663191
:102330001B4D90190A8DC1B0180E8991D01B06A8AB
:10234000013FFEFD3F7FFCF8F9D367E03CA9F902AD
:1023500013801CD028560118B1A6D4168184D896B3
:10236000A4C6A6B4B5B5A6A67849BA2B700D0100CF
:102370000000E1200E2B3C021A231C0507198001E6
:102380001F9E3F7F3E7CF8F0F380A0A01972061AD2
:102390005AEE0003D2A13004651970024A643080FD
:1023A000025CA0014E031DA0011D0464C00118C001
:1023B0005140081C60B0A1700C1908190D1C0ED6F4
:1023C000304010B01A0AB9614B2D1E9F9FBFBF7FCE
:1023D000FBF7FFFF37A0F9100ED31087032048103A
:1023E000630552930B068140200A19051CC3A6D52C
:1023F000E203FF9FBF3F7E7FF3F7FB4AA0E081022D
:1024000018790006641896FBC23C1000B0374004EF
:102410002550034530062A103D3C0A1DC202E851F2
:10242000B547FFFFFFBF7FFBF7FDFF2080A9BEDDA3
:10243000DCEB086024224893B0A19788599F3F3F66
:10244000BF1C31E2E0FBA0A0E018D2B5760AC6D5E9
:10245000EF03B2200362300010300F2DFB0B3D9CC8
:102460000C495C0C2D0919051D031C840660804273
:102470008062F0718042E0A1C0A1E051C0B1B0D152
:10248000B071900100A580A160CC104050031C05E4
:102490009D11D01CB6309E343F1E3C381020C080A9
:1024A0001761A0C038F307A6A550CDBF500D180284
:1024B0001B0A4D0C4BE001280128E0038E81E01A35
:1024C00080016FF0033FD00477048831902F0BCF49
:1024D00071B01D03FFCF9F7FFE7DFBFCFB4BA0C0B7
:1024E0003151600AF5BC00058380A2CA80D2E59D07
:1024F000FA0170298C44DDE0010704290A1B9002CF
:10250000001F501C05FF8F3F3F3E7DFFE49F5EA0F4
:10251000E018B3061C470918FE9B0E1EB00219A056
:1025200003063AE0919053C073C0012C047C60F024
:10253000023D2B570668043D10100DB4700733FFA1
:102540008F1F1F9E3CFBF4D972A0901B5409B0C092
:10255000C2400C290F010506190A1B0E1DA0E10837
:10256000003B0002E265AAA042CFD0051990022DDF
:1025700060C00303480B5C39089951C0190388D225
:1025800095784BFFEF871F1F3D7BF69190A0902E13
:10259000032A053044300B180C4147DF90C15E4AD6
:1025A00008011930565D05050346051935F737054D
:1025B0002C26A810F0025110B0031110E002021EE8
:1025C00010800200280060A00203052C073B0406CF
:1025D0001FD2A5775A2DFFFFE71F3F3E5D8E137474
:1025E000A0C049031ED5041B7423574E051F70015C
:1025F000071BF607757C806179B06177D0E1E590C3
:10260000D2E39021E7011900C00300B6400CE3209B
:102610000EB370071C0128062E073C3F7EFCD83302
:10262000E0C1C4E3A2E0061C0C1C0C1C0C1C0C1F1B
:10263000052D027D11041E0F060206020603021A72
:1026400021047F016B0C36901125642050004761F6
:10265000B13522E9B0A14EA4638E90625F544EC0A2
:1026600032F021E02E056E0B6C0D6850D00418A0DE
:10267000011C00C09290631F1E3DF83020F2B82765
:10268000CF80161E2635445372889F9E7E9FBEBC07
:10269000AEAFBEDDCCBDBEBEBEE071908210D20931
:1026A000209D4FAB5EAA7EA8C9B80DD27D31906146
:1026B0006003180726A05170021A0517B051700167
:1026C0001B0517B0418011C031D05C032C052CF4E0
:1026D00001543C30C604805C00C70410714A4B02B0
:1026E000B1CB1330E60D1912E10D0FCE1C780800A6
:1026F000C6898312E1F02D011B7C035603900AA4C6
:10270000CF10ED0EB2BC60EA40426051500B071F83
:10271000A061A0011F809112409002932090013887
:102720008001240F1F1AA20538053E053E0D3350C7
:1027300006000329508E20BA70E00118C9EF071A6D
:10274000C0011A05A160B1C0012B75021D53032EF3
:102750008681084460D6152AD0C1F87AF001B0DA33
:102760000046B11E301B54150B2A2BB30A2C0AF05D
:10277000A0F20F002A000D021F300B032830072F94
:102780004E3C0C40C285E9F2E0F04A817C56031EC3
:1027900034570F1D0003021A20F280F2FA8012C390
:1027A000EEF0F2EDF0A240093AD8209001510F1D51
:1027B000DC052E0550C0B227402080040560930E32
:1027C00005562070ACC10B07D00E18095D0C6422B1
:1027D000F01E82122247E4022ED535107117647F55
:1027E000437414072A0C3E13088241C043727232AC
:1027F000E02363648065648085989E10E80891AD4D
:10280000BFCBA70FCF3F0F04C0A1E1DAE0C03E0B62
:10281000295D4F02320221601070EA20EF400CA1C6
:10282000E021F0311DACA4042E0449074D00E00264
:102830000365205060926010FC60568903180C44B8
:102840003380916B8C9026C033C05320E2079A816D
:1028500036E3B2F0834323240F182F346111D524BB
:10286000E021D4F2241F3E032C2E0E3AAE0E02E0DD
:102870000010100E0101D0101020FFFF7FFFFF3B62
:10288000E3E6F74F60609412771731802596A2082F
:102890005D054AE7093C514A145B42431F175360E8
:1028A000051813E11104461100038C7102FFFFDFCC
:1028B000BFDF2FF9F3FD4B80685B6B7A695A5B4B86
:1028C000342E1E1F2E3D6D8A123491C4F4E1E2E2D3
:1028D00002F881793D2E2E5543C4B5A6F602FFFFBE
:1028E000DFBFCF07D3BBE17B20CA29B9497A7A88F9
:1028F000B786D666F636076055488071A02112C0AB
:1029000041603834C12452804100021B0320B031A1
:10291000B02C210270810D87704B4C6B6A65B487B7
:10292000785A0B96894008FFAF4FBF4F79F3F4EB0D
:1029300098C0605242353427241F1FE0919FAF3A60
:10294000A1DAAC9FCD7B27262626460424D0425D03
:102950001087DB69BD5BBD4CAE3DAE1FAE5119D0DB
:102960002360B4548655371157185A30BDBDBDCDBC
:102970002108602006626A899887888898B6FFAF28
:10298000DF1F0F46F6FDFF88A078646D69798A9590
:10299000AAC395783B7055052A26062A36052A557E
:1029A000F5D1C5E710CBD913076120056330053297
:1029B00050045450033C042437D0374C4C468859BB
:1029C0006C76A21293784B06274D7B98B6FF2F7F2B
:1029D0009E7E75FAF7FF61E080163E447A520B60E6
:1029E000000832CB20EE600B73D8A6707809186906
:1029F0000919D601AC51AA405B8D541F63D01BE36B
:102A00006126D4C36AC4C4C407FFFFEFBFBFBFFFC2
:102A1000FFFF15E080C6888839F006217B3401FF6E
:102A20000FCEA60F47C68CE9CBA04E6B90715C60B1
:102A3000066020F8DA20000FA39051D061C07280A8
:102A400072B0529072621000409210370771E4E445
:102A50001006285DBF0B5A053450055A0515600451
:102A60005C03A941531AD9380650560055890324EE
:102A7000B8B2283073A05105518B446B6E2B1D7B6F
:102A80008BE0827BE0726DE0627EC0818C309A0CBC
:102A9000073F4E048E1EC3D4E1EDE0F02B011DC3B1
:102AA000DD0076AA0252300A2E0A2F073A0A61C0C8
:102AB000C1D0B120542F06F20F280FD480C280035A
:102AC0003880052FD0130C14EE031ED42AB1055004
:102AD000B071C686704900B3303C00C25032D0029B
:102AE00006053840800104385040805192C00307E9
:102AF0005904E25002403003334F300480169400F2
:102B0000E5E0A1210BF2100E0100E10020000D0113
:102B100001030F67CE0C1C39E684E1F0E0A5E10467
:102B20001C021F02DC61D0D11003021A100500182C
:102B30001039D20E0105F00BB5700AA3B091100840
:102B400028055680037530B004B1110D5A0873E0A2
:102B50007540084E067380949E80A4CB709DAD5E38
:102B6000B032051A1540031B40F01180422133801A
:102B70001166250004810E009420FFFC000DE1DFAA
:102B80002009D3200A55600818AF0F18AF0F18009E
:102B9000080007614087479E7C5020C4E4C3EFA033
:102BA000E01AD211E30457000664000664000556DB
:102BB000E072E062E075B0728096D091B0A67009C4
:102BC00010E0228031000219032B041AD2021B04E8
:102BD000280819625103180CE4608001F41F120CDC
:102BE0002A5C7C092D88A90639A5A8043C950819FA
:102BF000039D61C044B7903480D4F3F0470D286B37
:102C0000C0D4CCA0F3EB80D3DF22432793E237423A
:102C1000B9B162FCCB8892051F9E3CF93021C8CB2C
:102C200087BEA0D0467B7A788A868A777A788A941B
:102C30000CD400B0D1000E2FBE0D28C19CCC034295
:102C4000BCB94B9041B0414B8071E08170640CB5D0
:102C5000600D041A2100000FC580B270AB082AB7BE
:102C6000C9062DB6C7062FC5067A065D074F044C68
:102C700060B014C004185EA0860B18B7A0E6E4F09C
:102C8000F5F41F3E3FFF1C23C29B2FA4E0C00702A8
:102C90002AA0011BF001A7500CF30E19FA100D1811
:102CA000041D02190BB6400B963004011933DF02E4
:102CB0000101F22005E219D82008C337B8300A0311
:102CC000A1C13211090196092D8A9072063C76B095
:102CD00062044B513026902D34D7A39E989E98FFC6
:102CE000FF7FEEDFFFFBFBE733E0011D041B09E381
:102CF000110D6A722E5D7A083A94C04748021E028E
:102D00001E021E02FF3F7FC78FFBF1F3E751E05E1B
:102D100090910F19071878803878EF10170800F194
:102D2000000EE4000DD600EA01C100F5BF89A04104
:102D3000D01C011D17A01F013F2604001060C08198
:102D40000FA9E0B06B03790463E0A71050A0061C44
:102D500009055BB04190024C7060A0023FA0021FC9
:102D6000B00139A0021EA0022B90022D2E204D0C86
:102D7000610C28892099050169D0046EF003B00F19
:102D800000013A405F0C052D7050A0011ED08182D9
:102D9000F081F083738019050746040B0C20C6FCF4
:102DA000F05BE00D030606061A0E1E0C2C06380317
:102DB00023A06300CE022A86C0031B800604780C81
:102DC0007F05AB3AFA3008D56008C66009E4400BCD
:102DD00002074EFCFBFFFF7FFAF41DC080CDF10718
:102DE0007110078000F9E9CBAD0007FFFFFFFFFF7F
:102DF0007F78F8F03DC00485A061A061A06190716A
:102E0000908180916030400DF200000FE2200DC4EF
:102E1000400CC4300DE7871F3FFF7FF8F8F33FC039
:102E2000C01A668F200DB570091808180818081800
:102E300009275003363006719FBECCCB4C6C9A06E6
:102E4000C3A71F3FFFFFFFFFFF36C080B730100F43
:102E5000D3500B97808110078000F9DADBBC9EF716
:102E6000E9DACBDBCC9FFF7F5FFFFFFFFFFFFF17A0
:102E7000C04071E1C18129329787A8D603C3071FDB
:102E8000FF3F7EF8F1F341E0F0D8319B10AC000435
:102E9000A2400BA7903190C1B0E4908470033B082E
:102EA0002E14081D701C8B99060000000000000005
:102EB00000008F20E0AFC2C0D73FF6C00719011B4A
:102EC000A0074EB0074CC0074CC0074CD0074AE0E3
:102ED00007498018800489014550B0184006028CCB
:102EE000018210F01800080099F1E8C0198E0D9EBB
:102EF000D1D8F019AB0BA9917DD01A05FFFFFFFFC8
:102F00001F3EF8DE976260F01F02147832EB4762D2
:102F1000D7EC86C9E40E112E80E2802280F2464072
:102F20000127980770637E87878A364105106425DC
:102F3000A092B01109060028FFFFF7CF1F3C60C028
:102F400025BE20D054A09340BBC32483F98717D457
:102F50005DB95A9C6B0919795A8908C3891D0C30CF
:102F600010D0032980F3A0D2C0B2A0A7082800C0C7
:102F700003182F415F75676D5D78484E4E98473E48
:102F80002A43C63733294932E6464D5C76557D9251
:102F9000FF300CD43F000E201328B3342B6A018479
:102FA000754EFFFFE7C78F1AE9E1DF9A409092A7BD
:102FB000B6C4D4D3EA7A344AC03C012F012040F28F
:102FC00003243F50F10410434C122D835F212C65E4
:102FD0005F313B460099041A7B041B6B9541A34C5F
:102FE00086B82D7717911C7D2B6D696B684D594EF6
:102FF0003A4F1B20023863725224FFF9E7C7CF9C77
:1030000040C307CEE004F50FB21C4D4A0644F04E13
:10301000024A73041C026461406303762310454531
:10302000022346A0232033652604319021354F4FDB
:1030300081C74F47021D68BDAB6DE978B8AB87B457
:10304000385B996446A37799B6404C5B3D0BC6F15B
:1030500001101B83331A00C441A273B2C66331B698
:1030600083B445515441B465B8846795FFF1E7FFD7
:10307000EF194080014960801803193A0B181BEDC5
:10308000B041D021D9280634C0CA11A01B9203BB7D
:103090003163D01B09B941B048026B03FFE3C7DFBE
:1030A000FFFFFF9F772020F01EF5BF100383300243
:1030B0008310D9AB725F37FFE7CF5F7FFEFDFFFF65
:1030C0001900E05A0145896882076210D91004FF8F
:1030D000FFFF3F7FFEFDFFFF1700A01AC3A6078278
:1030E0005209A0DDEB0AFFFFFF1F7FFCFDFFFF2859
:1030F00040D6FAF90A8000099000F90180200763A0
:103100003007C20C52FFFFFF9F3EFDFFFFFF214033
:103110002E40D4DBCBCCCCDC10088200F9DA5C503A
:1031200003FFFF9F1F3EFCFCFFFF2F00D03B021D53
:1031300009C62651D6439101CE21D0A100000FE24D
:1031400030FCC801FFFF9F3F3CF8FCFFFF47408079
:103150001DA508B6400DF2000044081A061A061A0A
:103160000C1C06576670190607907540660656488F
:1031700070B302FFFFA70F3DFCFCFFFF4A40F02B9E
:103180000354B0827BAE9724C8C26107290828285F
:10319000021C1070091808E2200FF1100000100E38
:1031A000B38E2AFFCF870F7CF9FCF9FF4E00B05C8D
:1031B00003131A6D0064B4AB66786D594BC051B0FF
:1031C00053B05290927010A10B1D0B1D0B1E091FC6
:1031D00009F0D2964AFFCF9FBF1C3CFCF9FF4F601D
:1031E000F03A27BAB4318666399022E017000030F1
:1031F0000B031C400F0501186027DC5B061975AA3C
:1032000089041AC6053AE403E7DF9F9F1C3CF8F3E4
:10321000FF6820E048031B09C4400F1F200D041C59
:10322000500A061A600A56C2D0011A807280E22340
:10323000E072A03390419E998033C7565F60676209
:103240004B188151D04432EFC79F9FBC78F8F0C132
:10325000712090232BF0374CB0475E80764137C603
:103260004055AF000119230510801A01DF72A01A22
:103270000EAAF1801A10B0190E7CC6081D7E7C0FB4
:10328000187F8C0FF6C8284FE78305E7C79F3F7C60
:1032900078FEF4C971208012C075F0A4D05453C0D8
:1032A00023F01143A9400C284F577B20051BC00178
:1032B0001F016CB001AE011AE0041BC0041D902276
:1032C0000F1E3F5D36021ED0021FAB0A2ABA04FF52
:1032D000CF9F7FFFFFFBE7E9482080191605061DF9
:1032E00020E00101280080020028101F0ED32212C6
:1032F00020A04277A6D496083381AC9F8741FFCFA8
:10330000DFFFFFFDFAE5E942208035109347504882
:103310005077A0720792052AA4002EA0E4E2013A99
:10332000C055804260A8827E844FFFCFFF3F3F7F21
:10333000FAF6EF4C2080280666778F4787610016E3
:1033400078640000204402040048000000000000EF
:10335000005694C0358D70C0814321FFFF1F1FBEF2
:10336000FCFAF4F9662090445005110006715F8E56
:103370008E11CA1881606163502326E02135012E29
:10338000204AE035E027F019013E023D05180462AD
:1033900029CA26691068A06446FF8F1FBF1F3DF829
:1033A000FCED6E20D01CF4033A0330A0334FA06331
:1033B00022B210BC0CE6B8E5B0F3022BD022074ACB
:1033C00086001EC0C6D0A2D0C2C0D24B64E99F20E6
:1033D000CB20F6210A34118054D027FFDFFF8F9EC7
:1033E0003CFEF7EF5F20F012000418F40519E40426
:1033F0001AB50619880819B606778B20CB73617544
:103400001620081804280419061A0718A858650A6F
:1034100036C7C876B404FFFFE38F1FFFFEFEFD48EA
:1034200020A04554906265E06157D06178A0717822
:1034300090857AE0746CE023686D6420B58FBF617D
:103440001FE023D023FF83438FFE7FFFFDE95E2033
:10345000E038031A790A4E6A0D3F39D1073F0784D5
:103460004280427190B170810A1CB0041FF0031AAF
:1034700026F004306A98780B4C0C114E0F624BFF0B
:10348000FFFFFFFFFFFFFFFF0040FFD3C79FFEFFCF
:10349000FFFFFF3520F01E150292CCDBDDA8701A6D
:1034A0000B0401E1304C158042885A7A48275D05AB
:1034B000FFC7CF9F3E7CF8E5C95320A03AA4720C09
:1034C0002CC44F1B008922F30872A0639042A05BBA
:1034D000023E033C043B03993256D03320009A1C31
:1034E000ABF789A604E397EF9FBE7BF2E4CD822081
:1034F000A03B94F1130D1D0240C001E2206A5C7AEA
:10350000B907C464767637C6206501D6A0E4A0E486
:10351000200E010000D10C7B076E0E585300718005
:1035200004E00111000219F4C399819A4A7D74F0F4
:1035300053B3174E9C3871E6C99BAD20905B262291
:103540000291D07194C0A1BFC001041BEC9CE44067
:103550008CE50E280763A0724B12E01B015E025D32
:103560000559092B0101E7015F73F02321055EF086
:10357000230F1F031F5413210478B7053B0328B7FB
:10358000B80917C212507C115D0D0407015A092CAD
:10359000026B0187068C3871E6C09011A720E0CC41
:1035A000315C804224401223081E66081D200E0252
:1035B0001D40C001D350390FC4181370FD4805C316
:1035C00060021C0D4A0E4A0E8AF1801810E00703B3
:1035D0007C0DB8C1901873D021085B1B80031F03BA
:1035E0001E3E071C1101206C4CD063D0629B1296CA
:1035F000B001FFFEFC79F7FEFDFFFF2D20801A01D0
:103600003E031E26413390A10F19035E5254121C33
:10361000421AD0051F5E3C79F2E4DBE3F78420C058
:10362000425F80678AD03224A00118701820608021
:1036300001F5B4D08160515E30818D0828079B511F
:10364000A01906390838082F0A2E0A6D0D3D01030E
:10365000011360F3B0A105B00338D13D0B6B8B0DA6
:103660001A0F1F3EF8F0E1C383072E20B0F942A0E5
:1036700076E0A3A025C321C002073E702090013D43
:10368000C0043CFFFFFFF9F3E7CFFFFF0040FFFF5F
:10369000FFFF3FFEFFFFFF18403D500390420148EF
:1036A0000111E40335FFFFFFFF3FF8FBFFFF23405D
:1036B00060032D031B2F8580A2E0C1C0011C032DD8
:1036C000F301FFFFFF3F30E0FBFFFF1860C03970E0
:1036D000C0017A80016BC00349FFFFFF3FFFF8FF85
:1036E000FFFF0A40F01D8100AEFFFFFF3F0770C0E3
:1036F00080119C204146424642464246424642464E
:1037000051C5C4C0C4C0C43B40996C000437863660
:1037100080E5A0E6A0E6A0E6A0E6A0E627F033C894
:103720004850F677566B500A2E0A2E8A476D3A405B
:103730000419A201DD1521A044331530EB53657641
:10374000B062FFFF7F1C0000110010FF2052A06438
:1037500062B0545256A0C1535201A2C021E015C01C
:10376000290C3075560A1D82E60558E50558C636FF
:10377000081E1FC515DB700A19031A091B021B0856
:103780001B0518770203E6738575907474E08572E3
:1037900052E00383700D1D0E28012A0C6D097887F5
:1037A0001101061D107476B6D0538896A6C002305B
:1037B0006AA002032C091C0E1B0D1A0E19108001A1
:1037C000010405000603011E0625DA90061F3E7C53
:1037D0000000103040021A21080502190F1B0C1BB3
:1037E0000E1B0F186DD19052645CA0655AF03462C4
:1037F000F8E00264800118B041B061C021A0F12E50
:103800005B08398B021C4917270E1CA041C001041C
:103810001B071A60700B012EFC6607D67230907180
:10382000B001071A0419B001B630D0D4904143E07A
:10383000151024D9302D33F0B20B3EF87029300624
:103840003E052807290595000629042946710561CA
:1038500077F041D071E0C46005B5B0454170031DFB
:10386000037E01E9120F8E1C0100003070412221FD
:103870004671800391709001180818B00156350AFE
:103880003C7344054A454607C652081808B7600B02
:10389000E20E3B12055137B0B16250600C0719605F
:1038A0000C033D0E1A150368032A34036ACF3080D7
:1038B0002317320B4550A8769BF206F24DD0F1E06B
:1038C0004124032954D0E1C061E3203271061A0E6D
:1038D00086F0A4200F83C075500B1A029A91801DA8
:1038E000081A019D818087808780878087C03390F8
:1038F0008190315F700B658D2030328ABA11064F8E
:10390000206FCFDE2508061C9831F32005C470080F
:10391000E7304793E021565490645555702C9560DC
:1039200009C6500EF00B28B474021D3A74400DB64F
:10393000400FD10C2A0338032A350369DE30F042E8
:1039400026220B7430A8758502500E6532051B09BE
:1039500045033853400030360F217B0000BAF09405
:103960000AB0085CC7770120C019460647E06330FB
:103970001020073C98B0520D2EE087444C804480C4
:103980004300042A1504FFFFFFFFFFFFFCFFFF13A6
:10399000E05222A054454A35373A073FEFFE579A86
:1039A000EDAEDFFF7C20357D685E462045045397F1
:1039B0000139535953500919051D02273632001396
:1039C00000071B0312C012C9658016E056A6A6C5E3
:1039D000F36A8052081B6280024800F18034711D36
:1039E00034F0212ECFCFDF070E164CF8B7D7205476
:1039F000E05148101E65400353200A300E2C261457
:103A000004584AFE0053030603720F1CBC081B75C2
:103A1000E535901205036410F0D2000A5B032744D9
:103A2000D032410023D001909C2509117F280AC281
:103A3000C78AA8F72000380C197307D0000659056B
:103A40009120045D03724A6CA061A061A031F04333
:103A500080B3FBCA0A5032162E3202BFEF9F2F0FDF
:103A600016EEF8FBAEA0FA052B010419E301B30032
:103A700041926052081D552B1F70010003071F7AE9
:103A8000F34C14151001051D2090E190A580339092
:103A900023104304181C0332300501A440102642B1
:103AA000069153200D21D30EC09091112022031EA8
:103AB000E3A3A68759071D06C640AC4132FFCFFFDE
:103AC000FFEE16CEDCB37BA0110E4903E6EEC6F086
:103AD00082300030051910D9F81000000E1C1401B6
:103AE00020C06222000D039186238B17686004209A
:103AF000D011E01512E024A0A50D07A120201EA3DF
:103B0000230638033002FFEFFE6DEDCF9FDFFF612C
:103B1000A08112057F062A20A0C14112845751536B
:103B2000B4A03532902212A622021A4191326315B6
:103B300026610231230435627322C061E04741C32C
:103B4000090687070E240000C6CC991121C9C7EFCA
:103B5000D7DDDBC9103D0D1C25358B2C3500FDD57F
:103B6000200A54908319A02124B48CBB3233303402
:103B7000BEBF3D864CBB29B83A6E108B6363B4B3AD
:103B8000410BB120EC0319C4089670056B028770D5
:103B900001A881808780878087F0A640031803B43E
:103BA000200790110FC0EC2E42C0210D0068074481
:103BB000809180A6A0C380D6D0E2F0B5F083D0A4D7
:103BC000E0D3A0E390A351F072919084D0A2F0B41E
:103BD000300DE3F2400BF3B74F870001E6ECC995D7
:103BE000209068032E82032D041F052D83042C06CC
:103BF000E4C0428425C0019020B02104320307862E
:103C00007E6A23500118E2E8017BE106BA61A01B3D
:103C100003209013B2EEE0E2DEB0B305021760209D
:103C2000B082B022B021033601934403D3374F87CB
:103C300000E1F2E6CDD520736D84000F00006173C2
:103C40007D867A695A3D3CE0429043F065E06280AF
:103C5000245C4001532C80623B0E73B5FD275397C3
:103C6000131FBE1E8023AD2CA023AC1D80B5B01C3D
:103C70000ECBC18021140293A03104D64055A0116F
:103C8000A06139A38759B06479356AA064A062D075
:103C9000349052D0647047D767B778978888B767F1
:103CA000C706C7276F860861BEF4EDE240C028ADA5
:103CB0000F90600F0100000000F1100FF120BDBD5A
:103CC000CBCCCDBDBDBD807282F06274F032117577
:103CD0004C701361C60646568D3047C5FC59A2008C
:103CE000BD15E85136B29C91021C210713C0132C5C
:103CF0002FD04200E303113200E4F397ECE41840C4
:103D00006D098088889797979797FE100FF110009C
:103D10000FF1100FF11097A6A6B6B5B5B5C4FF2FD9
:103D2000FFF6000153FECCD82034928C3348C031CA
:103D3000319A30C9DB6CF9A20412B35F75CAD2881C
:103D400094D7C3A7A2B8A499949A939AA77A324613
:103D500092AE623332719115920453901F014D86D9
:103D60007107486994061F3336C3C5720870379BC4
:103D700020733C8E56359082C081C084D081A0745F
:103D80009072F081738D939C533149511251329846
:103D900031CE5B51BDFFF7CFF6E4030BF4FCD1202D
:103DA0004471F081324882B071347A53302333C881
:103DB000889567D807753665604664076555655010
:103DC000540450536016062831120518360328147F
:103DD000061A4B0243A39BA87141935604B851D0D5
:103DE000625290221D22400611A1B64357731A0356
:103DF0002A0E2A0F28107F300C2192419E71103715
:103E0000235662347B29853705FFEF5FFEAF013310
:103E10007EFE98A0093D39091E014710022000FDD1
:103E2000E3C49BE607746F1A691085750562452225
:103E30005355641833626867858265699302C110BF
:103E4000F102CE11F013F011000160A0F2104361F5
:103E500060022246C620AB0A801087D29021DA3455
:103E6000FFE77FFE8C01C3FFFF95A007449011512F
:103E7000910E0064D041320E972A07343A803120E7
:103E8000774309A253B120E0B1F036F05200062A80
:103E90000519630226F0115D2CC041CA7872013108
:103EA0009021A03240072A8A0D20B19532E061505E
:103EB000EE1AC9730505FFFFEFF74319E3E5DF903D
:103EC00020B360516334C81A830DB09960570191D3
:103ED00034B106D628063540056021520042F5620D
:103EE0004E2378530001CF1290722123D3AC28BA0D
:103EF00000CCD44D001B42025832083D9974F5287D
:103F000025D102203B4F3A3178FF6FFFFFBE65E3BA
:103F100047CF9720F0212E2D31A1D3B21495825591
:103F2000393212045422B025A014200C43300682EA
:103F30006320878B63D4426970771628580665849E
:103F40006B54403506706140160126664056931D3D
:103F5000574031E3598C48603090D16123124301BE
:103F6000EFAFEFFECF8D038F3FA2A0CC0160802189
:103F700030FCD2606ACB10093271A9051D94D7813B
:103F8000BA2FA03448420159747A887805B8115084
:103F9000620210945418174B56364E1A3626071ADA
:103FA00025950170C37358757D297B4C114C4A3C93
:103FB0006B3D3C1F4110032D310A2F1AF7AFFFF75D
:103FC000FC1FF39FDE782042424832461084F4A45E
:103FD00096E6B38271C25229E1110E19A190218493
:103FE0008E200C95808180412B5006701008716ED8
:103FF000A0811AF00171A244B01180830007106201
:10400000AB962BD7F7FFEFCEEFA76E7F8920621814
:104010002D10B4B2938FA37400657A8437363200C2
:104020000FE23012430264611046065047009424A8
:1040300093B38788882765B37281E193E618884E29
:1040400036682686A17B2D3A8D04198B1BA232146B
:10405000011805FF77FFE7EF87C7CFBE772034153C
:1040600060329413D7BE7FDE083770945303503309
:10407000AB00CA420418E10178E031174E4A1686B7
:1040800003190B1B8438A93FB6572E8B9708513064
:10409000870401C384B3C0813A038FFFCFF7081FA1
:1040A000E34FDFC1204410927319A3003438F4CCDD
:1040B0004648893E4E483D3862F5F2D1941D32346F
:1040C0002013C33B0E041C2A384155233277061DAA
:1040D00003EE316A6A6A7A365046390781E1720026
:1040E000547E2925818EE1302F0640F41056052894
:1040F00092E6063BB1D5860418573809908348D01C
:104100003100E1011E04F3F7FFFFCF1573F67D9632
:1041100020530A1C06053151304313136B5400E33E
:1041200046B934417B2F269FB53019F70080726263
:104130002047041F7107A522D0F18906C5775A4C84
:104140002CA0364340017330342276743A42051D68
:104150008021D2A27114968132272428FFFFFFFF0D
:10416000EF8B7F7FFF49A011976344B041443570C6
:1041700058642A526D5555328146045384C8D5A2DD
:1041800029294C4C3643331223801105FFFFFFFFD2
:10419000FD9F6BCFFB4420ADB2909157044464ABBC
:1041A000C7933918901C33F871A3E411179B8071E1
:1041B0009D64035296C5061BA2FF7FEB828011838C
:1041C000060D1521665220A6C6200FB29617831041
:1041D00010CC8B0A903004A4987B420E6120098198
:1041E000BD130418C424D20E0631D73700D0E176AF
:1041F000AEB63E5B3121D10090C1A97077068578BB
:10420000533415000136C04663F042600070650605
:10421000190415FD5B2113C083E747D047C747D07A
:10422000115746181398C70633C03330A7E7091A49
:10423000BD96682007638899004453ACB83015FADE
:104240008B18C27D8A1288B8CB15C488C842050075
:104250000000000000000000B5A1700128840428BF
:10426000013E4208435840280148096567803112E1
:10427000A014D06146B018011E640491A0159210DC
:10428000750592801514509505BC415C901BE5E5C1
:1042900005688C0581B7902543C6401E53E201197D
:1042A000F331002E0FF0045700DF3F309B10000861
:1042B0006C067440076D05463012057822022450C2
:1042C000028821500216D0271150041541E0467093
:1042D0000457C056700556B0765006851035A10CAF
:1042E0009120F91A03C0B23024CA8F1B44B630990A
:1042F000163907051E5B6F0C1D30501320D50618AC
:104300003030072CB505380138011A95053612D022
:10431000A430750591F014951054058911F061656C
:10432000E0778071866016013D310865574048018D
:104330003B01297506E7E73B3FFAFFF7BFFF71E056
:1043400057B40919061B041CCC20200BC510104EB5
:104350000ED0D6008C9BC14741375192B4412142C7
:1043600021C1F3C55154C1D587544422516C3F310A
:1043700043423411301E80160E87271B849079B279
:10438000043B46A115158A836822AB786279121D19
:10439000335C5220F1015162291F62B914A2281422
:1043A00014B04720BC1801D5B60118231B2805847A
:1043B000203388280100F34A976E033C0A404007E7
:1043C00058073A065A053822045D22031D52021886
:1043D00042021812031E022D054F063D081C0583DC
:1043E000B093200E228240F13A03458031C29CD620
:1043F000314A400A1F0D1D1008031C0A18700719C6
:10440000709A2713B041B0116E0031726685240195
:1044100072685449130051A126051290C23D1386BB
:104420007971E89882111A13771A048067B6666C5E
:1044300047A1B4300B921319A3100939011B0C3991
:1044400031066062BE18A26364B113007504114E98
:10445000391E1215382B661220ACDB4E1B022A3196
:10446000B00102479392953240D001129276A71084
:1044700010172B103581830B1B0884C07170051E2B
:10448000052442E02229A02122A01114310085D563
:104490000561B0739061908380915513E794402932
:1044A0004380613309C44210D15222AE7316518148
:1044B000E60C1E041E7C10B011B001524080433344
:1044C000011941F1580212A3A621E0B36E12D013D4
:1044D000C0A79981BB0C3B47020000307046FF62C9
:1044E000A1129091707141D59B29925F3E1EB2310D
:1044F000591807111C8032F0111CF051E0111C54A6
:1045000050EA2AC110063922C021031D011A254094
:10451000043404A760224009050405031103E0F0F8
:10452000B5300A49D9083257100760106607503471
:1045300035322068082738508808252A5088081501
:104540001C239F985D125F9D983D6C9B90A16B72A0
:104550009AA0917A8299A0910884696E99C93B5278
:10456000AAC44A440CD15394B0A13701B010BB4047
:104570000F588240060559500405497002181C0F57
:10458000208083132004148280C28021916223162C
:10459000901123060000003820460C68C1A2F29555
:1045A0001381E39595B4A6A486A6B547A706758A98
:1045B00030A7FBA82BF131A92BA1111211AB8E133F
:1045C00012119B7F13139DAE40E809859E50C8CE03
:1045D000E091300A506A70C7113B31041B3442210C
:1045E0002E33021D3333214C042932735C042C74A6
:1045F0005C042C641665032E72167501480C580C69
:10460000580C580C580C4F0E4EB08B81530A3F0873
:10461000480849074907499601399501398D02191A
:104620009C02198C0310B93800918B0320B8380014
:10463000828A0430784A4F3A5B4F3C5D00D4C10611
:1046400040A0610005180760600860500970300ADA
:1046500090000062E0F39F0F0E1CF6E0901111A194
:1046600011212220042222A380D5121340021B0D07
:104670004E0D1B021A0E4A5070BBB0A1648AF08125
:104680007EA0522B49C052152444E022246342C02C
:1046900023444390441446F0433680342EF08D1169
:1046A000A001A250655005190419011A034E026EAB
:1046B00001280116802640023B01342003235003C9
:1046C000331004334003435F30044230E5055300A8
:1046D00005636C30E606730070F2F7FFFF1B4F1E98
:1046E0005F2044E062B0524990F2E031B003062C02
:1046F000039A819057D017806BE10110F048015D5B
:104700000559094E081D021D01180E1FD2F574052A
:1047100029033CFCFFE71F00A07F3F0840E06F90AB
:104720006DFFFFFF1FC8FFFFFFFF0840C03CF03BCD
:10473000FFFFFFC703F0FFFFFF1B60D01A54052ED9
:10474000C058A22C1201055D05FFFFFC3F00F5FFDC
:10475000FFCF3760E0311760E202E8313F67015F69
:1047600007CD12A021408003008C61F03AB1D4053E
:10477000FFFEFCC111E2C7930F8B60514425F03757
:10478000131042025B93380A1E3C0E2D00042903CD
:10479000F80228800369C00279C0017CD0013AD0B8
:1047A000D19001010700188001189002B672948020
:1047B0007176577074762206376B29B0D2A0F3D089
:1047C000027F7EFC08E1E1C58103C260B036344D52
:1047D0003D3C60A4031826071A6DB28205B951400A
:1047E00009290AB380021FC100F01820F018DF1257
:1047F00080510BF10F1DEE0D1FEE0E1EEE0D180C6D
:10480000B0100CC0100BB020FB7C72C5EDBC066272
:10481000C956D2A49071024A80024EB01201A5106E
:10482000D02107D37034009042B0B2A0187F7E7CB4
:1048300024F8F1E08123D240E0247703877C7D7D5A
:104840007D7D8D6CAE4199420971E01A0548081DC5
:104850003E0B032E0080F390F390F3AE210E3BDD70
:10486000DBDCCBCCCCEBEA091F0A1E0A1E0A1EFABF
:10487000C38A43955B56863A782960790105020719
:10488000050419110F1C0F240501340107011F092C
:104890001D072963E3A215F375250101020300F545
:1048A000601F3E7844ECD8E0C11BE360E280E1E4A5
:1048B00080E1D580D1D760CC0B92709A0C1B1D0C77
:1048C0002A00A0841ED02D95061C0800D77880925F
:1048D000A06258B082C04258C8AE0D1AA9BCAA9CAA
:1048E000CB9BCAF9C8C808808C40082808A3169B2F
:1048F000457D9339B6652104E21082A80A06191095
:104900004DF980C22F0401196031061E0B5F730F31
:10491000353412071D990A1B8B0CE7E6700E077FD2
:104920007863EED8E1CDDBE8600720021D100E02AF
:104930001D300F0319280A81845078B4071918080C
:1049400084A7AB8D2262C0213325204357021C016E
:104950003F5433F529006962072E56520639C54681
:1049600004E77EEB6B00A6006A9E0774E878407847
:104970007E780134850660280703601F230F1A80A4
:10498000220F2B1B023E42510CF192626012362123
:10499000051A167178794B5B4C3C148743C7BF45A9
:1049A0000BEDDFFFF7FB6E60091D503033F0919087
:1049B00043F02861017E02480298410491C0010041
:1049C0001C081F0928B8D9366140031F266222053A
:1049D0001C80212D2EA0D5268045785A3C14338189
:1049E000930601BC58F0E8C13261F411A6406C1185
:1049F0009F7F0DD0F7EBE7EDD8108A19952509496F
:104A0000071A04EE213BC01165B021368081A4E075
:104A100031D0C3E42BD05307501093E002195070EB
:104A2000A0020261600F1A0D180C1A0B180D1A0C57
:104A30001B0CE5A0D19001C1160C18883B05941001
:104A400048F3350990710E010000E24173B4E18032
:104A50000166AE008001C416D7906190E106021B8A
:104A60000E050602B0A184B3CF551AD5EB90F1EB39
:104A700070700D070405F34130542504364D10D4F1
:104A800005444F810A061D3C1870E0C13E61B0012B
:104A9000D2209005A200E005A00F691E42220D5A07
:104AA0000DB5C03170071D011944066C153375141E
:104AB0000B2A42D3CE18BE0219501030800301F7E2
:104AC000A0D3D0C122A0228490B190C3DFF0E20E27
:104AD000002924DB5B051946AD3D061B16CD209051
:104AE000027033120C2F4001031BB061F7B001605C
:104AF000E40FD010B002960009072880A1E6173015
:104B0000D0012505341102061A708001061C608050
:104B100001052830A001002C0E5755C042474E47D2
:104B2000C042474E47B042483E49A042491C020499
:104B300001821871F0F34B6152290A2C3568650720
:104B4000586669054F657D042D66666BA0A391903C
:104B50006367A063E0A2630B036F10000F6F0FE5A4
:104B600039E031CB700A2D0296A08140032D0A183E
:104B70002A021C0217B16DBD2420240422C35E62E8
:104B80009D21B0A55D62ACD0B56C81CA378063D47D
:104B900016011234130B2A181B00E6D08369621425
:104BA0007690E3236472031A602AB023053D6615EC
:104BB000102376A083FC9B80936D300A2E0A1E2062
:104BC00070107000A0E1A0C1B05153C04145A04198
:104BD000452E454A45363A464648464638071CD291
:104BE0000E0B833CF9FE770A61241A33904172342C
:104BF00022292B480234B071F262F0640223072D9F
:104C000020F3030100303B47E536360042658A2633
:104C10000394700900031A13BE3C0229F9092DDB25
:104C20000C2C0CD49041E4C0A1214510920B1A0B1E
:104C3000380C20C68022D643A3545172AE719671AF
:104C4000F9403B3327370E1E80211730406C335715
:104C5000620078821B99262009A390B1100C188C51
:104C600000D1664C460008403165354234380D426B
:104C70008C079A18E090F34261801BB1BA0025219D
:104C8000A0011B08270228368C0C5FAD0B6F9B0B15
:104C90005F84D9840B380D380D1D1E0DD4C3505BB5
:104CA000091977DA06C3D021E2204605F2319021B6
:104CB000F1202607010037030171810030324040A6
:104CC00017A7464482601432246593190B01041916
:104CD000506CA631EF59680A42373B9E0663073194
:104CE000337117788170648C031800170800679679
:104CF00076701008061868650A071E70636806E675
:104D00005068630BF300BE10FE0F6240747473446E
:104D100074864383954393942494CFDF8E17EEFEDD
:104D2000F9FF7F8560A026A72724C00200505642C5
:104D3000625227D4207700F3DFB7208B0A76B86C55
:104D4000D9309E4686000F813696100D9216881D2A
:104D500084377D4014042B6162714561B2C7810DB7
:104D60001A6201B180812C03030306078C18E096B8
:104D7000FFE3200621D043C043C04356042881C12D
:104D800001485AD28001011B0A1F082B022E0A3942
:104D90000D3B0D3D0849074B044C044D014F01DE0E
:104DA00067F0180B2C8133011E10A051021B637099
:104DB0003A0A84031A02A16B9C10021A02718D6FC9
:104DC000C06529864CE05232693943806226B76F4C
:104DD000A01131FFE01130C138073E75063F65056F
:104DE0003F85044901230306469C1BBBF6FF1C615B
:104DF000807110081901967D80050628021A282165
:104E0000B4013F031D03341F50E3034356201475C0
:104E1000021E2BC2F37331320B2C3B6207A3C7A0D7
:104E2000B2C604200B2AD071172040F12EE627EEDF
:104E300001E47210480C50103409934200160650D9
:104E4000A1500FC02913F1700041C94AE227001098
:104E50007B5B00031B0220C02100046600978716BD
:104E6000E2345600727585061E37333A09A6F4D52A
:104E70008542E505180430C01100011E01101E9680
:104E80007E56FE5CB9FFFFB760BD28BDE0A140D5EE
:104E9000D1E2A9F8021EB7052DD243B4C3A2A38460
:104EA0009357135297D22161075011162083A5B052
:104EB00013411816991BE9AE243919959C7E8E2C46
:104EC00051DC1C242C240AD1C370071A061908C708
:104ED0006171101001218F1004501A36355A00C428
:104EE000004C2735021E181000A81C39E0E0546160
:104EF000B00101590D2F0294242F20022790316018
:104F000081044A1406280B4B0A28091A05A6708149
:104F10000A96507AE3A11FB23BBD0E389D8EC002A7
:104F200039B082A0023A90F29002337090C21B40D6
:104F30005008E5B6204B0F84403F0B181B00188A21
:104F400049061BE0011445A4391510F451D203B1F0
:104F50004F6D0CA1A88850890A9040FADB0BE3CB77
:104F600009009191C795B3DB94C3910607041A0712
:104F70001A091C7D01B6000D2777467000678280F4
:104F800061F490815321839071A0815512B071908A
:104F900021C333700A660105E2206F8046489038CD
:104FA00039668C29618021D011E0241F807190C264
:104FB00090C1D0C5B0E115D033E4900130024B0070
:104FC0008001003D120718120293805322A05490D2
:104FD00033B03140083A9CC0110F2BB032A00228E8
:104FE00090629002283825BD9D081F890DC1963911
:104FF00046A7C4D1A213515A038750520F190F0765
:105000000403F6A0D1AFB091100A1C0AC050FF20D3
:1050100067D7A061B194B583205A6B127BCC1796E9
:10502000607B728393BD0049E815510933100B2C46
:105030000B11400B2B0C2E0C2B0BC6E75DE09031B7
:10504000337E8C146125406203332840630324605F
:10505000434525071E0005500233488041586085AE
:105060000556588EC0314067063527309713024CDD
:1050700084091FD20C722CB0816D8D30D4CCC860E5
:1050800001298C0D1906F5E472E0B1E2B3923E7F7E
:10509000A22A5152BF4D625756310CC421720CC422
:1050A00000400B868061D0118012D021000641CFD4
:1050B000CD3E0E06B651C226C494A4A696071AB8D1
:1050C00011865219B10AD10C28FD06E1E0E110DA8F
:1050D000FF5F9D88303D4F9FE460282838271435B6
:1050E0003C573B2055062885A362071E37B842C2AD
:1050F00066C401437650529ACC0219EE0E2EEE0E83
:10510000320DE2A031E062049202463093100B901F
:10511000BAC8A80DB46AAD3D216A1230829702E088
:105120003E58584528191000C0010718C001F10663
:105130004C0C2FD30360100A1B145B4B86A41C5429
:1051400042223C03250300293C011E51C3AF1FDD51
:10515000881033469C1F6190213AF04359D0526326
:10516000778180013241108C1596929CA10CF380BE
:105170000128800226E9B42A3BBAE42A607FA10311
:10518000173A4CC0434C5004436C00CA5905008484
:1051900046268001B09F01852094EEAEA7007ADA02
:1051A000202298B6103C8A309217C2F593A508F6D3
:1051B000AFEA091A05B01F21E021100C61B092106E
:1051C0000CE13020200483F3E4A5A0D299400F1A0B
:1051D0000C28138A453B0328532A1100468042B805
:1051E000A14A21A021410D022404D0800000000822
:1051F000A92016E01922F1029B213F22C0182201AA
:10520000EA23C01D024806814690B5A1A4D1020739
:105210004CE0073FC018900378800358F0025AE032
:10522000025CBD2A015C03A81F05C8F135801A5530
:105230004E069E71E382D01929B001980138F0180A
:1052400050F6C0180A1C08197072C4890700800340
:105250004A212ADB600026B002B25140806201463A
:1052600091F001012B0C2A50D0C2F062811490C33E
:10527000F033B094801B08A8818019088FA1E01832
:105280000A4E9001188001189001061A50C001F4CE
:10529000C1402B0F012AE0F17BB023639011232042
:1052A000025FA32184034A9385E10359F21251312D
:1052B0002114C1E27612304A5D22311210A450D27C
:1052C0005C241C1044C588B2F33505166253D047E0
:1052D000543C5924A018B35165B10488412B165091
:1052E000F3022650E4022515A2171D23562311A20E
:1052F000143391A1052F41011260F0E0E1418307D1
:105300007B61E02540042851011A0314C0111A00E2
:1053100012210117F046C0C2D023200D1EF8022C26
:10532000220A23C532E023D21544FA12131111A028
:1053300011311123010006231504714102061A2DB3
:105340004C61615A0C1B5F5BC11545110E06121DA5
:10535000C3D002001B9235A4041AAD957C4193156D
:10536000A66251310119514C92011A67324B510911
:105370001A1285AA0338B1A4015B0240DA28100191
:1053800021776261D01269353AB0432A4BF0322D51
:105390002663E022533C1212C02432DC1C704552BA
:1053A000CB1E53754757200C52E051100E7040072A
:1053B000D010C707523130A80883309808843008CD
:1053C000B2377AF0E8C10700323A6146E0131DE0D7
:1053D00023121E111B28181D8081568570D10229A9
:1053E000D103265095073A9647015625737C8212C1
:1053F000101225120680A515E3732A540140641982
:105400008A4117146912421D3C32A0311A1005302E
:1054100039233500D5751871E2061C011DE6870198
:10542000702E00111281A1C3013CB2044B044FF154
:10543000555101283C41011A417014903101100767
:105440006A39190CAA012E90148014022DC0186418
:10545000D0530511A071035C10801480E170021814
:1054600002180C18021802183A37E2F6EBEBEFEBD1
:10547000F4B16015E0213F00013056B0342790139D
:10548000802240023F84063E66083A6828021A538A
:105490000C834431A412404F13260018054E2302FA
:1054A0001C011EC3061B5471A2AAB1160166147515
:1054B00000048911F0133414F15261AC300FF10083
:1054C00000416946042550043B063A066101133445
:1054D00070E0C04120A92031073A008055D01580E6
:1054E00076A0E4A0E4A0C4D0D4A0E2A0E2A0F2F0B0
:1054F0000102BD012101BA0119B021F092540E2E12
:10550000B5A250322A2BC0255042011C420258013C
:10551000EA252A60B1025E01BA12B06B028821E06E
:1055200058024C052AF2220119094E0B7E6DFFFF2D
:105530007FFCF9F937302000C122920A01E22015E0
:10554000013F033B072E8E72414230C4430225F8CF
:10555000EDDBBF7EFFFCFDF35E200438073A063A20
:10556000033D11A4D5021F924B1DD07151C2052DD0
:105570006737A04307282226A015220927E2013C0D
:10558000A201D48012D061D02BF8FFFFFB7EFEFE7B
:10559000FBFF39A04235529688591D80229AC5E3F7
:1055A000011870453149E011E041F0122BC0296229
:1055B0000278E7DFBF7FFEFEF9F35520374473889A
:1055C00098B6033E041908A7500C83D01BE6025C72
:1055D000234126E032092ED0071D23F013030119C1
:1055E000D2F4C202EF210E7CEDDFB76FDEBC79F79B
:1055F00069204F5BA704152C090418016E2805AA21
:105600005162C01A4C7BD6E1029F31B019087EB0BE
:1056100021E2011EB1267D07294B3649014582034F
:105620001C32062E023C02F2CD9B37E9DEBC73E74A
:105630007D2020023B0238052CE6027550C3062B64
:10564000880505B458081CB081E052F0B14AF01149
:105650005DA067A0778097D066801C021C0149017D
:10566000150530064F4AE0051B41F0C324F029C25E
:1056700002E1DDBF7FCCBEFDF7FF68208024A031B2
:10568000621046BB57500C2F0839063BC4C4023F7A
:10569000B3A687098DD1901830B02100D143F032E4
:1056A000376112512716803341272C175002222AC6
:1056B000E1DFBF7F6A9CBD73EF8020E051F0235192
:1056C00001F6D190433A8075300CA570081888888F
:1056D000B7037DB8819D7100E0218022B091B4A014
:1056E00021B05120300218419ABE0868C5410142DC
:1056F000D033C0114680219015E013E6CDBB37EFC3
:10570000D4B47FF7882000D7152290234B0729B007
:105710001A70D01B00B01C065E074C0F4820B01159
:1057200011330824135567041A332C1D10021C234F
:10573000A0A1012A021C7211501ED02124802851E0
:1057400052C1015802302824252AD3CD9B374FD689
:10575000D0F1E78620057903BF548779D601019DF2
:1057600001055B011DB0011B0570686501586314DC
:1057700004BC21C035E0210F071D62011FC0031FBB
:10578000012CC073022C500135A24210EB703AC1BB
:1057900062061802BF12225B78C5DFBF7FFFD0E12F
:1057A000C78E609031A034E0510E001CE002072B40
:1057B000B0021F2F0F29E0012A1B252503341242B6
:1057C0003445E3D2A5D5D2C4B496783B134402261F
:1057D00070D920900127B001005B0ADF21D055A0CD
:1057E00075F0B3B0E29002011D4078C79FBF7EFF05
:1057F000FCCF0F8360A034500440000571A082F8F4
:10580000E001062F0B2B0E290040929A42D2D2C5FE
:10581000B2082442216083747294033030023FC383
:10582000045DA26E32A011A0C370071A051D0138D5
:10583000074A054C063E0EF8C51FBF68FFF0C31FA0
:10584000A720E902D0D0A2F0828083681DF04190A9
:10585000818091600B73F037A00731041D3518B0BB
:1058600034803671C0133EE02560F20126A022A0EC
:1058700021603291F35202262E60025E024F00191F
:10588000C0110900490E1D02E32054C4DB44E30AA1
:105890002F0839051D01F4ED1B3768DEB8439FB2B0
:1058A0002050065AE2063998A5A2319A580D1AE0FE
:1058B00071E012F00103BFF1E2D2A4A9A0180F7F9A
:1058C00030B007076E50231DC0110929583026E05B
:1058D000330502149003034C40D0030224800102DC
:1058E00011C00102184380222525F001021D40B09D
:1058F0000107189001051D10A0B2F3CFBF77FDDEA0
:10590000B97F7F6AA0015E630155B0510022234038
:1059100008609013483A3E7BA7600AC530FF0B3EF3
:10592000011B10441B106117F0323B901540023EE2
:10593000E2E2E20166572280721CF1D93366ED9CE7
:10594000B1FFFF8920E02B0129022090316DA07169
:105950004ACA7677A072331604051AA005035E10B2
:1059600090E6E2D2953A3E8BE481F037B077E006DC
:105970000424374B04194735051F32043C041A022E
:10598000404E5A2C00011D017801F0C933666C9C11
:10599000B87F3FA3202021061AB0010500041E3263
:1059A000027A0FCBC1D01C0A6E0978087808788873
:1059B000B7031E042140E2ED02220DC10231091C91
:1059C000355F041B65A5C40349B3A3026894024E66
:1059D00092046C045C045C04117003211004332BEA
:1059E0001E801980166D06F0ED9B372CDEB0FFBFD0
:1059F00092200D1D05149002059C01039E0101A833
:105A0000012861627252A3A041A0A1307F6320D01F
:105A1000213EB00118A0213D80012A2AA1DB0B2ED6
:105A2000073F03CC11E025E02529B022E021E02149
:105A3000B04400541204312190065FF8E5DFBF3D09
:105A4000DBE0EF7F85602F2ED011215CA0414E203E
:105A5000AD20D250D001021F00800200E1665B89B8
:105A6000071AF6A2A45202456389691010E00103E7
:105A70001C23082C330C7D50A007560D2B20033E11
:105A80004B093B0258211D3604F9F7CF9B357BE2C9
:105A9000CF3F8B602D500224382426345700E9C3B1
:105AA000A596081F0A195020501D07003AAEF3A40E
:105AB000BD344232B4DBB30263400165A07380138E
:105AC00022E0132C27D0A4C0C6C0D685D0E291C056
:105AD00081500D01D10D82AECD0BF9E7CF9B3D7FFB
