:100000000C94F12B0C94192C0C94192C0C94192C85
:100010000C94192C0C94192C0C94192C0C94192C4C
:100020000C94192C0C94192C0C94AD2E0C941C2FA0
:100030000C94192C0C94192C0C94192C0C94192C2C
:100040000C94192C0C94192C0C94192C0C94192C1C
:100050000C94192C0C94192C0C94192C0C944E31D2
:100060000C94192C0C94192C0C94192C0C94192CFC
:100070000C94192C0C94192C0C94192C0C94192CEC
:100080000C94192C0C94192C0C94192C0C94192CDC
:100090000C94192C0C94192C0C94192C0C94192CCC
:1000A0000C94192C0C94192C0C94192CD5F08D143B
:1000B000A1C881CFD9F1AF2000FFFF7D3F060F1609
:1000C00053CFF33C8F0CF56E0F410F23EFFB3C0F2A
:1000D00012150F415F8E1C2B3A99AEEAF8BF181F1C
:1000E0003D5CF330F2F0F0703122131CC6709C219D
:1000F0000F0F0F0F0F0F0F3C7DBDF4B01491CBB954
:100100000EDBBEF79D130F12B316F4F0A0494404A2
:10011000CBB6748D161FB55AF6F0F030E373AA6EA5
:10012000E99A1485202E18528811E3F5F0F0F0605A
:10013000F670B79B5F615896A4221B315F9CF890C4
:10014000F3F0F0F0F050D5996E0F22F57D97AE14D4
:100150002E2862F1F02096592E35F5FFFFBE081EBD
:100160001523F1755C97AC200F0F0F0F292528532D
:10017000F4F0F01011A4E853F11DA6AD240F0F0FF9
:100180006A243213B1B1B1F1F0801134936628E3DF
:100190001C86A9260F0F0F0F32248841F4F0F0F0CF
:1001A000F0B04134B3885BE33D9EBF18193722712C
:1001B000F1F1F0F04181391BE33C86A1220F3BCEE7
:1001C000F530D1F140F140B171E13221965CF33C60
:1001D00097A51C0FE32A2181B1A2F230F23022B59B
:1001E0007CFB3FFFB71021327171F2706214F31C77
:1001F000DFB51A0F35634143B1B1A2F14031B56C9F
:10020000FB1CEFB51A0F45246381A123E2F2109184
:100210008448F33C87A1280F0F142761239412B25E
:1002200043F230F230F14041C3AA71FB3DEFBB1302
:1002300087239111E2F2F0204107F33CAEAB1C3D65
:1002400016781131B5F140B1B1E1459356F3FDFE99
:10025000EB162E62D23131196753241133F33C86E9
:10026000A3242E8C21B641D2F140F140A163E132AA
:1002700021861256F33CDFA51E4C1B211143B1A26F
:10028000F230F23041B412B8F37DBFAF14253231F1
:10029000B1B17131222671E338A68D2A0F0F1111E9
:1002A0001B42F670F1B1B1B1B131114546876E5FB5
:1002B00022C3B22E89290F0F0F1C0FA2F310313168
:1002C000F1F0F0A084B521436C4C0DC33404C12C73
:1002D000192F4D7A48585748979888888C8B7B36C9
:1002E000743674F6C8D8EFF745B91E0F2445444656
:1002F00044351672313122B3642AC77505912C0F2B
:100300003245745353440F4144667373F140716234
:100310005343953429E77525952A0F223613311357
:10032000131335445433E39151625353536217E727
:10033000779F85160F4D2464E2E2A2A2933915F748
:10034000F7FFBF06392213E775A78B1E8CB15353F5
:100350004477B3A1A3A2A233513122E7F725BF14FA
:100360003C81221397716262F257CFB7479B1E2CD4
:10037000361493846627A131312283323615C7376C
:10038000459B280F44484193841317421572F1701E
:100390003131C251841758CFB54F971E334563830F
:1003A000A34341F3E031F192234516FF3F4F9B15E4
:1003B0003F15A2A27364F350332705F73DDFBB1549
:1003C0002A22626253628224B21201FF7E5FB7105A
:1003D0001DB54452F1A01114F7FE7FB70C2D444314
:1003E000F46021CF36CFB322374D41D6A3653134E7
:1003F000F110F1103131715326C3364597241C4E4C
:100400005C4453532642E5F2F0B0313131C34176BA
:10041000C77647BB223C45228421C17241B572E3B5
:10042000713131541128E33E4791240F23450F5178
:100430007F447761A7E7D1D1F231221233E9364503
:1004400091281B1B3B3A0F929B9C7A45F720B131B8
:100450001357712B123DE1BB4F95270F1B274A58AD
:100460005732225947343153716253B5623507C14F
:10047000300C87230F0F0F0F0F0F0F0F0F0F0F0FE2
:1004800044BFA8FA3002CFFB3CBF130F0F3611AAAE
:100490005532A2B102CFF31C83181F354462719B01
:1004A0009B18839B6A3EFFFF1CA300F3FFFFBF0462
:1004B00034B1F33CFFBF0E0F325866665738F33C39
:1004C000CFBF100F0F3B5C6A6A5B3CFF3D8FB710DC
:1004D0000F3554667A695B25FF7FFFF7042872FFAA
:1004E0003F8FB70E0F435472756557FF3CCFBF0E59
:1004F0004F666686747556FFBEDFBF064A5472FFAC
:10050000F8DEFF0E3F11567713131BFF3CCEFF1092
:100510000F45627285847456FFB88EBF120F3E6815
:10052000354544346646FFFDCEBF0E18233644449D
:100530003541C0B58E7F250F0F0F13F340F1705278
:10054000739181624354535786030000004038176B
:10055000E2F9F9EA2C553B553B465A366A167A0FB2
:10056000820F810F810F720F530F16FFFFFF3F00A5
:10057000380088FF29140F0F0F0F0F0F0F0F0F0FE9
:10058000289657A392A392D3D302C000001D3092A5
:100590008475A2B1D5D485AA796A6A797979989750
:1005A000979797979B9BABF02040C0284C3D3D1FF1
:1005B000B511B3C5B4B9B93B51214D213B230F133C
:1005C0008648127E39B2A54851461279795841566B
:1005D0003213B3F1F1529133C232724222E231F15D
:1005E000C002080080703BC8AA9B8CBD18A546A419
:1005F00046B346A3488212F9EA9B8C2C423B332B2C
:100600002D1339820277188C20290F0F0F0F0F2915
:100610004D5C38544854574693A594D1D3D303F135
:10062000388E27231833314D355453535363626644
:100630008383F520B404FD3D8E3F1718232C4554C9
:10064000325242C1A44403F13C8E371B2432916BD9
:100650007A6B437351E6F610D3011136FF772931D7
:100660005662724282326212A397C7A671624453E5
:100670001322130301B6CF572D0F6F9D24C44521BC
:10068000317589A9311317421162443551736202E1
:1006900045B20D50370F0F0F482C215A21495E4E9D
:1006A00044266631A6177126912B414118F1C031BD
:1006B00002E7384040300F0F646511666616516AD4
:1006C0006A1A510F5131F1401332928C3F15FB7F62
:1006D000024F201E5232216212613216B1F36018AD
:1006E000C32F53FB1800671E0F43483A584C0F6145
:1006F000F71017A30F2123FF1C1C7F0E3345443531
:1007000059E98CFF5FFF7F06445316FF5FFE7F08A9
:1007100055762622FF3DFF3F0C151762725325FFC9
:100720001FFE7F0A137317721AFF1CFF7F0E3344DC
:100730002626A41551FFFEFF3F031803FFBFFFBF8E
:1007400005416102FF1CFE7F0E4A353559D61A411C
:10075000FFBFFF7F045311FF3FFE7F0A3316721362
:1007600081FFFDFF3F06313113FF1CFE7F0E2B364C
:10077000264AC71A32FFDCFE7F0E2326363616368F
:1007800026FF1CFE7F0E43353535447189FFF9FF86
:10079000BF053C3101EF10FC7F142C485D3C3D113E
:1007A0009EE61E41EF31FC7F163C445947484C31D0
:1007B000D316811BEF313C7F160F444849384D7DDD
:1007C000B5881322FF79307C1D1C55254549677576
:1007D0001357132F15381408FF79223B1E7122225C
:1007E0000F630F0F1C23322171763849FF79BF7FC9
:1007F0000E2B452516261311FF69A83B1A355335D4
:100800002662620F0F18F1674848FFF9E63F12139E
:100810000F230F12B2724434FF7BEF3F0C350F22CF
:10082000811111FFFBF63F0C221369444525FF7926
:10083000EE3F0F260F1F7262443505FF7D823B227B
:1008400071312613134862620F0F14238553343518
:1008500026FF7FAE3F0C391CB1434515FFEDD67F17
:1008600014173113143745440F1147FF7DA27F1C25
:1008700026312232466253224D1665249421FF7997
:10088000EE7B1313263625375462353B01FF7BE69A
:100890003F163513131313352931724434F769E0C9
:1008A00078231F13552545597A69151531252A498D
:1008B00077452105E76100782A1E2645735756655E
:1008C0001119717979889F9F0F22410F1222CFF75A
:1008D0001E0F1A1D15343742C6B487485136526A66
:1008E000CF711C0F21142A59282F2C23173432378B
:1008F0003232D7F71002CF306C4F2253530F0F0F05
:10090000212E61D58111E19412251826CF36EC7F76
:1009100020440F0F191722319191E293315425226F
:1009200022DF31CC7F200F0F4A6815F13111E174BD
:10093000516433262616FF3BCF7F103CC22321355E
:10094000262636D730C43B201D3A4D3E1E141F0FBD
:100950000F0F0F0F141B1B1BD7BFE73B0A1C363AA8
:100960002B1AFF9FE77F0834353425FF9CFF7F0655
:10097000585323000000C0160F0F250F270F270F15
:10098000280F27F3FDFFBF082D323716E3FDFFFFC9
:1009900006283A39C7FFFFFF048129C7F1FFFF107E
:1009A0003258576778573829E7719EAF10172F5D77
:1009B000ABA63A723FFF189EEF100F0F9697465165
:1009C000261E7F18F6BD0E49175189473B257FDE4D
:1009D000F7BD0C155387A6451C7F8EF3BC0C0F1D6D
:1009E000B7C2D51E3FCFF7BC120F2A4121B2D11496
:1009F00021643CCFF7BC140F1C3DD7F310F4202723
:100A0000473DCFF3B91A0F0F1149F620F230F230FB
:100A10003692137C8EE3BA1A0F0F0F0F275312E290
:100A2000E2D3E2131B799EE7B91C0F182734F32099
:100A3000F230F230F3204655791CE7B11E0F0F0F4C
:100A40000F3A39D2F230F140F3204242F31CC7B3DF
:100A50001E0F0F0F2A78F230F230F2301352543654
:100A6000F33CCFB31C0F0F19B9F230F230F230144F
:100A7000515427F338CEA3220F0F0F0F7DF320F22E
:100A800030F230234164332414F77FCEBF0C0FA320
:100A9000A2A24361FF3EEEAB10133E3D1B82F3600A
:100AA0003267988EAB220F2535252E2E1B226D1313
:100AB000A2A2A223E14727771AEEAB223C252626E5
:100AC0002E2E1A331116436362F1409314E31FCFA5
:100AD0002B1B13132272E1E2D227241A0F182B06C4
:100AE000E39DAEAB201923362D1E1F2116535272E3
:100AF00062D3A41753EF18AEAB1C0F0F0F2C3D257C
:100B0000E4B1F230F320D76DE779AFAB160F3E16A4
:100B10005813A293D3D3C44AF7FCAFBB150F0F14DD
:100B20001344355453F32001E77AEFAB17283958B3
:100B3000461666625393844808E73EA6A3201A32FD
:100B4000483C3C18343D11A29393D3D3973BE7180C
:100B500086E7280F2455678475667152B5B56A6AB1
:100B600079796A627162527F1CBEE7202A482A5155
:100B7000245461C414826A31F1C062624B341C8710
:100B8000260F1E513949354331E3F3D0E2C121E24A
:100B9000E2F3205FE3347D87220F321384486A6AD0
:100BA0002473C4536262F2F0805BCF340C9B154710
:100BB0006CB84C2C4AC8F130B201F71DA6BB150F1A
:100BC0002C4695126648163A5805E79DC7BF170F81
:100BD0000F54636211152549481301E71C86BB19A0
:100BE0000F3C68A75E4C161F4D44E26103E79C86EC
:100BF000BB190F0F486C8A2655152B49F5F003E7F2
:100C00001D86B3291C361351634949490F32253AD1
:100C1000253A444823F8F01002CF1104C326260FCA
:100C2000292A2A2A0F235F7E7D8C8C6E6E6A6B7A4E
:100C30007ADF1CE7BB140F4C67992294F1105326FE
:100C4000F71C86A3220F1D397D99B6B9F230F23018
:100C5000F41043232A1BF31C86B31E0F346499AB94
:100C600054B1F320D7B93C410F327B1CD7E31F0F9F
:100C70000F2C2B2B2B597635545353818595037F9D
:100C80001E97CB1F0F0F152C2B13361245484858B3
:100C900063A89304CF110483290F1F445867757A02
:100CA000797A117833E611F330F140F14001E71120
:100CB00044D3325362717191A293848C2F2974466C
:100CC00092D4E21111A3877416414828C31020C39F
:100CD000340F0F9597877888797D4E19554882692A
:100CE0004128E259423A24736A5A7AE30800E3360B
:100CF0000F4B87846476654F0F262D65174283F46A
:100D0000E033F26915117A59575776E30801F73243
:100D10000F0F48778583655E0F414F3775558333D5
:100D200072F116F36957212222FB2F11F72C3D5542
:100D30001D184437711173314363A13A115139378A
:100D400011212222FFBF063721233191160F0F33C5
:100D500047B15262432322322301F70B00F32A5C8E
:100D60000F690F253C65598334F190C38169186977
:100D70005B535362F7AD73FB212CC131362622221F
:100D800031A15183160F33222202FB0A81F7302E44
:100D9000313535445E4F1937487331617251C23174
:100DA0001115717D743131E728F9FB270F29128560
:100DB0008364765A5B1D1613623171113713220258
:100DC000F7DAB1BB2711222222343626273BF31053
:100DD000131313241B26271C03E32821F1360F3C91
:100DE0001384A39282756A6A17142971744126F4D8
:100DF000105771485383755666E30A13D3305F2248
:100E0000A2A2F141351A5326442642B7848D16F525
:100E100047D341515766C71A1651313939393946C6
:100E20005444A3C5C3B436797A1116464454266394
:100E30003571B505C33004C33C3B6A69998797A6F1
:100E400089785A1229144813525422536221379137
:100E5000B885236415464CC7954CA7311B13332620
:100E600046354A27442643E442425151F150F3B0FB
:100E7000C444211204C71504C3323966757544622F
:100E800044447DCD19416139623837654682D7D4F3
:100E9000D3685ACFFBBC9B1A1C372773339232A1FD
:100EA00032B1A1A2B1DF9D06D324C413130F628710
:100EB000146267654673D7C88548281ACF19048716
:100EC0002B2145444444354545493D3E3D0F32358F
:100ED00038468771E3E202411004C92A35ADCAE8F9
:100EE000E7F7F754928C6E5F0F140F0F5D6E5F3C47
:100EF0003D61F0E4B1140F0F3E4D4C4C4C4C382981
:100F0000FFFFC7F10E64857475564838FF3CC7F380
:100F10000CF8F010523435E33CFFFF0E6C968365FD
:100F2000524335E7F9FFBF0C625243250F11F338E6
:100F3000FEFF140F0F4278A583641253380000108F
:100F400004340F0F0F0F0F0F0F0F0F0F320F0F0F74
:100F50000F766D5F5F0F410F11120F22FFFF876742
:100F600016422258412621517632F1A1FF5F874176
:100F70002A1B173511233625143135131544412208
:100F8000C54791B711577F5F074134880F2E11175E
:100F9000311711154B243454423147314147A19642
:100FA00011215622223E7F0341351A22310F0F1E96
:100FB0000F21190F28110F56354361422247413145
:100FC00047835631023E7E0341240F4648280F0FC7
:100FD0000F0F0F0F0F0F0F1B0F250F147FBEFF1FDB
:100FE000062D42547F3EFF7F060F0F7AFF3FDF3F03
:100FF000042C43FF3FDFFF0745445604FF3FFF7FBC
:101000000841637332FF3ECF3F0A0F3EA55143FFB5
:101010001CCE7F0E0F2C499B572912FF1ACE7F1032
:101020000F1626594AA75A38F719CF3F0C0F8F527F
:10103000A65B4BF71CCE7F100F0F3D676AD72224AB
:10104000F31CCE37180F1A5D6BB53481AE1E230F1B
:1010500014F33CCE61260F52625353536382946360
:101060006666617281A3A698A6F33CCE21180F0F85
:101070003C47F5F5F59B2E0F3426FF3FEF370E2842
:1010800066F12011511CFFFFCF270827F28072FF65
:101090003DCF3318222721B2F130F123A157312956
:1010A000FF1CCF331E1B2226263643E2F1F182516C
:1010B0003622211BFF1CC73F1A0F15173948121281
:1010C000F3F071224116FF1CE7331E1A26262A363A
:1010D000455221F2F1F0414113127F9CEF33162962
:1010E00027272621CCC4F1F060217F1ECF37180FAF
:1010F00031362631473185F1B083467F7FDF3B0EA5
:10110000283334F140331677BEEF3B0E194253CCEF
:10111000F4D013733ECF231E0F4B2443A3F320F3CD
:1011200020D3D374413663FB388E2B22532973228C
:1011300034E231F3F0F080B197B4641338E3B0AC2B
:101140002B260F125539722234E23153535344F592
:10115000FBD0852435E3320C43320F5D77451245D1
:1011600012452284662256236631B59687787A899D
:10117000B4A687CF777F3F10882222135B4872295D
:10118000C7755C33281C0F3462497148F140717196
:10119000626253711674485451C7711C431A0F0F81
:1011A0000F0F1B2A3939392A2A2A1BFFF77D3F00E6
:1011B000FF9FFF7F050F1603FF1FFE7F080F0F1B0A
:1011C0009AFF3FFC7F060FD4B5FF3FFF7F022EFF43
:1011D0000F0C432E0F36AEF160C5323535534463E4
:1011E0005362535353534344443535CF0200023DB9
:1011F000221A7B852326658223222A8F692712885B
:1012000055183C74A16291142461F430F14001EF4F
:101210000880223F121B4186231227569212281261
:101220008C582C228B19211D114673A14284234214
:1012300071F3F001C3040042640F481961A76657B7
:1012400066662626512621253335222461353176DE
:10125000641194141221E112122121911112122110
:101260002191111421911621919B9BC70640516237
:101270003F86842617172617365146354126131503
:101280006225317625212153242111B111224142B9
:101290002117215112131242121312511216511218
:1012A00058E77E4E77250F71812222132341446433
:1012B000815311D35121215101E308761B38123299
:1012C0004114414324570F0F25422194487721A20E
:1012D000A2A2A272213563315753E308C21D3A41DD
:1012E000146751137B4619325F1C2845643372130F
:1012F0001281618161F1B1B1622225246B00C33B8F
:10130000326142146646277B367E4E1B15214755B7
:10131000422551F2F071716253126F02402B3E412F
:10132000144121561741165C48595C141611256664
:1013300065F170F1F16262160F33175B1711FFCE82
:10134000731B2451131421561351111255342F13AA
:10135000362123165663080041465D767579886903
:101360004B2E22337B1231C9234671113323731163
:1013700016411351296729485F7D8D1C61731D003B
:10138000212C0F0F0F142E3F2A31B1F1F1F140F251
:101390003032B413A522715163089C63340F117865
:1013A0008588877989342721586435F46069413408
:1013B00035353566757585F3086C73330F53728157
:1013C000848445214D1238563531B1634362511240
:1013D000311331354404E30B006B400F5A77181773
:1013E0004D11295611432121D2311131F12012E141
:1013F00034952823815D6139353554FF4A317D3874
:10140000314435261C12113324211121317111511F
:10141000712111711131151C13175338FF8B303C9A
:1014200036121247183B151425341318213521267E
:10143000318122214A28293614114615F70B003F25
:101440003A223535353E15143221123252F110A2AE
:1014500022712271436431193B0F31453436EF4E0E
:101460009227303234452438341514421134F1F0C7
:1014700020C1114311233134383B4DFF2F146638FE
:10148000113521475226B124618111F11012111139
:1014900031121116414A612733523949F3EE104D8A
:1014A000424A6372713122111217312441233221D1
:1014B00011311211C11112234121114B4E3136321B
:1014C0002435F71F350D321225542114247525A219
:1014D00071712222226317232226441333193128E3
:1014E000FF0F201E32411811491A25333616655355
:1014F00061F1903232514B33252542181159FFCFFB
:10150000311E2251174B152A432616B523222425B6
:101510005214126BE30E24554C6D86848331312BAB
:10152000133756473164342111111181131121A150
:10153000112181111121431367683531392146FF8B
:10154000EF932C2E41181116421513173122163223
:10155000211222F320223321263231FFCED0CE3980
:101560001C8371B223721314141111141111171169
:1015700011114411116414419211443304FFFF30DE
:10158000A52F53531452222621322D2213621452B6
:1015900041521442613511511104A30010486032C8
:1015A000688694A6AA6B212341912122111136321B
:1015B0005111117251111112F1101116B11218714D
:1015C000121A415F6F1711831292B15133524900C1
:1015D0000000C06E4A0F650F720F92AE9F6F211808
:1015E00057211222111126331221111172121211D8
:1015F0001112118211121116A21218A2128C9FAF91
:101600002D612113636231A1636369FB76EFFE1CD8
:101610002222B1353512242223F250312541A31064
:10162000B4C2616275B4B176117B111723312124E4
:101630002723124332231111218221111112B112D9
:101640001112A21227162726682114126341214184
:101650006163A204A90284CC61452193846536218B
:101660002A22141124212212116311121122612243
:101670001111122111A12126C111BA12A7A625818B
:101680002561115816333273A408090084C05FA382
:101690009727213157317C322E3511535253231263
:1016A000A121212221D12122E21214220F0FCED218
:1016B000D323B126812138824154825241840303CD
:1016C000C0B46C521A2313162329431431C3631375
:1016D000272729111A1112140F13141A3338F2F094
:1016E000101F0F4112251412122412362201E03964
:1016F0000C38D1C314542B481155944739250F0F7A
:101700000F22364C4B69121922360F81D8E600E3BE
:10171000794C28131F0F1F0F0F0F0F0F0F0F0FF70D
:101720000F0F0F141F1F1AEEEFFB1E0A2626262E80
:101730002EFF1FFC7E080F0FFA70FF0FFC7F0D0FAE
:1017400014F5C05F0F07FFE77C77111FEA664813A7
:1017500013130F04DF733C072511172222132214E1
:101760002617262734187315D7D7E808DF030C434C
:101770002E1C380F220F91157B0F450F454C3D3D18
:10178000273413B5671662D6CF010A43380F445485
:1017900057572FDC124D123E123E123A163A1616C9
:1017A00033216C5AA81671129587410A033C1A75A9
:1017B000840F16131F1412214418652883E6F63689
:1017C00013711A42221912261B172F1FE3478A6B27
:1017D0003853582B2B11141C7414563345242725C9
:1017E0003635215222556B441133451331F303EA48
:1017F0002F2E1613216214210F0F190F1911231206
:1018000053634214342424181F642482233C0F3170
:10181000112461321336392B1C141B1785D1D3C701
:10182000332211824125113121211C15E41CC333BF
:10183000321C27160F171B121B86F3E0D31812A2B7
:10184000281131331612371937314104D353462941
:10185000629B122E14210F424C3D3D161434184445
:10186000123381255356130F252A231118121812EB
:1018700027134104D75F381B128F0F42132337659C
:101880004B3D4C1A35271132362251247128151739
:10189000260F13411C0253460F7F0F320F32495758
:1018A0003839683A21582268212581141876127E29
:1018B000136D154414131218121713C70C8A5F3CCA
:1018C0001C624813253644254525552865363221A6
:1018D00021275412761972146414741614146308B0
:1018E000035F36472B1B234C14376A8D154516159D
:1018F00021357314453521520F441B580F63474857
:10190000C37B38343B1F163A24A6471139121716E9
:10191000232434292A733411521141646A5322C694
:10192000BBCF3B261D4281829193561331151A1568
:10193000112312231311250E00C37050473912468C
:101940001A1536254D529E5E212746121114622229
:1019500024312455245524732421723264111185B5
:1019600088692A220600D0604E161F3D3D0F54168E
:1019700014570F251ACA23D613572326226121375D
:10198000842A252325223522633393337522989B9D
:10199000B341C04C4C2E4353352D2E4E171196118A
:1019A00012267123112334331222222794217531F8
:1019B0005632844617323245272315F344944C4659
:1019C0001624115353625648672635271166222381
:1019D000255154234225113137293A4B17323335DB
:1019E000143614F30C80443C155461625253345441
:1019F0007A177916119822125833284433D67A6E02
:101A00008D4B6F193241C30000603AE2E2E2E2F12D
:101A1000F1F1E2EA12F6F9EA1841815A220F412166
:101A20000F620F726D316A6E018000435873AB1103
:101A3000B8A912EA21E61211C51151D311349362EB
:101A4000D231D221F410F450D42122E51131951372
:101A500033284327332833281421611840500F1EA0
:101A6000385C2E0F435E22C948223811222153616F
:101A70008431732176141181141181467212181168
:101A80002C17112C292B6DFF38162EFB2017131540
:101A90001126268824411611121541361124492198
:101AA000271A2028183038F230F1F0F0F090B1C247
:101AB000B1D1B41A41692911110F170F230F32192F
:101AC000361E1EA83C8E3928121435444444445313
:101AD00044F51711370F0F0F0F0F0F13B8AEEA3B76
:101AE000222635C4E2E222222222F230F32067527B
:101AF0001B17B8AEEF3F1A92A3B1B1317122D315C3
:101B00001131221BF8AEEF3F10536262F12213C471
:101B10001FB8AEEF3A1F3571E2E1F2803122F230A8
:101B2000F4105F0F1101B8AEEB3226170F249F613E
:101B3000F32022313122F230F320F410AA31B92EF1
:101B4000DB36220F232E139762223171B1B1A2939B
:101B500012116139B26DDF371C0F1F3A713131221A
:101B6000F32019640F1211B06DDB36240F0F1935F5
:101B700075F320223131B1222338531B1511B22EB7
:101B8000CB322A0F1211433271F410F2F080F2209E
:101B9000F42013131452795AB8AE0B62285E76857E
:101BA00053D36352636262625E616781E6D6D3C3D8
:101BB000B4FEBE2F271C223131F11313224811F736
:101BC00040614325F83CAB0F28133122316262712A
:101BD0002213C42E2E2E1A196D62539312B82C8A1A
:101BE000472C1559769453666666145219517A69D2
:101BF0005C6A6A890F558794BCAC8A46281E455397
:101C0000525757756611556766765A5BCA94A7B6E0
:101C1000C5B92A9A3E280F132F139753223171B159
:101C2000B1A29321411717171B23B069927F221984
:101C30002E7B89171B2A4912172B2A39794B6B8A5D
:101C4000B028834E2A185B7A98576B6A695B67766F
:101C5000358A9CFAF52063768593B82EEB7E1F0FAC
:101C6000135885535373525347484847645301FEF2
:101C7000EFEB1F16143493A2A2313122223113B894
:101C80008E82432A151B7675454454538315727909
:101C900079798D9CAB2A9EB7C5FC9E8643260F534F
:101CA0008114231253474838495C5B52E4B2C5C4DF
:101CB000D4B88E8B62270F14577644746162928376
:101CC0008574454C6B6B697AE902BAAC8B42280F7C
:101CD00015365477756547444434456BCAE4E3F6DA
:101CE000F5F420B9BC8B5F263A6372737575563470
:101CF000313111565B7ABA12233231BC2C0B5F2C76
:101D00000F2744437765765612545738290F5321CD
:101D1000CBE823323111B8AC0B5E2A0F2367855311
:101D20001175656647444424565FCFF745546352A6
:101D3000B82CA35E280F125885446866666556481D
:101D4000487899D7F341445453DC7EB76F1B191779
:101D500067752922120F2446446432015C9C870F68
:101D60002A22222231D384223625160F0F0F0F2765
:101D70000F3A352626177E7DF7C31D22137944536B
:101D80001331F16213F330A5790B3C5FF720168411
:101D90007536212622663122262A3FDCF33C14A127
:101DA0009373252A0F0F0F0F1F3F2EFB7E100F0F6F
:101DB0000F11172B1B1CFFBEFF3F060F2518FF3FFF
:101DC000FF3F06F17022FF3FEF7F0A43626152340A
:101DD000FF3CCF3F0A0F7D93A273FF3C8F3F122140
:101DE0005A58687667574812FF1C8E7F0E0F1911DC
:101DF000C5E5D3B5FFDFFE3F082532A122FF18E677
:101E00007F140F0F36333591B4C3A467FF98C63FD4
:101E1000140F0F1731165184933425FF3CCF3F0E1A
:101E200027687594746556FF3CCF3F103549586755
:101E300093935748FF1DA67F182522221B3E66312B
:101E400011D4745719FF1DA67F183522222A3D632D
:101E500034F130A26537FF0DA0FF251113111113C6
:101E6000C211F25044616413540F736D8907F7492E
:101E7000907F261C21123725263D1649336293F2A6
:101E800020F310D3B44BF31000E32F424354341328
:101E900021B5A5A646A38A0F0F0F0F0F0F190F9795
:101EA0004E7A047112F7612E133513352334234310
:101EB00013133E1B2126355339F3F0F031D39671BD
:101EC0000073E82B4238382919CA887144852C0FD1
:101ED0000F0F0F0F0F26481F7D0770807F642E2382
:101EE000461574148314A2A1A97D2738630FF1F05D
:101EF000D011D3A3868830807043312256234624E4
:101F000047234724561B661B661B852A430F412621
:101F100066628C073299E07F3331533112212442BB
:101F20002443233418442644174448183417534490
:101F3000D31B01820C007E412193263494744563A7
:101F4000294323342344325223751A841B841B9360
:101F50001C921896458682EA018000034E51516317
:101F600039335139563A7628354224543251842631
:101F7000442A48224931572276219419A419B319C9
:101F8000D21911256693043020C04C4E0F113A42ED
:101F90005631216331335129572A58294941245454
:101FA00083A423752754294921492188972E152870
:101FB000431843302888684E0F0F1E23584165355B
:101FC0002272247526572655184651135573A514A9
:101FD000751346254525642437245623642483320B
:101FE0002C8C693C0F0F3D325751A422622166228E
:101FF00054296527453313656212816337582A498E
:102000005766372CAAB83B2E0F119313F11071F1BC
:102010001071E1119137322D344948239311414217
:102020001142115103B73CFC7B272C125541613101
:1020300052321141637B5A426423211322013B3CFB
:102040008C68344E57426432922267825A6253320D
:10205000A576374957343724462455246473FFFA4C
:102060007F1A0F2454162524111361212222323F96
:10207000FE8CF826532A4768681543838584744686
:1020800062134324322531B3AC882C3A82D6F34014
:102090005812142231253D6C6A127612A293F73041
:1020A00031621215212178121323081040480F3F86
:1020B0005834676473349443774298336A22316AA0
:1020C00035B931A53256275736563679369636A564
:1020D00027D3054010404B0F5CAA7564865441918C
:1020E0004496456A4475346734583467342731342C
:1020F0006734584448444C355B4569360841902460
:1021000049380F571C6329B3246275523A522B5237
:102110005F4B4C4C4C194219424C5C4C4C4D41B0FD
:1021200067712874DC7764631A637D6D6EFC1062DE
:1021300066665757575758477DD7370E0F14F4F038
:10214000F0802F655996251E0F0F0F0FD2F5F0F076
:10215000F0F0F0F0F0501F4992240B0D0F0F0F0F0D
:102160000F0F0EFBBEEF3B00FFFFFF3B010FFFFF1A
:10217000FF33091111B11803FFFFCF330D1366624E
:1021800091263605FF3FCF3F0D2266F11017270637
:10219000FF3CFF3F0B4C5383454403FF3CFF3B1385
:1021A00023163252A2C226362201FF3CFF330D5DB8
:1021B00051B1C12BAA02FF7EFF370B3522310F32FE
:1021C00004FFBCFF3F093A65912202FFFFFF3F0079
:1021D000FF3CEF37130F2133A2C22A2A421102FF1C
:1021E0003D9F3711A82E143913B9522201FF3D8F9C
:1021F00033190F4622F1502E2E14A931313201FF2E
:102200003C8F33110F29ACF64B2C433103FB3CCFF1
:1022100033150F0F6233B5F3A08814E302FBBECF72
:1022200033131E223358F520C8187701FBBECF3375
:102230000F6E2396F3F0802702FBBFCF3B0B79A6EE
:10224000F3701703FFBFF7350B0F1B12B71102FB1B
:10225000BEC731110F89C8F2E0C9687201F93EC7E3
:10226000311D0F0F33213236F410227B9D1B342198
:1022700001791EC731290F0F0FFF31614321545FD0
:102280006F3E2334214121326142017F3ECF351B15
:102290000F32120F212F5A15113141A4B1013D0EF9
:1022A000E7312514142126263A53CAF410F34819AD
:1022B00043121213A40531188631390F190F240F58
:1022C000130F240F222717316316D1F4F0904746DD
:1022D00023345422A4165102C7000C43140F0F0FCD
:1022E0000F0F0F0F0FA68FFF7FFC7F047566FFFF98
:1022F000FC7F024CFFFF7C7F080F439513FF7F3C60
:102300001F112D4254636363676707FF7C1C070C32
:10231000CCE8F3F3A039F3BC9E27100F2D89D4C469
:10232000A61771FB3CCF33140F280F51D1F2F0F0F8
:102330005053FBFDFF3F0A2631623113FFFCDF3FA4
:102340000A24F2107114FB3CCF3B18243935243297
:1023500064C1F2F0C08417FF7EC731180F344422E5
:10236000243422F5F0F0C055FBFEC73D143A252574
:102370001A234322B3F1A0F37EC77D181B45447492
:1023800031523131F1C05757FBFEF7BF0C313122CA
:10239000D23416FFCFE37F0D0F4C9418212A0AFF89
:1023A000ADC3FF172222227352532356ABA6B505A5
:1023B000F3CEFF3F122E131313134A647131FFEF54
:1023C000CF370C1E11F7F01111FFDFFF3708221372
:1023D00013D3F7EFDF3B0D1B13A671534404F75DD6
:1023E000EF33163113132327F250F1E2B53AF30E0F
:1023F0008F271E1D91133F4353E5E2E2F121714106
:10240000A434733C87632C29766157576611648125
:10241000617181B1A78958225322627675FB0D8FB5
:102420002F262C911322651371B2F1F080611116E1
:1024300012232627267B4F1F3B221F124153170FC3
:102440004571F1E01142232222221377BF077B1747
:1024500038311E33B1B1DC594F3B31017FFF477F2B
:102460000A0FB387594C7F6F4F37182C111313384D
:10247000F1F060414342357FDF663F126237212A27
:102480001B23C21F117BEE1D7F1E263122263555D0
:1024900033130F28432393232A7B4D243F240F1308
:1024A000136727313A367271F2904226243552531F
:1024B0007B18A63F1E0F2A214631982582E4F2F0B0
:1024C00083724163755B8E3F1C0F0F21157112C221
:1024D000A2A2927482151161D88E371E0F8AB4722F
:1024E0001193A393D3E2A23172B975619B86B3278E
:1024F00035716A4C1F1525413E4D4C282A0F22216B
:102500001F4C7902220084213C0F3CA781B8E57260
:1025100061A292F130F320E6E6F410F582F3A0F226
:10252000309511C64812118004112D3C449BB7F21E
:10253000E1F2F0209151B184347113327988E2F1E3
:10254000F0F05071F54361452267D024014C3832D8
:102550005253A253A2F320A2F1F0F0F0F0F080F277
:1025600040F170B2A1A3B1B1F1D2B5D43DCBCC044E
:102570001F1FDFFFFFBF00FFFFFF3F00FFFFFF3F09
:1025800000FFFFFF3F00FFFFFF3F00FFFFFF3F0097
:10259000FFCFFBF81626264644120F0F251732539D
:1025A000388EE3382832421132A451F410F520F568
:1025B000C67D0F323C6FCBF3403A8EEB391BB2969F
:1025C000226343C4A28339290FB7F905FBAEEFBBE1
:1025D0000C2AEA49430F14BBBEEFBA0E1223171799
:1025E00048B86BFBAEEBBB12252515EC9325250FE8
:1025F000147A9EE33F151327215344A29361F120DF
:10260000013A9EC333221313A69393A293481B0F40
:1026100058DCE736456462B2300844405777863567
:1026200031B531B53136411131675C5B5B6B2111DE
:10263000693279227931F9F5F556242AC3F1FC2F54
:102640001A0F0F0F0F0F2199C3A3A25122115EE39E
:10265000F80C3062245471D3E451543435191652B5
:10266000F360E362611351231334230CC730283520
:1026700048155933F420A371F320F320C78C310F90
:1026800048B6C5D27361E211A437040C83284850C0
:102690000F16142A227A48414751D442918243713D
:1026A00041435143432245531763167324832383C5
:1026B000818391828173644421000142490F171282
:1026C0002C112A235B436B62797287F250F5E62264
:1026D000E222E2417121E4EA6A62196616782388EF
:1026E0002208B3A77B1A2B655A6A15643363122339
:1026F000282A232A1337331434243314057B033058
:10270000322A0F0F3F66F1F05063121314342E116A
:10271000240F65F290B156FF1FBF73144156582223
:102720006222F2200F19F33E5A12270F89A2225378
:10273000791A11255A1844364388D3B1352607E152
:102740003E4B332C3D2AF290D115113114115F5BB1
:102750002714111961C813312235611B0212380F79
:102760000F113DC6D1F1F010C112744B116AA5A929
:10277000C6C412C141A1223935352669D986003A2D
:102780000F0F24116E11F1F1F010118254272A96C7
:10279000A3C2F41012F2324B223D312213FFFFFF8D
:1027A000B306AA221241D8D6032A0FF6C0F1C111EE
:1027B00061660F6798F2C4C4C47522231A1214C14B
:1027C00070AF013025111131111141F190D11381F8
:1027D000794F89B5B5C4B55515262B1A110030604F
:1027E000348387A7B5C9DBEA13D6DA2594589276E5
:1027F000F180E1E2D2A5F720D6C7A9B429780C2E42
:10280000689CAAD8365472E11123A29393137143A2
:10281000535756568374462429080C38649DCBF7C9
:10282000A4F220F1F05051A5C7E5E2E2F220F31046
:1028300063214264154148190C8100003E0FBC32EF
:10284000F2F0F0F0F0F0F07422434332532253B22E
:10285000B1B1B1F220F320F4E5D6B77C08052160D0
:102860004486ABD8765375314481B23141A1F1F041
:10287000D0F140F131F122D224D124B226D224B2B7
:1028800025642A08E1306026A2C9E7E6F6F5F5F5E9
:1028900075858484A4978769CB7B1AE67B8AB019F7
:1028A000575748F850445353626A79A705F71CC339
:1028B0003F120F41444434656646287B867D9F184D
:1028C00031B15353F2F0F0F0F040E1933DE37D9FDE
:1028D0001A444444531726F59031A20F141FFFF3F6
:1028E0003C0F130F122F17F6F1F1D33405FFF33C11
:1028F0008F11A326220F182F8EE802FFF33EBF0B85
:1029000093170F113B05FFF13C07140F2973F1C01A
:10291000F1D365412EFFFDBC17120F39F1809121D3
:10292000223126FF7B1C07100F18F8F020F1D33D51
:10293000FFFFFF3F00FF7DDF170E0F292625F35015
:1029400013FF3BDE37121A13132A48F4A07135FF28
:1029500039FF1714141313272A5431F150227F7AA8
:10296000DFBF1513226131C17162331A3301FF7D5C
:10297000FF2F0B241673F15002FFFFFEBF03280246
:10298000FFFDFF3F031502FF7DFE3F0C242672F181
:102990001013FF7CFE7F0E262626776343457FBB00
:1029A000FEBF1313227131313131385503FF7BFFE4
:1029B000BF092222132802FFBFDEAF0C2281D10FF4
:1029C0002656FF3DDE3716151313171A234931F526
:1029D000D031FF39FE5F1232454445486693481DA9
:1029E000FF399E07180F0F0F0F2235F3F0F080B557
:1029F00031FF731C17140F0F3F9FF1F0B014632EBB
:102A0000BDF33C871E0F0FF1F0206143331D1F0FF4
:102A10000F3412B779F33CAF1C1F2635F3F0F0F0FA
:102A2000F010514526121B3BF67DCF090F5C6B89D8
:102A30000636FCFF7F1061626253C3B5966824F8C6
:102A4000FF7F10A5A6A6A6C7B99A6C49F0FF7F1014
:102A5000A5A6A6A6C7B89A6D93E0FB3E1AE2D39747
:102A60000F0F0F4B647231F1F0D027A0EB3A230F18
:102A70000F0F0F0F23E2E2D3880F0F0F4B243231D9
:102A8000016F36CF331A0F23EEE2D3930F0F0F17D8
:102A9000233231FF34CF33180F143EA1E2E2B51FC9
:102AA0000F152332DF3CEF33150F0F241713E2A26B
:102AB00093393C01FFFFDFB7050F2106FFFFDFBFA2
:102AC0000108FFFFDFBF031803DF74DF3B160F337E
:102AD0001271B1A2570F455463DF37EF3B120F1C41
:102AE00024F160310F1537DF7CEF3B0E0F4A34B114
:102AF000717153FF7CCF370F0F2221F2F0A0F10646
:102B0000F73DEF3B0D0F8DA293938405F3B8BE2FD5
:102B1000120F3D682153535344F1F7FBBF2F0A13A3
:102B20001313D366FFBFBF3F061C5231FFFABF2B02
:102B30000C19362191B12AF3B8AE3B1A160F426632
:102B40006392F320535344351BF3B8A648270F0F65
:102B5000567694935353534357577694B6D8F610FA
:102B6000A3017F08824C20637998A6B9C9C8C8B868
:102B7000B9B9E9667A89883F0C8B2016C4D3D3C4CF
:102B800084848418121F1FBFDFF739080FB2B155B4
:102B9000FFCF9360130F0F0F0F5E899B9BAA0AFF55
:102BA0003D86691A1D657685848777789867758470
:102BB00074FF1C862022172231575757A2E2B58393
:102BC0003222412515111F4F16E7782A626262539F
:102BD00048392A122A1148382156E6524348657668
:102BE0009420000880100F410F320F230F14FFFFB5
:102BF000FFBE00FFFFFF3F00FFFFFF3F00FFFFFFA3
:102C00003F00FFFFFF3F00FFFFFF3F00FFFFFF9080
:102C10000E5B130F894C1111FFFF579018161341CB
:102C2000530F0F6C35244D5435FFFFFFDE0833C5BD
:102C30002321FFFFF3F0140F1C1718265613183525
:102C400017FFFF5B901E171B2173210F6F122111BD
:102C5000154B654414FFFF4390263535A631220FEE
:102C60000F0FC33113220F2111A2142113FF0F41A3
:102C70008030182B3A1471831B0F0F0F27238533D5
:102C8000320F0F0F276693252316FF0F0080342580
:102C90002A1B1633119211370F0F1B1B1426F11329
:102CA0000F0F0F151CFA4043337FA300C04A0F0FCC
:102CB00016261613144C29321627231217265425CC
:102CC00026363534463434161F11161E11171616C3
:102CD0003824457F0102C0540F0F122326122326E9
:102CE0001627331436152417262226155135253775
:102CF00034443616151818173D1F261A3325353259
:102D0000213D7F0D02C050191322331133242712A5
:102D100011242734312745213514433524474A17D8
:102D20000F181D1936140F134322421931622E77E2
:102D30004110C4561D1313272113271243242123A6
:102D4000452413272113231663223584343728267C
:102D50000F14321F221415334731222A522C427786
:102D6000E114CC480F2626211327123335113325C1
:102D70001B31262334393218230F24141632131131
:102D8000225233412136413E7F45134C49412212A4
:102D9000323122312235411114313116431463830B
:102DA00022F11021E322B131325113236222952105
:102DB000E402754451DC560F1513232216241136F4
:102DC000132216541624312122136331314435164F
:102DD00036160F3311282132212311246133321585
:102DE0004419120400DC600F0F1A1A211114262551
:102DF0002415261416264413262362252753442619
:102E000035153716182616452617351511363C3256
:102E1000212E4244411336000000CC600F0F0F2DCD
:102E20001725272724182715364416272616271670
:102E300045262654443454253536152F361E173E64
:102E4000343411253D1421362318453D080002C0B5
:102E50005C0F1C0F24232D332C273C633C361E367D
:102E60003D263935483548441216371F15111D11B6
:102E700015114C15113D15112D450F360F134261DB
:102E80001882A13C0F0F0F215A92A44396410F0FB5
:102E90000F110F151C251C353234B333C224526375
:102EA0002116210886A02C242236181248233737F1
:102EB0008255F140F140F23033C2144B13398EE7A2
:102EC000B82813212A17212432349155B1F1C0F1C9
:102ED00040F230165812B18CEFBA284D575775F39F
:102EE00090F230442262523A431C113134151731AA
:102EF00088E7F02A515757575B61F7D5B78857488D
:102F00005734545353767979897908E4F5323C542F
:102F10006253155513471269ED9A5178527A0F4151
:102F2000533454132726457110C4E134184A5757B7
:102F3000575F3BC1F420238131D53751125C4F4894
:102F40004858576B7989030088A23C61814C0F0F68
:102F50000F1537591F222B332C4156F3F0F0F0F0A8
:102F6000C0644112390F140F18030000C04C0F4BFE
:102F70005C7932CC7C51185343287132A951A85145
:102F80002852525C435C444B354C545B536A537A31
:102F9000617A61890F0010803E0F0F0F0F0F0F0F26
:102FA0000F0F0F2388F1F060C44221525528551F9E
:102FB000132E0F0F0F0F0F47FF30DCAB1E0F0F2725
:102FC0001294F4A0844242511524172ABF201802FB
:102FD000310F1623E5F2F1F0F0F0F0F0F08011542B
:102FE0000F0F165F34646242C4043CC33088316EF4
:102FF0006E349463A1F320F14012F1105461313129
:103000000F0F0F0F0F2FA601388E69D1330F142A1F
:1030100058585658573816553355246424242424B8
:10302000937494C7C4B405791441C0390F2F552443
:103030004515564C1546152626455C5E5F7D774145
:10304000C8FB5014F22023E503F734C5C42C1C64DC
:10305000476757572859566B65435121545141AA28
:10306000BA24F420F33CC3C02A0F15173663536209
:10307000535325445C6A7964513157F9E9FAE718EA
:1030800082F0340F231611386856575B16632535C6
:1030900036522B71AA2A625E148AB8F370F718A60A
:1030A000E038261232736666667A117732362574F6
:1030B000235284344238217A316A7166F130E758FC
:1030C00006C02C0F0F0F0F0F0F0F0F154F6E0F4273
:1030D0000F32110F540F540F45FFFF1ECF0E0F1A62
:1030E0004A481B1717FF3F07C0170F89A3C9C8C855
:1030F000EBF750F37001FF3FB7CC100F6AF9806611
:103100004B4C4CFF3F32EF140F6A95A6A6877964AB
:103110003221FF0FB0AD1C0F1C275987A422F1C02C
:10312000B1A2A25218618024812E0F0F0F1E529C53
:10313000CBE8E6F521A2A28274E5C7B9DA2412151C
:103140001A00030000380F0F0F1D0F130F239CC927
:10315000D7C4B5A69797A6B5C4D7C88B0F220F14AE
:103160000F157F18FE2D20287793A253443517178B
:10317000354453A2A275287F1BBE2E1C29224D71F7
:10318000F1312222B1E2F1D33633431826482E76AC
:103190008897B5B8C5F2E0D3E2E2D3849986796D19
:1031A0004F0F140F215211160D432DB4A5B5B5D3F1
:1031B000C5A5A6E2E2D344445D2C112C1F1F0F0FBE
:1031C0000F039C0700CC2A0F0F0F0F0F0F2E0F5766
:1031D000CE7A722283E59DAE3E4C4C5CFFCF00CC94
:1031E0001E0F0F0F0F1B6111CDEBF910888897A7E9
:1031F000FF188698220F15394867A9C6D3E3A2F1B4
:1032000080B1B1A2847561080483302D0F0F254E63
:103210007BBDB9AA9B9B8B5C4F0F22361A7411ABF6
:10322000A293180000300C382A620F210F0F2C0FC8
:10323000430F61E974B1751B1B1B1B6684537552E8
:1032400058515E4F4800B23E2E0F0F0F245D6B7A2F
:103250008B2493660F0F5D624525444C3C3D35251C
:103260007010B62D280F0F0F1B0F244737A452B133
:1032700084F6F05061D3C4C4A67198E75B287167E7
:1032800048396998B6C563625335443526263235C8
:103290005462719AAE0B1C0F0F1D59388364A2F152
:1032A000E0FDE26A2E79B8AE2B220F29273E2133AA
:1032B00057215184F160313131D36AF1388E2B1CA2
:1032C0000F0F2E0F5419D3D3B5B514385B2EF33826
:1032D0008E231C0F0F0F0F1F0F51D7E914E194120B
:1032E00032FF798E27160F0F162524A1F5E011C3A2
:1032F00019FF711C071A151F1F1F1F1B1315F13013
:10330000B3D676FF733C0F1A151313171F3911111B
:10331000F450E4D367FFF3BD0F0E0F1A15D2829657
:1033200036FF033C4F120F1F0F18F130240F183EC9
:1033300087F07F26383121112812171426143514EE
:10334000FC2053135B135B388CE17F28264967868A
:1033500064212726761294A6F51091875A3A0F26F3
:10336000390CC37B2814171729394C5D7A3A11F1AF
:10337000206769898888692431FB7CD733203871BC
:103380001212375957438124123731111C12FB187E
:10339000C6E32D31314131B1B1C179190F71B5A4F5
:1033A00047575817678612812201D9080C633623C4
:1033B00016242A2A36392A3A28E2F2D04254525C9C
:1033C0007193219497A697848475194028404E42A2
:1033D00033331534394C0F460F451417236221F649
:1033E000F0B081322324431B312645526442C45835
:1033F00082DACC1213B6530410C144356786A5B6E1
:10340000A65713290F0F0F150F132435249232D20C
:1034100041F320F310A4F846833624512695C7DDE6
:103420000F2833363653446472515343260F4637C0
:103430004247514544440101004146D142C224A3C0
:10344000994F0F220F336FBE29D221F1D0F180E1C5
:103450002222D31733251A13260F426F9B8B44E980
:1034600000F0351E361B442B635A3A392969B19155
:1034700084560F0F0F266D328B315B8BB8034CE3F4
:1034800030E03F191618161945175C5847786575CE
:1034900075454C0F0F121C22234B41128813114407
:1034A0005143022EC7488030877C1C520F0F171BD8
:1034B0000F0F1D75620F0F0F281B1B181618162EE5
:1034C000BF2FC8912275180F0F0F0F0F1194941B67
:1034D0000F0F0F272616FFAFFB9B0F42180F1B1A6B
:1034E000741B02FF2EEB93120F0F0F343619339615
:1034F00014FF7CEFB3080F1E8875FFBDFFB30A0FE2
:1035000021465616FF3CCFA7120F1D1B43B2C53EE6
:103510003E22FF3DCFA7100F2A2962D4E31825FFD2
:103520003CCFB7130F195F37114322B1E202F738CE
:103530008EA31C0F0F2E27422643413C3131E6E675
:10354000E2F7398EA3220F182616434721424B2259
:103550001236A1F5F18242FF318CA3240F36564179
:1035600065223132971285F1F0F020F1F153F7B175
:103570004D931E0F27664125334321881681F4D0D1
:10358000F124FF754D93161F7463316288F890F132
:103590006334F73D4FBB160F0F33A2C42E161143F1
:1035A000F410FF3DFFBF091B732B11037F37CD9331
:1035B0001E110F122B4195B4635621F250B12424F1
:1035C0007F1DC593220F1B2F1322618584833245F3
:1035D0005C2321F2F0207F94E7B11C0F262F4219C3
:1035E0006189886A11922FF322BECEE33C1E0F350B
:1035F000146952E76656671156485473113CCDE37F
:10360000B8253E1559151175F5F08051B331B6FA4C
:103610002061A31A01380000C02E3839484857519C
:10362000BEAEAEBECCBCCCDBDBEAF9FAF92D811E16
:10363000817B9AF2A91A0F2B4D5B89D4F11071513D
:10364000F1E0A2F118A6A1220F0F2D5D6E7D9B4324
:10365000F2F0F060624C5A4C2DF33DA7A9180F2CE4
:103660005D79A8F1F080A22A6134F33826C12C3D9F
:103670004453232167676556173167766899A6A674
:10368000C7A85B0F14E3704C83340F0F0F1B112C72
:10369000510F122F117921F310428152E2C41111FE
:1036A0009322482EC7711C872549110F0F0F0F0F4A
:1036B0000F144872B3D8F3F010F14004CF733CCF2D
:1036C000220F0F0F1217261A2A11181247178735C3
:1036D0004214FF760DCF140F140F0F0F223D381335
:1036E0001AFFBE4FBF080F6F3261FFBEEFBB080F5E
:1036F00067B63CFFBEE7B90C0F89F121C12C7F9E54
:10370000E7B90C0F0FAAF1E0797F9EE7B90E2EA85A
:10371000F2D021762E7F9EEFBB0C3FF11013631F7A
:103720007FDEFFBD0839F8D0117FFFFFBD036C01BC
:10373000FFBEFF9910F121450F0F2822227FDFFFE6
:103740009D084815F1E0FFFEF7BF02D3FFDFB78504
:10375000163911F2F0202D26545325127F5E8E81EA
:10376000262A68F190721B0F0F0F0F12223535B108
:10377000128215237F7E8CAD241764C221230F1B78
:103780001718265424B22172131B12FFFFFF3F00AB
:10379000FFFFFFB906F41022FF7FFDB910F32013DD
:1037A0000F142213227F5FA4A91C5B24F1F0B04404
:1037B0000F0F1B72B1317212FFFFBEA7101E1282D3
:1037C000A1312241127FDEB6A31A2AF4808112238E
:1037D0000F0F8EA1515121FFFFBF2F09111D111293
:1037E00002FFFFFF3F00FFFFFF3F007F9A86AA2CEA
:1037F0001F2A12A2F1103121312142260F0F0F385A
:103800002581C4D31411793A06823A0F1C2541A2AE
:1038100093736434312223590F120F3C22436342C5
:10382000E2E2432223251427791806C1340F4363AB
:10383000727A4174417351B5C5E3F1C1B8AA3A71C6
:103840003971C868517761FFFFBD3F0512F101FF73
:103850009DEEAD164DF1F07171121431F12626FF77
:10386000FFBF3F0102388130E82B7F94A37242F7FB
:10387000F5F5E6E7F520F230F1A1A697D7E3F101DF
:10388000380000E01C0F0F0F0F0F0F0F0F0F0F0F5F
:1038900093FF90FF0FFCBF00FFFFFF3F00FFFFFF04
:1038A0003F00FF1F84FF120F0F0F2B524638447743
:1038B000FF08FCFF180F4B364249455966756648AC
:1038C00046FF7A8FFF120F1434271313333455FF3A
:1038D000DC84FF100F1E2587A4631A24FFCCACFFE5
:1038E000120F393265C7F28524123F4000FF240FC2
:1038F000CFF940A2F430F320F410F41084917567EE
:1039000053033002FF2C0F0F0FD3F750F1F050F399
:103910004096574848E7F64074F2405C809812E0C1
:1039200036F630F450F2F0F0F0809678695757761A
:10393000B5F41073F220F3F520F3D5974C5040A165
:103940002E53627141C3F5D5A76A74757575898860
:10395000A8F470E1C3B4D577421001492AF5E6D73F
:10396000C8B9AA5E0F1E5B7A98AB0F819F6F4D5B43
:103970006A6ACB108731240F0F0F132B363874F679
:10398000E3D24416453D361513E33C8E33200F45F4
:1039900018673594F220F22044613A253A1EFBBEA6
:1039A000CF3F100F3227532673B241FB3CCE331A60
:1039B0001B0F333341B461E1C335123A2DFF7FCF82
:1039C0003F0CF81021123325F73CFF3316165A66C8
:1039D0001291517232253E1EFB3CCF331A0F3D240B
:1039E00033B442E1D3441113362EF73CDF331A0FC0
:1039F00021698542C2223511323A0F22F33DCE337E
:103A00001A0F252A22EA32D222B42A352A1BF3BA07
:103A1000DF37140F162A329361561A0F14FF3FEE48
:103A20003B0E1D2A253351A322F33EFE3B160F29E0
:103A30003D1289461421241613FF78CE3F101F53E0
:103A400071A22316231AFF38DE331824124621846C
:103A5000C2E14326444C2D6730CC332A3D313D1121
:103A6000C7F170F320F23072F24053947547484525
:103A700015633A4C332E1D260F32113F2522561264
:103A800081D3D3D3E27285A311915143454196244A
:103A90002B300F1B2F2448329741963131F330F3EE
:103AA000F0F0F020A7D8D5D3C311F9FFFD2F0F1CDC
:103AB0002362C231347101FB9E252B2C0F23352448
:103AC0004724212392223381F1F08062461134355C
:103AD0001153799EAE3B2227495787A412323255A3
:103AE000223354B2F3711135799F242B2E0F196EA6
:103AF0001385223622212721321162F2E0B2573A91
:103B000026113445310C0042372A18210F182E4E49
:103B10005C6BCC7C5111D3F18081F250D9CBDBD6D8
:103B2000178228910B27818004390F85B6F3D2B410
:103B30009659383535250F0F0F0F0F230F233638C1
:103B40003471234232330209000048380F243E5CAE
:103B50006F0F820F919FAF81F540F450F4DA9B9F75
:103B60008F0F625E0F410F31415184792476ACBAD8
:103B7000D8A7B6C5C4D3D393213518543C1D11CB57
:103B800014EC3F220F34FAE1F23144354544443518
:103B90002666676767C330DD3F0C0F7E7517321FDF
:103BA000FF7EEF3F0C2C1331531221FFFECF3F0A53
:103BB0004C51532212FF3CCF33103A11F4B0D323AF
:103BC000D12AFF3DCF33142144F180B1F110246399
:103BD0002DFF3DDF370CF4D01132713DFF3CCF3368
:103BE000160F4CF4D0F1F1101132713DFF3C8F23D0
:103BF000160F0F4D4581F1E0F121C243FFFDEF3378
:103C00000C0F2564F29032FF79AE231A0F1645117E
:103C100091F18021214224644C7B388663242E4517
:103C20004C6B2383292A4967A7C6C46539393939BA
:103C30007F39A6771C141B3B2135472A39886785B5
:103C40008313157B188270281C12443C4D7C6889B4
:103C5000274122576F8DAAC9E7D3B477FB5CD334D1
:103C6000160F0F0F0F269324464463C3FF9ED735CC
:103C7000120F0F335711F4F06042F33DC7351C0F9C
:103C80003E1326849393F230F41089215BF378AFCE
:103C9000211E2E4282A321D3D3D3D3D34283935662
:103CA0001AE338AE29200F6E4386F320F320939356
:103CB000939342B32477EBBBFE3F101A14131353B4
:103CC00093241AEBFAA629240F16541662113362B4
:103CD000115281D363A142272315E30AA269281F49
:103CE0003969553554436CB94871D7A7973D3D396B
:103CF0003949667388F36B280F1762959687791593
:103D00006775155272F1713243544453FB0FB36B14
:103D1000224C6911681189C53225518435135443E9
:103D200044537308832100FFFFFF3F00733C87610A
:103D3000280F4363857485936162628193B5B5C52D
:103D40001591A5A697FF7DFF390D2843F1F080312D
:103D500002FF7CA729162A55925111F2F0F0F0903B
:103D600051733C872100FFFFFF3F007538C7712565
:103D70000F1C1284A8A586666272718493F2B0A1AA
:103D800082B1017F7FF73D0E3877214192B13175C5
:103D90005FD734202C0F611411462153356882C43B
:103DA000D322752B3408C3301AF140F140F140F2B0
:103DB0003092547247335EF2F1BD1B0F19334568E0
:103DC000B4B1F1C0427366470944F078CC2E941127
:103DD0007A217B3F5E8D7C11BB26464444183653C6
:103DE00043A588885A6FDC7EAC1C1C2B76A3F1F0AF
:103DF000A0318384751621247DD932AF1C1B326C0F
:103E00002581F3F08022D3C435613B65D9B2A81671
:103E10000F0F366DDEE7FAD06244D6FFDFF7AB0A4C
:103E20000F314538A135DB97A11C2D539ECA11E6F1
:103E300031F162769685C175305B9621311331225E
:103E400031625333861B710F0F0F1B275398D4B564
:103E500086AAE6F120013048022039140F0F0F2105
:103E60000F22214115A414F5D6BAB69788796E7E33
:103E70007D4D2654D5D463023CCC20C0443A4563E2
:103E8000627A6A5B113A21394115A114B1839163B9
:103E9000A261119261645595659574946415813899
:103EA0000C40D0450F254958667A796A5B2128373E
:103EB0004157E32311F21052D1F230A361746374BD
:103EC000546554664485037D0DC3A12D11375554A7
:103ED0002B226F27774395A2F1F081621232415B6A
:103EE000AA3201710880E1400F254958667A796A43
:103EF0005F2128373248345147D236924691A71273
:103F0000781465145614667AE31804833F0F123848
:103F10003E0F21216F2814424676719381A1F23021
:103F2000F3206341512642155976A5B302EF9E074F
:103F300083270F2A3C4D4C163736F1B0A233242488
:103F4000152416576302FFFFEF3B0772526304E725
:103F5000DEEEB7192E242765336271626253532651
:103F600005E7BFE7FF0F2946633F43454406F7D8FF
:103F7000A6BF200F134736354526335571F19041C2
:103F8000525156E719E6BF230F2338261323421157
:103F9000350F185322A2B1B1B103EFDFFF9F111605
:103FA0002326313113143301FFDFE69B191B282729
:103FB00023262421446391142302E79D4791290F6E
:103FC000122C3A2A241594482B322383E2E2313111
:103FD00031346502E7B724892D1A28362A2217734F
:103FE000211224212B22E2F1514114835AA9A8075E
:103FF000C734248134252627171F23259718250F1A
:104000000F2947725241A1F1F0F0F210E6C89CC7A7
:10401000308E81270F0F0FC5C529260F320F325F53
:104020003577817491F23001CF3A0C832B0F0F0F4B
:104030003E95F23022330F250F160F3D1A342743D9
:10404000B7C503DF730C83160F111832174157578A
:10405000485B2EFEFF8F230103FE9FFFFF040F72BC
:10406000FF1DDFB70A0F0F0F5E72FF7D8FC7100FA6
:104070000F324A4B3C381CEFFB8E8F100F0F0F0F87
:10408000FF20F4106F3B1ECF1D0F0F1D353A3A3A3B
:10409000464A4949655335067F3E1E8F191C233613
:1040A00046363245544545788504FD7E9CA71F124F
:1040B0001813212313334A68F6F060B1F14001CDA3
:1040C000380C83241B242FFEF1F1F1F1F18462817D
:1040D00038612F0F221D417886A0243D4C6A7979E2
:1040E0005A142214B8B5F3F070F410343AF3BCC784
:1040F000B025194253F170185556355891F14011B9
:10410000C29421C408730CC3E02E1126171719316D
:104110006766666A5B88B5D4D3D3E333731C626E7B
:104120008D7BCCD3A02C335867665A6A7A112472DF
:10413000661121F250F45012231357482308C3A1EB
:104140003A4F6766665B8B4813134822322882F524
:10415000F5F410A514742313223157216211270896
:1041600086E1340F3E34295554F6108461F54861D8
:10417000196429532671977A79898888784DCAA657
:10418000B7260F556A9AA83311241164C444B51494
:10419000311A222A1DFFFFB7AF0A3C212121348F9B
:1041A00099B6F72B0F15162E1351651175A24322E0
:1041B0002414252316170F11B301DD92BEA72C2B53
:1041C0005613815434266232428122211131361134
:1041D0003217120F148F99AFB32C0F1A43142613F2
:1041E0002113A39162321222756615111812181A42
:1041F0005F99EFE92A191243572591B444221124FB
:1042000026572231553711154247DF91F6A1280F65
:104210002A6A152762524353323565A25241114131
:1042200025212BDBDAF7B5200F1A8A315335267694
:1042300047221212111111175FF0EEEF220F522ACE
:10424000623973616751B6214622412322225FF50C
:10425000E7FD1C1E32154224332235311757142135
:1042600035DF7BBEBF0EF1A263154116317DF3F73A
:10427000A520154D5C8A11115213435313222216A7
:1042800026227910A4B134230F429FCB69146A13FC
:104290004B84358448135165A593825566161223C5
:1042A000267990A4A73A0F33124931B775237523A5
:1042B000472312444444442355D4A213531B312AA8
:1042C0002113267110ACA7380F293A517241651499
:1042D00065247315314312429786A8D38251125137
:1042E00018421B17F954ACA12A0F0F3613444194FE
:1042F00036626361B28193A2F3C056171B13FB9E13
:10430000A7AB180F2912B359257814C3C42516F189
:10431000DEE7AD1E0F0F0F23131435415467944190
:1043200011114C7111A4BB380F0F0F3625413168A4
:104330002135412293F3431352665793732451144A
:1043400032151227719124F9356457153276353DAF
:104350002D27156227333214838489796A5A4A2CAF
:1043600012323505711024893C0F0F11321192ABB6
:10437000493568348535B2F58333323457E2D3C3D7
:1043800095A79637512841719A6589342EA112124A
:104390002112A13A8138375736843692F731666256
:1043A00053F3A3A24151240060183A272121BEAA49
:1043B0008C8D31FA4692B6B6A786225A4766557654
:1043C000641163660F0F181F39E3E3B827612156A4
:1043D0008B9817815D5C2366327131A3C3412A2219
:1043E000012041C0F831794F0F410F412D190F23A2
:1043F00018292E314D128DBAD86B89B6D4B201E38B
:104400002100C018720F0F0F0F0F0F150F230F147D
:10441000EB3FFFBF080F192432F33FCFBF0C0F0F44
:1044200011494829FF3FCFFF080F4B4444FF3FCFBE
:10443000BF0A0F26353535FFFFCFBF041AA2FFFF95
:10444000CFBF061A8131FFBFDFB7062F3125FF7FAF
:10445000DFBB081C262117FF3FCFB7080F27626478
:10446000FF7FFFB3062C3517FF7DCFB30C0F2572EE
:10447000D4D34AFF3DDFB3120F166323B1E21563B5
:104480003DF7398FA31E0F795728153642C242D106
:10449000F35063482AFFFFFF3F00FF3FEFBF091AB9
:1044A00022715304FFBDEFA7109861133263F2D05D
:1044B00013F73D8EAF1A88531327175581E2E21187
:1044C00055391BE7BBCFBB14512194561749646281
:1044D0006253E73986A3282CA375253117291621A5
:1044E0003252B261C1F14092455339E799C6A12ACF
:1044F0000F0FA8A2752532261C212222846181F18A
:10450000F181112362E7F986B1240F33F220622290
:10451000362B2112885182F1F0D08579C71786A1F8
:10452000280F7E9323615737391A32B7F1F0F0B074
:104530007412584D21D71586A3260F274484392994
:10454000390F323B52F820F2F0C063E821FF758743
:1045500081200F6361723525263D1843C5F3F07045
:104560006544C77384812A0F366181114244443CFB
:104570003C4CF6F3F0F0F0F080A39729CF314D9149
:10458000233C449866575B3A4C4B2245F3F0F020AD
:10459000D7A80CEF3304911B0F0F7E854699A2A27A
:1045A000A24912384C03EF7BAEBF1D2462152222B4
:1045B00031492138143724224201CF328CA7251FDC
:1045C0004968455877777D18654694339523492483
:1045D0004102CF301CC71A0F0F242E6E6A5B419820
:1045E00088885639FF3C1CFF140F2A266E5B2397E0
:1045F000847548FF3E8EA712282B3A48363A484821
:1046000048FFFF8F6713A2444168161127656101B7
:10461000FF3FCFE7182856244665447422212225FF
:1046200016FFBF8F6717222313139576661519227D
:104630005202FF3E8FB716216A6698717647214570
:104640002121FF3EBFA31C3D681284531142113546
:104650002622121716FB3C8FA31C0F1928C8F8102E
:10466000A31149123A121B13FFBCCFE31C4144357E
:10467000352513222252F241167A27F33CCFB32676
:104680002D2A2514231185B324B324365133285100
:10469000212D23FB3C8FE1241B22423545535471CD
:1046A000334544679493A6692C6CF33C8EA3265F34
:1046B0001667221276F140F140F23022F156A154F1
:1046C000474AF33E8EE9240F3C2422224967227197
:1046D00094938464482B393967F7180EC3283C44F7
:1046E0007785657A255417721691C19798877879DE
:1046F0008988F35B5E871E0F0F35419921C4C4A2E0
:10470000137166275325F7184CC72A3D455767672D
:1047100012672766E7D83361931542384558678595
:10472000C7110CC72B0F0F5C66856576156834675B
:104730003647C8B55B5B5B48488404CF321CCF2743
:10474000445362625757789529D3A63D39392A2AAE
:1047500017171706CB303CDF1C1D3A3A5A5D7CAA6E
:10476000795B4B5C534417F1F03CFF183159585AB0
:1047700074DAB59771622626F1307CFF1A0F0F0F9D
:104780000F0F357DAB14D21285C87F187CFF160F32
:10479000434F28A2F420C8AA0F417F18FCBF00FF96
:1047A000FFFF9F021CC771CEDF1EA2B1B1A2A29370
:1047B000551145474343334713C330CEBF1A4331E6
:1047C0009788853273493C3D2D1A1BE3BCEFBF0E21
:1047D000362953C6635925F3FEFFBF0C172213D2A7
:1047E0004112F3BCEFBF0E2639527621552CF3BE91
:1047F000FFBF0E11234551B25137F33CEFBB102BD5
:104800003D42F81057143AFF1C0300240F0F424892
:1048100038296A6A35991711C134621574793300E1
:10482000CCF331222636546A0F1181FBF6F0F0F0FA
:10483000F070F190F1F010F1707171010031CFFB67
:1048400023B5CDF842F2F0F0F0F0F0F03051917174
:10485000814103C43DCF331C1C130F1E1C11111AC0
:1048600021191F141412F43CCF33220F0F260F1DF1
:10487000281514163B2318210F2112157B3CEF330A
:104880001A1A1F1B0F1E22121B290F1611162B1886
:104890004C63341E1A1C160F161517190F120F171A
:1048A0000F1F0F311113111C14120F0F1623585C18
:1048B000472819180F1B1E1F0F0F1A0F130F161260
:1048C0001D251D0F1F17E218FC17241A171D190F9D
:1048D0000F1911110F17120F0F14130F1BE2D86EBF
:1048E00024262D0F0F0F1219180F0F0F0F0F161C64
:1048F0000F0F1D1511ED7E7D561A180F0F0F1A267A
:10490000151A1E0F211114F53F4D40200F150F0FE2
:104910001A1B1D0F1C0F0F0F190F0F18374F59209F
:1049200024F1F17213450F190F1C120F0F0F0F0F07
:10493000140F1E3FCE91342662114172438161F102
:10494000F010F190592C0F0F110F12388E917C2717
:104950000F4E86A3A2B1A1A296785B14464C1456C2
:104960006AF98001938C913B250F4A7635F3C0F1AB
:104970009277794A0F1F170F120F120D90AD854FC6
:104980002A0F6B119BAA392535254728113929474C
:104990004C5B5B0F191BB40CF30E2C0F311E414600
:1049A0004674554224421131B1F19042622242389C
:1049B00017A00C637A341A1B62158611894C57476D
:1049C00038492228435C6B4A4C5B14655753533576
:1049D000A20E6632320F572213613264431726A6A5
:1049E000F1402131C11137622A2E0F190F1EB84E26
:1049F000E2702E1C55567535544334453C2D131129
:104A00001D18374857669397A67AB812E378350F82
:104A1000446684354C16354C152442244214331117
:104A2000673A395866118293A204FD60671E280F09
:104A30001731221714261331F2604153261E141E1B
:104A40000F191CB0086744360F596979384D4B4C23
:104A50004C32374218646A3648577557136A0F410B
:104A60001E33142100C766320F68A8B617B1CDCB2C
:104A70003C0F12545B5B5B132421565684172A1B90
:104A80002B6151D4752E1A15288BA78598978827E6
:104A9000132A1F2E19343515265353635361300CD6
:104AA000342A0F0F2749571F2626D4C334C1C8778D
:104AB0007D7D796A4B0F185B380E3528121B4544F3
:104AC0001F2E4534F4F0C24615474C483929171AB1
:104AD0005F381635280F0F52470F13F6B0C1112556
:104AE00052282E2B12272A17177E790F7D271F3465
:104AF00039292A26322132633B4157337335142238
:104B00002203DA3C0A3F260F1D161B1F2E2635F105
:104B1000B03141152223570F0F1CDB789A311A0F41
:104B20002D3A49484831F2F0E013931AEF79C32B3C
:104B30001E1F163C55626221F3F0301251231613EA
:104B4000EF38C3391C120F0F0F2D1B41ABF120F2B0
:104B5000308175F71EEB69202C15131331927657AF
:104B600057171F3553677566738C0F682E0F2445D2
:104B700048675774F2603323111B463D16365C17A5
:104B80002A3D4C6A630814403A0F0F2E4D6B6A5B46
:104B90000F41F9F4604312696A23566B890F521171
:104BA000165A0F730F72EF91244D270F385866571E
:104BB0004C4732F171545B25454C4C48485707FF30
:104BC000330C4F141F170FFEF0401813131DFF77FF
:104BD000847F120F0FF2C055240F0F34FFEF007FB8
:104BE0000E0F2DF3F090D533E70F007F1C23262600
:104BF0000F0F0F0F0FFEF0F0F060F7C314006F40BF
:104C000064246325623562445211126114315726BF
:104C1000342A3529260F330FC7F3F0F030F5402141
:104C2000CB1040404832432244575753536262529C
:104C3000535263655365636473737367246824B563
:104C400021F410F49054963F42EBF3F862222213C1
:104C50001717176252536261626252FE70691CCB71
:104C60001040C03B0F1135139473237423742364D5
:104C700024B333A32494349434D4844F0F23E2F424
:104C80006003C330004E3B95B6B5C5A636612644D9
:104C900026442653356225723472F9F450517E0F42
:104CA0005256575707D70102663333363535849449
:104CB00093930F410F11219393C69C118E119F9FC7
:104CC00057677505C70D58772F758465660F119F57
:104CD0004557F16251993166461146114614131336
:104CE000020F0059163BF1F1422C2E161717171719
:104CF0002717272E2F232365414C5353D331D347F6
:104D0000A11538020F61190E32B1E6E273331313A5
:104D10002212141B2BA9B5C4C4643B431A460F319D
:104D20000F243F6018243822AFC6D413221317165D
:104D300017131323132FA9F1F0F0E0611534215B51
:104D4000382A2B67781E63300F3211525B6AB52305
:104D5000556463725111A162133257174467666636
:104D600023280840460F2C595F5E5FB946622865CC
:104D7000278525553124A52355242235172244188B
:104D80002158576648662A66BF7F7F161644443509
:104D9000F850223124282718F71C3E962988F13034
:104DA000413526283E1498D36311425472327282E0
:104DB0007202F32D7A9E279EA3F1616234263A1582
:104DC0003351932332315182728201FB0E0A5E27E6
:104DD0002A3171F15027586F8E68319B8B113A1729
:104DE00027172707733E0E6B2C0F42116146445361
:104DF00094576985856822B695212412233544711C
:104E00001F2E432F0F237874151322A3885C7B5524
:104E100077453175C544232252285109710D2F431E
:104E20002D4F21847445434435D3C36A7C51677642
:104E30005531D4E3B2314109F75DF78F1E626253F9
:104E400045371191B1C1131317222333394FBF6B6B
:104E50002415556271353564B348494A112352A16E
:104E6000716132BDDDFF1F1713131313145562A2B6
:104E70002D32230379FDBF0F232643637131313176
:104E8000714C212231633322232303714DF7632AAE
:104E90000F31218474453454123184383A4A0F83D7
:104EA00021B1B15123714DAF4F290F429683445325
:104EB000436284382A3B5154638232627232026107
:104EC00009AF432D0F579A8747674774B9794B7BD2
:104ED000516363628241D3E352420123182E43306F
:104EE0004467A591AA9B7291F320966A5B9A6367C7
:104EF00076859431D3D3633203124C432BA596A508
:104F0000A66EF3F525496D7F9DAB76757575B5B5C4
:104F1000B565041060DC472A5F8E74F29061E6CCC0
:104F20008D119F97976811870F7675846400E1B89B
:104F30008E220F0F73C8F3F0F0F0F0F0F0C0F230F3
:104F4000E526A1EEEB799F100F2775F4905345539A
:104F50008DE3798E090F0F0FD503FDFFFFBE032CE4
:104F600003BDEFF3BC0D794C2E1F2298033CCFE319
:104F70003C140F250F638EBCC9E86F26389EE73FAF
:104F8000120F29567B99A7A84D1F789EEF7F0C37EB
:104F900049392A2618F9FEFF7F042527FBFFFF3F2A
:104FA00000FFFFFF3B021CFFFFFF3B00FFFDFF3F39
:104FB0000221FFFDFFBF0102F3FDFF3F041F13F3BA
:104FC000FCFF3F080F252626FF3CCF3F0A0F0F119D
:104FD0002B2AFF3FCF7F0C696252536343FF1F862A
:104FE00061240F252121A796A7C523812122812194
:104FF000323232A5FF1C86612E0F19111112122AAE
:10500000213D1A211312222167A826262617876917
:10501000FF1C022136451217150F1D0F182E1725DC
:105020002E2E18250F211E130F0F252416141111D3
:10503000FF1F7A61180F0F0F0F0F0F8A37343634A6
:1050400096FFFFCF21162281173D55531D1723339D
:1050500031FF3FCF21120F0F19334293932A1BFFC9
:10506000FFEF21101F2646F160222213FF7FCF2180
:105070000A0F0FE49393FF3FEF33100F181371A241
:10508000624417FF3FEF330E0F2784B1714426FFB0
:105090003FFF330A4DF2706135FFFFFF3F00FFFE17
:1050A000FF3F010FFFBCFF7F0B0F4B24132202FFBA
:1050B000FFCF3F06F63022FF3FFF3B06FC9022FF6A
:1050C0007CEF3F0C3D6262623221FFFECF7B0F39E5
:1050D00022426371C13101FF3CC735180F2C2D22CC
:1050E00062A2B1F121A3792AFFBEA735180F24458A
:1050F000231332B1B1F15021177F1CA7391C2C3D6D
:105100003C2464B4139142F1F1312226FFFFFF7D6C
:105110000461117FDEC7301C1F3D4C215742638361
:1051200074F1F0D062237F5ED7301C0F2F6D585181
:10513000736161F130A1A284377F5CD7311B0F0FFF
:10514000313B215871F1F09031A29708733CA62DA4
:10515000200F0F1E212428B5C5D38384842A9315DC
:1051600051E7382CC927F180216357676666958817
:10517000796A5757577879797909E3380C032E0FF4
:10518000F56052C1C814C352F1F0100F0F0F0F0F8A
:10519000325F75645665FBBE2D8B19170F0F2315F3
:1051A0008CFBF0F080735506615816051E0F0F0F2B
:1051B000FFF070520FC252F1F0F0F0B06119B6ED8D
:1051C00016564B3D2D1B2B5A275C2C1F822058DE78
:1051D00028370F320F22132E316E7C0F415E0F5293
:1051E0005D6E0F321EEFFADFFF0C182334263C25CC
:1051F000E31896BF220F15253C19232592E224912E
:10520000D4B544222224E73884BF265A563538378D
:1052100079257251D3C34481238317444C43EF5BF8
:10522000B7BF120F4CF4103214531713EB388CBF66
:105230002059399677332352838484C41432423DF3
:105240004C4100449F212F5793B7B5A5A66A3D0F47
:105250000F0F0F0F0F0F0D388EF7BF160F0F16F62B
:10526000B6A5A6A6272129288A3E8F2C14121B54E6
:1052700022A3A235110F0F0F0F0F0FF6F0F0F0F071
:10528000201724491E87321313241212A4821423D8
:1052900011270F0F0F0F0F0FF1F0F0F0F0F0E052A9
:1052A000346D5F97261412642183242211140F0F8A
:1052B0000FF6F0F0F0303315B77D5F171921132189
:1052C000240F0F0F0F0F4743B101BCEF7D9F148CCC
:1052D0003451230F6B73384911FFFFFF3F00BFFFAD
:1052E0007F9F0C932442252913FFFFFF3F00FEFF01
:1052F000FF1F0B221732136201BEEFBF1F15434180
:105300003916323211411F14023FEFFF9F10135420
:10531000131217164D31BEFF3D3F0F164C630F277A
:10532000445303BEEF7D1F112A3211A2F2273987A1
:10533000033EFF7F1F1B1411511151813141812305
:1053400035134101BEEF3D8F1924311712181CF59A
:10535000C0828594930236ED2F8B24233A392A1686
:10536000180F0F71F8F0F0804111333526203D2FD2
:10537000493122C19B37631A63F750B1A15253439D
:1053800034252A1A2522A6885A6A08003003003FCD
:10539000B5A6563B2D7E8998865285527445644643
:1053A000644664554566247898A7F5E1D2736A0A85
:1053B0000E24019C3C0F0F83BAA82B2B3A391731CE
:1053C000586712543123611363A2445445446B8CD3
:1053D000ABF2304400088E3597A624552E4C585712
:1053E0003525142B3AD9F391D2E352F5E6F78662CC
:1053F0007D9B0A6D0658A73562710F3E4815422500
:105400002619275786245114535313848485C25276
:10541000324807010408E039A59C9C9C6F11356453
:1054200037641875BDCCCCDB577147531146531107
:10543000F6B9BABA0A023003103965A8C5E3F1F02B
:1054400064B8B939522A5325335235A225938B7C3F
:105450000F0F1B3E6CA8040000004041F33015D62E
:1054600013D8DCCCCC25C535B525C5CC6C515C43F7
:105470004C444C53CCDCCC8D313F520F03701C8E0E
:105480000323130F0F2A3A390F0F5F8D12D8F6F04E
:10549000F0939303460000D839E2F1F1F0F0F030D8
:1054A000F320638392E8DBBB9E3767380F360F1714
:1054B0000F0F0F0F140E182805C235594D4D4C16FD
:1054C000763575447535757988889757535753578E
:1054D00053D7D7D8E7086238875035D17261625305
:1054E00052456253E2D2D3E3223E2D2E1E2657367A
:1054F0005636561E510C0000004037DBCCCCBDBDEB
:1055000034B644B525B6BDCCCC6B525B445B445B32
:10551000446B52CCCCCD0D43010070270F0F0F0F01
:105520002D3D3D458EBFCCDC6A8267F450F46003AC
:105530003F8A107F230F0F74D4E332C4486238547B
:1055400038344A43496305300802832B0F0F0F0F8D
:105550000F0F293D5C7741872297AAAAB97843A308
:10556000D303010000E4310F0F0F0F2D0F460F453D
:1055700038498538B4CDCCDCFA1076F360F360039B
:1055800020380503250F0F0F3D39390F7D9BAAB930
:10559000B98743A2B5B5D402411082202F4CF19BAC
:1055A0009BAAAA6A135A6F6E1331E6E6A621A7AA30
:1055B000AAAAB91F061702003A28F1F0F0B0C38476
:1055C00084B5F1E2D3B557392A1B3C49383D38023E
:1055D000D0872B0F0F3C5C5B3C0F141F2B3A597785
:1055E00095A3B2F1C083849403F9C2D0B7210F41CF
:1055F0004448380F0F0F0FF1F0F08052444404FF7D
:10560000CFFCBF0B25C12159120F790EE43926F3C7
:10561000F0F0F0D00F0F0F0F0F0F1FC23121222219
:1056200022137D0804BD2F0F0F0FBBF140F1A2B272
:1056300061A1932352484858889362535353037D82
:1056400018047D200F0F0F1D3D4E0F220F333B829C
:1056500029912D13FFBDAE7F0E4C0F294212411729
:10566000FF3D0C7F120F463D3D2EC8891A327D1B2F
:1056700006BD260FF5F0F0F0F0C071F271526757D9
:10568000119513232213FF3B9E7F142C3A2A1335C6
:1056900034325444254D01143D2A14F2F0F0F0F058
:1056A000E00F131B1C1B1F1A247A89782E3E4DC352
:1056B000008CA31D0F3D585F5F4F0F0F0F0F0F0F93
:1056C0000F0F09CF103C8F0E0F0F5453535334FF5D
:1056D0000FC2F81A5A117DE5F4D5A3A6A6A6B2B159
:1056E000B1BC0C8633230F2F0F4557949393979794
:1056F0009797A786B4755402380E82A22E0F0F5FBB
:105700008CFBF1F010F162933345228D7D7584841A
:105710008463352A388E86A12E0F0F0F0F0F0F448A
:105720008E53F32063A1739135345673F18324149F
:105730007B9FB7AB180F3C769814619328125111D8
:10574000157B1C8EA11E0F0F185DFE20F320F46048
:10575000D275972752F3BFDFFF0E0F6A8131A13157
:10576000310001000800FFFFFF3F00080B000202AC
:1057700002000009040000010202000005240010DC
:105780000105240101010424020605240600010785
:1057900005810310004009040100020A000000070F
:1057A00005020240000007058302400000040309CF
:1057B0000412010002EF0201404123368000010182
:1057C00002030141726475696E6F204C4C430041C5
:1057D000726475696E6F204C656F6E6172646F00E4
:1057E000983111241FBECFEFDAE0DEBFCDBF11E04C
:1057F000A0E0B1E0EEE2FCE602C005900D92AC3212
:10580000B107D9F725E0ACE2B1E001C01D92AA3E94
:10581000B207E1F71BE2C1EFDBE204C02197FE0112
:105820000E940F36C03FD107C9F70E94BA310C94CD
:1058300015360C94000080389105ACF46034710585
:1058400094F490E121E061FD24E060FD220F62FD0F
:105850002295687F969FD0011124A80FA157BE4FB3
:105860008C91822B8C930895FC0180918E0188236A
:1058700011F13FB7F89482E08093E9002091F200A3
:10588000822F90E01816190614F481E090E0882326
:1058900039F0289844E640938D014091F10040830F
:1058A000222339F02091F200211103C02BE620932E
:1058B000E8003FBF08958FEF9FEF08952FB7F8944A
:1058C00083E08093E9009091E800892F807295FF32
:1058D00004C09091F20080E4891B2FBF089580914D
:1058E000850181110DC082E08093810184E0809365
:1058F0008201109284011092830181E080938501DE
:1059000081E891E00895CF93DF931F92CDB7DEB782
:105910006983DC01ED91FC910280F381E02D41E08F
:1059200050E0BE016F5F7F4F09950F90DF91CF91DF
:10593000089583E08093E9008091F200882319F0B4
:105940008AE38093E80008950E945E2C90E0089519
:10595000CF93DF931F92CDB7DEB7FC018485958589
:1059600097FD08C02FEF3FEF358724870F90DF9119
:10597000CF910895CE0101960E94342C019719F41D
:10598000898190E0F3CF8FEF9FEFF0CF0F931F93BC
:10599000CF93DF931F92CDB7DEB78C01FC018485D6
:1059A000958597FF0BC0CE0101960E94342C01977C
:1059B00071F4898190E0F80195878487F8018485E6
:1059C00095850F90DF91CF911F910F9108958FEFE3
:1059D0009FEFF1CFFC018485958597FD0BC09FB7A4
:1059E000F89482E08093E9008091F2009FBF90E0FC
:1059F000019608959FB7F89482E08093E900809122
:105A0000F2009FBF90E0089540917B0150917C018E
:105A10002091790130917A0142175307B4F49091A3
:105A2000E8009570E1F39091E80092FD19C0809331
:105A3000F10080917B0190917C0101968F739927F1
:105A4000892B19F48EEF8093E80080917B0190916F
:105A50007C01019690937C0180937B0181E0089505
:105A600080E00895EF92FF920F931F93CF93DF93FF
:105A7000F82E192FE62E042F81E0860F880F0E9442
:105A8000042D83E00E94042DCF2DD12FEC0EFD2E8E
:105A9000F11CCE15DF05B9F007FF13C0FE0184919C
:105AA0000E94042D182F80E00E94042D812321964E
:105AB0008111EFCFDF91CF911F910F91FF90EF9068
:105AC00008958881EDCF81E0F5CFDF92EF92FF92CC
:105AD0000F931F93CF93DF93D82E8A01EB017B01A5
