:100000000C94F5310C941D320C941D320C941D325D
:100010000C941D320C941D320C941D320C941D3224
:100020000C941D320C941D320C941D320C941D3214
:100030000C941D320C941D320C941D320C941D3204
:100040000C941D320C941D320C941D320C941D32F4
:100050000C941D320C941D320C941D320C9486327B
:100060000C941D320C941D320C941D320C941D32D4
:100070000C941D320C941D320C941D320C941D32C4
:100080000C941D320C941D320C941D320C941D32B4
:100090000C941D320C941D320C941D320C941D32A4
:1000A0000C941D320C941D320C941D32D5F08D141D
:1000B000A1C881CFD9F1AF2000FFFFFFFFFFFFFFF5
:1000C000FFFFFFFFFFFFFFFF0040FFFFFFFFFFFFFE
:1000D000EFFFFFEFFFF3FFF9FF2200B01AB2F8DAEB
:1000E000BCBDCC18C3FA0625F0143635FFFFFFFF60
:1000F000FFFFEFFFFFE7FFF3FFFFFF1D20901CD87E
:100100005009189821B1792AD024310AFFFFFFFF46
:10011000FFFFFFFFFFFFFFFFFFFBFF024011FFFF9D
:10012000FFFFDFFFFFFFFFEFFFF7FFFFFF1620A539
:10013000C1D7C18631A4672DE025FFFFFFFFFFFF78
:10014000EFFFFFEFFFF7FF0FF01D6035B037637172
:10015000021ED214A195F06FF004FFFFFFFFFFFF16
:10016000EFFFFFEFFFF7FF01802360A04763E2018D
:10017000103E1A417B03EF1A900703B901FFFFFFFE
:10018000FFFFFFFFFFFFFFFFFFFFFF3F0460D01CEB
:10019000FFFFFFFFDFFFFFFFFFFFFFFFFF1B9814C5
:1001A0006080233B11E05DF093F016FFFFFFFFFF3F
:1001B000FFFFFFFFFFFFF3FFE5461F405711795A8E
:1001C0005B3CC04F083880B4A065A005FFFFFFFF6F
:1001D000DFFFFFFFFFEFFFFFFF1BB11560E0526085
:1001E00026E03306F8034808FFFFFFFFFFFFFFDFAD
:1001F000FFF7FFF7FF07C81B60905590212E2E6771
:10020000A537904AF00301FFFFFFFFDFFFFFFFFF6D
:10021000EFFFFFFFE107296060B5021827F0114DDD
:1002200006B9033820A066A066A066A006FFFFFFFF
:10023000FFFFFFFFFFFFEFFFF3FF3BF81AC01F7048
:10024000714111625A5B2CD02DF042FFFFFFFFDF9E
:10025000FFFFDFFFF7FFFFFFCFA71D60285B8018C0
:10026000342677E2E2E2028F012808FFFFFFFFFF5A
:10027000FFFFDFFFE7FFFFFF33D82040A04363818C
:10028000879897878878796AA0188093FFFFFFFF87
:10029000DFFFFFDFFFEFFFF7FFC5273760562BA01B
:1002A0004763710128D1C45531C01FF0C2A065A0B9
:1002B00065A065A065A065A005FFFFFFFFFFFFFF2C
:1002C000CFFFFFFFFFFF1BD81040A0476B898700BF
:1002D000D0E2FFFFFFFFFFFFFFDFFFEFFFFFFFCFDA
:1002E000A31760A0215662012FC3B446031F0FFF5E
:1002F000FFBFFFFFFFFFFFFFFFFFFFFFE3CF054053
:10030000E02506FFFFFFFFFFFFFFDFFFFFFF3FE0EE
:10031000F9BF2460303335168001FA054E062050AF
:10032000063A063A063AFFFFFFFFFFFFFFFFFFFF17
:10033000FFCF8FFF3F14609049C064A061A061A00F
:1003400061FFFFFFFFDFFFFFFFFFFFFFF77DFFFF05
:100350000940169038B80EFFFFFFFFFFFFFFDFFFD9
:10036000EFFF3732FFFF1B601B56620138D1C445D7
:1003700013E068F00202FFFFFFFFFFFFFFDFFFEF68
:10038000FFDB4FFEFF1A604A63013FC3B437904D55
:100390008001033AFFFFFFFFFFFFFFFFFFFFFF6F3B
:1003A000B8FFFF0C40903DF081F013FFFFBFFFFF4F
:1003B000FFFFFFFFFFFFB7E7FFFF1040E023261618
:1003C000902B8011FFFFFFFFFFFFFFFFFFFFFFDF0D
:1003D0005FFFFF0460801EFFFFFFFFFFFFFFDFFFE7
:1003E000E7FFEFBFFFFF18404263013F78797A597A
:1003F0003C1FC01CFFFFFFFFFFFFFFFFFFFFFF775A
:10040000F0FFFF0440802FFFFFFFFFFFFFFFFFFF14
:10041000FFFFBFFFFFFF0540802201FFFFFFFFFF3F
:10042000FFFFFFFFFFFFFB6FFEFF1140801F08046F
:10043000A5A061A001FFFFFFFFFFFFFFFFFFFFFF80
:10044000DFDFFEFF0B60801A000B3A06FFFFFFFFA5
:10045000FFFFFFFFFFEFFFEFFFDFFF0DE0366D0354
:100460006AF01804FFFFFFFFFFFFFFEFFFFFFFFF32
:10047000BAFFFF0D6070E2E2028F7101FFFFFFFF24
:10048000FFBFFFFFFFFFFFFFFDDFFF0C40A0559008
:1004900001AB41FFFFFFFFFFFFFFFFFFFFFF77F70C
:1004A000DFFF08408018802BFFFFFFFFFFFFFFFFEB
:1004B000FFFFFFBF7FFFFF03608005FFFFFFFFFF20
:1004C000FFFFFFFFFFFFFFEFFFFF03609001FFFF54
:1004D000BFFFFFFFFFFFFFFFFFDFFFFFFF0940E060
:1004E00021269004FFFFFFFFFFFFFFDFFFE7FFFF75
:1004F000DFFFFF1240014E617A694B1EC019FFFFFA
:10050000FFFFFFFFFFFFFFFFFFFFFFFFFF0040FFB9
:10051000FFFFFFFFFFFFDFFFFFFFEFFDFFFF0AC051
:10052000E024063A38FFFFFFFFFFFFFFFFFFFFFF5A
:10053000FFFAFFFF03408002FFFFFFFFFFFFFFFF07
:10054000FFFFFF7FF7FFFF03408002FFFFFFFFFF7A
:10055000FFFFFFFFFFFFFFBFDFFF096080019B116F
:100560000BFFFFFFFFFFFFFFFFFFFFFFBFFFFFFFCF
:10057000024000FFFFFFFFFFFFFFFFFFFFFFFFEF56
:10058000FFFF04400017FFFFFFFFFFFFFFFFFFFF1C
:10059000FFFFFFDFFF00C0FFFFFFFFFFFFFFFFFFC9
:1005A000FFFFFFFFDFFF0580176001FFFFFFFFFF79
:1005B000FFFFFFFFEFFFD7FFDFFF09C03654028FB9
:1005C00001FFFFFFFFFFBFFFFFFFFFFFFFFFFFFF79
:1005D0000840C0135562FFFFFFFFFFFFFFFFFFFF53
:1005E000FFFB5FFFFF0F6080750A91A063A003FF10
:1005F000FFFFFFFFBFFFFFFFFFFFFFFFFEFF0E201C
:10060000185D5A3C9A8848FFFFFFFFFFFFFFFFFF7E
:10061000FFFFFFFFFFFF0040FFFFFFFFFFFFFFFFA8
:10062000FFFFFFEFFFFFFF024040FFFFFFFFFFFF65
:10063000FFFFFFFFFFFFFFFFFF0040FFFFFFFFFF88
:10064000FFFFEFFFFFFFFFFFFFFF04009065FFFFCD
:10065000FFFFFFBFFFFFFFFFFFFFFFFFFF0840B0EF
:10066000337361FFFFFFFFFFFFFFFFFFFFFFFFFF90
:10067000FFFF0040FFFFFFFFFFFFFFFFFFFFFFFF48
:10068000FFFFFF0040FFFFFFFFFFFFFFFFFFFFFF38
:10069000FFFFFFFF0040FFFFFFFFFFFFFFFFFFFF28
:1006A000FFFFFFFFFF0040FFFFFFFFFFFFFFFFFF18
:1006B000FFFFFFFFFFFF0040FFFFFFFFFFFFFFFF08
:1006C000FFFFFFFFFFFFFF0040FFFFFFFFFFFFFFF8
:1006D000FFFFFFFFFFFFFFFF0040FFFFFFFFFFFFE8
:1006E000FFFFFFFFFFFFFFFFFF0040FFFFFFFFFFD8
:1006F000FFFFFFFFFFFFFFFFFFFF0040FFFFFFFFC8
:10070000FFFFFFFFFFFFFFFFFFFFFF0040FFFFFFB7
:10071000FFFFFFFFFFFFFFFFFFFFFFFF0040FFE7BF
:10072000FFFFFFFFFFFFFFFFFFFFFFFFFF0240375D
:10073000FFE7FFFFFFFFFFFFFFFFFFFFFFFFFF0AD6
:1007400040D1C3A38679FFE3FFF9FFFFFFFFFFFF5F
:10075000FFFFFFFFFF1A40A9AE8E10160160BECC4E
:10076000BC7D5B1EFFE7FFF9FFFFFFFFFFFFFFFF01
:10077000FFFFFF2260346155319223ED200E635755
:10078000779998966B1AFFE7FFF9FFFFFFFFFFFFCE
:10079000FFFFFFFFFF2520388934011C05461C811F
:1007A0000C165261303E46B1E102FFC3FFF9FFFE75
:1007B000FFFFFFFFFFFFFFFFFF3F203F3CE0319BBC
:1007C00020BB9A43CA2A4065B1167B849C31511ED6
:1007D000552935464168009113A40400000000002B
:1007E0000000000000000000FEFF0A00802B80BC1B
:1007F0001C00000000000000000000000000FEFFE0
:100800001461B018232333032D14142303AD424184
:100810004141E0424191C02A173323022A131414A4
:1008200008AA82414131A042313362B02A253232D6
:10083000022E2323230422C01D0241323232903380
:1008400032911002896241903521B02A15045C145E
:10085000059F62E066F029056F069C72E076D0295C
:1008600003A81D0374803807818038E90AFF929E2F
:10087000A038E7088A7300068D43A0F9018A011A9F
:10088000801C06CA61A01C06CA61A01CFFE3FFF120
:100890007FFC3FFFFFFFFFFFFFFFFF6000E0262E12
:1008A0007A88AD810CB33011BB21133E5152301602
:1008B000064273000B3533239A323D436B423C436F
:1008C0003E51226E314D335C5135331834FFE3FF16
:1008D000F07FFEFFFFFFFFFFFFFFFFFF4920F05704
:1008E0003FD2A10716BC1425821516E234861115D5
:1008F000C53314A213F93314C63314F91514C633CF
:10090000143303FFF3FFF87FFC3FFFFFFFFFFFFF00
:10091000FFFF4B00A01640C522987F1097718F41B2
:10092000501311055371302314018521603403A540
:100930006023031BD825E3F92303FFFFFFFFFFFF1D
:10094000FFFFFFFFFFFFFFFFFF0040FFFFFFF87FFC
:10095000FC3FFFFFFFFFFFFFFFFF4000B0262D72AF
:10096000FAF8394141116A31BE3C32112E51110061
:1009700023E3F918014121AE3E322922FFFFFFF89F
:100980007FFC3FFFFFFFFFFFFFFFFF2E00C0232E76
:1009900062DCE9DB8DAE7E1110F7F92203738F0064
:1009A00022031232FFFFFFFF7FFE3FFFFFFFFFFF2B
:1009B000FFFFFF26002D4CC4D3D394A67611492106
:1009C0009737227B9737221EFFFFFFFF7FFE3FFFF7
:1009D000FFFFFFFFFFFFFF1C40A0B6B5B4B5C5C4C5
:1009E000B48521553B4C3DFFFFFFFFFFFE3FFFFF5E
:1009F000FFFFFFFFFFFF19A0318011491169552248
:100A000073B7882202FFFFFFFF7FFE3FFFDFFFFF7C
:100A1000FFFFFFFF1D20A8BCAE9F6E1120F70765EA
:100A20007F33312002FFFFFFFF7FFFDFFFEFFFFF7C
:100A3000FFFFFFFF0700B01C3103FFFFFFFFFFFFB9
:100A40003FFFFFFFFFFFFFFFFF0E607012FF000F71
:100A5000F212FFFFFFFFFFFFBFFFFFFFFFFFFFFFE0
:100A6000FF066000712FFFFFFFFFFFFFFFFFFFFF8B
:100A7000FFFFFFFFFF0040FFFFFFFFFFFFBFFFCFB4
:100A8000FFFFFFFFFFFF10608062C46486844C3E5E
:100A9000FFFFFFFFFFFFBFFFFFFFFFFFFFFFFF05A0
:100AA00060A0C305FFFFFFFFFFFFBFFFCFFFFFFFFA
:100AB000FFFFFF1020B0A35675596B5A5CFFFFFF74
:100AC000FFFFFFFFFFFFFFFFFFFFFFFF0040FFFFF4
:100AD000FFFFFFFFBFFFFFFFFFFFFFFFFF0360C040
:100AE00005FFFFFFFFFFFF9FFFCFFFFFFFFFFFFFA0
:100AF0001140D01CE188A78788B503FFFFFFFFFFE7
:100B0000FFFFFFFFFFFFFFFFFFFF004000000000AF
:100B1000000000000000000000FEFF0A00802B80A3
:100B2000BC1C00000000000000000000000000FEEF
:100B3000FF8260809C22C01D02C82180AA34400729
:100B4000896310088E62C094AEB064C019064CE987
:100B5000094C069C61E0748ED024B0290760D0381F
:100B60000423D0EE018B0119801C06CA61A01C066B
:100B7000CA61A01CFFFFFFFFFFFFFFFFFFFFFFFF9A
:100B8000FFFFFF0040FFFFFFFFFFFFFFFFEFFFFF43
:100B9000FFFFFFFF0960307A693402FFFFFFFFFFAC
:100BA000FFFFFFFFFFFFFFFFFFFF0040FFFFFFFF13
:100BB000FFFFFFFFCFFFFFFFFFFFFF0C40B0646AA6
:100BC0006A6A3AFFFFFFFFFFFFFFFFFFFFFFFFFF24
:100BD000FFFF0040FFFFFFFFFFFFFFFFFFFFFFFFE3
:100BE000FFFFFF0040FFFFFFFFFFBEFFFFEFFFFF24
:100BF000FFFFFFFF1A60373B2129241817D033E489
:100C0000C0A2A6FFFFFFFFFFFEFFFFFFFFFFFFFFEA
:100C1000FFFF0040FFFFFFFFFFFFFFFFFFFFFFFFA2
:100C2000FFFFFF0040FFC7FFFFFFFFFFFFEFFFFFDA
:100C3000FFFFFFFF1E2050A6A6230149785A4C084B
:100C4000234344953AFFC7FFF3FFFFFFFFFFFFFF7A
:100C5000FFFFFFFF1F20C081500E01E120D0235D68
:100C60004D85105DB803FFE3FFF1FFFFFFFFFFFFBE
:100C7000F7FFFFFFFF312000E1E2027F031A26E4C5
:100C800050071AF5C124E03160539091500D0101D5
:100C9000FFC3FFF1FFFDFFFFFFFFFFFFFFFFFF446B
:100CA00020801112933B01368054DCE8032A34691A
:100CB000C3B0F2E05190912ED5241702A4772B15E2
:100CC000242834FFC1FFE9FFFCFFFFEFFFFFFFFF18
:100CD000FFFF4D20194C4C1C9013BB010503290C40
:100CE000520098A679363627753F032C072F0B2B19
:100CF000009016344BA25266A38201FFF1FFE0FF81
:100D0000FEFFFFFFFFFFFFFFFFFF3D20E07540AF4D
:100D1000C011D22002914E396B86456253D446B041
:100D20001C31016198A47162528202FFF8FFF47FC6
:100D3000FCFFFFFFFFFFFFFFFFFF53208024C99050
:100D400082A180C103B0BF5E3D63281A2927121219
:100D500022125439133112153016027C63413711B7
:100D60001E0056495103FFF8FFFC7FFA7FFFEFFF9B
:100D7000F7FFFFFFFF6020E031E0413B1F3E3C7C7E
:100D8000D08271C08141A1408C8FDC232C2B361581
:100D90002226F84624211216255122E4518003010F
:100DA0004B0F18212A211CFFF87FFC7FF83FFFFF23
:100DB000FFFFFFFFFFFF62208022A0A130005C51F7
:100DC0003281B08222AAA0C148B8202B432A17E959
:100DD00017265032644A222162011C240D4B0B4B12
:100DE0000F1FA3681913142635FFEC7FFE7FFC7FCD
:100DF000FFFFFFFFFFFFFFFF5DA0011B0A02A24BE9
:100E00004ACA12C7A9653B790042E1610213111673
:100E100065111410411804B080A11FF34E4B213608
:100E20002233413351A01444047FEC7FFE3FFC3F4A
:100E3000FFFFFFFFFFFFFFFF6320F041C88181B08C
:100E4000919820EAD9888612848630749F051A22E8
:100E500071BB011E1111915503483114032E051D5C
:100E600005180CF23F3A41D601004F047FFE3FFFC8
:100E70003FFFBFFFFFFFFFFFFFFFFF42208022B0C9
:100E8000715030B88470C9088039788AC7175165A5
:100E9000C4718D3461A811322152640220533FFE87
:100EA0003FFE3FFF1FFECFFFFFFFFFFFFF6B20E076
:100EB00053994017F776876752277776063C676E17
:100EC000072E566065904211041F53C061031E81B6
:100ED00050D0034103390021D0F390126D872123B4
:100EE000623221B1013FFF3FFF9FFFFFFFFFFFFF86
:100EF000FFFFFFFF362080228BC6907264C0611511
:100F0000656066560660476479267554A594042486
:100F1000443FDE3FFFBFFE1FFEFFFFFFFFFFFFFF5F
:100F2000672000C1671D66C5564276554816555D57
:100F300066125F067404195510458042C42590233B
:100F40006517D0112B141D8023B04112702223028B
:100F500033B20768D2011FFF1FF79FFF1FFEDFFF9D
:100F6000FFFFFFFFFF782080247B70150552575D3F
:100F7000536357A45330353FF53450535903184544
:100F8000540446D54540434B021C324602793D028B
:100F9000A0600AD50011B132722317122A218012E3
:100FA000D04149BFFF9FFF9FFFDFFECFFFFFFFFF45
:100FB000FFFF53A00554555F14545A74545563529F
:100FC000103532D4343775254C344438061B453639
:100FD0000419342D035302190FB313C2A4051FFFC4
:100FE0009FFF8FFDCFFFC7FFF3FFFFFFFF8C204F59
:100FF000994545411454B051545470444B04430234
:1010000023E4257033B035031C4220B2F82390222C
:10101000C46ABA24D022A44B9B339031744B6B2406
:101020002F734A791260318676042C5510707889B6
:10103000491D61852B9FFF8FFFDFFFDFFFA7FFF3B8
:10104000FFFFFFFF6EE02420113233E44345B3433A
:101050004973434D0235034002230443F242702496
:101060002CD312292534332321731353112B131935
:10107000175909515CC011901F830440298FEFDF7D
:10108000FF9FFF4FFF8FFFFFFFFFFFFF83604603C0
:101090002F413F0411003330234F3D0445B39743A4
:1010A0001C835252333132323533061B32011971EF
:1010B00002233414104137D2B5323BA198313F712D
:1010C0005B41206781F5130710A289312013F204D8
:1010D0008FFF8FFFCFFFCFFFEFFFFFFFFFFFFF75FA
:1010E0006043011D1141490319414D02250431029C
:1010F00022D414E03193339031D32370424F021441
:10110000D313103139D1323C91414F51223D01115D
:1011100083232DC2131BF313CB89C602CFFFCFFF4E
:10112000CFFFCFFFCFFFFFFFFFFFFF746032011142
:1011300056342C94141128D414259514805124303D
:1011400039A3323D633239022353232F93232BD308
:101150001319A322302236F2322AD1313D9141D9DE
:10116000B3276111C16A49C7DFC7FFCFFFEFFFC7D0
:10117000FFFFFFFFFFFF8120F035B0717043044394
:1011800051414FE10B217413103333110124151118
:1011900000323BE132370221422350220116031C68
:1011A000131D0319131031501350310014DDA469BD
:1011B0003B3D5D186112237202CFCFCFFFC7FFE71F
:1011C000FFFFFFFFFFFFFFFF6CA0743443242313D6
:1011D0002327231C0319140031502340311023C04E
:1011E000D12340319031F23250233032202270220C
:1011F0002F0115A370370137137051012DD1763BA4
:10120000C7FFCFFFCFFFCFFFCFFFFFFFFFFFFF7471
:101210006034011D613A0219323F02250333022175
:10122000C3D011C01118603134011143E011139083
:101230001113134032350111539012D02113303164
:1012400037F131F5E3C114A2B5A459E7FFE7FFE791
:10125000FDCFFFCFFFFFFFFFFFFF75203F7B383340
:10126000354231101328D3131CA4221F73221B03F1
:101270003371313FF13BE23138A1219522D131D197
:10128000D126512103111D20091652D01180153D80
:101290001A4222F394D501E3FFE7FFE7FF67FFD788
:1012A000FFFFFFFFFFFF712080146C5A9A3582A266
:1012B000320FB3133037012233131F0231D13D01F6
:1012C00091807112102022FB22BF131F92120E2553
:1012D000712110102ED1313901103D2A72F3569927
:1012E00004E7FFE3FFE7FFA7FFE7FFF7FFFFFFFFCD
:1012F0007660011D310119310118410415A5D01185
:1013000003300116030515031913000F1F3301776E
:1013100030213D913139012D21360129212B012820
:101320000F10DD90A140FE300A11114848F7EFE39D
:10133000FFF3FFF7FFDFFFFFFFFFFFFF53E0901416
:101340001B153B28337B88A01295121280110303D2
:1013500017030713030401913160071BF31B52129B
:10136000960566B4776B1901E3FFF7FFF7FFE7FF18
:10137000F7FFFFFFFFFFFF546042012E38011D31D0
:101380003D011831301370FB011023145314531115
:101390001B121A529974F0311330312801D2102ADD
:1013A00081672CF00FE003F0003000000000000027
:1013B000FEFF0A00802B808C1AF80FF803F00070F3
:1013C000000000000000FEFF27610F021F0090E2F6
:1013D000A0C2F0A2C092B06390339004013D0E4FC2
:1013E0000D3F0B5B0A48095F064E046C8001596093
:1013F000B03701005D208018120C690D8DB1D096B8
:10140000A0190F6F19039FB1B087D01A12035C02A5
:1014100050E03240062E038811F072100838601137
:101420002AE0060539E9093B10801900C0939EE0C7
:10143000D3B0190C48E708490A9BA1A07400064DD7
:10144000069A4230034B03BA31801E029F1AB0182D
:101450008001C961A01C06CA61A01C06CA01FBD19B
:10146000F1FFF3FFB3FFD7FFFFFFFFFFFF6EA00306
:101470001909457130FFDA95783B0E01B2600A77A1
:101480002050120AE1210EB3128C591A1290D195F4
:10149000783CD031B083E0C210C411BF786A6A5A78
:1014A0007B044C694B4CF981F3FFFFFFF3FFCBFF4B
:1014B000FFFFFFFFFF736034E1D01817B8137B31D3
:1014C000013E611138620EC00B1431A24260BA5065
:1014D000BA0F2B129CD9801290115390A1200CB7F7
:1014E00020100D46213000D5001C610CB0AB00EA85
:1014F00008F183FBF4FBFFF7FFF7FFF7FFFFFFFFA8
:101500007860030588E15139E280181ED32B043B33
:10151000012C320AE321539011360A62CC9C3BA77E
:10152000908113D214200405001192300010F7941A
:101530005870F0434900A121852B7941335AF1E1DC
:10154000FBC0F1FFFBFFF7FFF7FFFFFFFF9760080E
:1015500006552170503040D004E65080F5410024FB
:101560000E59105A42E04256D0026531011A95A533
:10157000131339511A99103111434E130591585BC9
:101580000C4D700B2A10C00107071B20201278D6C3
:101590000118F04199751626127306F9E7FDE07BF4
:1015A000FEFFFFFFFFF7FFFFFFFF776037510419D2
:1015B0008310373C3B054758277A20072811B5236D
:1015C000047A97052D042BE452011C0912512215AF
:1015D00000910021215243220391814EC0575001B6
:1015E000B210036017567306FBE7F9D17FF0F9FFDD
:1015F000F7FFEBFFFFFFFF8760710418A451C3C31F
:10160000723321B2B751F8D9BBA84072C58CEC82B5
:10161000A3031826B30A18012F097080562F5220F1
:10162000952521118F714F21E4C13B5090041EB0CC
:10163000E4F7400A1A033F80127CC7F101F9FFFD6D
:10164000D97BF8FFFFFBFFFFFFFFFFFF616043F166
:10165000314AF100130985307209A050610A9126C0
:101660002C3B50C1016F081F031E001412212027BC
:1016700021117E18597E03007630B00290A903F93B
:10168000FFFFE97DF8FBFFFFFFF7FFFFFFFF6E6045
:1016900032022183132CD3141705A13009A0AC10FA
:1016A0009A0BA36B2547256CF031E04139D071C00E
:1016B000112012142122813424210F36B339408F96
:1016C000D071D681006265F9FCF9F939F0F3FDF7C4
:1016D000FFF7FFFFFFFFAEC0237C36145E4613709A
:1016E00036028513303A01B223004CE1469197B59A
:1016F000A6A6A688A57AA56BA44EA37C93051899E7
:1017000070607B2C0C04104C0D021CE500C04120C5
:101710000E1A05C414230005A7D623320D62000853
:1017200090CFDCEB0A8008387162B4819112237883
:10173000FEFDFE7FF81BFEFBFFFFFFFFFFFF866045
:1017400037024F5100146C7B2E031813200417032B
:101750001D13801303336198774B2E2C00E1819188
:10176000091B099200B20619B23405498504E7C67F
:101770001342C6023EA0011903071E500A022900A7
:10178000D8761C79E079FFFDFA3FFEFBFFFFFFFFF3
:10179000FFFF9760021540F4035B42025905249055
:1017A000224313F0718FBCD011A322A0D1BACA4C2E
:1017B0001983134B361D5313C0B213B011F4C0F18B
:1017C000240670214A71009CDB2208324248E06204
:1017D0003D12B41111421209051E10900246A902D1
:1017E0007CF07DFFFDFA19FEFFFFFFFFFFFFFF9674
:1017F000603492D012901284324BC18358C9F59252
:101800003210141930034B31701360011F05E7B01B
:101810001133132EA6300EB1250670312B7100AB9B
:101820000B917D1031B530700707A13F0152421175
:10183000D1F400B0710201070605291078E078FCA8
:101840007BF93FFC9DFFF7FFFFFFFFF160330133A2
:1018500011C17011210119401032390220010643D3
:101860000E1B122EF3140D2999B483371031502317
:101870002E5C57C64D00E1313014F0238011033146
:101880000157AA4031802101A3A7280A1D133795CB
:10189000AA100079031B722017F0020038711A6534
:1018A0000228626896024119D051200411C21141E8
:1018B000707230808477400640903100021C021024
:1018C00060F2372DD9017C803CF8FDEF1DFEBBFF97
:1018D000FFFFFFFFFFD640041CA1903122081A052C
:1018E0000029146002E5B713905418C24EE003417A
:1018F00091052BC0315122081EF0313100C0013654
:10190000A1211020368121607D13372203A239A145
:10191000914558BCF1F10D3A00F00203536CA73623
:1019200071258333A201597DF76B089077187A2BC4
:10193000385A50B454B4C4181B11E3108F88795B23
:101940004C2E7B803DFC7DEE3FFEDFFFFFFFFFFF67
:10195000FFBEE02031002560AA294011B0053732D2
:10196000D00240B013509C201921A0229031C052C7
:10197000012B805222400E1C1F82227121200D1249
:10198000226331329181367AD27131084801731362
:101990005649B196578617A21288A48228E1081DDD
:1019A0000875300887780083064557EF312DF6A576
:1019B000583C3E8038E07AEF1FFE9FFFF3FFFFFFA9
:1019C000FF17616322901127132228B012523AD0D8
:1019D00061A69031111371882040D12EF307D4A055
:1019E000020225E580C1701130A1E772310210A416
:1019F00001A6B022102FAB074B3139012490030709
:101A00001E1601100330E1110A188002D7121C03C0
:101A1000E631100D396762261D03C441000000192C
:101A2000CA62088080118700680220666A77907118
:101A3000A777B0719667183B3889214F4D11A1D314
:101A4000269B9051D02170A13C9A49E713A1023DF9
:101A5000C038D01DE719FBBFFFFFFFFFFFFF12E1FA
:101A60000EC7D3DEB380011CC061D47F23123118AE
:101A70006080011A842701B20401071F230D280882
:101A80001D210C18012C1A42F31B44C001293107F7
:101A90002A91402265BBD013E350021B95322606E3
:101AA0002C04100304106380F161D160DC21AD319E
:101AB000132C1A1A2D75E1011F30B2D08130535505
:101AC0002130711BE67F32022623F70B73870170EA
:101AD00006542077B07106A15FE7124271660DB01F
:101AE0001A27243A4C822B11213EC13CC01DE59F90
:101AF000FBDBFFFFFFFFFFFF2661B3229D6390C169
:101B0000833DB1B622CAC2402CAC226B1CA32B0C65
:101B1000C4632E62515841222826131254205111B9
:101B20003266857273131C0230F1A1E0011E0C5560
:101B3000501B041920C1873211A1A0C113208114A8
:101B40002E4194D612103E1F033271011978765837
:101B50000D2A94EDF64D1621EB0B1B4249211C1367
:101B600016232023196CC001415621110B1A0D5068
:101B7000B44104112AF77836211A42C64600655A44
:101B8000866266684512010648A8744D3B3F611C99
:101B9000C019E03DF803FFFFFFFFFFFF5EE10328F0
:101BA0000118F3E1C84164031B23F815E73805B0B9
:101BB000A36C62BCB2BAB26C0818403A0B3A4B45FF
:101BC0000162010102110333436129C0A263814014
:101BD00020A00134C1C0012CC0B180011FD0A124BC
:101BE00012DD637906132201183120B011ED1113B3
:101BF00000566186160115B033F011A1690803750E
:101C000012200411C110008A230492238302B0A081
:101C1000220353516A6110D09237C931367306706E
:101C20005438748E20E6368424D7051B16A126F27C
:101C3000C6C572A235629630123E418911015F64B9
:101C40000084B02180910329500A033F10BFC11EB8
:101C5000C01DE09DF81FFCF7FFFFFFFF35E11401F9
:101C60005E0187600239028540023D0144511263E2
:101C70003480248105360280A280A4A22EF3E123C1
:101C8000AEA280A4A22ED3B61420350A492413375D
:101C9000D241D957C23E16023AA0B1138AAF118081
:101CA000F18118914932A2F0032131E32C92720A9A
:101CB000293191014588BBF8805112781792102084
:101CC00012E5330111A112F3071820161512D128BD
:101CD0006C5A55C1E2C265B758C6022A56C8556645
:101CE0000126212975446826100229643119034F01
:101CF00062067C037F376B9A023F909DF80EE09955
:101D0000F9CDFDFFFFFFFFFF2FE12594012AA40479
:101D10002A722519D1012BD3022BF158021ED101B1
:101D20001E021D52082B023FE1110102A2215503A0
:101D300031810C1E8C91B4A10A1FA9B1B2A109284E
:101D40002853B234B23219C2D2102E1701131630F2
:101D500090A12009B4507DE667170DF630811F125F
:101D6000B311004E7730D1001B41B01191FA15022A
:101D70000172128B5056174353091E041E436137DC
:101D8000146305A000562360325600EB6570B1461F
:101D9000AC59360141665B71113010AFC0A100092A
:101DA0001F083F54DEF00DE00DF89FFCFBFFFFFF26
:101DB000FF51E144032D022B432A042A0618712403
:101DC0004A920118140219E2234472011A011150B7
:101DD00042442010022972811027015055012B1412
:101DE000370022DF8291701A60A001140AA6919137
:101DF0000F001043B2606204123471340021E0F12C
:101E0000124020640401180A14C09114139A6D152D
:101E10003D1302001F052B5B9143207B373003509D
:101E20001B62402E514513004C273BA01115011198
:101E300033683110D0A15F97A203241056CF5E06FD
:101E400022E073C4681F120092522552042F13110E
:101E50006903385553053C457D15C1021F52DEF814
:101E60001EE04CF88FFCFFFFFFFFFF3EC1174485CB
:101E700003D711422980E124B0F23390B26142804D
:101E8000021021740156C11231186024DD022706A8
:101E9000021E1E03110C02200C6272F2133E360267
:101EA00012E2724170E00104124A0890A1801165AB
:101EB00020260A36472FA21131122095F23C160136
:101EC000617A0907617B111603A3BDCC7165100C03
:101ED000D5121B04F1A274D4BB21C67DAE52641E80
:101EE00011510F180031030303108150CE52220408
:101EF000E640021D0D243E65108143F612816254B6
:101F000003245148402E02A6E091F0813FDE1E6876
:101F10001CE00FF859FEFBFFFFFFFF44E11209919F
:101F20000E13047010161625218152424482141893
:101F300053914273C43430420001332BC0424201FA
:101F4000D6011DD2011D6241C041610112E012E0C3
:101F5000D1E1507101394105B22108C14126031F69
:101F600062021A2011FD30EF207065069681DEA016
:101F7000B11E519240680A10336112318E90720E78
:101F800005908A110D850BA3282265F6C8150D163C
:101F90006F46EC15237130B561B31F421005012D5A
:101FA00092187770125391469092A2010162001428
:101FB000381170ED2D0128310A65F033DE852C3F94
:101FC000DFDFF77FF75DF83FFFFBFFFFFFFFA86054
:101FD000C159A8111291C54711211142114148233D
:101FE000466262513537263421313AE747B928CA6B
:101FF000401605F328E777633232C202809B1C004B
:10200000112321061F45F19F67E266737D2023E1BE
:10201000CDD91111053622154B5002180245D011A9
:1020200080E2852C3F5E1E764EF40FF84FFEFDFFDA
:10203000FFFFFF306111C1FABA113111713D647CAB
:102040001121B34D64BC5121315C374D71031475BE
:1020500002212D134851E1E64123191005191414EA
:102060007E1F14F472230410370391131943610285
:1020700021801116E42A010114B013170A842100EB
:10208000582360016261E7707DEF11C67F0B1E79F6
:1020900016C87D111598081D408F720E740027C256
:1020A000E638E211110B265E260C8409171100A2F6
:1020B0001D328051110F1955263210814546D51118
:1020C000A1D245365301282260248083263F461F33
:1020D000F61FF60DF46DFEF7FFFFFFFF3DE1112146
:1020E0002942318D557A3122291112211A41811844
:1020F000311F02A4413162F0111165A0712141A18B
:10210000B04178A09165A1A031B0A161C65126105F
:10211000C53182226C162404183303474171A8414B
:102120001F361710B19761015C0229E1E132F5A178
:102130003126A476102C0C413D18E6CA123912E162
:10214000F3E2300C77303D005B271311611004B7C8
:10215000222C01C353F4916A52E12B419031129D1C
:10216000E1B931555E13A484231325292127543C5A
:102170002417808100082888374B2198033F821F4D
:10218000772EF40DF41FFEFFFFFFFFFF4061A53126
:102190000818C001652123392141283271103160AE
:1021A0003422DE223911112129E27C03358750299E
:1021B000121112071986011905292B0D719F31A1E2
:1021C000108662141524787242637233121514E477
:1021D00073D3141A201111C01703552012F0126086
:1021E0000101E1217D350275002545210B1C2921C6
:1021F00017E8BD008500E925071200E31112111848
:10220000C2100DE20340110B722E101945D510318A
:102210002D82705911D36286A04112CBC2874D7EA8
:1022200015882E122E21175B1B28803234331FC0D5
:102230001EF10CFA0EFC0DFFFBFFFFFFFF54E1F057
:1022400005034AF4073E80011DD4F7D6081914107F
:10225000701A31820610412813C130325FF11E22FC
:10226000A1031411F81D15620B80210214087313C9
:102270004161526037503231E05133F03131011653
:102280001573023438103171131F7041C0312B1E89
:102290003D41013911121660012D5231E093013F89
:1022A00061F2402107D335011D172791108AFB40A9
:1022B00003F16B592A4172119E0DB2F266200C7225
:1022C0001A530A0081311D834B253C11931BEAE808
:1022D000309453181541175E644A532A181043442A
:1022E00001A042A01294F8A3493FE81E200EFC0F63
:1022F000FE0DFEFFFFFFFFFF2BE1F033B019069943
:1023000091D0180C2EA3053B800219D306517C6096
:10231000C02102B413485064220E300207F531394F
:102320003091602A2103185407181300061658022A
:10233000431580112236410110010411136331014C
:10234000272150B11340A00122D10124F02115F31F
:10235000A012B1191413801334BD60C116031E17E7
:10236000A7A40F1AAFB31219031817A85900072012
:102370001151418042340B410A47204E50C64587D7
:1023800035D5620122184A1400211143034B32094A
:10239000FFFF1FF20FFD1CFD7FFFF7FFFFFFFFC5D3
:1023A000E021E0F2A052621B30506D4C4436A32C69
:1023B000A212D922463508C23A1232402F130334F2
:1023C00015252C45B1413126125F90310110A3C271
:1023D00033022215E31315901215160957250241F1
:1023E000DBE5C6E4AAE8A48E14227211044010634F
:1023F0006034105457441412367E724166251340DF
:10240000287B9704FFFF1F701F7407FE0EFEFFFF5F
:10241000FFFFFFF4E050011B0F9F01033844042F1E
:102420007070C35464320891A1402C820130E120C5
:10243000001123093481B1267E342837442D123609
:102440004139318032763640B112011115172052D0
:102450000D2801A518279023529C00C915061DAE12
:102460000AA0EA1E1CA122A9009A008C0640FFA621
:1024700011111BF43A340AC01218327046610B2055
:10248000535C13201182913501105323C03492FF05
:10249000FF5FD20FF09FFF0FFFFFFFFFFFFFC8E0BE
:1024A00090021FF0052BB0052E803144604D46DFB1
:1024B00034637322081121021F602A7281112131B5
:1024C000130D03207E912C7482313125126B258FE0
:1024D0003D25803131C1311A30E2CE011A51310827
:1024E00012345A21C30718280236511231351B11F4
:1024F0002B62707757DC5316642611245C32432913
:1025000018603315FFFFDFD70EEC0EFF05FFFFFF4E
:10251000FFFFFFD2E0082800800200280080025A56
:102520005061C03260042A373A11074214268021D4
:1025300026830022434834C22811022A212225CAB8
:1025400021341C44633013121C19B1A2021B422116
:102550001016F0525B5A6861009D0220D9CE2129E5
:10256000D8E60B30161252000255326D68A0817009
:102570005A19531456C29E43101201264393FFFF6B
:10258000FFFF2FE41FFA9FFFFBFFFFFFFF9CE0A070
:10259000023DC04290B1366112278190312843102C
:1025A0001712638B46F1D83121B842969C74712A78
:1025B000215116672476632610510128A402144382
:1025C000585110F1F16DDD0340BB129327951511A1
:1025D000913134328B13261B1A14031E57FFFFFF51
:1025E0007F0FE105FF0FFFF7FFFFFFFFCFE0A00325
:1025F0001A61021A9018A02119A0012F94021A3012
:1026000032A31EB19031B72725423C41314215F12A
:10261000D85B122215862D115321512B150730211D
:10262000011D121415571500322161A062412401C9
:10263000B60A1210165261201C715F229BAC7E12EA
:10264000187D2B43102116516D14B4535A111130BB
:102650008125187DA705FFFFFFBFBEE00EFF07FF26
:10266000EFFFFFFFFFC340031F9011081D90110BE8
:102670001A90110E1880210E0719F1609011006058
:102680000026F3384A422113B72C12323F18232177
:10269000712B1A83611712222641517194116561C1
:1026A00002464A8031675120729E82CD871323955E
:1026B0003E5E298C0004204349111A978539643104
:1026C000174229F41191322101FFFFFF5FAFF11F83
:1026D000F80FFFEFFFFFFFFFA960C0830C1AD003C4
:1026E00049700207180206162250400903243430AC
:1026F0001A764019A23116512228110210542C9337
:1027000021B7B81E21915115D307814F455631107D
:102710000719E74CCC9E2A419D663A181221563182
:102720004C8184122A4631E614B42421316102FF1F
:10273000FFFFCFFF670EF903FFF7FFFFFFFFAA6060
:10274000F01C850549A1011D0217043A3E387106A7
:1027500038C82101351112D828236C220D105112CE
:1027600039B21182105713B471031C935493051896
:10277000B37B03A0C8DCCB0884128A67584D9082D3
:10278000134B91155122A0138611F41121346124A9
:102790001043C2775AFF8FFF03FF000C00040000B4
:1027A0000000FEFF0A00801D80AA18FF8FFF03FFB4
:1027B000000E000400000000FEFF87E1072A0D2D37
:1027C0000939051A0192209202F120D101B230F1AB
:1027D0000183903503075D6007F4011CF520FE00BE
:1027E000041A02B4600914D01140061EB00324F08C
:1027F000114090032EE0022480920E2911F0B321A3
:102800000171110B2E1691135C12CA03642F12145E
:10281000B77B90738B431324000781308FEA082D18
:102820006111C86B0D969E80B1B67B28B04274A82A
:10283000211472B0919ED091D3A4E01411B213F57B
:10284000F0818EF00111131138015D3116420090B4
:102850007200062C3E6416037A1422108043300264
:102860003A0062E0190BCC8113D01A08DB31E06B1F
:10287000C0188001C961A01C06CA61A01C06CA015B
:10288000EFFFFFF7FFF30FF80FFFEFFFFFFFFF88EA
:10289000E0271A0001100B7B015801501D1F071B78
:1028A00030021140C0042330020349AD505A4100A8
:1028B000811122F67990719B1825B221CB5D51B21E
:1028C0007B76C8C2683711A12213933283132D433C
:1028D0002383234912EF8FFFEFFFFBDEFC67FFC767
:1028E000FFFFFFFF9FE0108072A1A1D00211073906
:1028F0000051C011AE371C2229151817E02356418C
:1029000003E031D180C252C180A2631C5E15271240
:10291000B6162153717215211F75655D6C483B31E8
:1029200012112560230E30532217617132232622A3
:10293000011F27022E05FFCFFFEFFF3327FC0DFEFF
:10294000D7FFFFFFFFC6E05E80C11030091A0214F6
:1029500017151A141B191E1F00D1014F81C0D26513
:1029600002002A40E001122810A011011C9001125F
:102970002A20703A6469F27A218C13326221127330
:102980007881E36900A71E00A19C381761AB8144E0
:10299000B168248071B5215C26A2D04211B41751D0
:1029A00031311635621140270247EF8FFFEFFFF3F9
:1029B00047FC12FEEFFFFFFFFFACA0F820AD917CBB
:1029C00052520AEA11F0110083055055304406882E
:1029D00021D11FB121113235022044344D55144507
:1029E00015556C1B4C412031141124E15714E1762C
:1029F000C65711D6671144117833F415910029197F
:102A000017190950D181D1523E023A128D02126833
:102A100021E7DFFFE3FFFB7FFC06FEE7FFFFFFFF91
:102A2000B4E035BB485CF6455011008002011B90B4
:102A300001061A60C0F1D0521B18261619142A314B
:102A4000F0115A1B10B5F1F2011DF243911930A992
:102A50001029172B4277759DB7125199115A0330DF
:102A6000969A442D82B7133100264B082A2C418CAC
:102A700016123134512325E222280346E7FFFF775F
:102A8000FF7BFF7C7FFFFDFFFFFFFF5AA0361E90FC
:102A9000D3A587690D00000000A0614E4363536217
:102AA000011831712F5D6A4968550065A533762498
:102AB000624691360718839804356FFFFFBFFFF910
:102AC000FFFC11FFFFFFFFFFFF77C0C0331D30C4C5
:102AD000C52481C3AC7E1095A293D181021670E10A
:102AE000E2011BF1C411E2E2A1D0A123135F881B14
:102AF00020133251147102539556203599F72568E9
:102B000011FC336600F0016FFFF7DFFFF9FFFC06F1
:102B1000FFE7FFFFFFFF94C0B01D52422815381495
:102B2000881384888888584B4C4C3C40E1E2E2F1A1
:102B3000E1E2C1E1C4F4B1D0E132C0A158279FA8BD
:102B400025211A83C6538CC8538A3982537A067159
:102B50003161925B1253511333511185213822395F
:102B6000112BFFFFF7F7FFFCFFFE3FFFFDFFFFFF0D
:102B7000FF4AE05E00813A94110000004008B7402F
:102B80000CA1925441825281B184D172D37A885778
:102B900023113746D1211057FFBFF7C7FFFE7FFE35
:102BA00057FEE7FFFFFFFF95A0C012251914801103
:102BB0004546319816241C5123228121116212DBD3
:102BC00011111922E131212332A3436131B4739CE5
:102BD000500DF2001887264245117D111222453111
:102BE0001FA021136D1C98A021F01C03192354175A
:102BF00083142C04FF8FF7C7FF767FFE17FDFFFFBE
:102C0000FFFFFFA1E0062D092E8CE113917A8721A9
:102C100086005822464109B4137515A3101B72266D
:102C2000510DC025B2E4CE3100310AF300106030FE
:102C30009071A1827793A292022CE49DF494C270C9
:102C40002D3800891D221155061611743765156837
:102C50001322C0512603FF8FF7CFFBE57FFE1FFB3A
:102C6000F3FFFFFFFFA8E0052E0939063B053A2BCD
:102C70000661011016C213150031514D021B1112CD
:102C80005651F15254521756530143012B5017E03D
:102C90000201480EA5141C27282C00025658166065
:102CA0002191D7011D972333092666576771701349
:102CB000673001154412702772681DFFEFFFC3FBD8
:102CC000F17EFE17FFF1FFFFFFFFAEE075A7D5F223
:102CD000074A0D38927E061761D65731401474307A
:102CE000474147310912934EA5505A12134909B36F
:102CF00002260A060519180060241F0770011067D4
:102D0000D2173084701C2FCD61971777632261250D
:102D100067535661160521181230044212EE2B72C9
:102D200008571EFFFFFFC3FFE07FFFDDFAEFFFFF45
:102D3000FFFF7FE0074B0C13113750095869061C41
:102D40001157105631A0910677133501E20783120F
:102D50000A24540AA1032FA26D99654262640C38BB
:102D600070D0210CA3041832135615012E71622164
:102D70001C214402FFFFFFC3FFB27FFCBEFFEFFF39
:102D8000FFFFFF8DE0074B0B2FE10921113D4006AE
:102D9000180218811A0620510115A331A02272A031
:102DA0001295212115278DB493D9A4021D0320D09B
:102DB0001332641124A02275812515837143225595
:102DC00029F100261111C43C2524B401FFF7FF3777
:102DD000FFF13FFC97FFC3FFFFFFFFA2E080150755
:102DE00058A1FE2606D2D6D03211D6D6946013450D
:102DF0001AC14839F11852887D4E949081043108E7
:102E000096022A10B0130475618170374508B332F9
:102E1000871B12442721664237591611623D601103
:102E20001251121063142022B0128366E023FFFFB8
:102E3000FF77FFF0FFFCBFFDF7FFFFFFFF6460F0CF
:102E400014080028D3F0F16603051CF01251051E8A
:102E50006331503113544D19327B26C2630326D09F
:102E60002260E292415401C52021404111761213A3
:102E700034FFFFFFFFFFF1FFFC9FFFFFFFFFFFFF9E
:102E800042E0015A01639061F051E0819322B5B4B0
:102E900017124135700329E642898173835414E186
:102EA000282156FFFFFF3FFFF0FFFC3FFEB7FFFF6B
:102EB000FFFF6C6003D5012A5006044B3006B311A6
:102EC00001820D920E24801131D5972B0112921C94
:102ED00025023131A0171450014700442391326676
:102EE0000434D53F612260170247FFFFFFBFFF7B1D
:102EF0007EFC1FFF87FFFFFFFF86605300650550C4
:102F0000560094658830F01151042E4431122C8102
:102F100004334FDC1267BC7A031C738886011C4A99
:102F2000011B521173031A11E177433516515836BC
:102F300001167193B3902231752114E02342FFFFF3
:102F4000FFFFFFFB3FFC8EFF87FFFFFFFF726090DC
:102F500012E0A17A11750D53041938308421004B09
:102F6000107521501174E0711272A0032204530DE8
:102F700044978F391492227188655210215670A09F
:102F80005214612123F01342FFFFFFBFFFFF7FFCBC
:102F90005FFFEAFFFFFFFF5D60A3A6A648271A11A7
:102FA0009C2BB072248322103B510A137175300A96
:102FB00018F571016143414B212174145200004303
:102FC000810018D207540002FFFFFFFFFFFF7FFCC4
:102FD0009FFDF7FFFFFFFF4AE0023D9216A2034468
:102FE000118011828621503A560531B61719166F95
:102FF00024D0414CA08174E2111261112532FFFFEF
:10300000FFFFFF7F7FFE3FFFF7FFFFFFFF3DE00A6F
:103010001D207F89711F175152298221B6AC1B4296
:1030200025A0354A5395E31112611116420DFFFF99
:10303000FFFFFFBFFF7E9FFAE1FFFFFFFF676071A9
:103040000085F3E3A84316B112384C860167957AE0
:10305000358013460003388542024517D0220060B0
:10306000A584B4B272547403901913310310A230C2
:10307000071E02FFFFFFFFFFBF7FFE1EF9D7FFFF06
:10308000FFFF67E00A1D76051F0128984306191700
:10309000173E17C241C1C149905116B103243FC523
:1030A00092B0571C353DA05237116D222451C412E5
:1030B0002F2151802141D001FFFFFFFFFF7F7FFEC5
:1030C0003FFDF7FFFFFFFF43E00A1D20F00100195D
:1030D000618563E8226217F2B2303B150022015B82
:1030E00003516AC41221432841110BFFFFFFFFFF68
:1030F000FF7FFE3DFCF3FFFFFFFF44E0021D028B5C
:1031000081B4D014021D30A10121010744E002D096
:10311000051FA5175E207212011A27A1924CFFFF0E
:10312000FFFFFFDFFFF79FFBFFFFFFFFFF2760268B
:10313000B01B3181D4B112213628ED3956022C430F
:10314000012B04FFFFFFBFFFBF7F760FF9DFFFFFFB
:10315000FFFF666074A8A696A4D0835480248036AE
:1031600064C021301740876C1680113104803EA95D
:10317000131202239AC3BF63112AD023A500091694
:10318000A0324C838E1121FFFFFFFFFFBFFF7F1F87
:10319000FDC7FFFFFFFF66E000833F7461B2561179
:1031A0001D117E875854122C31629A422F933A2077
:1031B00091340210251F00E5C156641235564B1696
:1031C000026072116111A021133121FFEFFFFFFF97
:1031D000FFFFFF3FFDFFFFFFFFFF27E0C2E3024FBE
:1031E000C308153221212A913A801111111F0005BF
:1031F000FFFFFFBBFFFFFF7D9FF8EFFFFFFFFF5AC1
:10320000E0567AA7D5316A312163146589015B0CD8
:103210001D640A187975C731F2991235F38D061DB0
:103220008411260210241990374464B21119FFFF4B
:10323000FFFFFF7FFFFF9EFCF7FFFFFFFF4BE0F06C
:1032400043670C1C031A50763B125210421A19178E
:1032500081E73341199733245112012EC247791661
:103260003133111302FFFFFF7FFFFFFFFF3DFDFF23
:10327000FFFFFFFF35C080223726408081502CE1C0
:10328000501911111191212C21C3401971B3A811AA
:10329000034FFEFFBBFFFFFFBF9EFDA4FFFFFFFF2D
:1032A0008CE01717271680113EB02340022C028AAB
:1032B0007198C502A3A6A6A6DA90B318A77F122319
:1032C0001341A51798141217211019061814091F75
:1032D0003301014542A4214400CE7430360A57849C
:1032E000A03171E01121A0134F9CEF7FFFBEFFFFC3
:1032F0001FFC97FFFFFFFFA8E0608163475A86012C
:103300002951021578028761D202101F0F28E0218F
:1033100020021C8002190322F036C041B0711A2429
:10332000972540C1293264624190579052718011B3
:10333000357510D5061061842B32C03141184172A9
:10334000595AA664D051718022113212130280AFF3
:10335000FFFFBFFF7F3FFDABFFFFFFFFCA60752D83
:1033600025D0010421232A232020D021164F210714
:1033700019C0D27032923203184A17B064C055B9DE
:10338000A144B2A561C8B06580219012603E60E1A1
:1033900060011416F031121C2C2620027C82C148D8
:1033A00031647181807454500B204E2E2A1E10B24D
:1033B000012718882344295201200412A1E1B0A159
:1033C0007180520090AFEBFFFEFFFF1FFCB7FFFFC5
:1033D000FFFFDC60633C1A24272090012F8001232B
:1033E00026235A6A49662C2425406017140041821E
:1033F00030B021157E230C19279002A232E232B39D
:1034000000F0012C065B5101C043025121098931B2
:1034100000255217F761F1B0E181C1D09102062871
:1034200070B396697A90579002001B430114729C06
:103430007B86BA80A187716128C170180320113280
:10344000212200C60FE1FF3FFFFFDFFACFFFFDFFA4
:10345000FFF560D329F0C2F001011060D269D7A254
:1034600032720290131E6068836232A2A4A855B71C
:1034700042527254081832E2061234247C339D8082
:10348000212470F5323232F3041EB03226F50A31AF
:103490002455109077B194B52111B01315E0013E79
:1034A0001C9012A0024880121D2F1002828041261B
:1034B0004B17041710E5031BB3045241467180A15A
:1034C0005111652226515439919031E0220800C2F1
:1034D00081C1FFFFFFFFBFFDE7FFFDFFFFF16003BD
:1034E0001B9002062E7080021B061A9002072F60A6
:1034F00090021A061AA00215032823402C16140A5B
:103500009749A94161721420E00322644342B11A31
:10351000C4D73233E2C83252C25232E206232450B8
:10352000ACD2A1F62252D24132F30518B056034173
:1035300030C10403AB61B2B461A2C3129011D001D7
:103540003E07531A162160621758321C361245285E
:10355000A62722110217170924F701C17F7EFFFF5A
:103560008FFEC5FFFFFFFF036103D6457636C4809B
:10357000618001637840600606645A703009024732
:103580005167181321F6C65722160607690033261D
:1035900025320AD44133E1DE3161C2315232E1AC2D
:1035A000814222C116002780B12F2324104132F31B
:1035B0000A18E0D506422C194B3013B08522A071B1
:1035C0008091600B2D02133C0C3950C0030311A1F4
:1035D00011004F7685831234D0518932B03116787C
:1035E0004A4B29071A2411D4111103277703C10765
:1035F000F2BFFFBFFEF7FFFDFFFFF4E0006E780DA6
:103600001B147D78620AB625C5050206524C405A45
:103610000F1A30B01116701440184DA19F52131795
:103620002301051D61011D60252542A5992B32232B
:10363000FC1A23A011222522EA7D238C662F141761
:1036400014D42B222512404122F34824B2520043C5
:103650004CD7381D4BA90A584C29110052A01821EB
:10366000F0028D013CA0164D7B047E8A71A3641A82
:103670003B31381AE5830F3702C301F0FFFFBFFF6C
:10368000EEFFFFFFFF16E10A441A2678203030874C
:10369000628207438122409662922605722034049A
:1036A0001E04194480011A0C2B01180C1A700B0708
:1036B000190D27281051121E14C14090C153221514
:1036C00023E1A02137A0A1312634210766202B3227
:1036D0002313971713152926152215139727362319
:1036E0000D30D4A32224202D22142C1333CF4613C3
:1036F0001A012F3BB700C3419204730A8C210125A4
:1037000019F0111101CA11025A9005683F9B360940
:10371000402A0F3782DB03E0FFFF5EFEF7FFFFFF6B
:10372000FF3FE10B2529363930601085648406019E
:10373000046148466730130A3064474648531064B2
:10374000605021A463A20418700C061A94622281AE
:1037500002196020403E645626216821221513027A
:1037600001037555528612621183623132149150F1
:103770002C3222130795225122516463214222B236
:1037800030312316331236371943D42E13142B1627
:10379000181436006AE4F0518308312A9011393048
:1037A0001721802762013B011E11D0053950C0034B
:1037B0000367217F541D8197613265E12292A31135
:1037C0002216010E17868D01E03F7FBFFD87FFFFA8
:1037D000FFFF6E6103031211132C262002026210F8
:1037E000200340564F10CE0E316F766EDFDC6F7EB9
:1037F000765E10DB0013205C68583BF5FFFE257BEE
:1038000067860AD730110A187A66850A1295B09130
:10381000606A68582DA3420615C2561513011A9006
:103820008186A00115223142135300C6492232126B
:1038300006943151816766215131A160132633AC62
:10384000D61B1A53D32C22235A461C27AE45130BE2
:1038500018061C3200073029F01138506322F0425C
:10386000012411C111100C9580C180827100E2A465
:1038700082121191014F8155575A5920513351509D
:103880001627470738251421024E115C02862D03A6
:10389000A08FFFFFFDD7FFFFFFFF6361CA22180162
:1038A0004050965606A2000CA12013345B562B0BF9
:1038B000823036E1090267766030D814DA08028770
:1038C000966040C61020CF86C50030003F01B1A4ED
:1038D000B452DE500C30A29587600B1A4901B184B6
:1038E000970051071F46D121D001A3A680011911CD
:1038F000134675316DA124412512011980A1961E30
:10390000120825513222736FAD232642301A121548
:1039100012868616122412EB51134323DB0672E142
:1039200043CB2331B167D192E308061A835C10D0F0
:10393000134312D041B051A041B081B0011A1161BE
:10394000940150790367252802306232500108043F
:10395000862583E083F09F7FA7FFFDFFFFB16150C5
:1039600069173E322360409021923346350F2A80FA
:1039700071A2E0A28021203751021A70D0E1504597
:10398000B796391402D411F0D180F2301216B8D69D
:1039900000300F2A371102F4A820CA0C726171207E
:1039A000CC0A93FA001FD81200A9109B5318B3B089
:1039B000A15D920BC008A4E081140F02C3C62D04C0
:1039C000240170807232280227D26D0D22022271EA
:1039D00014128A6120332111240401C6C6607E328C
:1039E00022836FCD1236318C214131316D6E3122FF
:1039F000814C4132C28DE152582221524269A79135
:103A0000720506041237279013408013702380112B
:103A100090037B80072FB041C031C01230C26611C5
:103A2000127613121605C013002325043093702557
:103A300003101131E0222E0910048E7143D001F0E1
:103A4000FFFC8FFFFFFFFFAC41E0212679610207F9
:103A50003957271B21222051E09205442233409000
:103A6000F26163A34102061C205136062F704051BB
:103A7000422205237010B06121422055D50D1E0E43
:103A8000233163AE006E16152606E1082144A41CFE
:103A900072203273B90B221578AD20E2E7092215A6
:103AA0003822189520F2B2160922A71F0200A39807
:103AB000300EA488203015ABB80F51D289FD2021DB
:103AC000ED8232122114E65040472123D750302A8C
:103AD0002222D7242123A6631C43130374113252DC
:103AE00000B71740B8222261319C0F663D189A0B2F
:103AF00004133F2610B2D041041B01220B3A22705E
:103B0000321171B1E0031D01043BF021A0173B18F5
:103B100032564A00A216574914219713C8082001AB
:103B2000008E35C2F801F0FFFDE7FFFFFFFFA36144
:103B3000B0718051011AA0031CB15006489891162B
:103B400025E0012B159021122D760C2B002201343B
:103B50002224B0011CA0322827167080011852358B
:103B6000053E2070021A2451022850EB7975F80D99
:103B7000F25F6A6A0EB064C812A6A6C968651381AE
:103B8000C69998C9761263A320120600811018B551
:103B9000103B260C016230068210EF6201F019958D
:103BA000157B1D830FE163480031152475200653F2
:103BB00026231212051A332A2122073512412141E8
:103BC00000063121411162110048228A1930A922D0
:103BD00021A26D9B82C206061F1A26212E17106491
:103BE000043C35E036011644362629B0013D11600B
:103BF000938202502656846111434371B25642515A
:103C0000700103048C01C2FA01F0DFFB27FFFDFF06
:103C1000FFB561F08122D8D065A21686D0741AA7AC
:103C200071D00410F541073906A301023C40D1468A
:103C30001275D0B184D2210110042E10414201131B
:103C4000220F2922113635A0011DC0511311112553
:103C5000082D2F144238160EB23825410E021A4094
:103C60003D132223D8DC40D4504043BF2104F30944
:103C70000172EB56691107C4A79BC7401761560A2A
:103C8000215116888C27A4006A560B0061B8691070
:103C9000CF65E47F54965A2107016238E8616000DD
:103CA0002007010273322181AA21127320231114EB
:103CB0002104B08E311281CC22920F18982231B19A
:103CC000DB23C271C206022E262131006102214C83
:103CD000A003393547552A20015D21555208432458
:103CE0009562C032E2B2E0524332F02435080760F8
:103CF0008800E62A01F0DFF9E7FFFDFFFFB261B0BF
:103D0000B1060038009A9084210803282E694209E0
:103D10002E786211180F07120B82A06130B0E2B04A
:103D2000215C1551072E3419F011053890118011BE
:103D3000084A3B353525A00128C011551214150F2E
:103D40002E90111112521538450CA439122211541B
:103D50000E1AC0011C8D2CD7000DD40A170544E59E
:103D600020D709C2768911C61998BB1741B4897743
:103D70009957B7AA187C6B686B1DA8AA1851567D75
:103D80004317E12050120CB2100F65D11F80821131
:103D900032712020FF5E11411122202722110926B5
:103DA000301A22CC261123C820BA212191FA617041
:103DB000041F00C762B2014AF1131262D01107104A
:103DC0001B146C5D1A217003180259059643447246
:103DD00061B26543327061920FE00020462023F00B
:103DE00043F9F7FFFFFFFFB861301F16025890013B
:103DF0002E00B1F0E3C5D092F9900381110B1C574E
:103E000061280D1E1F69710939F81C10E00218A104
:103E100010054F5711351DA0011F60412103230DCF
:103E2000391053628141011960A0215A441550C0D4
:103E3000011E3221C58102B38A4362DC800219204F
:103E40006D1526C7600DB20A031964AB0CE2400F72
:103E5000D0AA26517E21B5EA0F0002E13D35128736
:103E6000278122A57644EC200020CE00A51642B57D
:103E700064730B000101B0316B65C45C07B10F00C6
:103E8000020091161308127F1231610AE1507D324F
:103E90001121791212724D8F21C1812121910B497B
:103EA0009201021484120639410125013D30318509
:103EB00095A1A00416801110F00348F1F0413915C6
:103EC00026361444213FF001204E10137833FC2491
:103ED000FFFFFFFFC161F34113F0121233F2F651FD
:103EE00021A00387A0012AD051890E1C101791E050
:103EF000711586D180E4A1158890A40B1F80032B37
:103F00004755F08275D10214042860412202102125
:103F10000E19105343D201186011A0115B1213B097
:103F2000011C371251244563DA6B6251C5082B130B
:103F3000951107B3DB209A43041956930BE107E070
:103F4000AD72F7882163EC0005E14B3581251292B3
:103F50001286B6FE000501D053535A5186215A5598
:103F6000E10F51EF005CB500101CE1007F0EE01185
:103F70002211E7408F2112112E113181BC9A21218B
:103F800081787100893F16D0141121072D8032D01D
:103F9000016640F03260100F00525021E300081813
:103FA0006950A45004316201284315FD1A25052EDD
:103FB00026061A23044C021FF80330441032FA4933
:103FC000FCCFFFFFFFFFA061EC21470074120FF64A
:103FD0003123A02132E280E14122A00107189001A3
:103FE000041CE08206003C2016A2C0731585C29016
:103FF00062819115889062339801061970B16464EA
:10400000502C1100220119206001133500F0C1511C
:104010002121250218701C2517531640B003C654E1
:104020004273F96B6241B670B05202B307C1ED0042
:10403000B8206480610791ECAF00BD36027017D1E3
:104040001221865DDB89F8A5005621125A51BB5119
:10405000440088E81655BAFA4BCCD7A7F7C68001BA
:1040600004182711825F4D172211611112210810C7
:1040700096D3787109289176C011022A23011CF089
:104080000319651102074810310126130E180001AB
:104090001A351155220524113FFC03784010A2F86F
:1040A00041FAB7FFFFFFFF81613F21601263D21C1D
:1040B000C264000962F38E1E23D122230D281D1530
:1040C000023C60F00419D0F2A3A0C406001B2B57D9
:1040D00031083B7741191705021D1972D08344033B
:1040E0001B90032B11D1F0032025151360800227AC
:1040F000422490012AD031114132355309B6162598
:10410000440A1DA041011A5A100AD47F0A1854709B
:10411000768F5A0EF1A50572064751B97284F500E3
:104120005FE71B352702B0FB6806E05F68457B0A46
:1041300003200A90E4106D575151B0917242510022
:10414000C5504A11128C2172F92743617772041B02
:10415000169280031BD301076850033880C3141BD9
:1041600021E223150540325230027FFC8FFC493991
:10417000F6BD17FCFFFEFFFFFF19612821601273D7
:104180005114D272A061436270602123C90D1E0DCB
:10419000190C1B10302C0882C57E14C50630611125
:1041A0000734F5E001131504755191B1501E132524
:1041B0008F20512402A03A52A2F0A244416B8B9668
:1041C000104A1175667366681854B8717221955358
:1041D0002111535152727481712C71E34578820719
:1041E0003756C80DB51A11713515164623119B1D8A
:1041F0004B1F26111B18231150B226880185000879
:104200001DF3021F88B232013FFC0FFC003826FC70
:1042100001F8F7FEFFFFFF6761C01B21011F2201AC
:10422000182134C46E6363000000B0D380D1311212
:10423000801222C2A00111012830900107182F0C12
:1042400038195100D0034441085888B0012C30B1CE
:104250004264B0B3041150B001242F1400D0011DEA
:1042600084020790252311930A1AA0C1391415A5B9
:10427000BC4E6A44701541A6D5ACCD8775F51211B8
:10428000751256B78ECED532131521438E67C68E62
:10429000BD5834531FD720C91D2DCDFC8F1714F4E2
:1042A0001114B5A041AE161211A420AE114AC1C816
:1042B00004803A402B80044265129012C0012E20E7
:1042C0001A0211215241110014230424023FFE1F3F
:1042D000F80138000C0008000000BE7FDF60C04E0F
:1042E000F22213026AAA0B68EB029EA190C1E01BA6
:1042F0000FE4D01CBC10D01B11116130022124210D
:1043000006C81144E19F3280283206FA1C6820C09A
:104310002DC061F0028D023E064EE01BE065D00626
:104320007BA067A01890048F61E0198001AC6190B8
:104330001B0BBEA1E01B06CA71901C06B921A3A0ED
:104340001C06C8A1801CA30DA2A061A0610BFFFFE9
:10435000FFFFFFFFFFFFFFFFFFFFFFFFFF0040FF2B
:10436000FFFFFF7FFEFFFFFFFFFFFFFFFFFF136069
:1043700008D11F01852D12665204FFFFFFFDFFFFCC
:10438000BFFFFFFFFFFFFFFFFF1060503113120060
:10439000B12B1EFFFFFFFBFFFBFFFFFFFFFDFFFF3A
:1043A000FFFF126010C111A3F3013B1C88FFFFFF48
:1043B000FD7FFEFFFFF7FFFFFFFFBFFF2C602A24FA
:1043C0002243014213B5202C11A1606A41134426F7
:1043D00011340368FFFFFFFFFFFFFFFFFFFFFFFF39
:1043E000FFFFFF0040FFFFFFFF7FFFFFFFC7FFFD55
:1043F000FFFFFFFF2C60371C1F11423111512300BA
:10440000A3051BD5067410C829E09127FFFFFFFF05
:104410007FFFBFFFC7FFFBFFFF9FFF2860472A1EEC
:10442000122271512311443B11E0290138600ACE58
:1044300052FFFFFFFD7FFA7FFEFFFEFDFFFF9F3F64
:104440005D602A244101183382970016A432067059
:104450003E83C6535132D3737343C184411151F02B
:104460001B71808235E036A2D094118065A0656012
:1044700003FFFFFFFE7FFFBFFF7FFFFFFBFFDEFFAE
:10448000396080112E1F5DC0112111519122834886
:104490003190071B5897A6A696A796A7035801FF29
:1044A000FFFFFF7FFFBFFFFFFFFFFFFFFFFF10606A
:1044B00056E04141A1964831FFFFFFFB3FFFFFFF60
:1044C000FFFFFFF7FFFFFF19604E6BA031BD7F13A9
:1044D000618E920A1904FFFFFFFD3FFEBFFFFFFF41
:1044E000FFFF7FDE7B6660142523011627DE104266
:1044F000D0C1E031B435313B5267227134D36442CC
:1045000024C0D1061A0625811223223764D0E1B0D7
:10451000E2A0116B801231652825FFFFFFF97FFFB4
:104520003FFFFFFDFEFFFFFE3B5D6023232C32B209
:104530000BE644B94B140345466102304900114271
:104540006922D018448002073EA6562E3206C63491
:10455000D0E1300162B0216D0002FFFFFFFCBFFE21
:10456000DFFFFFFFFFFFFFFFFF2D60272235220E39
:10457000D3390204E1110DD2402CA211123127D3FC
:10458000E301FFFFFFFF7FFFFFFFFF6FFFFFFFFF65
:10459000FF1860443136374115A273A0E70000FFD1
:1045A000FFFFFD3FFC9FFF9FFFFFFFFFFFFF59C085
:1045B000313117703402C014FC32BD815E12733E7B
:1045C0001112642E3B112E2C412B1715122D18445D
:1045D00014213514388A13128102F81107FFFFFFE6
:1045E000FD1FFB9FFDFFBFFFFFFFFF7F6BE0312241
:1045F000E031132100400314F021324052140373C0
:10460000316582E38F5191545191784220261214E2
:1046100015180110C27412A0113226B018443029A6
:10462000317CA606FFF7FFF91FFE8FFFEFDFFBFFD0
:10463000FFFEFF8960E02524220CB52A0471B2C96F
:10464000CB01304115F323939E32491F622C312058
:10465000966142832361B29653663251582181415B
:1046600002806D51111325C2031A036801A50000D1
:1046700000000E1951A6A6283306FFFFFFFF0FFF0B
:1046800087FFF7FFFFFFFFDFFF63A0F024076B2228
:104690000110323412BBD4304C0CB572915E03144D
:1046A000E510C33322312735441575336371D29534
:1046B00089A58811663430654223633204FFFDBF4B
:1046C000FC07FF87FFF3FFFFFFFFFF7FA960802547
:1046D0004022240A1C4080427210B22051474646B4
:1046E00036563BE60A52C241131450AA8141222495
:1046F0002193F10E302B13134927496D186111587E
:10470000252E34211832223B242E10331115022677
:10471000243832510163145A480012018C51372158
:104720006BA80600000000000000000000F8F3FF86
:10473000DF7F0A00802B809F1A008000C20160008A
:10474000000000F8F37F9E7FC461C06E024B04CB73
:1047500062C0A4F02313D025232390B3C093B043A9
:10476000B065A0034EA053E0254001065930038AEE
:104770004120F3F0D60251A0953F0578912DE2C07B
:10478000F4333611E141710233564E32213400B018
:104790000353625061041807195503071F50145141
:1047A0000418081A0B3515342011B002823220503B
:1047B0000C1C1E34830C4E7933400C3A180225A38E
:1047C000027F3340130839460344048D51051A070C
:1047D0002D081946D0187342C01239A0344662031E
:1047E000AF310729D1960D067C046B5020041E0FB3
:1047F0005C6FC0014D094E093CD062D0032D0A4ABE
:10480000091D09D2B0B40D2A4DF014075ED0048FF3
:10481000011D200697A061A061A091340006A61595
:104820004003B58012A2F072A0631625A47F003E5B
:10483000001F800FC007FBFFFFFEFF5F61803B652D
:10484000082C01C106400118031B051904031A06B0
:104850001A300419031CC3141093960785041C0313
:104860001876208B660D63074681670428B00329FC
:10487000462343135448012F9002485711780649A4
:10488000F0013E761473053A90720638742348049A
:104890003BA00329644443514383041CC052073A9C
:1048A000610034C00338D043D456D00338907387A6
:1048B00077D07145D94DB0329213818553B094A011
:1048C0005493D30162062C08293CC0071E061C9095
:1048D00084E00367508081203006010400186D09D0
:1048E00018E00156A0014F20656A8A950400000077
:1048F000020E0004600000F8F37F9E7F0A00802B08
:1049000080DC19FFFFFFFFFFFFFFFFFFFFFFFFFF3F
:10491000FFFF0040008001C211E001F00408F8F739
:10492000FFFE7F986133B03A6404AA43466002D820
:10493000113440110365606406B57F2E2423C02521
:104940005231AD5205B03C836F23CC055CB5ED6CA4
:104950004CBA1EA4057A1311FE4670003EB3035CE8
:1049600086330E011E1050A5F0743105050106D1E5
:10497000FA9004B11507E1FF1307032F60FCEE3E28
:104980004621110919D00146A254D6007E233C04C9
:10499000022D3030E8F82706C4F0944036051F3663
:1049A0000625D01926081C00C01C40700FDDA1A0F0
:1049B000E1901B0D1F0D4E013FFDF20D2B6D90017F
:1049C000D71F0026E4B062A0734305003005D096DF
:1049D000305690810675A2927522CC2090219003CA
:1049E000530F8CA15168A061A0A1101406A2846A83
:1049F0006A00FB01FF831FE03FE00FF037FF9EFFDF
:104A00002461032C77D072082C062C889092072DF5
:104A1000062EA63083E064F09432588035B0031936
:104A2000F0160080E1F101222B80011860B2377C82
:104A300004041920BEECD0A13F400113B00118407E
:104A40008321D1A0D222011B20038430B001022394
:104A5000C003031A3020E32D9530B0018250063F89
:104A6000D0013E0328A0044E80540B48C6C001501C
:104A7000903340A0011F0535A072A02A01CD246902
:104A800049F0716797B071A884B071B3237350B4C3
:104A9000E3018A11077F807E801FF01FF007F83F37
:104AA000FF9FFFB7E0095F00800600680090760373
:104AB0001BE08280F3D0B1B023F043901909EC9150
:104AC000329016C01D075841044D0D4B8412013E13
:104AD00000E043D095F3C0F7F6C0F7F6C0F7F6C094
:104AE000F793E01910801A0FABB1801B33074E0407
:104AF0004F0258D0016A0102594BF001B8A1E03CC5
:104B000001E07FF83FBE1FFF8FFFC7FFF3FFFFFFEE
:104B1000306043B036E08F111611D034298034D084
:104B20008F31B0A20B1A061A061AFFFBFFFF8FFE89
:104B3000FFFFFFFFFFFFFFFEFF3960A0221423529B
:104B40009280010048001211867926983AC061C807
:104B50009051A6A6291B1101FFFF3FFACFF9FFFFD5
:104B6000FFFFFFFFFFFFFF346040D6055A0439B74F
:104B700059D51B1377770A85AE80D2030028B0027F
:104B80001A2098FFFD3FFFBFFFFFFFBFFFFFFFFFA2
:104B9000FFFF1460D0123379F029E431016CFFFF7C
:104BA000FFFC7FFEFFFFFFFFFFFFFFFE7F3560C4BE
:104BB000921E21C3071F02D6200E02A14419F358EA
:104BC000A6A6665F561211A6A60600000000000207
:104BD00000000000F0F3FFFEFF0A00802B808F1A18
:104BE00000000000000200000000F0F3FFFFFFD211
:104BF00060F05E42029C323323E0D5F0280F5C0F58
:104C00008EE2A03611E0290B5D00D028009005212E
:104C1000028C02004C1E73028AB2B0E3F01F11A294
:104C200000F001D303DC511A05011A124CA4410211
:104C3000FCD180A3902A0B5C06AD12C0AF520602D5
:104C4000DD021B062DE0280CCD01399019C0065F4E
:104C5000D019F0620F18061A061AFFFFFFFBFFFFBC
:104C6000FFFFFFFFFFFFFFFFFF086000D19549FF37
:104C7000FFFFFCDFFFFFFFBFFFFFFFFFFFFF29403C
:104C8000941B41C6D3D3E211C24561E02124112215
:104C9000121511A006FFFFFFFF1FFFFFFFFFFFFF21
:104CA000FFFFFFFF1B6050051E11B13392A3A53318
:104CB000A4112101FFF9FFFA5FF77FFFFFFFF7EF74
:104CC000FFFFFF5740F0421423431323A1E2E2E227
:104CD00030A696787B7A2266DC03352E362C1115A9
:104CE000414833422647111D1880826113D0045871
:104CF00001FFFF3FFC1FFFFFFFFFFFFFFFFFFFFF65
:104D00004160701113210D2EB0012BB0E1341B5204
:104D1000132C36000321168F002305607933A4324B
:104D2000031801FFF13FF61FFBFFFFFFDEEFFFFF60
:104D3000FFFB7E608012443924241F533204C000DC
:104D40000400B1901100062C067090125200051F4D
:104D500061F58511011D58AAE2C41200204311A576
:104D60002400233F8061B01707900F00000000006F
:104D700080A034FFFBFFF9FFFFFFFF7FBFFFFFFFB6
:104D8000FFFF24E053413722D0410A01A380711E66
:104D90001D00E0A4E094FFF97FFC5FFCFFFFFFFF34
:104DA000FFFFFFFE7F7360382524242443D32103B3
:104DB0001EF25320E00100291227210227536181AE
:104DC000262018170638154A111302281535724384
:104DD000051E14270F120F50A6A6665A2188A8A6F2
:104DE00006E0F901FA1FFFBFFFFFFFFFFFFFFFFF14
:104DF0008660F043432424C018222600D073F001BB
:104E00001E4020061AEC3535041C0090B176E90AE4
:104E100000044A08B0BAD01B422168156502AA31C5
:104E2000081A1990258A6A27211D275B715A1220BA
:104E3000110227F011E0F801FF5FF7FFFFFFFFFA13
:104E4000FFFFFF377F60A01425445332B01AE00102
:104E5000A80128801A526400E01A02BE1113E01A59
:104E6000B101A821B01621536E45254C574423317A
:104E7000236311132B1C2F00015BDCE087A063A0D0
:104E800063109493D601FFFB3FFADFFFFFFFFF7F24
:104E9000FFFFFFFFF742C04235D052E80BA630318A
:104EA000FC41DC6126A5827E11913E31A13E122299
:104EB0002411428501799025FFFDFFFEDFFBFFFFF6
:104EC000BFFFFFFFFFFEFF4060214422022A0518BA
:104ED000A1145172C31521013023440023211582EE
:104EE0005210047C62656A7979FFF3FFFC1FFFFFB3
:104EF000FFFFFFFFF7FFFFFF43E0330220D20E0268
:104F0000B120C01540B192C3F124317B213E421C37
:104F100016532B12156B31B033F02106FFF0BFF49E
:104F20004FF7FFFFFFFFFDFF7FFF7B8C60386223A1
:104F3000DF2100200EE130201134B70020400C00AA
:104F4000708100210D9073AA544FB1411903724032
:104F5000237E636B12292F11156636117124322AB4
:104F600049333EB02300023E5380190182A0A16064
:104F7000061267FFF63FFA5FFFFFFFBFFDEFFFFF7F
:104F8000FEBF646070F1E2940430586F338C21AA44
:104F9000224A4E735763171C0A281B190B1D3C53DA
:104FA000751B412668441856A041E0190107E0F03E
:104FB000656A6ABAB044FFF93FF4AFFFFFFFFFFF35
:104FC000FFFFFFFFFF50E016D076F0129541200062
:104FD0003D022456732100378792B12BE32012192A
:104FE00027270234704127111826182C283828FF4B
:104FF000FE3FFE8FF6FFFFFFFEFFFFFFFFFF61603A
:10500000189BB694131924B243001172452197726C
:10501000A21031183636F1324611472AB1E700B2F4
:10502000D4002472234B313620F9C8012B0880D0DC
:10503000077FF61FED5FFFFFFF7FFFFFFFFFFFFF13
:105040006B602F3E1160F70673000613514F155029
:10505000511111083071177011820A50131B60B181
:105060001602901B50C2F839711121625251E5713C
:105070008266C2A8E1066D077FFABFF84FFFFFFF07
:10508000FFFFEFFFFFFFFF66601A031920114D15A8
:1050900006C1F35030246017984E327141453C2CC4
:1050A0005AA180543152106102461161E2F5911308
:1050B000722261652353E29A011E061DFFF83FF23A
:1050C0004FF37FFEFFFBFFFF7FFFFF82400199113F
:1050D0004170043512183951CF35E78347D5A238CE
:1050E000C5B130190C65C26043ACC1123EC171A498
:1050F0007691981701402281353F3281440B182662
:10510000061B0928042C038028F0283435357FFA43
:105110001FF10FFDFFFFFFFFF7EFFFFFFF876007A6
:105120002BDCD900A0110223D52151408110701C25
:10513000A402205AA310401D1F0D661DDAB11111E3
:10514000A1411F1F1011512A189B0376F311413200
:10515000C13900262120031AA00112D0C21541D066
:10516000034806FFFC1FFE2FFFFFFFFFFFDFFFFFCF
:10517000FF7F62E0E014191A16471211514BA692F4
:105180005731B9E2C1702D1D0DE5317111F20D27B6
:10519000160066942143414873C101A2808350C028
:1051A000666A6A1564BFF09FFEEFFF7FFFFFFBFF9B
:1051B000FFFFFEFF6C6038010410011D6201030651
:1051C000062182B1001868014175816B7165A021CB
:1051D0007719600030318100192911D92F131C2152
:1051E0002318807218801A656A6A6AAA3FF8DFF18C
:1051F0002FFBFFFFFFBFFFFFFFFFFF79600C1C06C7
:10520000061B1A691B38021D521818175803285616
:10521000174F091A0BC4160DB1401A1272D2D2A13F
:105220001217F5B201631191921A2B21964152582F
:1052300050C0F285F04200047C027FF85FE06FF31B
:10524000FFFFFFFFFEFFFFFFFF836086929C72223D
:105250003984B1927125116B84B181758F0671C942
:10526000514F0A29F0010429702E301B220725ED29
:105270005A20313B108011591AA0011EC052031050
:10528000C6140602E16008568052B054037FF07FD6
:10529000E03FF021FF703800000000006861D09806
:1052A00022A024903315C032454312301A630139CD
:1052B00012AB52008004435430A017015354221FF4
:1052C000026D122F6282141F026C50120F046B4089
:1052D00080021301BD61D190535372E01A418808D6
:1052E0002D893901AAB1A7B0B2C623E0192645110C
:1052F0000B5C4C51098C3186D911A018129C790392
:105300006E84990D8E11B1A84A50E30543AC11B5D6
:1053100021F018124A14D80570895D003E1C0198CE
:1053200021D1C1116F9B261231691019141C029BE7
:105330004111A195307633E16206958822F0191269
:10534000B40B19015CDB1103A841BE2C9011E041A4
:10535000DC4CFFFFFFFFFFFFE07FF47FF03F403FAB
:10536000082A61B0312E4415803333353D9190B217
:10537000224000152D0512E140242EA5212962228C
:10538000251E276222257141B011C27841B0C2B3F7
:10539000F04153721B8323733088296211790AA06C
:1053A000B624535214A1104C422889EF128C790371
:1053B0001CE284980B24B1974A4C65499CD7401253
:1053C0005914E7740054003D1903F6D16F221122DD
:1053D000762038111D0230B1A55B2616211B124A1A
:1053E000AD5811222B32ABC0B73E4CCC16B045C6DF
:1053F0004C2DBE66A084A61EFFFFFFFFFFFFE17FCE
:10540000F07F403F003E0038612A44341AB6001A4B
:10541000021AAC10502008F4121EA361221EA3121F
:105420001E051A30ED41F0019320B04253628513FE
:10543000737078290159326ACA6A1426024F2844C7
:10544000DC8C680218E27388DE9B97B423A5A478ED
:10545000FD115ABBE512041D14C3D5184319F22DD2
:10546000FEA5420319E405C0C12130124C08521AAE
:10547000112270C205849641401295092D0218220E
:105480000228CA11F2D4BA0416D053BC3C38BC7DF1
:10549000B075AEA0219D7EE014638F3D1D8E000C83
:1054A0003915084111FFFFFFFFC7FFF0FFF07F2014
:1054B0003F00BFC52E21806336B01E44B6012731A0
:1054C0008553326321113E8132610916051823800C
:1054D000E1A011E715B001C0F1414BE3C3EFA51105
:1054E00024DFE34CC1A478B7512DB13B389D602136
:1054F0004672A2631B0213259126113B9521161EAD
:105500006246165564701A2370B0012BF0011E23F9
:105510000E2E18F9A017902315707201253820A2BD
:10552000531253B274425443355B45103521D5278D
:105530002CB726506128012E3122022E62C174053B
:10554000297443021911B3051BD4082411FFFFFF6E
:10555000FFC3FFE0FFF07F007FA0BFE02321905258
:1055600015D021A0232096C22143F81524165313E9
:105570001813D6C011700B1A5160141DCC1C4E03A9
:1055800020D4B3ECC2E0A1B43107600728A31AD439
:10559000B9033026542140115A042394210061128A
:1055A00048E35163256102E52584C1D0A2A10040F2
:1055B0009003C45022D012027600A0146811A029D2
:1055C000013E033B22022B513352C3384462522422
:1055D000603427041B34290557B3428041C252214D
:1055E0002F520115D21390914915701293835605CD
:1055F000FFFFFFFFE7FFF8FF707F907FE1FFAAF456
:1056000020B05132C021E0129211462C5133812238
:105610007231031290111460C5D15164E1B1BCB371
:105620001134B8E328B1A400581B5514AA0332AAB8
:10563000004161235307603544642228524515B167
:1056400012DD01D05000501502B5601216D711209E
:105650008601EC11E0315061F44837182FE031A099
:10566000816249A2522551011216A02326159031BC
:105670005D483921300499314CC041FFFFFFFFE301
:10568000FFF8FF20FF807FE07F102F210093041A96
:10569000417112B111125211E538152713C516E0E8
:1056A00091B0119C1B3E63423C8B2E0B94B4215451
:1056B000A16660A21A94B902362554110045033937
:1056C00033B53254032A42125133B22B061940101B
:1056D000402B08A4313037071542610E2C01DD1133
:1056E00019B0242A90242C9013252E258488332445
:1056F0002844A1E62422F403303352F0415251B041
:105700002141F24122401112C01204023F51011BFB
:1057100092024211173C312EE01F836A24F371522A
:10572000023AD401FFFFFFFFE1FFF0FFA07F80BF3F
:10573000E17F11352160E3045CE2E256022A132680
:10574000B81513180219141C966021124F0218077D
:1057500019112239C4B2B8B397E333B17538A941EE
:1057600015A1291A7C004B11C14228A142134703FD
:1057700026346521251599224200160A1F0023238D
:1057800021F3B0E283E5128081D011D01961022E9D
:10579000810219011A9202284752B24233C81944B1
:1057A000D242BD4E72427E5E355F00232214C2C4D7
:1057B000121EC3A2A0A2B02250A1063048D01801E8
:1057C000AA4196381F222A1630911214B1012801DD
:1057D000FFFFFFFFF1FFF07F807FE0FFC07F804D84
:1057E0002136D041F019C111116111613133A7186F
:1057F000EA14171375171C731460B5C1313113B156
:10580000A1A6A31596D322A1752D081399E2A2D8BB
:105810004A01228421172571342A34551225852105
:1058200062801108B3301741522106F33036810BE4
:10583000F0011E02FD1180111380111790112490A8
:1058400011139021262483181179331428D4203D74
:1058500093328E344DB3323E193FD241213B452B1A
:105860004101183A17092A515122023F06FC12251C
:105870008022143002304900B302123021F1B112FB
:10588000741341011D636201FFFFEFFFF1FFF8FF99
:10589000C97FF0FF947F101F21541FC02310A34520
:1058A000257715F75E1E444200B3212528A3D26058
:1058B0001A728E03119931403851011594C021811B
:1058C00014504217420220159212430503F3264159
:1058D000B4052807B06E0244F01D021F026B473169
:1058E00098419118234288713862431626164682E1
:1058F000322E252332A1412123162502061342020E
:105900001F11A521011D1111029921233221131606
:105910001B3836252D2815121F108412D213015C56
:1059200072B2042E2281428202FFFFE7FFF1FFE004
:105930007FE07F807F103F106A61E01AB232D4129C
:105940000480BDDFE72118E128C111C7210A002D1D
:10595000002D435122F061476B76901155318498A8
:1059600067354A66879A664820A448B8111125DA37
:10597000C4E12432AA5B0528846615C22381A523CD
:10598000B211B5A58292B6055D98B51192950958E8
:10599000ABB232C1A10B4B210B4CEB32E112D40B59
:1059A0003EE9022E31B1081903603DF031244F1A4F
:1059B000251B11251813292523A0113A2832164733
:1059C00049178528C0512071478111A2943117428F
:1059D0000341C0231591123A2C117F2D28D02100AC
:1059E00002101B21500266E044600430D01D82FF8B
:1059F000FFF7FFF0FFE07FE03F907F001FB0736193
:105A0000A0233734128F200A13C50E30C1511CA2B7
:105A1000111B42C15112BB0F00002C212AA3652784
:105A2000011F11477748134501236696875747485A
:105A30005987118614524B10D33916815B042E827C
:105A4000559A1283951301444B2B2C5A5A2089A541
:105A5000D2A2840A3D9BA202201BB9C0B3E0B526A6
:105A600012202112630B696853E221A1F702256F0E
:105A70005033022A32D291C1517263612382D231F2
:105A8000024D82577154127141062A04419021241B
:105A90007113484619822780242F6D123C00B301F0
:105AA000408062400339039E314D65D0218021D072
:105AB00071538D12C01210022E0AFFFFF3FFFCFF7C
:105AC000F870F0F8C07F801FF76861B02726506338
:105AD00011048400315CA1321852013061113EA2E0
