:100000000C948A300C94B2300C94B2300C94B23010
:100010000C94B2300C94B2300C94B2300C94B230D8
:100020000C94B2300C94B2300C94B2300C94B230C8
:100030000C94B2300C94B2300C94B2300C94B230B8
:100040000C94B2300C94B2300C94B2300C94B230A8
:100050000C94B2300C94B2300C94B2300C94333116
:100060000C94B2300C94B2300C94B2300C94B23088
:100070000C94B2300C94B2300C94B2300C94B23078
:100080000C94B2300C94B2300C94B2300C94B23068
:100090000C94B2300C94B2300C94B2300C94B23058
:1000A0000C94B2300C94B2300C94B230D5F08D1464
:1000B000A1C881CFD9F1AF2000FFFF0F0040E79C1E
:1000C000031220B0430E1A10A0A4B015F79E03151A
:1000D0006012A1B5E3021B88781C1002D6BA0F1E6D
:1000E0008060024430F749803790274A14093A3635
:1000F0009C320F22A0D029084A30B0A365052BF509
:1001000007DE11243164A5730E1CA0D029084870A5
:10011000F0022D0421D01A2165A796032DA010030B
:1001200018EC400B5B063F0B121082012A142820AA
:1001300080012C4205B512002DA0E077404060F010
:10014000A15192E0821FD029002DA0B3E6E0012F3B
:100150000C31460922A0606680D2298813C04EC7A0
:100160000C1D4F4040A044D8CB0A1F80A01F310275
:1001700082BC37A305CF528911F4B10555EB0A1F94
:1001800080B01B31A1595001EA617A99A711043E50
:10019000023C630A23A0B03816706D39F102268044
:1001A0004287B02804E7CB0FB9C70A29A0D07260F4
:1001B000F1C268B233859024D045B01A11E10DE741
:1001C00018053BE70E23A0F0359950808213B02329
:1001D000D023E01A111161A60AB1FF0F16C0D04258
:1001E000CCCCBD9D00F908687133EF0924A08023B1
:1001F000CA025C045C0370BD50D824D32C0A0026CC
:100200007FCF0815A00AB911B0811A3F35EE3E0B19
:1002100039E70C32A060190C2CA092331452449090
:1002200043B065A065805465A300D1F03221BFFFC3
:100230000F0580804101FFFF0F0040BFE70C1CA0AD
:10024000A011E0D112E3DB830577801EF3533DC795
:100250000828A0E018B20B2E29148D6470F1033029
:10026000B01E530D1EBF63FBE70F1A80D031530140
:1002700027E021E013481811B5FFEF09110080862F
:100280004F4F4248551103FFFF0A09800043901366
:1002900005FBC70A1CA028C40A1B0168031AD685DF
:1002A000061A2695FFEF0810801106DB71E0324038
:1002B0001473C60236A0E0670E1E013E033C043CE8
:1002C000043DF2813477A7626DA77D6040F0E3E0E2
:1002D00041B5C6022CA0F03903161777023F015E24
:1002E0000128044EB60516B42AD6221E730C00410E
:1002F000A0A0455363625286888082B03220DCB56C
:100300006AF0829065A0358016C07510B406515E03
:10031000C608F7350228A0E02557586E66100CC4B1
:100320000C1D031B07A7430671B041FF1C0C1AA04C
:1003300080164D041AE1D27301CD61508C77D60B33
:1003400021A075789094042F0458084FEBF2B84020
:10035000B84101FFFF0F0040FFFF0F0040FFDE0E1E
:100360001080007121B01CC1966BF3F60F1FA048DE
:10037000A7A61A00D1A5A031B061A06190B10FF37A
:1003800084083EA0B0421046174004185010283B85
:10039000088084752640D101AC31C045B0753083EA
:1003A000CBA917E5D50722A08064400CC40A280118
:1003B0001D041CC5B29B1711567FAF0B1500819B06
:1003C000B789791EB011801708EFA70E16809046E6
:1003D0006C054C35270718C457FFFF0F0040FBFF83
:1003E000070AA0379AA6F525FFFF0F00407F870F69
:1003F0001980A04163021BB5A9A8B705CB5105AB75
:10040000EF071BA0C045356347587D23B1021A0290
:10041000F401F1C5023CA0A02270F507041C40A025
:1004200001311748A3091B230439023E023E033B56
:10043000797519412EF1A50839805E3006711008D2
:10044000A19F179A32EADB0C7130033318491A392D
:100450001BF0162F4EEC0231C60049A0C02543D038
:10046000545271B0E2E290E2F43220A0031B20016A
:100470004500052D03B861F0B490047502051C42D7
:1004800002F986052D80C0244E5B6B6A6A64C97CC4
:1004900000DBDBDA8A243CF01AE2A6970921840902
:1004A0001DA0C07CE426011D219CDFD17EA065A09B
:1004B00003FFDE0F0CA0D075310D6444E79C0115DD
:1004C000A070B3670D190E4D0B494D01FFFF0900D8
:1004D000C0F9FF0F0AA08042B7C48539FF0F14A0EE
:1004E000B0180471910EE2207F343BE70F13E080D7
:1004F0002B36D8400CD438F7057DE70C15E0901F5B
:1005000054F618D9400CD44805FFFF0D03402F04C2
:100510007FE70C13E09032C77206B4600BF3063F1E
:10052000E70F14C0678998A6A6A6A6A6A687FFFF10
:100530000F00403FEF0F14E038689DA10BA66085C7
:10054000D1463FCE0F18A0D07497B7C3C6D2C4B45B
:1005500097773C7FE70F1680802456A8B5B5C5C3B2
:10056000C4A597FFFE0F028017E0EF0F17409031F0
:1005700080A34310A02BF013270400000054A00117
:100580005E025E025E02DE21E0255E708714670A6D
:10059000B3051F0F4A0E4AEEE4C5006B9E062B0EF4
:1005A0004A00D003062FB0012BFFFF0F0040108040
:1005B0000D1DE0B041C07E996B5340061C051E0422
:1005C0001F01200000366055806487E0831391E0AE
:1005D00003073C10A0A30D640002DE55606E5BE0D3
:1005E000431F3C1C0028E0AB8041D041D01170F08B
:1005F000D2E0E2E0E2C0010405C93431CF0D26E0CB
:100600000000C07280B3B0D2D02142A051D025608A
:100610000080240000084320C04F0329A583071E43
:100620007776F7D16869B89578AB653C9510E8E4C2
:100630000632000A4B55054894013FCE083020F0A1
:1006400016C041008408188809A47F8C7808199680
:10065000E60120B051A05378F70B2920E045B07196
:10066000702B93241D74508403333560081B042EB3
:10067000017FCE0D1CA051088403C2C01113700568
:10068000711006233BE70D28E06125A06430FF20B0
:100690000DC420100DC439E7008D696A6A18EF0D8A
:1006A0003120F0444A5D15545BF20918071A8501A0
:1006B00028BA718FB108E670021907E0EC0D3460BA
:1006C000F07290C3D5D00229366F0334007155F90A
:1006D000014A012C0119A4A6A69680640C4860A0CA
:1006E0002C07135AA10D70E126E406767CD07177B1
:1006F000F091C24030000EE2200D1B29031C412363
:1007000018F3597B04044A40B04363E14176ABC817
:10071000C6C626C123C1FBDC11DB14D8DD3DB13ACE
:10072000D23801B213D0199945983797183106007D
:100730004160D01B01380696BA158C1598BDAE8F56
:1007400010E808B2F62198013F031A72401163863F
:100750001171017FAB0F20E03770E1E11A51A23136
:10076000081A11FC8011512B3F820F37607713104C
:1007700005702007511098535D60108D0A3D1101DE
:1007800012E012E011D0128004BFFF0F0740178063
:100790004305FFEB0F0C602B12141B8016BFFF0FDD
:1007A0000840F09312217FEF0F10E0554DD0320238
:1007B000158011BFDF0F0E4036168051652911FFDD
:1007C000FF0F0040FFFF0F00403BCF0F2740E0141A
:1007D000317A155512686A4B0B19011317415202F1
:1007E0007901BDF70F13002E1041029811163F60DA
:1007F00009FBFF0F0040FDFF0F0700D0129001FF23
:10080000D30F13609C1145141D1C13801D013BEF79
:100810000F224080454B1115551215625B4B8BF131
:100820003472D014BFDF0F0C60B0436311D0127963
:10083000F20F2F40C012B05628E17B18515B8AD8C6
:10084000F213B1E0222E152110022B0171980F3DF9
:1008500060D0252F80645017927852E777C8113600
:1008600052494EB0923267D24102281132013C0403
:1008700033CE0D3E60902390331F51773029081EF0
:1008800037173102193F021C8091B0012024A011BA
:1008900010D3021555DF0F2A60200218015B846710
:1008A00093041E12016A1212418021640133510027
:1008B0000E55200C071B4030A10F2A0E18910E1761
:1008C00008031D095E0111D017E023202584CC31D7
:1008D0008C0AB45711C06166E05119167001EFFF20
:1008E0000D02401EF3FF0F0540F01C02FFDF0F0555
:1008F000C0173E01FFFF0F0040FF760E18A0809644
:100900008E91FE40E0F214615A196DFE0E1D20F822
:100910001FE21000E016211602156EA69501F7FFE2
:100920000F0040FBDE0E1AA0F02170E015BB777BB4
:100930006714581911FFF30E0F6019C0541E9B67FE
:10094000B601FFFF0F00407FEF0F0E6075876A6AE8
:10095000A84711FBEF0D1000AEF034D04340043532
:100960007FDB0F1820E1852C5BC0122111031C5A7C
:100970004CFB5A0E2C20021B08E51019E5CCC4C410
:10098000D519E0114DC6D882796A5A5C67000031EA
:1009900020F05F12540344448764006005180D572B
:1009A0003010300CC42EC432DF0CE7CC032200C060
:1009B0004633483A4368384387B69604102CD01F14
:1009C000739E032F609C500DF1804510624935F0F5
:1009D00053F4042120012320C2415A6E0D27C40381
:1009E0003060D359E01DB5A66BC05114A0324665E6
:1009F0001B69768303353A80323A7FE70F1820E08F
:100A0000510A336D480552556F576D27C40D32603A
:100A1000D01F0694EE0A9118B0824700453179B68E
:100A200057114D80312003474A7FEF0D14602B038F
:100A3000292132646A6A7A7821840E2E6071011A43
:100A400034534513991002CA15C03344804344F00F
:100A500042963921A1E70C0E60803F63F7208E1883
:100A6000BFE70F0E00802388A88638143FF70F0BCE
:100A700040208879B9E4010000000DA0E07C1183DA
:100A8000083B0779FF0F0BE000021BFB6902FBFF2D
:100A90000F05A0B0B305F7FF0F014002F3CF0F1110
:100AA000C0C01FD3A4463C6631027FCE0918A0A067
:100AB0001963051E67EE4FEF08462F3FC60914C0A5
:100AC0008018E5AD9E9F75A203353FF30F1A80C0D5
:100AD000335371C57414444B3C4C3C3D9F730F150C
:100AE00080B026598204533005936307FFFB0F073C
:100AF0008010528002DF7B0F19801B30D560013ED1
:100B00000276635A11B1039E7B0E23A0C04360425C
:100B100017E0B2B02180C1E05224A21251049C73AC
:100B20000E20A0801A83041F56B082807590E58045
:100B3000720515FFFF0F00409C730E1FA0A03873B5
:100B40003C85938075A075B00453A740013C630CAD
:100B500021A0A0380218041E56C062A0659055E07E
:100B6000A1550139E70C1EA0A02930709065A06541
:100B70001F605840D603237FEF0D1320801A5221A7
:100B8000E5196145000139E6081EA0D048E09280D1
:100B90008580852438106A5D262AFFFF0F00403BC0
:100BA000CF0D25A0B0214544444308339082808571
:100BB000809514E081B5013BCF092AA08556318884
:100BC0003D393400B634941F9063A06580552240AF
:100BD0002697EA0D23A0F01CA38898A656F193113E
:100BE00083F01845A27024013FEF0D11A0654B5C06
:100BF0007A6911061F025FD30F17A0F01FC3D4E25A
:100C000052352525D014093BC60923A0F0286314CA
:100C1000C6C18790732AE063A035801A0B07F7EFEF
:100C20000D0EA0103592C019655AFFFF0C07A0A049
:100C3000357302FFE70C1380A0253D5C8A77586965
:100C40006102FFE70C1580262D7D695A5A4B4B4CEB
:100C50006B0A3FE70A28A0B0526F70E5041AE4045B
:100C60001BE3C36353334C80192117BBF60B208061
:100C700013F0615B4B4C4C4DD0233544046BD117C2
:100C800037C70B28A0A04552600A55433064441C66
:100C900094801B063A072F10402784042BA0C02BFA
:100CA0002304B3B960495861B550A9032F023C032E
:100CB000FD41B005F7E70E18A0A01C3336194331EB
:100CC000E3C2A0212E6FE70C2080133E6C8AB798F8
:100CD0002297792026E2EAEBDBBB73EF0F1780281F
:100CE00060023630060232D013100477DF0F0FA0F7
:100CF0001D148A052835B201B7E70E1980905530CA
:100D000007A0AF4E71121788E00333C6083DA01448
:100D1000453036E1D8FB9B0BA47490D3D0949065FA
:100D2000A0652003302006606E8F8E9BBD0B27844C
:100D30000123A0B0336320000EF290180F26051E89
:100D40000949055D0179FF0E148080375D7BC5661A
:100D500013795B2E79EF0F1380E0A7AE9F06523018
:100D60009F00083FE30E1EA090356D1007B0EA0CFF
:100D70002B37052F05D6003FF30A2980C067287757
:100D80009F2AA3BE0A801008016C445463627271EA
:100D900001BFC70032C0B02227372656146E136F2A
:100DA0000012C9DCACAEBEDDDEDFCF000BC0DE273B
:100DB000840337E0E3E6051140200D3A0A3B07AA19
:100DC000813912126A06303742142820D1063F02B8
:100DD00063800345A0D02432574253645163B370FB
:100DE000A80121A939219611E4D3D2023E029F32F3
:100DF0001E4C2E3E408C4F0D2182085BC0F01837F0
:100E0000D2CDBFCECE1BA1CCECEAEAFA0733C0515B
:100E10000083CA56AC389D90819082123FC5114C18
:100E200064CBCC12F9F9077100F90937800057C07B
:100E3000C0C6BD000A8120096280241092CA84AB1A
:100E4000577CB06100014630A18C113321BF8F2146
:100E500000170171200892100892000AB9830F331D
:100E6000E0C018B67088A7784960031EB884EB7399
:100E70007B1D4D1670013290311907FFDF0D13E015
:100E8000504870382124616A8908FFFF0F0040BF75
:100E9000AB0F21E07597794071D255472611123773
:100EA000F0823841067FF30C2E60474B6BA922D1AC
:100EB00074146649B082212308A0B38A757C958B8F
:100EC00094FFDB0F13E0A04239F7012343232301F2
:100ED00077E60F1E802436362535E3015EE2021BDD
:100EE0008639572C7FBF0F0B4070F1F1311109FF8C
:100EF000DB0228C0334C6B8928423D1214886A6299
:100F000064626C6C4E4E4E5D13A20F46C080527BE5
:100F100042D3E3E2C20FE22D02B1600AA6600A10DA
:100F2000872F481074B345A726BA000783200765AA
:100F300033C20C4FE0031CE1031E031AB9D6D9CF0C
:100F4000A920BA083710031EF6072BC94A98500B80
:100F5000A77052E311DCB1A9827E740E03318208BE
:100F60005EC03004639FADBDCDDBDBEAE91AD1DBA7
:100F7000BDAD8F30031D530118041DE576D867E819
:100F8000471AA32134FD149DCCDCFAF9096220062E
:100F900081638C093CA05077073D47F5022856D65F
:100FA000F2A537AA875C80414E4E90313EE025C0C5
:100FB00081C03374E7920132E03ADB056DE2D2760C
:100FC000C7989B97A59DF44180011B0D78320304BF
:100FD0008084FFFF0F00401FFF0D0AE0E02C370068
:100FE0007103800041E0B029042BED0A1C1C941011
:100FF000602E01009061204063480F3B70897D0B9B
:10100000D1053110011A0301860C1EE0AAEA0D1465
:101010001BAA56008083F08AA10CD4E17F0F0AE05E
:1010200060079A231EE7670C18C090283C4D4CDCE3
:10103000FA08612006623FE70C14C084B7C5C4B447
:10104000A67779696A39E70F16C0B092B7C5C4C4EC
:10105000A58778695BFFFF0F004039E70F19C0A033
:101060002CC4A7795C4C5B6A88A7D50300000030CC
:1010700060F0A871300A1B0DE2400030100D02052F
:10108000B21060100D00A6C081FFE70A2440805412
:101090002465538201162370B5C69521D3C3A45786
:1010A000FFC309376029A0335EF041483B17726FD8
:1010B00012364C25521A3B44472151061C014F530E
:1010C0000F9F430853607085C6860720E01C0361AC
:1010D000112C462A512E1F216827187336667BD49F
:1010E00054F3002615802106031CF140285F4207B7
:1010F0009EEB014140807371D02A23B1C611226159
:1011000032474236533C5561365426562E211061E3
:101110000320127225039C43002140E01AB59697E4
:1011200087C502F9259032B016C018019FFF0F0A3B
:1011300020B024C5854B9CE70D0940D03E96B603F0
:101140007FE70F0A00D04622796ABFE70F0C60B034
:10115000A29698A4BDFFEF0F02C030BFEF0F0C2086
:10116000D0739241041B3FE60F1A40F01ACBBCBD6E
:10117000087069785731472D9FE30F1440E01B62D8
:101180006A00F98F0007431BF20E1D20F02DF103BA
:101190001BD505B04009F0FA52200373FE0F122050
:1011A000AB600B73445E5A4C2D33E60C2C00E037D9
:1011B0003007A0AEBE0DC3500B194776810038052D
:1011C0001645E0113DE6083320A04164F003348366
:1011D0009237F063A035801A031E574708808414A5
:1011E0002D940339F6082D20F0318026C062693332
:1011F0005143910C4C0C2C0C1A72701B013A01F9E2
:10120000F70C1F60E01EA5C5C4C31D9819239928BB
:1012100031986909FFEF0D0CA0F02520B15342FF72
:10122000F70F0860A3963A5EBFEF0F0A00907401B3
:101230003D333BE70F1F202AD031576FA30D19060E
:101240002C0D42EC88A1059FFF0D17602FE06296E0
:10125000D31BC16BB4A6A605FDFF0F0340F0059E8E
:10126000FF0F1320E01AC47473343356990ABDFF7C
:101270000F1020466A3F2441400AC79EFF0F0C20F2
:10128000801E642C66A7BDE70D1F20A0163172508A
:101290005620820838048F214C3604B9CF082F20FD
:1012A000C0842646A5B6B4E206390838082F0A2DB0
:1012B0000E280810375AE40331D6083A20B02952D4
:1012C000F388E9DA6B3D908180838093E0B2A004DB
:1012D000042C00F0312640D9559F218C003A20B0D3
:1012E0003952F388E97A336B50032A0659085808B3
:1012F0004F9B012F50411F0F001E54E4EFFE0F0AB9
:1013000080E01331D14263AD0F2120B0344190A170
:10131000B3120B44C0434C6BA902190F738C01121A
:1013200000C06B031C2501B6DCDBFF9C0F0040FFF7
:10133000F70F03600604FFE70F06602DE16F3F8C97
:101340000F0A60E02C30081E7FEF0F0640B05535C5
:101350003F83004240801D28805630636F867E8523
:101360008D959CA39CA3A3B3B2A2A3A3949494949D
:101370009484858576763F02085D00212E2E5236B4
:10138000A1024A922B433E5003A5EE09711007714A
:1013900013B844F10394DF0A71100662239A43D311
:1013A00035B610087210F8CA46010340005C00B858
:1013B000DDDA9B3F400395DEDB3A812C603303C0CE
:1013C000ECDB7CA0B1600ED3400A571082C95720D5
:1013D000A1031DA2034025145D1D5BE01101000067
:1013E0006E2097CE3B61E0321340DAFB071902A270
:1013F000B0C28780452190A393644209120320F272
:10140000B7041B95C7023DD4013E045C045CC402D2
:101410001FB388041C18E0712FFF230433806A99DE
:10142000031DA46A79120231B9A6472C9EA8217225
:10143000292A4A029E41E202FFFF0B0380B0057792
:10144000FE0F138050031780323D4C7BB8049F631E
:101450000C3C00E0A1AD8E2F32100227919D6F3021
:10146000330231818E108592B284394888B52327A2
:101470001E3DB3083B20512AC9455BAE10082CF233
:10148000092BCA051C91C59883530094031F01A81A
:1014900061E64206FFD30F212062303CB61C3A12AF
:1014A000376B224580226B152102FDBB0F0E2000F9
:1014B000830C54A0566115C20A5E00467CA83939D7
:1014C0009E98484008190A971FE021185116659701
:1014D00032838742A363C401BE2149480019E82032
:1014E0000E51B051B0917009271111920A44208019
:1014F0001F02132420A3E8211225B211491B281230
:10150000B042D035C041C04147657573051A101609
:10151000C21380095920373D4B5E382093E4D30233
:101520001EC35219451AB01A045C055AB6222C4C37
:101530005838489031D035F041B031E01111D031F8
:1015400040E3041DCA0D4600554C116A6A1B214C2C
:101550003D3DA077881111D303C921600346114096
:10156000129D2148323D3D4C4C4B4CFB320C480007
:1015700041B0315D1B2B62B6441241B44542452255
:101580003241A5036AD3D3D3D3C4B5B526C38013E0
:1015900017462143FF480E3CE0014AD12663500222
:1015A0003D2112011012211B22217121F706730027
:1015B000148F4557E508A7FFD30F22A06514939910
:1015C0005725312131132518B0726CA5A97F8A0FD8
:1015D00031A0D394A41377F02620D5113101103413
:1015E000041C72061051194E693808FFC10B35A052
:1015F00083A9939B2134172516A01811113144514A
:1016000056771290B1202504196404DFCF09310008
:101610002517271F8001992115491251733463A69C
:10162000316634535B6163C406FB1B0B3FA0D6B22B
:101630008461529763532D8253334C4C7B58AA23B9
:101640002511518323264464835862819505FFAB9D
:101650000F1A00514A645A733204487111311159FA
:10166000FFDE0E1F2031592634022D61442430073D
:101670005228003707DF9B0F1C2030D797F2350721
:1016800052187A52EB2331D97FEA0F1F2021B68BF3
:10169000711221190198414958210E4901FD430A4F
:1016A0005420511723B64742B93234642237365496
:1016B000BA4852001142544219643FB0178014973F
:1016C0008B2B11436383212744AF3383FFFB0F0828
:1016D000A045AB106AFFFF0F00401F40027120833E
:1016E000475494595754669B4334752E4935659E2B
:1016F000413764DEB975A30216C01D0141391A11C4
:101700001170434601402112715384D3484444A9C7
:10171000A24566764B24120200000095A0C0212449
:101720004AA0413BF01332392349A03325D0243855
:101730004511C01113628C11272C11860534593ABA
:10174000B042291AB0243BA0323B4A3085A465152B
:10175000924B251135FB2637ABF032A0332A331FCD
:10176000E0432B118041100239FF0F28E04787AB7F
:10177000A2AAC1071AB7A39944122F3C285313A455
:10178000111BC7025F805B1C291511151083831183
:10179000259631D988624003353011011E0117703A
:1017A0000435500345301401804B4591D3E3239316
:1017B00022B1031E430B15100E74A0544DB0317DA1
:1017C0007A393B33D0424538201116882C91229328
:1017D00011891978125CF0322003391271E18551B8
:1017E000633335115517A28312350101021920B454
:1017F000B30620D04211400D89A01140D5144111EB
:10180000A7072F240416415875921E0297B41A6C2C
:101810005D2E391D2338441B1C4B40041B8104548E
:101820003600540554450045A53844D52631643466
:101830001268435117081C90D12B1014E173011149
:10184000C00881E002112800350135286426364899
:10185000DA1471A8034649A1949417D112223802D0
:101860004423230082031A23031A13603801FA0168
:1018700091600C862041150163144E1E54244E2E97
:101880003B4E4E570E0018025BE06D1211291B6192
:10189000C0611062BC3510632101172522802180B0
:1018A00022903C600C8881032A0168A10119E18221
:1018B000E20119720318E203FEFF0F0DE0B0A1521E
:1018C00012217301807F0F0540C05E0CDFFB0F0605
:1018D00040800529FFC70F06C08004173FFB090C95
:1018E00040A018E004BE32DF80013160E05490D1A6
:1018F00053032C7040D0C480C590A5A0A32FA93855
:101900003697520E03E79C003C20F0246C231144D0
:1019100023235231C30E3870E00302383845101AC1
:1019200003323B102233033007C6015060A0A1C828
:10193000D8B0215111C036C0530B1805187B5D6F0C
:101940006AA0614BC0414C4052361D1183AD5AC84C
:10195000D021241B9DC3C20859E018018142414F88
:101960004F4B3045047D03436332111C766F5F7F1C
:1019700000044200F734914992A8FCE792D78E1EEA
:10198000931BB1BCBDBE0EFFDF0F04001D263BE85C
:101990000F3460E137E015000117F0F230206A11D2
:1019A0000011A6748A862474782474480000C20842
:1019B0007220DAC2702B24026D0215398011143F97
:1019C0003C2F4C16942710143002E75008E550D7EE
:1019D00081272623023115122491F721B472920C2B
:1019E0002DE1EC012B21641102DA12DFEF0F1160FF
:1019F000D0616A593167D9750720E30D6460214FC2
:101A000003183E350E14E6930326B0319DC082794B
:101A1000165A45001145F637D6321411141212B970
:101A20002B1354881002D5381268B8A9B3D3C4C494
:101A300020E30E6360120012C10D10170F1A00B1DF
:101A400002C45A240011C70282AC5C576E765E65F0
:101A5000002D14894B14DF1E283117845948CA8A77
:101A60009021626262620201C30086601B38C580F9
:101A7000C154D0621331C065402741061C96C42270
:101A8000A376982393588A39130B4043318614B2B6
:101A9000213CD58225623646952185D793C5CE4611
:101AA00041C8A55A7D28231E2F142724E011253371
:101AB000CF034A603A64290402713367293F836B7C
:101AC000595C79899826612432104AE2533793137E
:101AD0006C53724553C312021113C308530096C4CA
:101AE000C488305A3D8082100762D026600267A009
:101AF00061A0B1600BB5500BA6322010BF4DA13ACA
:101B0000D10845400335600313C2087700B4C4C54B
:101B100018522DE0111825281490332133EA710151
:101B2000380553300B95B051181D9512CE11127E09
:101B3000621027067152300D031D6333F3622401D6
:101B40001B041C031D011F420163CA0957A0C021C9
:101B50006212F292700519D9C46674227D16307231
:101B6000065019D0512646D012444560011E331349
:101B700013024B4403582141210103600C75605F3F
:101B80004081016690A11B215B7E119976D00141B5
:101B9000202E0B9136A8A428F53F424513121A6E49
:101BA0007613879875A979567C3F3B1C5D6A2B217B
:101BB0009C31523C5D62615C4A014F5C0E40209456
:101BC00027511C21222520A2F3C382E121F01744D2
:101BD00014216BD766F66504524440A3951171E158
:101BE000400872601D1E286006868D8081168580E3
:101BF000911001140031411B9B694E5929332987EB
:101C00000031450601C15817817099950AF42606DE
:101C1000B3151B4637403313D175E8008F7D4C0B4D
:101C200044E001366B6A4510A1081BCBB19C13231D
:101C3000B03146387617FE0C7650518344E63411A5
:101C400062310C1939FA0850602C24301343A9680A
:101C50008979880818980619785A01A0A64AC623D7
:101C60007B454152553AB40E402D6C00C1204DEEDB
:101C7000000000004120901D0135A0716FD130E0BF
:101C800003023F10F0030048008004004800805425
:101C9000804B0269013E025230006C201911732002
:101CA0000A18FE200DE370021A0C2C0CD3400CD441
:101CB000A0E1A0F2805229A014213870B81211922C
:101CC00023493322B21113031B51032B0133611338
:101CD00052A140980179001929167D138C17C4155B
:101CE000D5EAEAF9D0315353535302907E41BC2DCB
:101CF000652077912112A11F51214E12A15D212152
:101D000061FE121BE2310F00108231300D472914A1
:101D10004CD15D033B18006E60D071B71261E213C5
:101D2000112262032841224311110128511212315C
:101D3000012A31031C62F471D1021F51262101D402
:101D4000C002014B40231D083060036110034510A1
:101D500008F8094C608011E0522008B3CC008D00D7
:101D600017130130841750021E0A5A58013E4326A9
:101D700001AF61910E6332604303461004004120BD
:101D80001504280B2F073A063A06590858094DDD65
:101D90001101002F2101F811D03901AF11E01160BC
:101DA00005E7FF070540F018019EFF0C1900D3025C
:101DB0003EE2021E019F71A9D67301FEF70F0FA02C
:101DC000214B3CD02190F301E6F70C1920A411C25D
:101DD000D401F97111085F014D0206F30F2320862B
:101DE000341131014021A063B033902BC011F01C9D
:101DF00001186B0938203A30B152F34FC072B04528
:101E0000C035E031C041B071700B2F22F0C2901389
:101E1000C0115A6B0F2A20F03180330C2052F4F09D
:101E200074A0353170E11EE154902218FFDF0F04D9
:101E30004021125A4B0F35204844012B0D58055CA8
:101E4000045C2D85121E151E1321A019C1013891A5
:101E5000A131019CE70C322007949061A061A06140
:101E6000B045A095E0C42E001BC0314050BA642C90
:101E7000143EC700386018074D222009A7600AA643
:101E8000D011C7B0B21EAD02A680C3F0F2B00203FB
:101E900028503DFF01286080226B898081261986A9
:101EA0000062090791D051803290623CCF093640E0
:101EB00050A3784B3D2E2E2E5641A697977612971B
:101EC000970799121F2F1EAF11D4F39E6201342081
:101ED0003B303616C8F0848075A02E013392200E58
:101EE000E2100C04E1300B77141F79FA0B25200067
:101EF0005313C0122E4D6BA90B29018D01D40EB3C3
:101F000070075F4F0F29207F346302AB2135159492
:101F10004244011343407184A3022901FBFF0F00D7
:101F2000401C620F3B6017E0237CA9D2061BC00255
:101F30001E80021FA0021E292C0A1C40C061D190E5
:101F400001071D01BED60F252084A7A60658011A39
:101F50006748223CD021400459D1A101FCC7032984
:101F600060901100C117DA40DBC033E0439083D0AA
:101F700091627FBBE706FFEF0F0640F01200BDE65F
:101F800009306018368A98D6000FE22FB21BAA706B
:101F900007180BD4200728310101571E4201532096
:101FA0004840514521B8E09480859035B0171840DD
:101FB00083B609B4D350C001041C40192808031E7D
:101FC0002012C0F1B011B770140119430F3820F07E
:101FD000218C06ED21C023F033B0117F1E2ADB7661
:101FE00088E5D3018A119021D01417F9C70329601D
:101FF000D011D0B140FD210F2800B0D28041021E87
:10200000061D0559041877033D2076011D093A0580
:102010003A053C023F033BE791C26D138312553EE4
:1020200000014A014AE055150339D3032FA0802649
:10203000B08360D27E1263662094B402CD317030DA
:102040000E01D1501503AEF70B226018142C04407A
:1020500000D4C595786A5A2E0A97592D3CC3084476
:1020600060D021D091600B64F041272848193002DC
:102070001F074A0E49110C4C0D484A09E101959081
:1020800053D0139E73082220035909131E100F1FEB
:10209000F2003842EE8301811C9FEF0E13A08012E4
:1020A0002E4714B104A8220B5E6B0E1A000923A15F
:1020B0004CB42A71B1091802DB22AF7B0F0EA03796
:1020C0007451B801FA411F630F0E00B04A04303E4C
:1020D0003E2E3FE70F1040C0267D99B6C5B5973F0D
:1020E000F70F10609067829CA4B7B4563FE70F0DBE
:1020F00000A019642CE0150D3FE70F1920B0C500B2
:1021000030BAB3B507D6101017041FCE0F2260D017
:102110001400082BD90B1AFD0F00909B70BA926A1D
:102120009FC20F1C40F0972013F19D00F90AA76091
:102130000B03A21FD30F2240A01812023311540721
:10214000A19E6FACDCEBFA0832BFD20F1900F0167B
:102150002084216612383D3D2D5D033FE60C1E00B4
:10216000A0180391BEEBF9F9F8CCBC9D0007423FE3
:10217000EF0C1640A0313D3D3D3D6631B5035F3F5C
:10218000C30F2C403B3D4C5C4B1C315B5B07A67086
:102190000AC5300E02F1200D35227FC30F2B20908F
:1021A000223942A6B6636201A717A51F5A15D0743B
:1021B000262636AA027BD20B3C60A0143162523034
:1021C00023510520133519471212514676356B01FC
:1021D0003D043530F6DDA92939980D37A0F0230EDE
:1021E000CBB15580512F668D4403C11003A1E92264
:1021F000100ED21AC958C7A6047976093E40174373
:1022000088276127532644263427342734455B7AB0
:10221000889797A553D3085AD6BC100624180000F7
:1022200042403569469636A526A5BD27C327C3CCAF
:10223000E960ACA26C0602000181806C021E051AE6
:102240000B04B3B8FF072440348845B525D434D3F4
:1022500025D4EA26D307300F061A9E7F0E1B603363
:10226000432740D2B24000085C3FE01B071CF0004F
:1022700040E0A4A4A8A324B4A143A39343930AB425
:102280002924C8305F62520FC4340C804810000704
:102290001E4E06800F43A00A052B2B54A0111AF0E6
:1022A000A7001AB88051E01D92622E200662100825
:1022B0003230082F0A41100B00C3530E3CE08C1A39
:1022C0004A4B70100D1AA8968813A36607802985BB
:1022D000004833338853F81980E1316F1012026BD4
:1022E000E0D10776AA97404A3B150AC5478A60B9EC
:1022F000C39C0F1E562ED8D27FCFC20B7390368050
:10230000443B40A48406743787405A420CC234C30D
:1023100039D631011080021842026C60F055776C9A
:1023200099A49651B2F445C770A8C308B2D0618190
:1023300072731E8E6402001B00D9B07160061F0606
:10234000742E9D20C9B403443A5A4096720894BD35
:10235000204C18820D5060801C83F6B3389A5B0BBA
:10236000A25343468160AAB208762EBE8771E081EF
:10237000647194C001900F1C0C74F06170F728DF39
:102380009E0A2DC0B51384520118011FF17113412B
:1023900066174F047AC2A596777909BF4A0E368030
:1023A00042AA06AA21F0212E1A3289A7C5025C365C
:1023B00028321A323D2A215B5B4B2DFE8A0F2160A9
:1023C000A01D778051777228758E71DD7A7206674D
:1023D000087FDC0F18C0D5D5D5E4D5C64E20B46132
:1023E00042243F8E0C3360A3701A0DB6C60A933A8E
:1023F0004A792875A0F1006026068507B370071B8F
:1024000003FF7F0F08A000C1A0319E460A506080E4
:1024100014AB640030850085A683ACB42349E18207
:102420003950FEC78F0007738E391D4D7B87AA95E3
:10243000A3BC3332C2CC3213000861609035760DF4
:10244000D420B60030C1E510ABAA9DCED910A58F1F
:10245000AF35B28E0E288EDF880008718B00FA69C6
:10246000EACB3CAF4475E0525534D0230400000061
:102470006220801BFE6008180A4E0A2A8B5C100638
:10248000352DE0231FD023E02510013B025DF4052C
:1024900038B617015047C2D75196045460022C0435
:1024A0005C045C1010024D20E02F0602A2B041D067
:1024B00041C045C055CB0973463082021F02222A13
:1024C000F02180242CF0332DE025B0534780030108
:1024D000600C2F20F02E200A1B02FDE306D780554A
:1024E000D035C041C041B061A061A00167EF0D07C8
:1024F00080B01A20032184000600D01EDEFFFF0FEB
:10250000004039E70C0400804AFFFF0C0500F0157D
:1025100007FFFF0C11208051C5E381275D1801FFE3
:10252000E70C1700B034BC1201681F1F2F5E1202A7
:102530003FFF0F0320F0063FEF0F12205087784B2C
:10254000DE0619C822BFEF0F1220A03146520387C2
:10255000E163133FFF0F0E00B0D20187715222FFDB
:10256000FF0F0040BFFF0F0620B0C2E2FFFF0F00C9
:10257000407FF70F0C00D042021E7062FFCF0D1398
:10258000800090122E4ED6C3C35301FFFF0D08A04A
:10259000082A21183FCF0E1920F01A27E9999E71B9
:1025A0007F391D2F60013FCF0F0920D0B64C460C5C
:1025B0003BEF0C16008075A9069DB1501703273418
:1025C000FFFF0F0040BFEF0D0D20C0F3551EC626C4
:1025D00002BDF70E1220E018190C2CC083C0C1FFF9
:1025E000F70C0F203079F0051337EA013DE70E288C
:1025F00020A06135210043A5583066737290021AFD
:1026000090038211633DE70E3020491A0739961175
:102610007F1107C0022B0F3E20280610151126F04F
:10262000131E9DE70C2D20C02511675E03326F0934
:1026300035EBA00400395E7431262920D1011D63D9
:102640000C4600426002266002541A115696061487
:1026500021400719061A05696A6A2673689B31E2E8
:1026600057811211026219420C662025A022E02334
:1026700039A0323890420012021D220218061D05B0
:10268000188752470B90A302250100490D684B5053
:10269000B5DC952339532D12172211123A5C0384AD
:1026A000000B60F04C10F00205FFFD0F02405AFFD6
:1026B0009E0F0660D0543DFF9C0F0960B0187EBB92
:1026C000057F8E031C00E01AC4970890AFAFBEBE12
:1026D000BEBEB6B67F8F011E00906110EBBD9F108D
:1026E0000863D018D3885B2E39C6081E20F02C65ED
:1026F00000052E0758094D0F1E868051FFFF0D055E
:1027000080807201FFFF0F0040FFFF0F0040FFF7C6
:102710000E0920C0546DB401FF6F0C1220B0A567E4
:102720001D4804A86130FFF30E1100E025553B3D24
:102730003C3D7905FF770E0F00C0363D3D2D4C7AAC
:1027400006FFF30F0E608C8001701F0B40FFFB0F24
:102750000560308B02FFFF0F0040FFF30F0F609CFE
:102760007304C717041C04FFFB0F0460B258FFFF7B
:102770000F0040FFFF0F0040DBFF0F0E606D8998D8
:1027800056B034435BEF0C2620607788061E91E03C
:1027900031B035E025148054F30077511BCF093256
:1027A000203032F0021993C021B065A065C0223AF2
:1027B0000773554790414D4D4A4EFFF30B1660533A
:1027C000C253041A0B01B0145944FFC70E2060D243
:1027D000202D0F021F0A345072B434517A8898FFAA
:1027E000D7082300323D3E6A88059D2146C4D3D3D5
:1027F000E3D2D3D3E201BFFF0F050053D001BFFFE7
:102800000F06203320C1BEDB0F222090234A5D6AD1
:102810004D37A0120B1C847857625312DFFF0F0A4A
:10282000001D051D7133DEDE0F1F20B02364101064
:102830000E003532302DB4499A890494C20F31000C
:10284000E01EE2DBCC8E2007B13E743A600236C057
:102850001636A58E8FBFCC180211C20F3A20B01DBC
:102860008117F3E052123094021F063A0738073AF4
:10287000063B038320120100D05513B0F70F202030
:10288000C02134130B1D0C3823012A017E88057EDC
:10289000D0C20F2D20B044B021210305021F0D2806
:1028A00004F911D01D042C20C0010506C61008240F
:1028B000A04070B003034A08ED21E03C02590D48E6
:1028C00020B093FFDF0F00C0FF3B0302A02FFFFFEC
:1028D0000F0040FF7F0F00C0FFFF0F0040FFFF0F02
:1028E0000040FFFF0F0040FFFF0F0040FFFF0F0001
:1028F00040FFFF0F0040FF7F0E0EA065B0114F5C40
:10290000691DFEFF0E0740263D7401FFFF0F0040CA
:10291000FF7F0F02A046FFFF0F0040FEFF0F00C029
:10292000FFFF0F00401C670E37A070026D09100EEC
:10293000C5722280B2730E0340170F072051210D7C
:10294000180008F17A0620CE002A2084692B8073B3
:1029500063B06E091F300206034B081C021AB7C48D
:10296000DFDF0B0FA0E053B9561D8018029E5308FD
:102970003920228755A6811411061219D06190952D
:10298000C0A44002F33C07BA52B3041C02690124FC
:10299000400A4D202848632700711709101A0129A1
:1029A000033C05581148013AA0A280387D2450010B
:1029B0001C075C015C12073882100D1008015D20B5
:1029C0007AAA7A30A7AD06610A82D737B083118020
:1029D0003130B1753B11903864744AA714A031901E
:1029E000A5E013B7373250695F0984868630091134
:1029F000000C6720C913D20F2B0B380348064C1A62
:102A0000011C0387606CA6A7576E113C338C00082D
:102A1000136F5E574197B308180B4C0C2C0D2930DF
:102A200080011B3070161107FF9A0C1F2057066F8C
:102A300054B81A42B4495C057804F5EE07FF1B0050
:102A40002020E0F3039B31C4031FE1C364801B0417
:102A50000196FFDF0B0580801C07D1FF0E2B208025
:102A60006302409041F011C91B21120114404295AC
:102A7000C4956A2402744B0847208017B0030103F1
:102A8000282211016CC136211219F071223A8110ED
:102A9000E7D0428067B0B2906362302D600A5FF683
:102AA0000E1120807501BCC108188006BEDB0F1115
:102AB00000801C1421801613B00157FF002D2090B8
:102AC000044FD164E092031D014806E33E118244A5
:102AD00068457386A10320EA004A208018681432F2
:102AE00010018B122321DCEB54E00129D0F222905B
:102AF0001C0E2A0E63C83178C21482D6F1670332E5
:102B000040500A5A2040780C1F5F20604004773202
:102B10009041D024D033E01B01461E7C3682440312
:102B20001B080159031E0532B40FD2300B1808568A
:102B300051221208024C0005E1400B979061C04100
:102B4000D021C02C0384100881300535D01D031C12
:102B5000041BA4E2B533BE400CD2E96792FFCF0F4D
:102B60001360A3139396337358743B09A60003377D
:102B7000A0903B44E85361C4C464C2C4046B014BDD
:102B80008211034C3161033B70E0021706260709EE
:102B90002860474D7E11B5D9E20529018F15F04512
:102BA00050F4BDC03234F67F0108A0F04B0383F728
:102BB000FF0F00C0E70C0020A09388888898B6C457
:102BC000E309E0400B77C0119363600630A0080072
:102BD00000E1200DC4500918071B031F0F05061E36
:102BE000088F234E9A563798031CA070C3B4065C16
:102BF000A3B02E023CE4E5F071E7DC0B1920F024D1
:102C00004ED03159BE012E0E49100DF3DC0B21A020
:102C1000609044101B4351E41BE0E29004013D002E
:102C2000027FBC051480C402BB61053862A061400C
:102C3000FFD60919A094C5038F61423204E951C03F
:102C400041067FCE01208002F9810BBA11293C2A6E
:102C5000692079534C3517F7DF0F0C2007F200007D
:102C60000E37FBDF01178088072EA3666A6AA0A7CC
:102C7000C6E402FFEF0F08205031B4223FEE0F1ED2
:102C800080F012202B2E3E3D28434751034B442613
:102C9000FFFF0F00407FFF0F0880C1525426FFFB4B
:102CA0000F05C0C04202F7FF0F0040FFFF0F0040BA
:102CB000FFFF0F0040FFFF0F0040FFFF0F0040BF6E
:102CC000FF0F03C0D005F3FB0F11A060C4A50718C8
:102CD00020D4E2013FFF0F0AA0A0C75523167FE7CB
:102CE0000F19E022975671A3A032BA041C041C04E9
:102CF00033C60B2FA08C700BF30F04011B0F6F0258
:102D000028453AE4B0D4A0E4B022053A07638E0126
:102D10002AA00C3A10901903590A3945D001043FF2
:102D20000F4A5E013C1ED7F79C091320E029660676
:102D30001BB003024808FF9C030440F03BFBFF0F5D
:102D40000380E00223E20F2CA0272E2EE032C05198
:102D5000A0718091E0B1B0F2F001031B70607F6759
:102D6000C00F20C0E039021F021D041B06180AC64E
:102D700020100D76DF990F17A0021A0AF30FB32067
:102D8000D2B496F80A9C030F2C200A3AD0012103F2
:102D9000E9020318C00101290D95785A4C3CE02541
:102DA00019430E3320B02DD2A432A001023E20D010
:102DB000030728C01B1090011B20104D7B98053B7A
:102DC000C60C2D20801D33A234E0A3D003062BF0C7
:102DD00023A0F1B00302F30FB37008FFFF0F004010
:102DE000BFFF0E0920A01A581A05FFFF0F0040FF71
:102DF000FF0F00407FFF0F0720E1C28002FFBF0FDF
:102E000002A0743BCE0D262090441361084800F0C8
:102E100003042CB077C081500D01D1F39E0F1560D3
:102E2000E9200ED2407B347A98D50137EC0D18207A
:102E30008034088D12B002790902C17F79EF0F1139
:102E400060C01802718377022F0163D40B1C20B07D
:102E5000C496B20AA6600B0300079D9330E7FE0FED
:102E60000220F7FFFF0F00407FFF0F00C039D60A96
:102E70002620D01C0260206DC84980A3600AA6509D
:102E8000FDC0B18043231002416008F321902180EE
:102E900057B08330310264300863100CB1CC7F101E
:102EA0000E2E0B3F024A011F018C029B1803432088
:102EB0004E4CC0414CB0512654A0510357F04588A8
:102EC00088981D474065220DC4B510118BAEBF0018
:102ED00003011900004F20043907380838082F2053
:102EE00050E1A0824334D044D025F019034F0E3E68
:102EF00060F002022C0E2910E001031B60A0019F6C
:102F0000F70A1820746A5A2C4018115105AD222E68
:102F10005B02083820D04BB803D730FF100CB73015
:102F2000081D077470065430044360F50519650BDD
:102F300043390708352080137CE0D19004023B70B0
:102F400080031ED9052E04C922C041B50BB6400D21
:102F5000023D430038E0F01901A88190D4C0C4C0FC
:102F6000C428F041B768D071699A80C11AECFEB0EC
:102F70000138DEE30E1B20B01C0A140A19024C5261
:102F80000580910E01DE730000C0FFFF0F0040FFBF
:102F9000FF0F0040FFFF0F0040FFFF0F0040FFFF4B
:102FA0000F0040FFFF0F0040FF7F081AA028388164
:102FB00025218018636E038861C4FFFF001480B070
:102FC000260330028C31014312FFFF0307A0806407
:102FD0000303FFFF0F0040FF0F091DA01A65C14149
:102FE000E0C2BC1412D02B4611C802FF4F0D1CA02A
:102FF0001351361101C5B1A081113207ED51FF33D4
:10300000043280394C1B4207193311531EC018017A
:103010001F81631112353565033B6E43DF12084093
:10302000802E6003262D371239C13891234FD01DD1
:10303000F2516333116204AD11801435CFD88A5137
:103040001F7F420044A0A02190113411C125845556
:103050001439D01E41123214C38DFC02BD1200027D
:103060001563EEE63E1631555F43073D8029700239
:1030700035500423317B6213058231386373015D5F
:10308000E13444347D3B037E14111D08FFFE0D081E
:10309000E0184D4CA84F000B44A027F023C021118D
:1030A0003E601713200022688352017E31691C1391
:1030B000695341029D1270045722E9D8FFFF0701AE
:1030C0000002DEA30F2AE0903538221A232A123696
:1030D000B272B843674A3E20026801137BE20729B7
:1030E000A000E1B318314162015F3202D1C84FB094
:1030F0002114B01E230115320F32803550033640A3
:10310000F4CC1A0132142051019E32262E4408506C
:10311000038A62E68A900F42801B4150C336B30097
:10312000D92100350121F01B012518725953901A3D
:103130004153116A6A6A5262011011C20F338090C2
:103140002A02212235897113E5BED0290158025483
:10315000DC37C108701542690111020F41809029C6
:10316000D253038063079000BC229018011790147B
:10317000E043354C6311D90652405511854001108A
:10318000420E3CA03C1B30055B041CD3C603115708
:10319000E957537861041510055B77013CB011C203
:1031A000E016DC730E2CA03E3E3E90318E5C7C51CE
:1031B0000A600002239023E033F00221B3587B0C15
:1031C00041A077B0821E33C0423112D4DD59011CB8
:1031D00003ADB1402C922012021C1391051F8403F1
:1031E0002C810110730C40A0901CE70921002831AC
:1031F000CE0007FBC21535105D2E21585B2E2180B5
:1032000031114F90514CC03310420C56A0D04B049A
:103210001D041D0419A51D4204005B035D042E025C
:1032200054362462CA84F1E5F1041A11B32302185A
:10323000B7031DD4041A03319FC6093E80B04583ED
:10324000883D3C3C4C1802A94198B7D53321021364
:103250003210210411412005434003161146084253
:10326000A015D1B011A029022E0446F04110A102F0
:103270001F63831322E3BAB9D02431802BE8C39CA7
:10328000C01500080153A08651E603C0A0F416A0A3
:10329000021E512109894440081D12021AF3E2035B
:1032A000321133DB39610B4F055C045C0460AE14F2
:1032B000080208003BA0905A0116347731F8B50E89
:1032C0004A0022E002192ABD120184807260032F95
:1032D000F1023D033BCE082CA0802F0256BAAD066A
:1032E0002A0D3C420E2C3B8A4E75803221141473F9
:1032F0000C092FA083D048A5122201A1062A0D4A4D
:103300004E041963E031793C1120C5065608002DA2
:10331000A096023A094F1117013A811F4202032970
:10332000038E86B02302290B9C100849A07000214F
:10333000C00310033C11114028216A042B81095A53
:1033400014013D910B22AB013B0A1E3403DA131525
:10335000920618610059A090515490646480747270
:10336000F08391D023E122F0520218548B023D06E3
:10337000598B91B2937200E30A4E0A4E0A1E1564ED
:10338000035A53023D630044C0C086898888887907
:1033900089782005333006829F9FAEBD59827F75A4
:1033A0005D890CC6500DD5600C1A61FFF7010DA0A8
:1033B00070D2662C90230539460C49A084786A5A4D
:1033C000C04269F0814656802347379004001B4174
:1033D00032F0E21A80C3D0149180611A2A4138E594
:1033E0000173C20850C0D042C0317C98A5B59798EF
:1033F00097B6B5A696586B5B5B3EA83BE53A04A032
:10340000500BB645DBDBDBDBDCDB1B832B40734285
:103410000023E0D05A033B5A084844044D4322039A
:103420004E0D582604FFDF0005C0903D0CFF430001
:1034300026C0B0C720000FE2200DC4400CF4200EBF
:1034400096C0418012FF5B031380B018D3A6793D6C
:103450003D6AA604FFE30F13E07DC550C01165B0BF
:103460006390033FCA0A2EE0A01EC7DCCE5B400774
:1034700039092210FDF4C7110618B8B2B8B2B83035
:10348000000854A0801F71043808580E3B1B0B2EF7
:103490001D0F29A0021CA00229D0012E70B0E380CC
:1034A0003532F03494A041C807A75036525B8412DD
:1034B000033960804D53C232F536A323D7CECECE2A
:1034C000CECECECECEC6B6885C3E121A2242C506FD
:1034D000FFFF0F00409F7E0F1D20B033444044D6B5
:1034E00080412E5DB883C0910201420846600920E8
:1034F000100E24300944500645500D4B064F0D4A1E
:103500000D4B0E4900F0034306A602147D329025B0
:10351000218C010231C0A04E0703E26062023E0925
:1035200001E23000200991000AB0BFAF00FB0BFFA1
:10353000930F0EE0F0671306997187FF130A24A01A
:10354000B0D70E95906190819061B0519081700CD0
:1035500000451B420E3CA0B01E014560D60786B94F
:103560002FA20761300544400C1C30F0F1A0F2801E
:10357000A2B07160EE10800056200F01280F218F3D
:1035800032BE1C306009458018054BA0011DB002F9
:103590001EB0021CB001490B58C507B540003701E9
:1035A000F4B0B4E0548F6B0F1B20F026E01380645E
:1035B0002092D062922EB00343640F3620801CB458
:1035C000817142F002A6E0A280021850D00171641D
:1035D0005E686C786A6A5A5C00440A3620F02DE313
:1035E00005857B9908674CD014C0959092E01E9396
:1035F00009391B0C2FC0011F31F6023CA092051E99
:103600007866DA924D296F391001AE51500CD420F2
:103610000F2810C001192080D29031BCD7031C2084
:10362000A01A0256107853AB5D262F80197CB9D6AC
:103630000B25A0033A073814041D452B789013E896
:10364000011CF0011D0839CE0E2820E01B0230209D
:1036500081820C20041D0E2A1F012A3C42832E3F2A
:10366000C6082520E02B011E87B9428E400242D0B9
:1036700076FF4246052C0273CE092520D01A485207
:10368000C21A5A2340106001180D482270FA027BBA
:103690008E0133202EE01D0228021C031EE35183FD
:1036A00041177222313BE0546005359EA90477BC76
:1036B000032720194C4C4CE022506211212D12E3BB
:1036C0006F0C021B0F440B778C0318409018018A73
:1036D0004194526E4EB02E91FFDE0F0A6090216A27
:1036E00035339EB00F336000C1965918042D344213
:1036F000051F4545041D54B0F1343CA4433DB3427D
:103700000C18F30F3940573006A1BEDCEBFAF9B9BB
:1037100032B823B715D7EA087080831F80125CABDC
:10372000B6A60418E30E4840385005721008711010
:10373000076120077111AFAEBEBDCD0418C89BAFA5
:10374000CDDCEAE9CBAD2A3162232E2E39E30C45DC
:103750004022F0112F2E1FF071B9D4C4A586116636
:103760000540E8E9DAEADBCCCCCC4C5C7B8921D69D
:10377000D3D4D30319E4085240222E2FE023F021A2
:10378000803580222135500F03000250E035637AE6
:1037900068694B4C5B4C4DCCDCEBFA0A7010330182
:1037A00031232D82094EA0E1B3B6D4D1E4B4A5F4FF
:1037B00023B0714500052B0B39082F0A2E09286309
:1037C000082E0A2A31DA51A98A60587146765112B8
:1037D0000261C0D908633005443005721007180132
:1037E000177052C22134B27DC019C3642552363CD1
:1037F000381D58365C637B53FB0A9010FBECDDBE32
:1038000025B93408B88F004860D8AA8F0007637FB5
:1038100020D98AF011C023370034259EA0B1800141
:10382000041A703965B6A405409A3A0093FFFF0F59
:10383000004010420262207E70051E04180529C94E
:10384000BF835E11522E14D05164805447804429A6
:10385000A014F01F0219F406758D0A549A5B70E5E6
:10386000025060E6A30A762B4218084CA0E38ADDDA
:10387000E6D9E8699C613C2110B135022EE201FFD6
:1038800062D0C3C0C4482C226805424A915E00E55C
:10389000EA34E3C61C0134E0C01E0117188A4C8CC0
:1038A0002D9CD031D01E011A03133125FA6E520718
:1038B0008116DF630013A0786002E823880B12E40E
:1038C00002FFFB0D0A8041B0F521147FE30C138049
:1038D0008028E3F1D820C74160023FE70C1180C087
:1038E0001D8395A165DBDC0BFFFF0F0040BFF70DCB
:1038F00009A0A0292644037FEF0D16A015450F400F
:10390000FF0D3356D042417FEF0D1CA0464082820E
:1039100022231861400252503E477FEF0D19A065E7
:1039200080113320411570033E0383017FC60923B4
:10393000A090451A565A48175152353363089D21B5
:10394000B091087FC60C2BA0A018011B3AC162AF32
:103950004382433D9842F021261680174F0A7FDEAE
:10396000082480A053416626625372255388F801CB
:10397000EE1111104AF3C40834A0F047605AB5A301
:103980003644D533707090011201280D4C0C4C0D4B
:103990004A0F3F3EFFBF0E0880D0339351FFE70F21
:1039A0000FA08025933511A199047FA5051780905C
:1039B00045FC02D7EACA30045D7001FFF7060EA08D
:1039C000D075348741021BFFD70C1BA0D06173A4B4
:1039D00031041908666678D019047FE70829802128
:1039E00064D4C5C5D3B587091B255B30078133096E
:1039F00034D01C02DF720E2A0070E7CC9F1D821D9E
:103A00007220E632484D3D4D5C6B8986B046DC53F2
:103A10000E3580147F8081508B2111700168620700
:103A2000A760E411E8DBCCBD8E1026A1E0061042B1
:103A3000084DA08029B2053A690A2D6B6D41625686
:103A40006FC011804280237E4E025011031D920DE3
:103A50004C0C4C0C4C0D4920900139FF0E2EA01738
:103A60003849F0510534A0115092649212B11221DC
:103A700002C3400CC43039C60842A040A7072F89B2
:103A8000092D8A0A71BB14D376B301BBE13160A45E
:103A9000D09288808269A0615AD0312C7B53082E45
:103AA000A0D02CE37698595B471137293AD0534080
:103AB0008216314056058567398E0944E0B0A3402F
:103AC0000D7412112011058020B90B7100071231FD
:103AD00030B40803E3B041A022F055707FB01173F9
:103AE00084003880F01F06162151802E013B4223AE
:103AF00095AE321988321A19361C2F3E15265F13DF
:103B0000E7DE0F1780F0374D311F81CDFA21A1710B
:103B100002E59C0311C0F03E8182016B3403077FF4
:103B2000E70F08808065E44ABFE70F0A80801B2802
:103B300012303FE70E12A0B01BB6215931208B7115
:103B4000BFF70E0FA0BCF122044C240206FD7F0E2D
:103B50000CA0808508E120FF9D730E1EA0801D052E
:103B6000289031C233D0D31C603BB052DEFB0F082B
:103B700080B02A6552FFFF0F0040FFFF0F0040FF9B
:103B8000FF0306E0A0348DDFFF030880E01421333B
:103B9000BFFF0F04002033FFFF0B0880130418132E
:103BA0005FCE0B28A09025C019012512556811F68B
:103BB000A13AB2D2231C25442BBE8B0F21A0D01BCF
:103BC000EA303590162B31990313011000F101FFF3
:103BD000FF0F0040FFFF0F0040DFFB0F0680C01B00
:103BE00045BFCF0F14003022801A521470531511A4
:103BF0007FEF090F80E02B6133231F7F01DFDE0E93
:103C000018A0901473011DC013F4DB21514AFFFF6B
:103C10000F0040FFFF0F0040FF7F0F03809002FF67
:103C2000C60D1F0000543242802821695A4B4C1A9D
:103C30004113F2013CE60850A08035790148F803B1
:103C40006315B6254434843443037660039D3160A4
:103C500082A52152A31311539061C0411055393DE3
:103C60003F1DC70850A0A0143A93033E065A0652BF
:103C70004E3687289F4B6532330518A393163A11A9
:103C8000943D3710013F01194539114E2C1F3F4A11
:103C90000846A080187372534051036A9233812200
:103CA0000121284E1E3363300232C01BC5E844A0F8
:103CB0003100031A0321FFF70F05C0015C01FFFE6D
:103CC0000F03800102B0D20849A0D0774682D2010A
:103CD000AB524290211B2D708207E60000200CC4DD
:103CE0003082F8CDA03136700418032A0318021070
:103CF000420806E0E07E60FFC30F00C0FFFF0F0038
:103D000040FFFF0F0040FFE70F0EC080225E3842E9
:103D100046B41F820F2FC0D087600C52565F787A4E
:103D200089860AA63CA9A897E685064156500BFF4E
:103D3000FF0F00403FE70F18C0C0274496696A7A1A
:103D4000793842371BDFFD0F07C0901546031FC0AF
:103D50000F31C0E0B32040CBB3D5C7D109180A1842
:103D60000BB7500BA52A9B6A78D8550500000C3A72
:103D7000E0E0281003190E8A72600A1A0CD4600E53
:103D8000E2600EE2600EC390A170073E094B007323
:103D90000843E0055C04995398601D0F021E2080C3
:103DA000D270041E0148A5A22007A19300FB78F55C
:103DB000101FC001072F230F2AE0022A684B1E1F85
:103DC00080840012019340014F023B43046A550076
:103DD00002004B20B05873481103707C01B68E90DE
:103DE000624003531D803109106105660761078435
:103DF00005420A023F0F4B0B4F06F7EE0F14E05639
:103E00007A98D50168641DE08133E70C2C00A01E70
:103E100094737557B015E031B06116205838414B96
:103E2000C051C031BFF70F0D00A0373C145733030A
:103E30007FFF0E1020905372B1D145D011BFEF0C0F
:103E40001C00C015124A11175111056AD3483C1EB7
:103E50003FF70F1420E0565A0A1913B1776A2A79EE
:103E6000FF0C2760859689867A684D2B184EC8D23C
:103E70007365898878609C06FFE70C1E4024414CDE
:103E80006B6A696A6B6A79796A4BA9B67BF70F1618
:103E90000080250419E1B3666A6A4B2CFDFF0F030D
:103EA00020B005FFFF0F0040F9F70F0B00801BF15A
:103EB000112C067BFF0F0960E077E4D3043BFE0C76
:103EC00029408014174E400592CEDBEACACC7D888B
:103ED0009897881A31D70331CE0C4520B0421097FD
:103EE00071F8761B11E717A0D1D0949065C015200A
:103EF00093110E60EDDCCA110772118C50D705B317
:103F00008C0C48401B2E3D6A8997E3E2C4B61882A8
:103F10002791C79A99091C0118A825A127817B8B95
:103F2000006A7A797979796921C00A3C20D0350014
:103F300005655E8D21F69CFBD32712F1061E6501F7
:103F400052B0480D1D112D0090021CFFFF0F0040C4
:103F50003FC70A2B204790517D2D86278371F5029C
:103F60001802DA129001A03C1C2C019DB70F2720EB
:103F70009023997DBA2AC8D368051F73966594115A
:103F800051221602BD970F3060E1835A5ED60114AC
:103F900035A6563221324112413554127150AEA22B
:103FA0009E1980005500C4B587695B5B4B3C50038C
:103FB0001D041CB401401B00A5E3A5D465024435D3
:103FC0005232574442635452D3A4F402DE5430EBCD
:103FD0000E0000005860E01DF2043DD50739A90A23
:103FE0002E9A0C2B8D0E1F7FE065E06570440A65EC
:103FF00040B0F1E790D2C8D0A2AAF0827CA0635E64
:10400000D033BDFF0C1620031460043B072FFBB810
:10401000281D10700E2720804C01180D0174700EA1
:1040200048110ED912D051909150062F860F2E2094
:1040300080621A0926C0218032340CC4400CE3206F
:104040000EE2200E72263F21F40F1120C01C215BCE
:10405000F14F0E0000FFFF0F0040FFEF0F048060E4
:1040600025F9F70C20208036D4130080F21E300E84
:10407000E32443032015BFFF0C18006012654B2D8D
:10408000D0111F2E6071353FEF0C1E20A033850A22
:1040900019F3022E0149A152138F4439E70C2C2049
:1040A000A02953062D8003021802180D19011A5C6D
:1040B0000129A1E081447BEF0920200B1580E1B0AC
:1040C000C4E013E522162D680240153FF7081800DA
:1040D000A02AA372662C9018E17562353BCE083099
:1040E00020C01B510576910324C3C0C4A01190C108
:1040F0008043A773498803632639F7083860F026A0
:104100005B7D667DA30D4B9D21525B8B03280102D5
:10411000625C80515E80515E80513F4A0C42407427
:104120009F0E4320B6AE40045350034540EAADAE67
:10413000AE8EAE3027316210044440044440045334
:104140003943084320A033650036475132282903FC
:10415000011C51302121F0C3C0C4D0C421F0210979
:1041600018686C061D8403FFFF0F00403F630E13A9
:1041700000A0280690FA048A52BB047BCF091C20B9
:10418000054E09590649241C08281AB8773C717E47
:10419000082D20B01B20071809A6E0A2E0A2F072AB
:1041A000D071877300181E6A000137E60F15008072
:1041B000246A7908AE32D7031D02FBDE0F12206598
:1041C0006A6A6A25F34AD011FDDE0E1B606011C2D7
:1041D000964775065EE1C3C4A0540811C20A442084
:1041E00009D060C7D1C6C2CE38B7143D715147035C
:1041F000180659075B043A092E0A2D7CA4696C80C5
:10420000431111720F3060A01B0386F7EFEB200EF5
:10421000D2400CC440AC810DF3270643801B459768
:10422000530B2920897D80514CC0414D80616E50D7
:104230007C6716553CE0D41C07FFFF0E08E0318870
:10424000887731430800403963083620D01AA50822
:104250001890710162750352B7F074A065A0659063
:1042600085E0C417E00144FBFF0F0760D081C60161
:104270007FDF0F058090D5023943080040FFBF0360
:10428000090080253D220739220039209047740E0D
:10429000C585466286B776F0C2C0C4C0C4C0C4C07B
:1042A000B48073B8B46AD28301FFEF0F07A0C013C4
:1042B00071049E620C2620A042A004021D2192607F
:1042C000598B78F28804E853503E18630C1C200385
:1042D000590858075AD70573AB063A0510C6780F28
:1042E00028A0801B043310D6E9C65C11000A3AA549
:1042F000A696595B1D3E7318033BA0374B6D87B8DC
:10430000D302AF216C795A31B3800319D0D2E200C5
:10431000F3A072125A90320001FFFF0F0040BF1B42
:104320000B17A0E0346C89B703DE313873C401D0B9
:104330005A0A23A0B02D5D021826C0918041801F2B
:10434000305002012D03DB530A21A0801A023B05E5
:104350002E0A1B09022142F037C881027ACA0839A5
:1043600080B018C21591F96117E022B0517009B5FB
:10437000808170210919081909190118050178C2ED
:1043800008492005C5400C1201921230211E012E51
:10439000011B023B072F0A1A06C51060DD2B01E640
:1043A000FF20FD0A8210D70518430862002AE02189
:1043B000C0180162173A7536282551839D0150A017
:1043C0006180A17009E7300DE33000000F01F1209A
:1043D0000EC4400CC4400C5AD436515C3C3E9C1375
:1043E0000857A0460A1B57A70429B2045B07297582
:1043F000A18A625521155244303186E206180A9688
:1044000080B1DF2D9CC403BD21364568742302189A
:1044100003005CA0000673F0912F44F0618F90734D
:10442000C15B6B081CA4C5031FC20559083557277B
:10443000D9162106D2907130091BE90F1B4E21FEBF
:10444000F0291C030862A04F70071F0772F0311299
:10445000212F34A09289B0217DC15B6B081CC3045D
:104460003EC20658045056364C869127A406749CCA
:1044700021FAE6027F021EE21942085EA0F028023D
:104480001C0418056390223210130429D8061CD18D
:1044900055C9B596A0514B3CF0215C9085F0611751
:1044A0005A46858246A307739CEFEBE711800062B2
:1044B000A0F01F01680545C05220062A13F3071A11
:1044C000C17531D4B4B590514B3CF0215CA07580DE
:1044D0004228B93856765603190783B081400BD16C
:1044E00019D1FFFF0F0040FBFF0F08E02043452DCF
:1044F000FFF70F0E8010453511331637FFF70F0BFE
:1045000020D1296411490A3BFE0F1DA0F018C2A555
:1045100011665B2D1D80232733D106F3F30E26A0F1
:10452000E0557054053017332EA3228BB03189C764
:10453000D2952A7FF20F22A0D025335358173494F6
:1045400062C022A70248213375FFFF0F0040FFD34E
:104550000A29A0B02327144A4D3D3C17D091228947
:1045600004542666840DC40FF7730835A09019C152
:10457000E2F374043336D021FA7912334124013D39
:10458000021D82447745000323400038A0B03F71EC
:104590001007E220371BD04258E04369B0A3B14C6A
:1045A000780B764C4E90412E2F7BEF0D19A00B43CC
:1045B00085052D64044975043E370A258C00288042
:1045C00026801490178011C0211AC427D407A2CEC8
:1045D000BC720426FDE70819E0C03A011740021B2F
:1045E000426101288808FFFF0D00C0FFFF0B00C0DB
:1045F000FFFF0F0040FF9F090AC0D037879256FF88
:104600009E090AA0901F7002283FCE0328E0901F49
:10461000A3041B740318340443676B6B676874C589
:104620007B3F3F8F0330C031124C5D3D3E4D4D5CB2
:10463000746B116C7C8CABC90715D0313747467D44
:104640009C091CE0E0432B903770E01D06C4400C31
:10465000C4403784003780801470022660230272C1
:10466000038D11B01EA2A796B25EB250051D021DA9
:10467000025C013146083FA060763A007020D0030A
:10468000024B62128513F2D0220900480F4C071921
:104690003393C14286CA100439730C43A0A043630C
:1046A00020DF7080B1A3F082691A40C452325707EC
:1046B00080032F0838410744DC3C3D02183703399A
:1046C000630E39A0456D878A9689A4AB00DA293438
:1046D000E136C9228EB0511EBCC0D490020501390A
:1046E000019D7B0D2F808800F9F9F9F80890AE70D4
:1046F000B13191941188284129806543110F1972B5
:10470000085AA063D07195A09194B0819570F90D6D
:1047100030646056522154420647341201021CF0A4
:10472000030028002086AF17C52B5133A2634846EB
:1047300012E20C5EA0904550E708929C2F91E63063
:10474000702530513647A232574555A041F117D058
:1047500002011A0402003F1050524194211E42638C
:10476000125F3B173DCE0936A08621818D71200E48
:1047700053330F3B0219032B0000015114B0B44412
:10478000C4230133F7DF0F0BA037F0233950015753
:10479000E70D3BA0C091C5847743222912219808D8
:1047A0002951110319042130033D33040118C312A8
:1047B0009201B7FA0F1CE09045432012000A1AA795
:1047C0001161413935DFD70D20A0803299566A61D9
:1047D000221A1221880419350C187FFE0B1EC02ADC
:1047E000114531878731B5C4C3C41C3F3D1D7BF6DD
:1047F0000F1BE0B047359BACC1051AF72A204228B1
:104800000AFFCE0F17E044388BB456A29A820EE20C
:10481000200EF5F70B1C8044ACB63625E0313D4C3C
:10482000885B3CF026FFFE0F09E0854359C804274A
:10483000FF0F16C0E017617A99330128031669FF4C
:10484000FC0F0DE04B3811782BA1070CD60F48C098
:10485000B0436D8B8A99AAB860EBA1872184489AEE
:104860003AB8336127A1829D82107569235554326D
:10487000874C3D3C19D40D52A0908651116F819107
:1048800021523AA5B22628B5782E676D030028205C
:10489000B07189503BDEA051117A6812A51592D4EF
:1048A000032338D60D40A0F01A32407F0171D27236
:1048B000304D3107642064390607051C50A0E1A083
:1048C000517B673102221AFF7F0A0E80E026174AC9
:1048D000C244F4FFDF0A0B809004A5A6B504FFFFD5
:1048E0000F0040FD4E0A3380A019A183482C1518F3
:1048F000801318D0441D45CC12C82207611D6001E9
:104900001C01F9D40A3E80507103444013F1231274
:10491000B28E1D532F23A0032A50D4CBCCCB8F1C97
:104920002341100216263D84024BA0C2A0E235A20C
:104930001E6C87514879470883442D948E4C56202D
:10494000160676B051A063500490BDAEBE8EDE2632
:104950000398F7023B80901A17521F105FC14F86D1
:104960004E5B8B59A959C65AE45A013E5210E023B6
:104970003514120E18E2025BA0A0161217001109DE
:104980001880C250D570A9E40672CC7B7D0BC0376D
:10499000DD102983066600076040D709A235127032
:1049A000051D021E031C0200600E590090A1700F2D
:1049B00002C5500DD4400DD4400DC4500CB5600B51
:1049C000A63041084293CFDBDBBACABCBDDA5A4CF1
:1049D0002D1F1F1F39228897075C720E39A00B33D9
:1049E0000E2BB0012F70B003032F0F20100B4120AE
:1049F00037F1D564C7036E86B7E30749080010E0B6
:104A0000A685F048031E0330F7F70F04C0F016F92F
:104A1000E70F0DC0F01EC4A5B6C5037FE70F0DC09C
:104A2000F018B4A6A6B604FFE70F0CC090154D6BA6
:104A30006A4BFFFF0C02C047FFFF0F0040FFFF0F54
:104A40000040FFEF0F06A0911128FFFF0F00407FED
:104A5000EF0D0680D7EB7E7FFF0F06801636163FE0
:104A6000E70C1C80F02B57A4251852801670BD004F
:104A700008527BEF0820A080187689013736042D74
:104A80000A4D9C0506D6483BF70F1980D01A9A07A5
:104A90002EC3364326444C5C09FFE70F12A0800367
:104AA0001811331613052BFFC60C1A8090269D97FC
:104AB00088281F4A210478C61D3FFF0F0BA0E05233
:104AC000C0434302F7C60E188080B4C5A6972D28B0
:104AD0002702395D14B3E60A3080F08433FA19D224
:104AE000BC2E712E60E3433C2DE033881A2256879A
:104AF0000435F7C60C278010382A90415B5B33558C
:104B0000E3D353A01A02713BA1EA0AB3F70E25A022
:104B10006D0301021B31701E031E5361034A2237CD
:104B2000E0330A73460849A0B04595014060338BD5
:104B3000332083032A64043A1C30202171D04218A8
:104B40002AA01905384A20A0012D3D2602F7FE0EA5
:104B50001360F016C011526998A0430563440935EB
:104B6000A080454B89F03544B054458053041C70F7
:104B7000B043F028B80C1B2004040601FB76021E8B
:104B8000A0A0679269C619C3600A6EB01BA46645EF
:104B90007386003AA0A0B209F06A50D001023E30FC
:104BA000B0531557F0624764B06101390D4D04E907
:104BB0003170B7840832A0F01ADBBBDC2891B071E9
:104BC0008071B041445B0551A756502EE062D0156C
:104BD00037C6084080E01A03B4CCBC100674109E9F
:104BE0008F137C157B247B16F936D956C885B7857B
:104BF000A8652B24272184013AE0801C0149032960
:104C0000C4440118F60667304E0DD612C190A113A8
:104C100092E0B144B04213FFFF0F004039C6091FB4
:104C2000C0D04B013D2401721048A4CEDCEB7AB910
:104C300006FFC70D16E0B019620734847761CBF721
:104C400073FFFF0B00C0FFE70D1AE033215F474FF2
:104C50006A8511FE11D85335FFF70B0CA0F021BA6D
:104C6000751B153FC7082880902750038500F95908
:104C7000A4AEDEECFA087110079228167FFF0F052C
:104C800020219904B9E70D22A0F01AD18712A4E0DF
:104C9000B23B92FAE90755000527FFFF0E06E054E4
:104CA000F01139EF0D2AE0E0345D693D3B4F898812
:104CB0005700850330124648A7041F723DCF0833C2
:104CC000E08047478F640000109F04B6400DF29FBC
:104CD000F20D31FFEB0710E01110013DE70830A0A5
:104CE000F019E5011AE10A335716082F02A811D06E
:104CF0005337404506185166BBC7092FE080228B09
:104D00006546D0A5BD41F49E0005657F307807015A
:104D1000F0400919063DC60840C0F0158700EAEBCF
:104D2000F9089029862995AF0881118E1037E1FA8C
:104D3000EADBDBDBBBBDBDBDCCDCBBBE0324E0904E
:104D400034668011D0311F8031143C2320D061CAD9
:104D5000C839860948E0901804C530D809A28A509D
:104D600099091858A913345F5057E2F13468012BA0
:104D70000F1D404AC666C829AA6023840937E0E0AF
:104D800034C0A1A0C1F0C180B3A0932E4B4F5C00F2
:104D900064231C041890012D063E0627CE0725E04B
:104DA00096BAD7C8A051B033B031F0615C46F1DD9E
:104DB00054500237840F26E0285B3D2D8032D017F7
:104DC000B0449033770A190C2B909121840F2FE077
:104DD00011F083904312619072898081BE070303B2
:104DE0001CC001042B0F3C02398C0F1CE0803AB42C
:104DF00005198D6F1013071B0E0465BFFF0F0AE026
:104E00003C75A588143F8E0F00C0FFFD0F00C063E6
:104E1000EC0F2DE0840371E061E071D0813E054329
:104E20003930C3F4F4B4135454140221E40F28A00D
:104E3000E0D7DADCDA17F1D6704090D2D0929063E6
:104E4000B041D011BDFF0F0EA080136A0DE3292BD6
:104E500031F70F1580A018D443989F7FDAA9C403B7
:104E600079FF0F0C809073F1614A1DFBFF0F030067
:104E70004D0239F70E1C80A01C0326554016F57014
:104E8000CD416F4A2D3903005180F1F1F1F1015FFD
:104E90000EF2100CE420EC15DA09C4501050003664
:104EA00007E2303EE1200FF1100F49F1F1F1F1F18D
:104EB000F1F10119800C57E0454E4A4E5A5C1772C9
:104EC000A89D22501CC3400E7E016B21011F032AA6
:104ED000011B0528046812011D022A024D021D0350
:104EE000302B000380F40C36E01622821160110B87
:104EF00021E1401E73703405AD3410D4F111C2F2BB
:104F0000D301A821E0E70C3EC0066326E028018D0E
:104F10001111141F211611234A1A113111191221CE
:104F20001B3E2C111E4F2C2D36EF0C4E40A01EF1B7
:104F300043B1121172011841114211011F51315137
:104F400032322112336141125302112C115A121ABA
:104F5000115B5B3C3BE70869A0013DA2012E013AD1
:104F60002111021C1101202316122114132C251EBD
:104F70001F125021429211E292B18101261429217F
:104F800013292C171516211130431151310231CE3E
:104F90000867602518B02417148025B01224191250
:104FA0001128113312A021121C4001101130021AD5
:104FB00011210158421156D111B11151520123133F
:104FC000A0222822B01F0231CE0D5300A0111C19BF
:104FD0002711E017B0112E406112011550915102B6
:104FE0001329F01619112212111520B251021700BF
:104FF000D1B1024F12013FC20F49A00232193E2027
:1050000012F1C2627212016B720210241215281C76
:10501000214F231324475011D161011B014BA103E0
:1050200030420B59A00123902711E0111BA0111849
:105030001EE023A021211A1D181354181330014912
:1050400002AA2190278015A01B022CA11311425205
:10505000B101F59F0B1A4012902620026B81022DA0
:1050600002358011FC07083640600120F01730013E
:10507000190137C031C0222E1E191E2C20C202AECB
:1050800012F0113BD5620C4180C01B7D125F2002E3
:105090006C116102259025604201399201171F00B1
:1050A000F14251916131A2015D0194630F2E20D72D
:1050B0008204E7A0E4A0E4ED83FC08619017801A65
:1050C000013B91A1013CB4530E4520106FD3341124
:1050D00030540A2F08380838F1F877EDB91F204905
:1050E00061082F1401261D1670023812820111D298
:1050F0000F4200009788785AA03450023E02711087
:10510000D721B911BB1128E2725B19E011A013D0AD
:1051100019011511BADF0B2260F052597B1212826D
:1051200097B7024F2241F015E0153F43084100694F
:1051300079799897A62102EE11704D523D343E3494
:105140001E60118102161DD01982011513901901DC
:105150001853085220A76942AAD96962BBB60A91BE
:105160004CAA5022B4035E027A022DA93B491E19B3
:105170001A16141B19161DA01E01B911141B3C434D
:105180000F492028485428134716E249480781252B
:1051900012763066B4087A022A33422314A535D039
:1051A000422F60A1026811019EAB0A35001357150A
:1051B000AA1613C1CBBBBDACBD2553D4037AA4172B
:1051C000A1253625E019D2015F330933004061C5BE
:1051D000229A149A9E9F1E719E7861B06431650276
:1051E0001F41A1B1015F011CE70D3F20181D402D9B
:1051F000A111400918B71ABAB40918043C0429339C
:105200004108C204401F1A15671A10025BF70C2EE2
:1052100000111700D08279691AF0172500229B909F
:1052200025F0112B17121614106B0F5900C013D054
:1052300033C041C0511720061A68818168337196C6
:10524000A6693D1E1F90311B39B011437954A84205
:1052500089420871203D55D2710111660C5E20B063
:1052600015123C44175C71A0F2800492D32169703E
:10527000F122035A064891A52232D21601325F016B
:1052800024D7C2C0C2B5B4B6A49975126A28514ACF
:105290000F3F00B02A03216140011E3131216220FD
:1052A00007116100A82111F9C9DCDBDBDBCCCCBD27
:1052B0009E10061F4A0B4320B01E2101121B4360A3
:1052C000011E7214B014602487921209C4FBCA0A2A
:1052D000817E131C4500B16171013986014820802F
:1052E00013E037802279B10F4B0C4C3D0447850108
:1052F0001C0442F03120021A03302C3C00F2C1F2AF
:1053000003252E9F350E1E20B02814062B0E2910C3
:10531000108112601631115BCC033620B011D053CE
:105320001302F4A0E260A20022529353D104B57D8F
:10533000193E1BD01280117BCE0E30201445D402B2
:105340001F391573B10F2B0C1C524F143E226C10D9
:10535000640316263BE6082E20B03634D0D28011E6
:10536000F9187034A031D5D074A02634E001329AF7
:105370003BF70F1900E018014835615A1B118032C4
:10538000BC0319E70E34408019B4A60681100681CB
:1053900010B54E5008B19D979797979787795933D5
:1053A000151FE30E3C20645C4A4E4A4E27416D684F
:1053B0001E127A66133A5E36515A1503E2D9BE9030
:1053C0001460DB4233C20855609065812509F0798D
:1053D000EA9A51E989810700290CC78CDAEA89E940
:1053E000711221A188F8FA590B1E2C0A1A2A0BC730
:1053F000C2504C0C1180014A60D01D012D0C3A376F
:10540000094829094910C0041F5B027CFB2C2311A9
:1054100030C2AE21032F0C2FDE910CE75000378CE9
:10542000011D40D03A2107005D1A12121B60E204F0
:105430002E013F820F176060018912BB02BD920CE2
:105440002E31013FD80F1060901801EC41066A829E
:10545000F3830F1E40555B6C5A4B2DE0182008EB70
:1054600031F0B1502100005060B836B6BD57B7BA20
:1054700077A79B2715979B909168000160665F6FE7
:10548000648E7D6C1E1140055480E14110C02DE0FA
:10549000912500006060ADA0B180C1703EE1483F41
:1054A000B9491094A7044359491B5A7A4B2B5BCB3B
:1054B0006A3B79D96A4A6B9A6B6AE055C01A241123
:1054C000110B1AD01318BBFF0F0E20186DB7033144
:1054D000B03421000064600328C2C67273C3476100
:1054E0000330066273636320364646F6375746D666
:1054F000476656B647675707708486846057785763
:10550000078575085C057ED05421040056A0C2E3CF
:10551000024C032190332003380332400133B0336F
:105520002F40B59C08A3061D30E042021D30B0722A
:10553000F987205A10D1208043734209362032293E
:105540003CE051C041C0414C4C6B2AE023A032E00A
:10555000256004316465B6012393A30F266009E03A
:105560000010000010901D4B10DA868D819093B0D2
:105570007303A2015060B0180E040329CE1750081F
:1055800050607B0320E50501192004844003855009
:1055900002A44002C380011A8CA7AAB6B8D5473826
:1055A0000B3920013E02F747032E43033D63C3C37B
:1055B0006311139790D2C0C230A7BCAE00649902A9
:1055C000530C014C2093B6061A0680021EC30272C9
:1055D0005D8F0B2A09580858091CB7712A21A3208E
:1055E000091C0874F06140051A04457FDF081900A2
:1055F000D085C503BE61A9A6A6A6A6A604310E083D
:105600005B40A02540150180000790AE9E00A8AE2B
:105610000D8120F9EA3D4E4EF011322C2295A9B8A9
:10562000C4A7B3A8B3A8B3A8949A949A949A750BF4
:105630001B1205502005D7A2022A033E038E21C06B
:1056400051407F000438081F712921A528C021007E
:1056500001273164105504333570074449FFFF0FAB
:105660000040FF4B0B154098AFCEDCEBFA0980A44D
:10567000F2013FCF0B266094A69797C3B974878633
:105680000F845042041D31C121331D9709416080B0
:10569000219AA6AEB6407BCA100A2E8A0003344A6D
:1056A00000A69815C2596A20026032C1081809067E
:1056B0009DC70330605058D0A10FF010A08409A7F7
:1056C000C8DFF809801C352085031D413398F70891
:1056D0003A609032607BFC9DEC8DED300BC5A027CD
:1056E0004C5C6AA0217E8083201103816803705F77
:1056F000FB0F1160565B6A5BA50CE3A503FFFF0F70
:105700000040FFFF07026087FFFF0B0A605201297C
:10571000A217DFDF0F0F60370C1A55E0226C075815
:10572000FB0B3040E0322007D0EACACCDC6A795962
:105730005453C3C4694CD06612013C5311F705376A
:1057400060B0629C108DCE7E0DE00B1E302E1DF0E1
:105750003130DBB68D898869850359110413C60081
:105760004C00323535353535353535500435400446
:1057700063100781320B1801FB533F874D964DD2C2
:105780000DC4500C545260140186004820318869C1
:105790006A3A38A03300033A033090431003388844
:1057A000092D3B300CBB5410914307804EED663DF4
:1057B0007E008C093C20565A4C4C4C4C3C3E4B4E87
:1057C0004A4E3B3E3C3E4CC0432941A0A3B3A002FD
:1057D0009D252F8410CA0132A0400D198082D0234C
:1057E000E023E021F049015E025B0B18030640F262
:1057F0005817F0FF0F0DA080110ABD42D601E7181F
:1058000003058080D203FFFF0F0040DF7B0F0EA057
:10581000200A3A03599072DE730E1CA00C2D9002E0
:105820001A9003043F0F2B6B4D199C730E2120C05F
:105830002D0A4930A0031AB0021FF0A130061B0444
:105840003CF70F1360E9300B969051500268013D10
:10585000FF0F0460743BFFFF0F0040FDFF0F00408F
:10586000DFFF0F0040FFFF0F0040FFFF0F0040FB76
:10587000FF0F060034353539FF0F0B40F01AB4B571
:10588000C50339E70F0B40F048B4B6C4043FE70C3A
:105890001D40E01A1112816A6A7A785A3C2E3E6CD9
:1058A000083F430842608019B1121134AF000E0066
:1058B000E3000E02A2600B127480A1152066A161A4
:1058C000DB7209040000A11FC20C5C60901B313127
:1058D0000118223112227212D222A21201747063B4
:1058E00002373221207412A331F32A03A3100000DF
:1058F000407A66484A8A6A052E95DF02005F60801A
:105900001F823202226D80121331C061D01111BB8F
:105910002A464C364220241403B6697A21879721FF
:1059200097356131C42561883159383668C001FF27
:1059300003001E40D04D0C03F240DD635C44546C08
:105940006A7D76FFFF0C154037082A5253443445D0
:10595000355C0AFF67082300E019E2D2D3D3491669
:105960001FF021DED3D3D3E36202FFFF0E076037BF
:105970004C9B02FFEF080C00A0034E011F79FFFFB4
:105980000F00403FF70F0B20F01A320D1E02FFFFF1
:105990000F00407FFF0F0620843912BFFF0F042045
:1059A000C084FFFF0F0040FFFF0F0040FFFF0F000C
:1059B000407FF70E1200802515B6024DE24224BF4B
:1059C000FF0D0C20B033E3013C42FFEF0D0BA08034
:1059D000564EC3C4033F770E1C009035400453203D
:1059E0004653132727801C41BF730F1400C0173D77
:1059F0005B5A20935AD024B97F0D2260E01C732F8C
:105A00003E4CAB308B1293A75631375265FD6F0E6B
:105A100020206011933A7F38F7041C22ED200728DC
:105A2000641DFF630C14208018011C07E60ED85279
:105A300060FFFF0F004039470A3820B01A034B00BF
:105A40004D5C23052C0F4926052C25052C0C2C7D9F
:105A50000101011D0505203196023220A039802167
:105A600056428253A4500DB3600A4E0A4D7C02295F
:105A700090021D505031C6083720801E1BE034169E
:105A800011C03254D4A0D25434C01211361D801328
:105A90000B9CB3800403FF9F030440F029104208CD
:105AA0002720803AE0391194012C1151608002279F
:105AB000052C81089D03D65A0B0800802A803E00E1
:105AC000000327A0E05E0211504362300D2EE85320
:105AD000F31A92AB3041A501B5FF0F0D80C01B2119
