:100000000C94D62B0C94FE2B0C94FE2B0C94FE2BF4
:100010000C94FE2B0C94FE2B0C94FE2B0C94FE2BBC
:100020000C94FE2B0C94FE2B0C94A12E0C94102FF0
:100030000C94FE2B0C94FE2B0C94FE2B0C94FE2B9C
:100040000C94FE2B0C94FE2B0C94FE2B0C94FE2B8C
:100050000C94FE2B0C94FE2B0C94FE2B0C94423132
:100060000C94FE2B0C94FE2B0C94FE2B0C94FE2B6C
:100070000C94FE2B0C94FE2B0C94FE2B0C94FE2B5C
:100080000C94FE2B0C94FE2B0C94FE2B0C94FE2B4C
:100090000C94FE2B0C94FE2B0C94FE2B0C94FE2B3C
:1000A0000C94FE2B0C94FE2B0C94FE2BD5F08D148F
:1000B000A1C881CFD9F1AF2000FFFFFF0000FFFFF3
:1000C000FF0000FFFFFF0000FFFFFF0000FFFFFF3A
:1000D0000000FFFFFF0000FFFFFF0000FFF93C13DF
:1000E00012A12132233323333232C771BC021E17CF
:1000F00018180F1218181838464515131323B76926
:100100003E071B313161861461A4A3B1B1B1313214
:100110000224C9FA84207A8888881195978897657F
:1001200057473822221269CA3283266666661164EE
:10013000116411646688848464575858481569DAD4
:1001400036841F7675848484848474534344444580
:1001500044450661D8968427789897988788877948
:10016000716153531353134314341404755C928216
:10017000274544535357675647756557971383145C
:100180008314731503755DD3821F544363716262D8
:1001900061534335356557474808757DD7812354EA
:1001A000536262726162423131313126122312236D
:1001B000067D5CD3822322323131848475565353B9
:1001C0005374751253137205755CD7831F6272F1F5
:1001D00084846576511142443535453405715CD7C8
:1001E000871E536785758484746652535453443410
:1001F00045F11CE7842212637675444444357556F4
:1002000057571541354554F35CCF8818364544534C
:10021000534365536243141FF31CD70224664353B0
:10022000444444536766757515211421442411F321
:100230001CD78825533554534344656614611442D2
:1002400015424444124104711CD78F1D6685849366
:100250008474757556575753536302F15EDF8F19D7
:1002600075755413131343717152333101711EC7E5
:100270008F25768484445344346666116411551185
:100280004557117506F13CC79027117385445353A8
:100290004335351124112411545757116506FB1CA1
:1002A000D7841B18134444447466665658535353FA
:1002B00003F33CCF851F3135544453533435252641
:1002C000171717272605F31CC788273635545343BD
:1002D000447414611451155115425857155106F3C1
:1002E0007CD788211322354553533435312222528D
:1002F0005311515302F71DD7841B3131F16166113F
:100300006414424844444403F31DD7021D766143FC
:10031000131313136775768444546202F31C8681A9
:100320002941110F111726363574B5A68789158214
:10033000156316631703E3380E83241244484857A5
:1003400058384811556766565749492A17E33A26DF
:100350008723A173565753545373655666554251BC
:1003600033445809E35BA6921FA1743522222272FE
:10037000667554574251777506E35BE6911EB1737B
:1003800036312222627654125457463435F73AB643
:10039000841B3138526372717575746563626202D1
:1003A000EFFEA79211223231211481746606E7FB19
:1003B000F68816624435313131222231A1B1EF3B4A
:1003C000BE881D31313122226266264134218531B9
:1003D0002201F79BA60220E22222222A25232513AE
:1003E00036125757571165E3BBBE8425A3644728CF
:1003F000222213531322132222222231312202E716
:100400001AAF81255226264635455493342334337A
:1004100043231334262607E71EAE812A43262637B8
:1004200022323151125723472315411435353525D2
:1004300016FF3FEE0314B1B1521131513331312166
:10044000FFFFEF8105131306FFFFEE030A31213191
:1004500033A1EF3FFF84102222221317111518E356
:100460001FEE8419935548782147144714661336B4
:100470000EE39AAF832213815547393545548431B1
:1004800053531435352616F31BB682253625162907
:10049000222292972144231145236672717102E34F
:1004A0001EA60728768584343131137729211169F6
:1004B0002563343333148467E11AA68328228389A1
:1004C000894835353586881186219421A5A293A2C5
:1004D00012E13A0EA5208858343535354A4847137D
:1004E000353145317666C3300C951EA36557585893
:1004F00058686767676711858585C779CE901C62E4
:100500006363626262627152336552332541108EB9
:100510008928F2F29242834283158398493179897E
:1005200029410F199B9371140C840102FBFEFF8576
:1005300003120CFB3CFF92095244444404FF3CFF6D
:100540009A094335354503FF3CCFAA094335354564
:1005500003FF3FCF820B433535356401FF3CCF911C
:10056000094435353504FF3CFF81094434263604FF
:10057000FF3CFF810B342617365501FF3CFF8909EC
:100580003535354504FF3CFF8B0B422626263604C5
:10059000FF3CFF920B342626364502FF3DFF880BB9
:1005A0002232262645033000000725218698A732EF
:1005B000A142A552A34592F6F6F610F52004FFFFDE
:1005C000FF0000FFFFFF00000010FC8D263223F12A
:1005D00032F1F0F0F0F0F0F0F030312146250F115B
:1005E00040000081360F250F340F330F0F0F170F08
:1005F0002175F340F250F1F0F0F090D25157252CD4
:100600007C380084236472C14C4C6C12271BF1F0BF
:10061000F0F0F0F0F050030008C006306F8F199230
:100620004B3319213468331653145C7F8E6E2219B4
:10063000612256220990C00428597886D5884277CD
:1006400024882358878685C5D2E222A122793C8D51
:100650000326456472819453334134351214334672
:100660004558575722F93C8F0224364554234624D7
:10067000111413372512233235494848FF3CEF0245
:100680001536452416171412143212024136DF02B1
:10069000244318151A0F215D65647322261614224F
:1006A0001A1313413A1F0821465128341A3C3A2C98
:1006B0005A372516270F27180841320C192684139C
:1006C000761239778887351B13183C76493A1237EA
:1006D000126138002826A212841772A8873912578F
:1006E00076146211E511A811177708000C2762151E
:1006F000B1B5B5E6F610F51125120F351132DB1341
:10070000E401F30C02191B1142634435B511743432
:100710006A22DA2104F70DFC141131317214A82178
:10072000E941017B18FE160BE2D3933197077F3A1C
:10073000FE060BA2A272852101FFFFFF0000FB7DD8
:10074000FF0E07423122047BFCFF0D0A63A2A25573
:1007500011FBFFFF0E00FBFEFF0D0823223113FBF0
:10076000BCFF0D0B3262813238017B7EFF150962BE
:1007700063222601FF3CFF010D5363521621110332
:100780007F3EFF050B536322311306FF3CFF010B35
:100790006353623512037F3CFF0509C292626A020D
:1007A0007B7CFF0F0B61A2935439017B78FF0E090C
:1007B00062E3D2A607F7F8FF0C0B52A3923711079A
:1007C000F370FC160F516394A3273C2103F738FC08
:1007D0000E116293A3923612873101F761F80E1B56
:1007E000218272636578F610A11111131303F709C2
:1007F000F21116526363F3F611F38033D124FFFD37
:10080000F6010C31221334B112FF0DE7011B312226
:1008100022C3D423E143712231353505F77DF60D2E
:10082000102123222258F16013FF6DFF830C223226
:1008300031441A26FF5FFB040864918112F76DFFB3
:10084000100F3222224354236103FFE9F3010E719A
:100850006262A3312113FF2DEE011B211332835558
:100860005145E213B121222202FF7FFF850221FFC1
:100870006DFE0111211323436431529303FF5DEF99
:10088000821422323244172826222222FF5DFF835F
:100890000C213241440F12F7B9E60D19215362447D
:1008A00075F160612311171707F709E20D2512543E
:1008B0006244E5F611F33041F130731173115511B3
:1008C0000BE761A00B1961524544533867575868CC
:1008D00011F501C7711F041A634327472C67E522EE
:1008E0002737134222C7301C0327367682B1325194
:1008F000141516122921432191C1F1F0E002479805
:10090000BC041DF5F0C06162422634323811215515
:10091000C1016F18FE021FF2F050625136421249B7
:100920001121473384E102CF30FE241363112717CE
:100930002C163334B2017F38EE1413783D4376958C
:1009400022A2B231014110EC141D3E7E21C7F5F008
:10095000F0F0F0F0F0C2223201C193EF5A05637358
:10096000017F9EFF0B0953726172017F9EFF03039B
:100970006205000000920FA381A2F150F15001C363
:10098000FEFF8505919404F3FFFF8505626202F77F
:10099000FFFF8105122302F77F8EA20B538464565A
:1009A00084037F3C8E840BA2836648A4027F1CFFD5
:1009B000900B11825593A2027FDCF7900F729492F4
:1009C00022221213017FCEF788136361934363627F
:1009D000222232013FCFF3831B6262535362626271
:1009E000535353115111017CCFF79B1932223122FD
:1009F0004253635323222232013DCFF7881B2253F7
:100A00006243445343645313131313033CCFF395CE
:100A10001A526352444444435543444444447D8EF3
:100A2000E7891B132362434484749583444434351B
:100A300005799EE78C1D61526362344444345553FA
:100A40004344444404799EE7941B53535344443431
:100A50004454535353434404FB9CC7881B141362F0
:100A60004444845353534384848405F33CCF921B02
:100A70005353624444443453534444444405F73D7F
:100A8000CF881B31223122134253535353444444E1
:100A900004FF7CFF820F4335452431313102777CDE
:100AA000DF881D22926222437915132222222222FC
:100AB0001303733CCF8C1D61439493342A494453F0
:100AC000534444343505773EFF8417221392711145
:100AD00013132745445304731CCF8421614344847A
:100AE0008474261B327575753535354405731C9F26
:100AF0008C1D61537485848445486876493512326B
:100B000002F7BC8E841D2213343535353571715290
:100B10005357676606F3BEAE9415433531F1C07185
:100B20007152536202F3BCAE931D444444354534C4
:100B3000716153434444341102F39EA6941F5244FE
:100B400031313171A1927366137221A2A202F31C9A
:100B500086931F442546444453777A227531A5B6BF
:100B6000B5B5047B18CF9719B6C4647A3931757559
:100B70003535354404659A9E9125A164116541611E
:100B800023616621B3A1A2A2323535350561F8BED5
:100B900094295182417431763165236511A736312C
:100BA00031222222221303E3382E8728A1835548BD
:100BB00038212622263225312612182B3A453517A0
:100BC000C3304C8726666747494959282128211197
:100BD0003811383A2B142817D71CEF83242114140A
:100BE000442446454341234333423342251413C32F
:100BF0005CDF85167657392A364535342536355328
:100C00001CF787256154448564863451334124336D
:100C100024331231323401471CC7822A17180F724D
:100C20008554319333422343424242334332535734
:100C300067771C868F269193238131B17224832399
:100C400083338233734353546B67100485245353A7
:100C500073A15191F110C1B5B6C6D4D4D4D5E45422
:100C60004F14479517D1D1D1B174655757879595D2
:100C7000056F18868E1BE1E1C12191A69797A6A664
:100C8000B5B5B6066D18869A1B71F2F110F1C2B5B2
:100C90009697B7B5B6B6077D1C079318B1C21181F8
:100CA0007556575777C6B7A85F1C0402230F0F1A53
:100CB0002C123C11276326633563448351C50647D4
:100CC00011848222171818586867877341472338A0
:100CD0002E4F6C8A98C3100C892961574958778523
:100CE0008683416513487D111C371211857505E314
:100CF000080C99276657657685C2416531145622DE
:100D00000F7411258B949404F30CCC912B13212692
:100D1000263555715195243623171C71151121372D
:100D2000444404774CBC8C1B6256769453F13432A5
:100D3000323E412147027F4E3E841B44445422E10F
:100D40003432225F31122142017B1C9E89191244E8
:100D500056768593C236221F226D02730E0C9127A0
:100D6000132166444464314255313435230F95656F
:100D700097A38405F30ECE981F260FA1B133451318
:100D80000F1441272345444404F30EFC911E132104
:100D9000261813434154422336230F8575F31DDC77
:100DA00092251231162222313151721122360F361C
:100DB0007722223101F34CCC91231421261636449C
:100DC00074E1245212126D143B454305E70C049064
:100DD0002144353E356532B324C659622F2736C6C5
:100DE000D404E30C168225234248293927162621EC
:100DF000A2F6A6BA3F3235421201E31884842B656D
:100E0000565747676795C364336524753B5135630F
:100E10004462546104E3180C873273655756677651
:100E200075D43231432323341471123717244532D9
:100E3000444253C7100C842B25271748596867C7AD
:100E40002465524415512216112C2B285104E71DFC
:100E50008C85293325261A333175111475421142B8
:100E60006523363A3A216604E71DEF8C1B341517CB
:100E700023323186A5424223132302673D8E85210A
:100E80004314176772713582551433252B6A6684B3
:100E90000427100C852C63727161C142A631E95898
:100EA00023133414242A42A9A7A3A3A30110248244
:100EB000235D7E4A8D24F7F620F4F0F0F0F0F0E0A8
:100EC000859503C1F0EFFC010B7F1CE79D0B91663C
:100ED00066768404711CFF9C0B747666859302F120
:100EE000FCFF830B757675266401F1FCFF8F0D7591
:100EF000672615116401713CFFCB0BA2451726260E
:100F000003000010C411F140E7E8E413B1C501FF8C
:100F10001F87051B812351514321113417726A5BCE
:100F200014017F1F8F091F3132F1109211323241AB
:100F30001246392A1322013C0F86132D625372F197
:100F4000F0C0819253C14321342422522312635BA7
:100F50001413023C0F8E0C2F41F3F0F0B0F15082CD
:100F6000F14044321321323112361322132312027C
:100F70007C0F861B1D43F1F0F0F0F0F0F010F160F3
:100F8000F11241027CFE872307717271027FBEFF5E
:100F9000170771112201FF3CFF1A033305FF3CFFC5
:100FA00009097153536302FFBCFF0C0761514307EA
:100FB0007F3CFF1B0995445483017F3CFF080FB120
:100FC000819343545371017FBCFF1E0762191403C0
:100FD000793CEF1B1172C1B1834554E37101F91CD7
:100FE000EF2A0F212234848493A1017D1CFE08196D
:100FF0003142128394644816454661C503791CC684
:101000000D1F43444484754875A5A6A58829124739
:101010004808FB1CC7111B43445493A29393936548
:101020006614511103FF3EC701131F625354641429
:1010300061847505FF3FDF010F5344543322223191
:1010400001FF1EDF01131713236786743571310109
:10105000FF5CC701155344547262E29174756506D2
:10106000FB1CC70E1B1244543311725597A2837593
:10107000758405779EDF0C15816312321346446335
:1010800062B4017F9EDF011B4112233212423455AC
:1010900052533531310175BCCF1A1B713163217345
:1010A000753514161453433505F7BFCF0C0F3117A0
:1010B000131444534404719CCF1E1FA19364115414
:1010C0001264753545441335353505731EDF101B25
:1010D0004465355553435648582622221302FD1CB9
:1010E000C60B1F313635161114527898A6A6372133
:1010F0003649066138860C2DF181258126712671CD
:1011000026812591244214425866A697779806E3D3
:10111000388E0F27B1652631173117411642244208
:101120004848577666364907E3F28E1023927526B3
:10113000312241124311731315137236394906E3F4
:1011400071EF0F2234416616271116122412141261
:101150001813633231E3700E34188666174129265E
:10116000553475868595FF711E0000FFBFFF020391
:101170003101FF1DFE0D0551CA01FF10FC2A038A33
:1011800009FF1C9E1D1033CDD2C444353535FF00F8
:10119000800B41927454292E13263222433222149A
:1011A0003323243232242332313332324132323249
:1011B000413232014F00000154141414B4C64544A6
:1011C00012222332421612532422123425221212E2
:1011D0001A22121437212111121531711215318181
:1011E0001115E103004011495758E8C878511264BD
:1011F00044124315322125121243171212112F11D6
:101200001114274111149311129331D4042B088225
:10121000124343D4D7C767431244234111551143A6
:10122000361111121E2113111721311417911117A4
:10123000B126B107FF89FF851F53533335121413AD
:10124000312411215112114101EF9ABC0C23414468
:10125000445362316243421C1114131112222202C0
:10126000638AA20E416557A7834341433252142239
:1012700061111431321121111A2113117511111339
:10128000911122A1D3033388A40B4D251697C8785A
:1012900042462431126211A51111122112131111AB
:1012A0001112143211111115411111133111118242
:1012B0009403FB8CA60733212212274644231112E4
:1012C00032511211112115211113664A2571A19372
:1012D00002378AAC04331398E373525113A21112EC
:1012E000326111142116211117631738116262023D
:1012F0003B08A40641222282E876626413616311EE
:101300004454111111141B3111111C5111181131B8
:10131000111461A3A202330884083D4435A5E7B542
:10132000516241112243241211111C131111162173
:101330004527414211C6A59697073508040B31622F
:101340005383F610F41044B124B3BA17B234B35433
:101350006234646452454405314814112F83669702
:10136000E68651112161453512218E113381F1102C
:10137000C1C1B1B2023348D4103535A6E6F62272A7
:10138000522321211211152422131132423171816D
:10139000B162535303BF48E6042EA6B6138121134E
:1013A00031120F12111314445511212172144344A8
:1013B00044334AD00935432696C5E46252261318B1
:1013C0001411121612521221112151E25423A2A219
:1013D000027F4BF81D1D2213171512111311214204
:1013E0001113317202FF4CFC862A62331153221111
:1013F000713121114121113117111111112713FFE1
:10140000489E863C66271237111421115131314113
:10141000114131121111111112142213141631132A
:101420002114BF4D9C043762722211411425121100
:101430001211121112252111112121626311432170
:10144000237101774D90043F312243636392142549
:101450001211111212111215211211221142B7127A
:10146000921321624141A101BB4C9404474C667721
:1014700021221313211227121612111213112112F5
:1014800011121242112241211252131133313162D1
:1014900001BF4BBA1927321427121111141114224B
:1014A000111211121162F2405105FF4DFC822A32D5
:1014B0002225213222214111111141211211111134
:1014C00011122811F74EFE0435311322182216315D
:1014D00031111212111311111212111111111142A5
:1014E00011131101F76DA7042731131313235211A0
:1014F00033132312115133561235226604BBFFFAFF
:10150000010FDF2111132322B101FBCC9204370F0D
:10151000142713222311114213151612112311211E
:10152000112361651616214241A1010000008A576E
:10153000F140F410D7E815E1153121126131211184
:10154000121131112341511111151181111711B1CE
:1015500016D1E7A72111274125259505BB5BF18110
:101560002913EB2111111111111111121113124331
:101570002163A3512205315218853F74564997744F
:10158000611121129111212112212611111571A32E
:10159000A3B372311142264542110133D013064DD7
:1015A000F2905821131111462112211131223311C9
:1015B000111211711111112131211322163117232A
:1015C00011216512A21403254012835666761281FA
:1015D000125171242221116141111111442511115F
:1015E00023111B213121B5B5B511B31111B1121160
:1015F00042132321133731020013845789178111B5
:101600001442411523824212111221121513111294
:10161000211117111212212B1121F1F0406A5B9751
:101620001285131343242304034012014F513172D6
:1016300031232132333512227131112112912121AE
:1016400011E11212D2120F0F87982761283121362B
:10165000324152410200E192883C379354242227C0
:10166000351D1311121712121D125DFB7053431317
:10167000481315322315282500E31283342129123B
:10168000151B1211121D220F242B2B2BFB30170FB1
:10169000180F11130F11198427380119F1F0F0F008
:1016A000F0B00FF7F0F0F0E001FE83FA22050FF33F
:1016B000013F00FD420B0F21F1F11001BF631C102F
:1016C000165214789694A463635413428F710C07D6
:1016D000214151F2F02054586463635341732174E3
:1016E00068050F280E072B2314F330F1F0407381A7
:1016F0004481D3D393317311667477160287288E91
:101700000B2F6364E412F1206172515453636172D0
:1017100061722212126273676507A72ACE832C17A3
:1017200027281C1F141614262418252824112543A5
:1017300048124163623321CF0233441272F290F1B6
:1017400040428312219242424251321221324415C8
:101750001134160723A4FF031EC2B2D1F1A0C26246
:101760006381443221623233201CCF0B2D9281835E
:101770007382F46011C37361636193549574363559
:1017800044214101201EC70B29E7F5E0F420A342C4
:10179000413432134183838575859311B101269AB3
:1017A000EF0327127496A391D383324241329215EC
:1017B000385314333131012008E70F3AF3F5F010B4
:1017C000F320F320C251A342953211225131163138
:1017D000424442254155537121E71C86092D55C2CB
:1017E0005352354611139125A1B5267145617351A8
:1017F0002171412101630C8E062F93E4C3A4A184BF
:10180000135122149232B442131151623441849321
:10181000E101631CEF042AB4433151339132616614
:10182000921191551194137144151161238CF70491
:101830002FB4A3111143C115911441427331127297
:101840003243323412122935012304E30644A31132
:1018500051513133C215A155511331213111743217
:101860001172417422116411115741758511822141
:101870004300C3093F4451237311637133838824A8
:10188000A11491221263417441651212441123374D
:10189000421681B604C3019311359194F420616915
:1018A00042222124223111464155524433831113DF
:1018B000544322A203FA4992032DA15253F310522A
:1018C0003881332231724173E242C276232332429D
:1018D00003F2409208378112817444A49365114544
:1018E00032425643633174429152C21353111283F0
:1018F00032033308930437413444C4F410A35195A0
:10190000515531512734152221172351C5D2227345
:1019100094230321008002293D3D1B221B611E519F
:101920008E6E6F0F616FADFB13E2E6E6062141801C
:101930000445C3A59618823571171111411521224E
:101940003126262852172151195229612741E14198
:10195000D142C2420131612A1C3B83B51111A1A6BB
:1019600016117126441213322262121241137111A0
:101970004321721391218201F161021C39843512D5
:1019800033215113411122113123212116235736BE
:10199000215C311216A1829291023160820E2D7467
:1019A0006657AA1B636F2C61353126221632667D7D
:1019B000AB1321B35202B82CC20C1FF1B0541192D8
:1019C000747575C4D4D3D397877909B8AAEB101F5F
:1019D00092565743319484934435534335353505F6
:1019E000B8AAEB051F816557478494938354344408
:1019F0004435352606BDA7EF821E22324181324191
:101A0000414412324414232222B8A6EB051F9165EB
:101A10005747546463633445534444252606B8AE9F
:101A2000EB111E82665743445453533411525344AE
:101A30004435B8AEEF0718816656483455434444E0
:101A4000545313B88EFB081AA182565734354544B7
:101A5000483868B731B88EEB0722323165574744B2
:101A60004553445815415738353535B82ECA1329D2
:101A700071665733454453B47541C41492145214DB
:101A80004215511501B82ECA0F21746647345553BB
:101A900043C4C4C414741434293909B82E81052DE3
:101AA0008174664724114414214494A423431B0FDA
:101AB000330F320F321707BC2E91051F5134161702
:101AC0003454534395A394945B3C3E0DBAA88B12B7
:101AD0001F5353C3D44381843144454344B5B5B502
:101AE0000AB8E88B1221816657C3C444814381310F
:101AF000214131886A5B0BB8AC9F0721916557473C
:101B0000842551335183445453F4104406B92C9B1B
:101B1000041F61422557938394848484936674667A
:101B20005708B82EDB071E81745657443445448449
:101B3000A29483442626B92EDB0A1E5144645344E2
:101B4000535393837411391617173C0C9B051F517F
:101B500033269F8897761297B597785748390A3C6D
:101B60008DBF0D1D31251757484837115766572827
:101B70008231013C0CBB0C2533161779985721A7ED
:101B800096B6771117435353441202B80EBB0B1F7E
:101B9000F110645753444463A6B5A68762535403B7
:101BA000B83C9B121B82655675949363E26247664C
:101BB000574808B92E9B03226133261631355453FA
:101BC00053A2B18474C1451148B92C9B0A1F4235F8
:101BD000557594236193F370833957574807B80CB0
:101BE0008B061FB18165578484939397B58888C409
:101BF000B43D0EB82C8B121F71654785754441A208
:101C0000A2A2832A5B4C3D0D3C0C8B04234134265D
:101C10002688573197A6A6A69797C425814C0D7C98
:101C2000DCC7022071423535A2934341A222223102
:101C30002223341B7CCE870121615344355342114A
:101C4000626226263553D3D3D3043CCEF7101771E6
:101C5000629366757535353535B1023ECEF30C1D90
:101C60003112728455118444445353534462013EEB
:101C7000AEFB251B316221631233115353532222D1
:101C80003101BFAEFB1D057172017F3CFF27053698
:101C900035037F3CFF130D92834344536301FF3CA4
:101CA000FF010F71625353535453037F3CFF030FE3
:101CB000B1939445454564017F1CFF0F0982573A53
:101CC0005A077F1CFF0F0F11911111341A2A087F38
:101CD0001CFF110D911344483767047F1CFF1C0D36
:101CE000561165656685037F1CFF120DB1918475E1
:101CF000858404FF1CFF031162626252174158671A
:101D000005FF1CFF03116272713215153B6806FF57
:101D10000CFE04117162526334668EBB08F348DE18
:101D20001B1D52119111911182343116466B996726
:101D300001F388CE0C1D517353B1925321241366C5
:101D4000133E6C7904E3808C812C2321132316230A
:101D5000163216321751155152F4F0C0F1E2936564
:101D600021F08001295182327431A5E67571213349
:101D7000A50F0F0F11430F51AE0671F88281225447
:101D8000127212818366163652F4F0C0F210E4B675
:101D900030F08003295273416521761187F856A3EC
:101DA00032A60F1F0F140F328C0930800D032B51F8
:101DB0007361635263425541E6E7676128A5530F9B
:101DC0000F0F0F1C0A00003E022C62262352955270
:101DD000B362A362B351A541B541B531E646637E16
:101DE000824CD00136A71286323234223712225367
:101DF000225332535722A3319421A51155529426D0
:101E0000800010014662A3349532129452A42266D7
:101E100023242432471131A372936294629541873F
:101E200032942195215532173000001A3B616244EB
:101E300034353396539482657224337228747582D4
:101E400093729362855286518731093028D8213B9D
:101E50008152534412227543767283825532342361
:101E600032473375429312411232123221023A3C08
:101E7000C21933221344443221345344824423335D
:101E8000151212678372436235522742073EFCE205
:101E90000D28315344221244534463342221917259
:101EA000127212622351FF7CC8852043446521428F
:101EB00051341629432352146213717328C011310F
:101EC000434431A4D6C414243215323357429332DA
:101ED0008472346236424641087E60C10D2B121274
:101EE000C5D5C73318141333125112426245423715
:101EF00032382209BFEDD7011B536212231232225E
:101F0000222252523434063228C21E36441254243D
:101F10007643855366732413321523323833744263
:101F2000736235423822393008801E39D134633427
:101F3000267543667346731621835573398247921B
:101F400073925473656257520820400024384492BB
:101F5000555446245A545783468346534543464373
:101F6000465345A354A254836562411004103E2198
:101F7000A223752324232464158411129413B4110D
:101F8000A412A4129432A322B321E3B331A3419249
:101F9000640321B66B5524C58585949494949494D8
:101FA00054555404C31CC7871E6667675753535361
:101FB0007575756666666666655996041F57575748
:101FC00057666666666666666666666606CBB22CA9
:101FD000021E2727272727272727272727272727BF
:101FE00027FFFFFF0000FFFFC7060866563724FFE4
:101FF000FFC7050E12342443234323FF1FC7061CCB
:102000005612442333344223432343234323FF1EE6
:10201000EF021B222245244323432343232612138A
:10202000037F1CFF061C56123424432353124423FF
:10203000432343237FFCFF040E1344134413441330
:10204000FFFDCF8809A162716202FF7CDF88132146
:102050007171C1313131313101FFBEFF020D1523E4
:102060002213121303FFFCFF020816221617FF3D6E
:10207000FF8411313131214121626202FF7EDF0292
:1020800018122222121413131131111313FF3F8F50
:10209000011C2213221342112222121413222A3A63
:1020A000FF3C8F022C2626261111124224111122E8
:1020B0001111221322172217221722FB3CCF0220D4
:1020C0001213131317171717171A171717171422A6
:1020D000FBBFC7021C2213121313156322442234C0
:1020E000234422FBBFE70213222212135D63521323
:1020F0003103FF9FE7041444443413315313413434
:1021000013FB9EE7012813131313131347443422C0
:1021100031223122311232223122799EE7052E33CB
:1021200035354544343535123222312231222113DE
:10213000322231224121791CE703323535353513FE
:10214000351434223531113351833431353125631F
:10215000223171317F1CC706266676352111346124
:10216000325133228534311173127285391EC703FF
:102170003A353525216331622153313344213126EB
:102180004125412521111532163216321622391EEB
:10219000E705385353432171225111421A33532416
:1021A000241425162313121314122411142232336B
:1021B00018C6063B626252D11131B3432232171264
:1021C0002227536111427215831211733373939353
:1021D000A30207300C4D17F110B527F1F070C2C102
:1021E000B1B202FFF03C300104FFF3FC10034104E4
:1021F000FF7B3C120B645465344201FF7D1C0811C7
:10220000224955455555645404FF3C9E02175344DA
:1022100054448494935353445403FB3CCF051D31E1
:102220001214534444444453535353535303FFFF32
:10223000FF0000FB7CFF050F21135853443431018C
:10224000FF7FEF810B131347313101FF1FC70413C9
:1022500075766466115412939303FF9ED7881431E8
:10226000314444446212112411FB1FF7051112136B
:1022700044755547224401FBDEF7050D2212181361
:10228000138304FFDFFF04033302FB8FFF060E21DD
:10229000128434691293FFCFFF0C037401FB4EDFED
:1022A0000617211B1337418195B231313101FBDF14
:1022B000DF060F1149334131313101FF5FFF040760
:1022C00031657201FF4DEF0412313171316197A315
:1022D00032137B3DCF031F124A71713131312635E4
:1022E00045251421263505730CCF082B1232459352
:1022F00084342226227531669912B53514111511D0
:102300003505F31CDF091D6145443444353522355C
:102310005978283231027B1DBF051B1214433171DD
:102320006212322136595815047B5E8E0523221322
:102330005313312526267113911591337575750642
:10234000FF1ECE01150F226613A57B93433535067C
:102350007F9FFE080D222212457876047F5FCF040E
:102360001531222221236575453535057F7FEE081D
:102370000E222271313165427B5FFE051912144332
:102380003122222132413452B6017359EE08222201
:102390003145747143514242212132254258F52082
:1023A0007119EE102231715521631272128212716D
:1023B000137189A7B693751CDF0C23714212321674
:1023C00042153239495767753531313101715DEF49
:1023D000031E41113143131B2B352527354553630C
:1023E000317059D7032D111252311125443643163D
:1023F0003E394849121436353545726103A04AD634
:102400000333235164556435472737333324336707
:10241000576A6B131173135417173605A0489204AB
:1024200041444411112411451234373737242834DC
:1024300018441744263E3D4C4C2411451312641594
:10244000730988A094853A32326241312271421276
:1024500071526191F110F1F0F01061516151A2F1EE
:102460008024112888AE11F512F130F110F110F12D
:1024700010E2FFFF798000FFFFFF0000FFFFFF0079
:10248000008EFFFF880B7111512181018EFFFF80AB
:1024900000FFFFF78301013C8FE3053022323162F8
:1024A000535453343525232523252335123612362C
:1024B00022443261388EE70D3062135313532343A5
:1024C00023341335133513251415252A15172736EC
:1024D000538ACEEF062294351318131813130F19CD
:1024E000345534252322228BCEEB012618181818D8
:1024F000131313130F2636114335162722321138C2
:10250000AEEB07387515421523162316241515153D
:10251000251413131313111123121313131323363A
:10252000798FEB052843444444312222161B1511B0
:1025300013252A161313133311BA8EEF0F291133F3
:102540001123122322221223121339393333232564
:10255000233201BA260D042D4414272627121423F2
:10256000133321332543445133526467676704C3EF
:10257000201C1725A2A2A393A39344734373447210
:1025800035724536366501EE619C0E252235555370
:102590005445164216334432352236263644017DE0
:1025A000435008333131312322141327121255437B
:1025B00036453555343635223622365252012441BD
:1025C000B21339915153635253536334452626361F
:1025D00026123314312545254525352A2A6812024D
:1025E00024C1120B3FA131B1319213742445352619
:1025F00014122322131333123184846538252726BD
:102600001717182706210010233E329124943475A1
:10261000360F520F510F31112326131111A315A597
:10262000159514843355343626330000094711417B
:102630002132226315A515953575365617112818C0
:10264000110F1C1A133613151523217314416555E8
:1026500055073B2880053411327234941595349413
:1026600053A321A4218489128626841431556545FB
:1026700065FB3F8B051A1122432114111E4531C5FC
:10268000B54651F1F8BA052EA14141231141241359
:10269000314412453144313531312252536343E1E3
:1026A0001B8A022DF123316123215333F46014116D
:1026B000443D3D1676317531B6A606719CA60235AD
:1026C000A29264213324142415153414341457575A
:1026D0005715518414113144133503791C87023581
:1026E00062622321531434143414341434392915F8
:1026F0001515253363343545254506FD1FEF021BAF
:102700001223222239393914141213111102611CB7
:102710008702373391D274423313412514151515AE
:102720001515151B1B2A2A15641554164535066107
:102730001886032FD2C4B476213652264425352676
:102740003516364C4C4C5B145624B50421A082033C
:1027500029A59687B9B97A313923215745333329C9
:1027600039587FBCC807342092062B555638397D1E
:102770005F19651533633671653326364C5C7A987C
:102780000520280205366C3F0F3217390F420F41E2
:10279000194637554255326522662393E719747FEF
:1027A0003D280A02043B29414C3C3D2D2626552458
:1027B000143214153227152336153B154A1668179F
:1027C00086F72005294082033B55383934341415E7
:1027D00046131F1813171334111B131B1B132A4EF8
:1027E000126C217A22A70220008604278A7D6D4F71
:1027F0000F510F510F520F510F320F516E5D6A0979
:10280000B629C68518636262626666569787785AEB
:102810004A7300318125171717476B5B2E1E0F1166
:102820000F0F130F111C1C2B0B39F3BC83213535F3
:1028300025663351442B3A3232323222222202FFB1
:10284000F33C83154232424141314132424101FF62
:10285000711C021864735354453614215554544561
:10286000F7F91C0E19225354532332322353534584
:102870004505F7799E0D192353635244544344533D
:1028800044442506F7799F0D19226353535322229E
:10289000222243353506FF799E011B53635244447F
:1028A000124135133153442506F7799E0D193162D3
:1028B0005353535353444443443505F77FFE0C09A7
:1028C0002353434404F73DDF0C10222322472412F4
:1028D0005353FFBCFF0407535323077FFEFF8207B8
:1028E000163A11077F7FFF8207124B3101FFFEEF7F
:1028F000080434F1F7FFFF0C0101FFFFFF00007730
:10290000FEFF0C0A2262A11371FFFEFF08042131B1
:10291000FFFFFF00007F7EEF820C161E6631313113
:10292000FFFCFF040853431112F77CDF0D126153C3
:1029300063331513131313FF3CBF0515535343247F
:1029400056535343313101E7399E1B19625253628A
:10295000838593935343252606E7799E2416525385
:10296000524435355444342517FD791E831D3131C9
:102970003136442436454444354455630379F31CC9
:10298000851F5353434444242727232332232727D7
:1029900036063AF23C010B17172636A80632FCFF22
:1029A000040B57576676980665FCFF030B5757666E
:1029B00076580689E8FB061F6767768698F630F139
:1029C000313131313131310113C0F30525545454C3
:1029D000E427A326F340F240626262435453430467
:1029E0003788E3032331F1A0639362F330F230A21E
:1029F000A2938394939303679AE70520535353A3B9
:102A0000424341A3A253535343545353EFFECF01C8
:102A1000151313235222231253535304FF3EDF0591
:102A2000151323225263623331313101FF3FFF021C
:102A30000752635203FFFFDF0405313101FF7ADFE4
:102A4000021531125363C2313131313101EF72FF5E
:102A5000021922323121511173725231313101CFB9
:102A6000B4FF041241B163736353131323DBBDFF3F
:102A7000110E61313151121313F37DDF1A19333105
:102A80003131312222222222222202FBFDFF0D07B8
:102A900025222202F37CDF121B43353536452322E3
:102AA00013131313131303FF3CFF010F26363535A1
:102AB00035252606FFFFFF0000FF3CFF860E625310
:102AC0004444535363733E87191974443455133582
:102AD00025266687795A0C6308121B20658788783B
:102AE00079998A7C6D122D2F122C0F1161481A339F
:102AF0001FA5878878B9A6B5C475226322631156CD
:102B000009392C8B3315A4878884757575C4C4A6C0
:102B1000083F8F872011A29393F3F0F0409608FFAF
:102B20002F831E0B74A6D6B8B908F31CC71A23212D
:102B3000411151111121133166847465655648386D
:102B400009531CC3081BF1F0C0A29374948483B48E
:102B5000B4A587080300E002292B3B3ACAC9D9383B
:102B6000A137119136B334C422E685837405380C3D
:102B700000012E1B1B1B1B2F2E2E3E0F330F430F4E
:102B800012210F430F340F520F52BEEFF38000FF9C
:102B9000FFFF0000FFFFFF0000FFFFFF0000FFFF3F
:102BA000FF0000FFFFA39A0D81521152612101FF26
:102BB000FFA38A11815221516121515205FFFF0368
:102BC000841951526152431221635152626101FFD3
:102BD000FF3B850B611181422201FFFF828D19515C
:102BE000615251525233614342527101FF8F02AD23
:102BF00021515212515252345243221153712155D4
:102C00005202FF8F8A8A2B81522161412242522136
:102C1000422161121211623113534291027F8F20BF
:102C20008C2D713123624122625121355121314570
:102C3000226142226261D411027F8AA0982F511131
:102C40002251216131765111322251116144743285
:102C500056717171D1027F0882903F51612151619B
:102C60002151326341523113514251444262423246
:102C70006361417161D141921292037F0882874B57
:102C8000512152513151122121524122325151319F
:102C9000134142623332634251F230814152312159
:102CA0004332226631037F0882813F5151315133D3
:102CB000316121336131325542514432629362B203
:102CC000714133E12322138333C302B9C08299389F
:102CD000517151924391411731524125521363B1C1
:102CE000B151822272112313A11131E3250102A8EF
:102CF0003F5151827121516182311321515144421E
:102D000062425153C1C1328152312413C132F33175
:102D100003210B12A73F611152615142424221111E
:102D2000114131123152435162B16251C25191226B
:102D300062428442F30229102298415142323251B8
:102D4000517161516117515242445222A2E3314103
:102D500092515122133131429234F301A882229AC6
:102D600045815221614113722182111211121112F7
:102D700042131262725361C2924211221372419342
:102D800042A34102280892A94712516211613144BD
:102D900052624132125142324542523442625142F1
:102DA000D1C23332421262328342736102200882FE
:102DB000AF4D6241616241613244511151427151E2
:102DC0005152524252334343514361715151C251A6
:102DD0006241A343A211F23001300CC3943FF1626F
:102DE000714363436322218222753273232161443C
:102DF0005334641131844183417144814301300C67
:102E0000C3A0375173336442644363117721673140
:102E10006652635263436324643364415632063816
:102E20008EE3842393841461272A39571294939351
:102E3000938375655607309EE3852BC3A411343206
:102E400013165131142239774554534384846566EF
:102E5000073098E78624D3D3D32491E59B1A7126B3
:102E600091444453444435257118C68523B1838465
:102E700084C4B58727241674C4C4D38484740632EA
:102E800018C2873692842451271231463132564176
:102E900011C722D3C3C4E373812581258116810222
:102EA000288B8B37E1B4366345833653134463383C
:102EB0006347331157571452484444443436340658
:102EC0000000009342F13054B144A344A344433280
:102ED00035541957221497241293549354934484CD
:102EE000458435853575018000B82E32D21312E144
:102EF00012F210F526B313A422B2E2E3F420F41088
:102F0000F576B23840A42B7122614472228412A358
:102F100066B3B2B2F23014B114B114B104A6689021
:102F20008D33B1A153318422742374237432433A14
:102F30003A23353374237423741455052C411691A8
:102F40002EA1928474337433744382337432743296
:102F50007412767512545858088A00A832E35462E5
:102F60005471537162614462546254624443569B8B
:102F70000F420F42335A5992808F2C71625434425F
:102F8000445133614242948475562693AB0F2141DC
:102F90001DEB1003922842548484117411D483844D
:102FA00065361224848D8C110F22F3140394216151
:102FB00042555454A48235222511B88463848D0D62
:102FC000731CC38D2B6133858454114521453153C6
:102FD00011464821B515821555150E63188A912A98
:102FE000119174A5B6A6A6365364425512595B32A8
:102FF000465116544CC7100091248181B1A2B3B23E
:10300000F2824372E513E4E7F73271A3DF3304BDC4
:103010000FA1F410F110F16005FF0C049811A5B791
:103020007D6F3F5D6B7B09FF0C96BC0DB57D4D57E9
:10303000587506FF0F96880FE5976F4D485767053F
:103040007348869B198296685B9B9797A7667A79E7
:103050009907611886812F6A6C2731212722212741
:10306000623522313572537261D3F1F1F1F101040D
:10307000C0304A2771C152C2336341345441A3A3C3
:10308000A3A3835712137203BFEDB3061161524419
:10309000F460836577036388B21F1F423174226531
:1030A0006A5A9B8768898985B2B101638A060326BB
:1030B0004738295A274A488897B7963211C1F220D3
:1030C000F1F060080B94A232F110F1D0B1A2A2335A
:1030D0001213620F510F320F2412281128112511DB
:1030E00029BE0790C215C34F151D1525363544A6B8
:1030F00005FF0F129A0D9A8C8C887A8A09711886AE
:103100009C1B8356695B4C5C5B6C5A6B6AB7D30340
:1031100020080682474276347634452136342236FA
:10312000331436232D2316262316122323567256C4
:103130007256911591D5C5C4050000505925F2402D
:10314000F33044C332A63212A332E2E7E793858517
:10315000056478D60429D2D4C43424533643553276
:1031600083326262626282353535056018960629BF
:1031700023D313F212F212C211B29688695B6B7AF2
:103180007975656606719CA6021F95A3A2644829FD
:103190002A3A8575858484746606791D8E031F64BA
:1031A00063624262535363A6A6A66656484808F176
:1031B0003CC7051FB182A4624444354544342537D9
:1031C00049686606F13CC72B1B11425253534344D6
:1031D00034458474867405F73CCF0C1B526262132D
:1031E00031354344443445646202F33C8E1D211161
:1031F0006141213221326583949383859392110139
:10320000F7789E0F1F71A2A24358634344444411B0
:103210004211411201E7789E1C1BA1B2A2525853E1
:1032200053534354435311016FF01C1D1DF130E201
:10323000233F322223636311611151013FEB3C0CA8
:1032400011C1A1686121511251023CC2FF032361E7
:1032500044133123214281367118712F4511616267
:10326000023882F70621A2741461155111C3B57694
:103270000F226786A38101798CE7031D7191516349
:103280009285357C74655736557101791CC70321C9
:10329000F19071317266255C737575667695A31130
:1032A00001F91CC6032171727131716214214979CF
:1032B000A6B5A66676850409008802375333C2B1E5
:1032C000E3F340A2234A0F1A3414311191251481DB
:1032D00015957A8988484107090000024143345313
:1032E0003293E494711561142B0F1B25272432842B
:1032F00072766148622A731514743B21410B0B49A5
:103300001C82316354461D1912121145F1E0A1517E
:10331000222B121418261B3714411301010102023B
:103320003738248532E3F410F2821312450F0F2A46
:103330005C31418371F4E6966195625502310082F9
:1033400001331B3A4897F6E68811212A210F190FFD
:10335000235A237A2151F1308371C5082441408BCF
:1033600034411182317579796B6A5B178225C1F11D
:10337000807114129212128214943C4449009B32C0
:1033800071815283D29493A2A6B613C1F3F0A051D7
:1033900071341123422611133326A100B028F110F5
:1033A000E38341758A8513A141F1F240F250E14176
:1033B0004214BFA1019A25C1B242213222422132D8
:1033C0001283611391F140F25002BFEEA99617618A
:1033D0001231324241415232A2A202FFAE69011DB6
:1033E000131131132618181611161413131808FF89
:1033F000BE6B841311213221322122627201FFBE81
:10340000CF86152123223131222272627201FF3EC2
:10341000CF0118251111313226252636351827FF00
:103420003CCF8B157251536362626262526302FF3A
:103430003CCF8C19421142441162425453534344CD
:1034400004FF3CCF851F61331143113245242132E3
:10345000453511534304FB3CEF8B1E31515224116F
:1034600024123335351521233212F3388E9325A1DA
:103470006174551155214512746546114611663621
:103480004908E3B8AEA927542145214521452145E6
:103490001152633235113311232606FDBEEF841617
:1034A000F160313131323111131313FDBDEF91143D
:1034B00017132321324121121313FF38EF841C7597
:1034C000664611462126131214171313136F9EE735
:1034D000911DF15071411241125153123145445323
:1034E000037F9EE7861D3131717171412141124187
:1034F00025363553037E8EE3892511A171719131F3
:10350000713351253224134466146194033C8EF2C6
:103510008128536353435441A28383652248223850
:103520003219330F2922340AA2853BA29293134405
:10353000437243826171536115314429350F320F53
:10354000428C15821582132102710AA28131A3A235
:10355000A3223413721272226123A1149515756D82
:103560006E7AB912B21202710CC3851FB1929375B3
:103570006666669677696A7BA8A6A706F31C8781AC
:10358000211151536362625362927455381B4C7B14
:10359000E502F31C87821D716243445453539384A4
:1035A00084654788E801F118878829A2925314534B
:1035B0007311731263121291755637396A6B9A063A
:1035C000E118868A33E1E3D2845421113421452164
:1035D00085212182211183228431C4C4B5B505C758
:1035E000311C8530545454441143214221622341FB
:1035F000132251212271237153544435CF731E98E5
:1036000015413132716163B136566201FFB39C9549
:10361000097272527101FFBEFC850D313131818119
:103620007102FF9EE7011423122316272635352643
:10363000357F9EE783156262626262625253535322
:10364000037D9EE78E192272616262626252535359
:103650004444047FDFEF821122222222122213C36C
:10366000017DFF378D122322213212635344357DB1
:10367000FF378E113122222113636353047DDFF75C
:103680008E182222313131212213131313137DDFBF
:10369000878E1D312222122312221313D3C38431A9
:1036A00064047FDF9F820F22312132122222037DA8
:1036B000FFF78D0A22233121227D5F968E29312248
:1036C00031213222612244235223522352234323A5
:1036D0005223027D7D8E8E2122626212321213638A
:1036E000421154A1A292345102FF3D9E8D15331117
:1036F000931291B261626262027F5FEE821D32219B
:1037000022221213412144235233C131017F1FEE83
:10371000821F32211223221253621241635273F12B
:1037200010017D1DEE8E2131627131212223525311
:1037300032221123725263027F1DF6821E626241A1
:103740001122137243725272525353137F5DD6810A
:1037500024636241113212325232522253224324E4
:103760002616377F7BDF81176352621251222212A5
:1037700023222202FFFFFF0000FFFFFF00007FDF88
:10378000DF811623222113131313322222327D18D4
:103790009E8D2D13C4E36252445312514312516162
:1037A000124153635113415353037918879139449C
:1037B00044C5436323642446251413222213212382
:1037C0002523241144241431255435047918878A7B
:1037D0002B5235451563167313856914153949380D
:1037E00013666A176224047D3CC6862721132315BD
:1037F0002316332334193939668638132615240ADB
:103800007F5FEF8112132322221626352514F97FBC
:10381000F68914443516352662721313132048C2F4
:103820008422D6D7289118656E7E8D7C5B3C797991
:103830005C5B3C2008C2A0030F05FF0FFE8000FF69
:10384000FFFF0000FFEFFF8201017F08FEA315329A
:10385000725364557553A314D4067F1CFF861581DB
:10386000473358571344331364047F1CFF9B0F32B4
:1038700032535723337302FFBFFF8401013F08FE19
:103880009B13A73545575F4754B431023300FC9A68
:1038900017835D0F4D0F616F5F2847A5070040C27A
:1038A0008D21C34E0F220F1F0F537F7E3E2D1E0F03
:1038B000261F0A401CC0842B0F320F130F0F5F7698
:1038C0008593A215821673253E0F0F113D0B4210F2
:1038D000828333C4876B6B5C4D43377235722582AC
:1038E0002481258134532136534834580F425000E7
:1038F00004277B7A99B7F4F0F010F1B0A3B3F2F299
:1039000030F330F32004E31CE7861B666647291674
:103910002F3A6766273A252605F73ECF11173271F1
:1039200022242611626262525304FB3ECF011D1B0A
:103930002331313112253511625253535303FB3C6D
:10394000EF011D13131323F1613435636253121316
:103950001402FBBEEF011B13132331611218222244
:103960002212133301FF3CEF0A13613426546253D1
:1039700052132401FBBCEF011B131332A153252664
:1039800023132212142301FBBCCF011D1323313159
:103990007143251431132213135402FFBDFF040C8D
:1039A000312242222222FBFCFF020F3131314161E0
:1039B000342504FBFDFF020B313191312202FFBCA3
:1039C000CF0211713326552212131303FBBEEF12DF
:1039D0000F211B221322121403733CC7131B618394
:1039E0006538491844535393837466067338C60682
:1039F0002161523C898979493323246183C47575D7
:103A00007505613ACC0D25C1545B6B7685753624FE
:103A100023251545237526363505C1108404293D17
:103A20004E115B1C1C2C2B15152A24293438339875
:103A300079899808F9DEB6031945446422122313E4
:103A40002222223231017B5CBE84203131228475F6
:103A500075A2612343121144481C137F1EAE02233A
:103A6000161B132322223522122651884944115253
:103A700053047B18AC8434312222C413B113614146
:103A800022523221531221226223936B3644143185
:103A90003531080807301183948324A1179317A3A5
:103AA0009B0F0F0F7A9C17531852295111A7210011
:103AB000100F35F120F1F220C441F410F6173A0F3F
:103AC000333A1232D8B6417442745272E20209009B
:103AD000240425B1A384B6E7D719560F510F51AC72
:103AE000D8A7768694037159C40521656657486541
:103AF0005739393A3A265194577684044310CC0505
:103B00001B95A5A4549152A151E2F2E3E3F201C73F
:103B1000B2FF061373F24072727262131701CFBFC5
:103B2000FF150722133201FFBEEF011322221223D9
:103B3000121319111101FB9EE70D1B2212221344CF
:103B40005353433525364511017F9ED7051743430F
:103B5000443554534434717162017B1CC70E1952B1
:103B600093A293849393837575758503F33CCF1B60
:103B70001B5253524444544344442536352101FBDF
:103B80003CCF131743534444445344343526360240
:103B9000FB3CCF0F193153525344535453434444C5
:103BA0005402FF3CCE02193312434435145293742D
:103BB000571F5502731CCE111D53933431769482D6
:103BC000C485A877356262027B1CC7081F31537316
:103BD000564921929384271B4A11A2B1017B1CC331
:103BE0000C1D5293937555126514516586796A8A36
:103BF000077B5EC30C194363624344716172A1B5D4
:103C0000B5B5057B1EC70A1B113454444444848453
:103C1000746675655707F15CC71B21218226443500
:103C2000357552534444114638114607F19CC71C60
:103C30001B66172735357543443445575748077376
:103C4000DFDF1010211211F7F0301313FBDFD7095B
:103C50000DB73131444445037BDDC7051721384595
:103C60006262D2212239785607350CC71B2593672B
:103C70001216416A3255425512584C156666664610
:103C800008338DD3112B34863352325232524232A2
:103C9000121322270F12243392939304354DD71316
:103CA0002672839332713171316231423422451967
:103CB00031535343300CC32221A67898B6A6B6756B
:103CC00079796A11871177119707388EE3000071AF
:103CD0001CC71C21745766577675654639391246DC
:103CE0001146114608F7DDF708183122222231A1CA
:103CF000211213323141F1DFFF1D08839621227317
:103D00001CC70000731CC7181B573868757575559C
:103D100057383911374908751CD712231161524899
:103D200067758584554739251232124211037D7D0E
:103D3000DF0A1B31223464623231313122222222E5
:103D400002300CC3241FD1896999A6A6A69687695B
:103D50006A5A13671207388EE30C1DA2665757661E
:103D60006666757575756666660644C1308421C6DB
:103D7000C613F1A0A3946698848556598695A4022B
:103D8000F1EDF30A1B1192731136142332413D6297
:103D9000534405F1CBF60A15A373570F49385876EB
:103DA000823101754D92061E533435454463726667
:103DB0007969899788795A755DD3811F344534456F
:103DC000453426363535358594939302755DC78223
:103DD0002552443426261144444444545363661304
:103DE00062661302741DC7012C25143414536762D4
:103DF000727162A2935331433243234324323930E8
:103E00000D82063A7A89A89623622244226311A47D
:103E100025B334633114653213562412560F410F03
:103E200041384C82822FA2837585C5962C111D4C7A
:103E300016363526266344474646564556063C0CFC
:103E4000828C37624335C5C4147131122A3D110F7B
:103E500021110F2236392658344845482611063894
:103E60008C229234A28375B5B65661122324133482
:103E7000121129122C193427452655255525310CA8
:103E8000C09134A174A6B6C514B1133224138411A1
:103E9000115C135D0F6126723482347126710884BF
:103EA0009234A27466B6C51441612282231384132E
:103EB0006B137B18453653356334633573188C8B1D
:103EC00034623475B6C51441611243233911113A75
:103ED000134A182435223532443135FFBFFF84049C
:103EE0001213FFDCEF8212354654913151233231E7
:103EF0007FDDBF841444446341413161222232FF9B
:103F00009CBF821C36455432811331111131252258
:103F10003231F3D8FE851E61433535858476133200
:103F2000112411343521E39AFF921E828475717138
:103F300062232142211121121131FFFDEF080931C5
:103F400071221303FF9B04012C1314322542121318
:103F5000611212612231418342553447335713FFB6
:103F60009AC784207171223163711111311121219D
:103F700023497885E7180483345134357665264122
:103F80002641563158115A5C3E11251342342332D2
:103F9000443239E73007842F42251757173217422A
:103FA000175116511141122114575C21893672059F
:103FB000C7340685304435366623412242214211FA
:103FC0004314441372126253325722586CE7380E6E
:103FD0009F24A122713251336142423243328384A1
:103FE00085A3A363CF320CD30BD1D193948505FE67
:103FF000BFCF8107312131017EFEFFA001057F7E09
:10400000DF8F0D71714131C13101FF7ECE970F619C
:104010006161A1515252027F3E0E93128142C1B2A0
:10402000B3B2C3C2C37F3E1F8A1482733262635429
:1040300023374645793CDC9A1873B1B2A36395499E
:10404000592822323149300C99271191228132B2FC
:10405000411511556C3A5958585858585808453018
:10406000868827A11161318211A2B7B6B685757510
:1040700084B5B5A6761701E15CC38727F1F1E1832A
:1040800025454474716142841374692413511504E5
:10409000710CC3852DB1B1911183747585C58422CE
:1040A000845919513C25144133149204790CC3846A
:1040B0002571717152747585A413636A6A15646BF6
:1040C00032C5A506330CC3832F627151B4B5555A5E
:1040D0005B6B24641212A487169111237111159140
:1040E00007330CC78F3161525143134116354D7B55
:1040F000229421949777147123611322311301259F
:104100001CC7942EA141338126534D6C1344314476
:104110003144786613621362236113A77CDF9A1B14
:10412000B253494811152222223222322102A7FC21
:10413000DF8D1D6161722154484811151311111151
:104140001103EDFCDF9119613521121112131A19B7
:1041500013111103757DDF911D524417161127119C
:1041600017222222232213027FFEEF050F63117113
:104170003261313101EFD9CF891F2151425335646A
:10418000313132271422131313026D1CEF921E617A
:104190002565173414252A4125314557112569FB1A
:1041A000EF991263214421367352331B6D5CCF9219
:1041B00027521331841535292A11344444232614F7
:1041C0001223122302EF1CDF901C71221B283235B0
:1041D0003144114618322222EFDBDE8E1921613183
:1041E000511161717141322222026D9ACF912B439C
:1041F0005435311651146141524131313155132535
:1042000026141223027918C682356153443585314C
:10421000241333113164415731561486B675216623
:104220006613621302799AF6822544444534753147
:1042300021424161314311217394A292017918D630
:1042400082294553443511C2417431842186129527
:10425000A7A5A553535303F9FFC78311444444450D
:104260005657117505FF9BE701131B26213526358F
:1042700035353505FD9DEF831431714112144454D9
:10428000635213F918C6832B453434165341111267
:1042900062656889583197A54521451166077910EF
:1042A000D6843D4424262612C32111326141352192
:1042B00032391111571112774931772411331133E3
:1042C0001103759184892D53541151C11273173103
:1042D0003C12172137215918411A316A87087598FD
:1042E00020813A343612311341229332313363162E
:1042F000532822371228131531994851973832160E
:104300003080A183462248135723563364434262C8
:104310009326118227552911432212236313234127
:1043200013722951187117620080E30335934673A5
:10433000472658267617859C1911818941581552B0
:1043400023623163218475068008E38926F430F303
:1043500030F33082F1C121B1D3C6B596684B291B29
:10436000D32080812446F4F0F040C1F1F0F0E0E287
:10437000F320F310F410F4F3BE1CAE05216303FF29
:10438000BEFF9105132302FFBFFF85041323FFBF68
:10439000EF8A05122301FFFFFF0000FFBFEF860732
:1043A00031212302FFBFEF86093121222301FFBF04
:1043B000EF820B313112222302FFFFEF8103320221
:1043C000FFBECF8E0F3131312113637103FFBECF9A
:1043D0008A1332212222221244547201FF3CCF83DD
:1043E0001962724111424444645244443505F33C1D
:1043F000CF9320625363322132114244114235552A
:10440000443426F7BDEF881E2222222222321311C5
:1044100011111331313121FFBCFF8310736152231D
:1044200016111113FBBCCF8B1C2132636222212396
:1044300021171313444434FF3DCF031D21222212C0
:104440003252532331223112424403771DE784282C
:104450002222535353525331532253672153133162
:1044600013412161F31CC78C2D43444563524353D0
:104470003144315313531254225313531354210410
:10448000639DE7902884847554434443313131213E
:10449000322126362231222114E719C781284335DB
:1044A0003535454434C33432343234324348392309
:1044B0003423E758CF051F63536247585746484394
:1044C00053534471711102E71987812735353545FA
:1044D000442444B574254233423342736A7A320528
:1044E000E71987812726263644253534B58434419B
:1044F00024422432655B5B2406E71986822F264519
:104500004434253535C47441644264416522471101
:104510004A1123562306C71906842A5444263635E1
:104520004444545254424623473D16462557235788
:10453000D71844842A418191841451474632481740
:1045400045264525461114626767C730CE862A6323
:104550006353841541391416241335134413173348
:1045600039454464CB380E85255462515211A294CA
:10457000633117414858671293A41101CF713C9DD4
:104580000B723626476502FB309EB70DB29413546A
:10459000676503FF1E8EB30BE2146376B401FF1F41
:1045A000CF8F13B2B245143112321261017F1ECF88
:1045B0009B136294B2665535125262017F9ECF936F
:1045C0001572625373622223211342027F3ECF840D
:1045D000156262532363534434754303FB3ECF8C0F
:1045E0001922322213235253353583114104FB3EE5
:1045F000CF891B21232222132253343512F210318A
:1046000005FBBCCF8A172132516462531213376104
:104610004305FB1CCF862121232143116253839341
:104620007456467161171102FB3CC7891D23225243
:1046300054444453433456488711A202F31C8789DB
:104640002162446333114345848483847577798977
:104650001701F33C87991B535463431511163725F3
:1046600085B4B5A507733C8E921F5375669435319A
:1046700016473911676675656606739C8EA71F839A
:104680002541444144C11183A562272A393104736D
:10469000988E94215284A645626452746613639680
:1046A000638484750563381CA01E92B4A6C5455268
:1046B0001543358A854555442547309E8324464514
:1046C00055D424A2335312534C24A2A2B27171F1D7
:1046D00067303C861F62727131C131A331E53632D9
:1046E0005BF8F0D0024930BE8113B2B3A5A42565B2
:1046F0009BA8B7017910FCC40DE36C117C7A3106DC
:104700007F10FE820FF220D4789FA7E6027F70FC14
:104710008000FF733C890F413182A1523126034151
:10472000103C831B2E1D216BB7F6F1F2F1E2E2F192
:104730001001459CEF841993A3F2A0848393A3F105
:104740001071310171BEEF841575858493426362E7
:1047500022323101F3BEFF811162525363212222C2
:1047600022027BBEFF030E313112352616177BBEA7
:10477000FF811331121363526262323101FBBE03B7
:10478000991A312113142212190F330F240F257B8C
:104790000CE48125313131629264370F0F0F0F2302
:1047A0000F140F1117360530B0EF8820A321A4167F
:1047B000511B0F0F0F0F0F2A18121B13C0BEEF85CE
:1047C00018891329230F0F1F1F14111322C4BEEFC2
:1047D000540F2111111141214101FBBECF0615815A
:1047E000C1115111416191516101729ECF0F19F1B7
:1047F00010F1C0A1F2301172F170E1012018DE0950
:1048000021E1C1F1E0F1F0C05161F2C0E2D1E23149
:1048100011012020FE1B25F1A061F1F1C011F32050
:10482000F1F06011F17031A1F1012484DE2625310F
:10483000F110F1D0F230E141F1B0517131C161318B
:104840003101750C02812C0F0F0F0F0F0F1711176D
:10485000110F0F1F0F14130F1126121A1CFD2F22F8
:10486000041DF1F240A111F130F1F0F080711171ED
:1048700002AD0F330A19C1C1313131F1C0A1F1903C
:10488000B1C2022D0F330321F2D0343535353481D6
:104890005571D2C39495B35201240F130B29F1F033
:1048A00090B416171726B674517351B3B5B6276175
:1048B000411201314E52181F15518648484867C5AC
:1048C000C47351C384758606B18EF00E226417310D
:1048D000783544531261D49251D3C4251617F08E03
:1048E000F915209638414813133271859463218459
:1048F000111323308AEB0725C296878788A6465175
:1049000013D3155193835443447401382AFA102366
:1049100056655797A623A131B3D39151E251811126
:104920001303380EEA112B2431665657572352329F
:104930005241F32043C1F220F351536402382CE278
:104940000D2B4154666646519614A222938531E29E
:104950009241D211554768063088F20C2691941185
:10496000A5A58741E6E613B522B5C4D3C3423435C5
:10497000200AA31B29F36571E696979723A23112AB
:10498000B28341D2B39617619807210EB30525C2B1
:104990009687D6576622A2933571B5C31471747584
:1049A00095036128E1152096787A69E3E2D4B28410
:1049B000133141A3475877E01861032B21F140F1EF
:1049C00090E447392A2A7A224311A38473516567F8
:1049D00058073018320A2F51F1F0A05281F310130A
:1049E000E3D788888813232121F4A12371B302AA75
:1049F00058960B1FF1F092C3D4D3C3A275857321CF
:104A00007192A302E538960727F1E041716311A383
:104A1000A293A293653363512253319303F17BB682
:104A20001319F170F2D07153218242312172013B8E
:104A300038960F29A1F320A36142A121841381128A
:104A40007183248121619393033778D70C1FD1F5AB
:104A500013F1108291723131317161627201B73C90
:104A6000CB05212131A1A2A2A24353116143746558
:104A700066273106F32EC31A2353222222626321B2
:104A80001182342111B4257196A706332C52121FBE
:104A900052D3C4436D8BD3E3C35481A223618406F4
:104AA000B30D020A2B5234757151332646F420A3FC
:104AB0005243C1649114F1F410F506330C08152C1F
:104AC00052C4C4D4430F2468A1254182F420C513E5
:104AD000B214A224911627081C1B2EF320F310F504
:104AE00010445152130F442221619471F420454522
:104AF000544487101C2311F1F210F1A0270F180263
:104B0000DF01FC1E0D510F0F0F715402FF03FC1B40
:104B10000B490F170F8508C30E8C03239484732150
:104B20001161223131F1F0302C0F260F3406430091
:104B300000033743234413351434454435352645A3
:104B400045342182558373734C0F150F56730643FA
:104B50000002013A351435242425246424552564A3
:104B6000245534852575357535453F0F330FD6C827
:104B700062C3CA02862C41533244323442545262D8
:104B8000322148483893F340128C0F33431000937E
:104B90004761113121222322222722132722133693
:104BA00022132632133532133532E3F310314F0F0F
:104BB000240F150F05C300BA042E665868771165D7
:104BC0002145224522C521B522450F21B326354472
:104BD00044E305D805287665662623232353361734
:104BE0006429A218C2164244444407081C042C221B
:104BF000312627F510F547532C249919B215B4BA6C
:104C00002736171611062898273D523414621625A8
:104C10003325731224A316633563266326531813B2
:104C200011292411222411120526691A2A335271DE
:104C3000355C2445434513441335132613152112BF
:104C40001321211243217606336882142B52C46447
:104C5000227A5474826448392A36218282638462BB
:104C6000845205332C020B3F5244B435124954345C
:104C700063163314323337333421336221626331A4
:104C80005274215265314205332C82113D44B435B2
:104C900041474534731212331441333733163132DE
:104CA000622162542162641143954205332C1A112A
:104CB0003134C4C444265363252347334633153166
:104CC000335221732173228221023F2EBB081D849F
:104CD000346C351632494842421142114304FF3DBB
:104CE0003B0C1641351727382242215211523B2CDA
:104CF0001A081F78C5644A53A3B5A615828912D134
:104D0000D1C101793F8E0D20423535311578765766
:104D10001542392322216376331E8F082413314430
:104D2000A4662613154B8566571E231B3421763146
:104D30001F9E0F2065759653172BC5A68849122311
:104D40002615413139DEB704225116265766161B47
:104D500011293331313163621171397EBF031A5227
:104D600016266656175B6622132642317DFFBF0664
:104D70000E1213131B2532327BFEBF0412171426AA
:104D8000162716222233715E970F21566666161F6C
:104D9000367262544412721263771301351C9F13EA
:104DA0001E5392474245AC768566572E131317154E
:104DB000311D0E0628837537A713162322B581C42B
:104DC000A697483A17232B1513613C0E0623B58787
:104DD00087880F548644755748392B17232B250392
:104DE00023380C0328484748280F324448A1F510BF
:104DF0006568584949584949352820180C2FC42757
:104E0000160F148427B226C216B2991592159298DD
:104E100058585816410680611A9B1DC7AAAB858554
:104E200094756666666676767605A0E99E851F9B14
:104E30007C7D6E665648574444341517263505CF99
:104E4000E33803189241F15063636363635344454D
:104E50008FEF33140D0F1D13A3B3A3033CCFF385C2
:104E60001C53444444444435353536352617183CE4
:104E70008FF702174544445453536362A3B2C101F0
:104E8000789EFF051193939453636272720179BE09
:104E9000FF020B636263728101F9FEFF04057281F8
:104EA00001FBFFFF0000FFFFFF0000FFFEFF0E0100
:104EB00001FFFEFF02033101FBFEFF0E0101FBFFBC
:104EC000FF0A033101FBFEFF1505223201FFBEFF81
:104ED0001105131303FF1CC7190F225167654749BA
:104EE00077037F1C861D27215171211575774B2172
:104EF00013233121273131354191017F0886212F3C
:104F0000111111111141B161C1621171C212D2337B
:104F100072725272621494057F0882371FC1B161A8
:104F2000D141F131F1F120612335A23101FFCE826F
:104F3000490BF313C333C307FFBF870917225285F9
:104F4000222342413332515101FFBF87050D132205
:104F500053D3D3C305FFBFC705101313539363295E
:104F60002223FFBFC7020F2123125393939303FF02
:104F7000BFCF010F1313131353534305FFFECF0D80
:104F8000091353433505FFFEFF0A0221FFFECF0937
:104F90000B131343353505FFFFFF0000FF7FFF0CA8
:104FA0000101FFBECF051113131313133C35350553
:104FB000FFFFFF0000FFBEDF040D141313137C314D
:104FC00001FFFED7030B151342E37101FF9ED78843
:104FD000126145444453423417177F5EE703183586
:104FE000455343F152441213124444FF9ED7831A8F
:104FF0003131315462532231513211131B7F5FD34F
:10500000021D223231317161628375225123713167
:1050100001FF9FC30311353525667869691405FBC7
:105020005EC30D17211B4371626292977869140564
:10503000795EC71A1B213335453445716262524887
:10504000383909713C970621F1F040117375757577
:10505000453516174775756506E338240132F3A008
:1050600011331111261121756535111126132713DE
:105070001813185C585858C3308C813D1111161103
:10508000133613462146213721361346217685856E
:1050900034513361A2326122713101455114031F31
:1050A000A3A3A3A3A3A3A3A3A3A3A3A3A3A3A30370
:1050B000715CD7012E44133414341415151515637F
:1050C0001234141515171717171717176998B6857F
:1050D00030135313631263216352334663525353A5
:1050E00063219393935353535322A8BA0237343610
:1050F000243724113544351641353836383656367E
:10510000243315333939353535058220388517E391
:10511000F3C5C5C4C412A411D3F403731CFF8125C5
:105120001421122326857414511253315321352131
:10513000267101F318F681272626351521561154BC
:10514000125421663166315622B1E10153907481C7
:105150004216111621242167555121534112242151
:1051600041212731312331213331214231814141E4
:1051700041416318BE063D7565165115641514410D
:105180001523411113137113137113222118221BBC
:10519000121C131313036118BE82327522842284F9
:1051A000227522752275126712671211A1C4E2E2FC
:1051B0002222222228DA3E832F544453445344535C
:1051C00034453445241144344544444444181414AB
:1051D00004347D9C82315332523243124532523272
:1051E0005222623252222727152145444444043476
:1051F0007D9C822D332442244224332433244224B0
:105200005124510F2D2745142135063ABE2E8230E8
:1052100032213221411142217211732181B1313584
:105220004453627272233123BCFF7E821453627135
:1052300062222251262241BDFF7E920C312251264C
:105240001232BDFFBE01140F222212653121172335
:1052500022BDFFFE910B232251162201BEFFBE810B
:105260001B2322312222225116133231312202BE57
:10527000FFBF811313233131223191312202BEFF4E
:10528000FE811313132232223142261202BFFFBEC7
:10529000821331314226223131222202BEFF7F04A5
:1052A0000E212222222232243EFF3C031E212222F2
:1052B000322512432476332123143422BEFFBC014D
:1052C00018131313633231813212113A313EBF2C5D
:1052D000881E3133832171A126272723227272333E
:1052E0002130BE0C8D23A669195114F1F030B12183
:1052F0002727176349496608B01C860B2C85316443
:10530000345335131A2A3948A6C4438152435413DF
:105310007689C82008000C3AF715E114D2147333CB
:10532000223D223D318CBA14C413E3134436231FAB
:10533000320F430F522408128542B5A6A7A7BA23FD
:1053400074321324316127217225227215233241D0
:1053500018336116731683159324B2270892023FFF
:105360004654539C16857D1418421413243112217F
:105370003362212158312189217621493148410860
:1053800001008882366AAC98E88841384132389109
:105390002882298223148323148318444D5D1387A4
:1053A0002028008C40559136B12552421661421694
:1053B000C1B8A95A1A411B311C3124256224256227
:1053C0002A6419561760180204381C331E22292437
:1053D00021392319343D4C5BF1F0F060D141932227
:1053E00051A132E1F32000008003422F210F12214E
:1053F0000F1211522C71BBAB15553234443334B4F7
:1054000019A1BB17E143F12011F212D300080001EA
:105410003AB234C225624216714216D1D6D7B79934
:105420008C8D6E15693416523416622B532A220065
:1054300002833E1B211E1F0F2E142E14631B821A83
:10544000921851512641634241F3F020F150F1404E
:10545000F2400804088B2ED424B1744255436551A0
:10546000C5B5A69B9C9C245624471B411A43600843
:105470000302360F130F132D143C1429141F8E280A
:1054800083E7E2518251D251C211F130F140000064
:10549000000A28BACABA5A425A42BABAAAAB24A5D2
:1054A00034A424A5ABACAC42086281361E11182589
:1054B000282528251F1F2E3D7553F410F320F320B7
:1054C00042344244515292000200812E511D81AC5F
:1054D000AB4B52464346434652A6AB25A425A4AB4C
:1054E000BBCACA400842922FA344A344B352D3D3A9
:1054F000C3A4665E4F0F310F321637253725370D9F
:10550000000008962AE6C9C9BABA33B43354332323
:1055100055334B335B41AB98893B3008060828E292
:10552000E2F260F1E5D6C7988B7C6D2E25284427E2
:105530004427250300C21220B2A3F2F0F070F4C891
:105540009A5D0F1D0F334D2D3408041926564869F6
:10555000235A235A23AAAB33A533A53396987A2C22
:1055600038880E892AA3B2B1B1B9B9353153442173
:1055700044223243A6A6262B3B4A3BDBEE82223254
:1055800031318184345222545352424424223231E4
:105590003B08EE101BC8C821658254745425216550
:1055A00042C8083D08F68228222222626E5F4556D4
:1055B000451352F14076616E2E2222223D08F6817B
:1055C000321313135317573557465537553755412F
:1055D000815114D21913111313137D1CF6240DA13C
:1055E000A3A283BB1103FF3CFE120F63636212464A
:1055F00011A701FF1CFE140F62A39241B2C8110350
:105600007D1DB6812A13131313171724113529147E
:10561000243214165112793517173D08B4823222FC
:1056200022226218652864295413245534316415E4
:10563000426359615C2626262100E48532375128D1
:1056400051285133319115E158532B531C532C6180
:105650009C9C5C5353532300CF881B848484F41098
:1056600085717563755475E3014F903CAA07D4D4D6
:10567000D403FF0CE39A15D3243115242E3D392A87
:105680002A0A3C0CCB0720717171616A6A5B5B6B03
:1056900026E2E282848484380EC39E258375757564
:1056A0008494536244627979137513757814047D78
:1056B0005EC78E232244354462224121324444385D
:1056C000143414341403791EC79B215344444354A7
:1056D000A33252135257574813441303791EC79CE1
:1056E0001D3435354463931362137175666666061F
:1056F000713CFF83199347575767569553441412CB
:1057000017070040100000FFFFFF0000FFFFFF0031
:1057100000FFFFFF0000FFFFFF0000FFFFFF000092
:10572000FFFFFF0000FFFFFF0000FFFFFF0000FF83
:10573000FFFF0000080B0002020200000904000045
:1057400001020200000524001001052401010104EA
:105750002402060524060001070581031000400904
:10576000040100020A0000000705020240000007D1
:105770000583024000000403090412010002EF0245
:10578000014041233680000101020301417264752A
:10579000696E6F204C4C430041726475696E6F20D6
:1057A0004C656F6E6172646F00008C3111241FBEF6
:1057B000CFEFDAE0DEBFCDBF11E0A0E0B1E0E6E977
:1057C000F8E602C005900D92AC32B107D9F725E09A
:1057D000ACE2B1E001C01D92A83DB207E1F71BE2C7
:1057E000C6EDDBE204C02197FE010E944334C53DB3
:1057F000D107C9F70E94AE310C9449340C940000D3
:1058000080E0EDE7F1E081118FEF00248193819337
:10581000819381930394D1F7089594E040E170E07F
:105820009150A8F09B01290F311D51E021FD54E05A
:1058300020FD550F22FD5295287F429FD001112453
:10584000A80FA358BE4F2C91252B2C93E9CF089578
:10585000FC0180917C01882311F13FB7F89482E02C
:105860008093E9002091F200822F90E0181619062B
:1058700014F481E090E0882339F0289844E64093BE
:105880007B014091F1004083222339F02091F20006
:10589000211103C02BE62093E8003FBF08958FEF4E
:1058A0009FEF08952FB7F89483E08093E9009091DB
:1058B000E800892F807295FF04C09091F20080E487
:1058C000891B2FBF08958091730181110DC082E063
:1058D00080936F0184E080937001109272011092A6
:1058E000710181E0809373018FE691E00895CF9379
:1058F000DF931F92CDB7DEB76983DC01ED91FC9198
:105900000280F381E02D41E050E0BE016F5F7F4FE8
:1059100009950F90DF91CF91089583E08093E9007E
:105920008091F200882319F08AE38093E8000895BB
:105930000E94522C90E00895CF93DF931F92CDB731
:10594000DEB7FC018485958597FD08C02FEF3FEFFA
:10595000358724870F90DF91CF910895CE0101966E
:105960000E94282C019719F4898190E0F3CF8FEFE2
:105970009FEFF0CF0F931F93CF93DF931F92CDB77D
:10598000DEB78C01FC018485958597FF0BC0CE01A5
:1059900001960E94282C019771F4898190E0F8010A
:1059A00095878487F801848595850F90DF91CF9145
:1059B0001F910F9108958FEF9FEFF1CFFC01848528
:1059C000958597FD0BC09FB7F89482E08093E9001E
:1059D0008091F2009FBF90E0019608959FB7F894E0
:1059E00082E08093E9008091F2009FBF90E00895EB
:1059F0004091690150916A012091670130916801DD
:105A000042175307B4F49091E8009570E1F3909138
:105A1000E80092FD19C08093F10080916901909196
:105A20006A0101968F739927892B19F48EEF809361
:105A3000E8008091690190916A01019690936A0152
:105A40008093690181E0089580E00895EF92FF92CC
:105A50000F931F93CF93DF93F82E192FE62E042F69
:105A600081E0860F880F0E94F82C83E00E94F82CBA
:105A7000CF2DD12FEC0EFD2EF11CCE15DF05B9F088
:105A800007FF13C0FE0184910E94F82C182F80E0BC
:105A90000E94F82C812321968111EFCFDF91CF91C5
:105AA0001F910F91FF90EF9008958881EDCF81E0D5
:105AB000F5CFDF92EF92FF920F931F93CF93DF9377
:105AC000D82E8A01EB017B01E40EF51ECE15DF0511
:105AD00059F0D7FE12C0FE0184910E94F82C219645
